:020000040800F2
:1000000068070020C10100085D260008A51E000841
:10001000552300082D0200087D2D00080000000077
:100020000000000000000000000000006126000841
:1000300011050008000000005F260008B92600082E
:10004000DB010008DB010008DB010008DB01000820
:10005000DB010008DB010008DB010008DB01000810
:10006000DB010008DB010008DB010008DB01000800
:10007000DB010008DB010008DB010008DB010008F0
:10008000DB01000861040008DB010008DB01000857
:1000900031020008DB010008DB010008DB01000879
:1000A000DB010008DB010008DB010008A1270008D4
:1000B000DB010008DB010008DB010008DB010008B0
:1000C000DB010008DB010008DB010008DB010008A0
:1000D000DB010008DB010008DB010008DB01000890
:1000E000DB010008DB010008DB010008DB01000880
:1000F000DB010008DB010008DB010008DB01000870
:10010000DB010008DB010008DB010008DB0100085F
:10011000DB010008DB010008DB010008DB0100084F
:10012000DB010008DB010008DB010008DB0100083F
:10013000DB010008DB010008DB010008DB0100082F
:10014000DB010008DB010008DB010008DB0100081F
:10015000DB010008DB010008DB010008DB0100080F
:10016000DB010008DB010008DB010008DB010008FF
:10017000DB010008DB010008DB01000800000000D3
:10018000DB010008DB010008DB0100080D2A000884
:10019000DB010008DB010008DB010008DB010008CF
:1001A0000000000000000000DB010008DFF80CD0B8
:1001B00000F02AF800480047BD2D0008680700201D
:1001C0000648804706480047FEE7FEE7FEE7FEE7F1
:1001D000FEE7FEE7FEE7FEE7FEE7FEE74D27000845
:1001E000AD010008D2B201E000F8012B491EFBD29C
:1001F00070470022F6E710B513460A460446194632
:10020000FFF7F0FF204610BD064C074D06E0E06802
:1002100040F0010394E8070098471034AC42F6D34D
:10022000FFF7C8FF242E0008442E0008FEE7000058
:10023000014800F0D7BA00006000002000B58BB084
:1002400000210122CDE90612039108920491019147
:1002500002910E2205910992044901631C31416308
:10026000694600F04BFA0BB000BD000020000020F2
:1002700001684A6942F002024A61FFF7DFBF70B5C8
:10028000066B0D0A049C3575056B6975056B110AC3
:10029000A975016BCA75026B190A1176016B4B7651
:1002A000026B210A9176006BC47670BD10B54FF4D5
:1002B000D872036802EB01129B5813F00404436BDD
:1002C0009C600468436BA45854D0E4085C600368E5
:1002D0009A58436B02F00202DA604FF4DA72036854
:1002E00002EB01129B58446B03F00F032361036878
:1002F0009A58436BC2F30722DA614FF4DC72036849
:1003000002EB01129B58446B237503689B58446BA6
:100310001B0A637503689B58446B1B0CA375036829
:100320009A58436B120EDA754FF4DE72036802EBD3
:1003300001129B58446B237603689B58446B1B0A3D
:10034000637603689B58446B1B0CA37603689A582A
:10035000436B120EDA762022002901680DD00A6163
:1003600001684A6922F010024A6190F83810222987
:1003700009D021E0640D1C60A9E7CA6001684A69E0
:1003800022F00202F0E701684A6922F480724A61B1
:1003900001684A6922F400724A6101684A6922F4DC
:1003A00080624A6101684A6922F400624A61016818
:1003B0004A6922F400424A6190F83810322907D085
:1003C0005FF0010180F8381000F0ACFB002010BD98
:1003D0001221F7E710B5026B1160026B5160026BDE
:1003E00000219160026BD160026B082111610A212A
:1003F00000F002FC08B1002010BD012010BD10B5B6
:1004000001684A6922F001024A6190F83810122905
:1004100018D101684A6922F480724A6101684A6908
:1004200022F400724A6101684A6922F480624A61DA
:1004300001684A6922F400624A6101684A6922F44B
:1004400000424A6190F83810322906D0012180F824
:10045000381000F09BFC002010BD2221F7E70000BF
:10046000014800F0DBBC00002001002001681823D7
:10047000CAB2103AB2FBF3F2054B6FF30901032A3B
:100480009B5CC36500D9091D816508467047000063
:100490001C2E000810B5014600208B698A6A4FF0B7
:1004A000C07453B1B3F5005F15D072B1012A0CD0FE
:1004B000022A0AD0032A09D104E01AB1012A06D07F
:1004C000022A03D1C96AC90100D5012010BDC96A39
:1004D000A142FAD010BD002AF7D0012AF2D0022A98
:1004E000F3D0032AF3D010BD30B50468256825F495
:1004F00080252560046863608368402B036803D00F
:1005000099600068C26030BD9A600068C16030BD0B
:100510007047FEE770B504462DED028B00F18805AB
:10052000061D00209FED298A287068709FED233AF0
:10053000DFED232A9FED232ADFED231AB0EE481AC0
:10054000DFED230AB0EE000A284601F0AFFFDFED31
:10055000212AB0EE482ADFED201AB1EE081AF0EE9B
:10056000000AB0EE000A284602F042F80225357073
:10057000032070709FED193ADFED192A9FED192ABB
:10058000DFED191AB0EE481AF0EE080AB0EE000AD4
:10059000304601F08BFFDFED152AB0EE482AF3EE6E
:1005A000041A9FED131AF0EE000AB0EE000A30466E
:1005B00002F01EF82570BDEC028B70BDEED8A3448E
:1005C00000409C4500409CC5E17A543F000000007B
:1005D0000AD7233C27A019419A99193EB205B64182
:1005E00000401C4500401CC500006B438AAB2A3EFE
:1005F0000000A04270B51B4D0446A84203D0A5F1EF
:10060000840084422DD117488838017804F14000D5
:10061000072926D2DFE801F00904181D04090E009D
:1006200001F0C2FE94ED1C0A17E0201DBDE87040E9
:1006300001F068BF01F0B8FE94ED1C0A201D01F026
:100640005DFF201D01F05EFFAC420AD19FED060A5E
:1006500003E0AC42E4D0B7EE000A201D01F04EFFEB
:10066000E3E770BD440200200000164370B5054664
:100670002DED028B002600789FED1B8A1B4C022873
:100680001FD003281AD195ED030AB5EEC00AF1EE8A
:1006900010FA12D01649286988420EDC15498842A2
:1006A0000BD82078401CC0B22070032806D101204E
:1006B000287085ED118A85ED128A2670BDEC028BBB
:1006C00070BD01210C4800F007FE0028F5D120780C
:1006D000401CC0B220700328F0D1287085ED328A0A
:1006E00085ED338AE9E700000000000008000020E3
:1006F0000000A0400000A0C000000240F0B50A7D4C
:1007000001209040344A136843F0010313601368DA
:1007100023F47C53136013684C6A43EA0423136088
:100720002D4B1C331C6884431C602B4D2B4CCE6915
:100730000C35A6B92E6886432E608F894E6867F304
:100740001F464F6904EBC707C7F840660F890E685C
:1007500067F31F464F6904EBC707C7F84466CE69C5
:10076000012E14D12E6806432E600E884D6866F364
:100770001F454E6904EBC606C6F840560E89CD6883
:1007800066F31F454E6904EBC604C4F84456124C88
:100790008D69241D002D256806D0054325600E4C6B
:1007A0000D69143415B104E08543F7E725688543E6
:1007B00025600D69012D02D1256805432560096A70
:1007C000012902D1196801431960106820F0010065
:1007D00010600020F0BD0000006600400060004096
:1007E0007047000010B5044600684169C943C90755
:1007F00014D182685849914368D000218368574AD0
:100800009A4365D0002283685548984362D00020FF
:100810001143014302D02046FFF7F1FD2068C16873
:10082000406911F0030FC0F3400004D018B100215B
:100830002046FFF73BFD21680869496910F0030F66
:10084000C1F3001104D019B101212046FFF72EFD9C
:1008500020688169426911F0010FC2F300234269E7
:10086000C2F3C03205D023B11AB1E16B41F00101EE
:10087000E1638169C1F3400341694269C1F34021E9
:10088000C2F3C0322BB121B11AB1E16B41F00201C8
:10089000E16381694269C1F38001C2F38023426947
:1008A000C2F3C03229B123B11AB1E16B41F00401A6
:1008B000E163816911F0700F0ED000214269436934
:1008C000C2F3C022C3F3C03341B127E0012195E751
:1008D000012298E701209BE70121EFE7F2B1EBB19C
:1008E000816901F07001402929D006DC102909D066
:1008F00020290BD030290DD11DE0502923D06029AB
:1009000008D124E0E16B41F0080102E0E16B41F025
:100910001001E163816921F070018161E06B0028C1
:1009200008D0216804204860012084F8380020465F
:10093000FFF756FF10BDE16B41F02001E9E7E16BE5
:1009400041F04001E5E7E16B41F08001E1E7E16B57
:1009500041F48071DDE7000003000004000300089B
:10096000000003102DE9F041040004D094F8380091
:10097000002518B107E00120BDE8F08184F8395066
:10098000204600F093F8022084F8380020680168BF
:1009900021F0020101602068016841F0010101605D
:1009A00000F0A4FC0746032605E000BF00F09EFC13
:1009B000C01B0A2863D820684068C007F6D02068AA
:1009C0004168C90768D0A169012901683FD021F0B9
:1009D00080010160E0690128206801683AD021F0B7
:1009E00040010160206A01282068016835D021F0AB
:1009F00020010160606A01282068016830D021F080
:100A000010010160A06A0128206801682BD021F044
:100A100008010160E06A01282068016826D021F001
:100A200004010160D4E902010843D4E9041211432E
:100A300008436168491E08432168C861206801684D
:100A400021F00101016000F051FC07461CE041F07B
:100A50008001BEE741F04001C3E741F02001C8E753
:100A600041F01001CDE741F00801D2E741F0040167
:100A7000D7E700BF00F03AFCC01B0A2804D904F8ED
:100A8000386F0320657077E720684068C007F1D1B0
:100A900020684068C00703D0042084F838006AE763
:100AA000E563012084F83800002065E710B586B0C2
:100AB000044614216846FFF79CFB174920688842CA
:100AC00027D116480021026842F0007202600068D7
:100AD00000F00070059011481038026842F00802DA
:100AE00002600068022200F0080005900320CDE9B2
:100AF0000210CDE90002092004906946084800F080
:100B000005FB02221146142000F09AFC142000F08C
:100B10008AFC06B010BD000000640040403802406E
:100B2000000C02407CB505462F4885425BD1686BBE
:100B30008168E9BBC168D9BB00682C4CA0F5007086
:100B4000053804D001280DD0022822D115E027490C
:100B5000284688310E4601F011FC2448FFF786FD37
:100B6000304607E0211D284601F008FC1F48FFF72A
:100B70007DFD201DFFF73EFD0BE01D4928460E467A
:100B800001F0FCFB1A48083801F002FA304601F087
:100B9000D3F917480021083890ED0E0ABDEEC00ABF
:100BA00010EE100A00B2CDE9000194ED0D0A00E04C
:100BB00010E0BDEEC00A40F2FF1110EE100A94EDF5
:100BC0002E0A03B2BDEEC00A10EE100A02B2284689
:100BD00001F0C1FB07490878401C0870286841698A
:100BE00041F0020141617CBD60000020BC01002099
:100BF000D0020020000000202DE9F05F0E460168C1
:100C000004468868400105D48868000102D48868D9
:100C1000C00067D594F8390001280ED0012784F868
:100C2000397094F8380022280AD0122084F838004D
:100C30008868400106D500250AE00220BDE8F09F43
:100C40003220F3E78868000101D5012500E0022584
:100C50004FF4C07000EB05100A5802F001020A5070
:100C6000216B8A68EAB3D4F800C05CF80030134303
:100C7000CA68496842EAC1010B434CF80030216B55
:100C80000A7C02F00F020A614FF4C271226801EB84
:100C90000511535823F00F03535022685358D4F8CA
:100CA00030C0DCF810C043EA0C035350216B4FF402
:100CB000C47303EB05130A7DD1F8151042EA012134
:100CC0002268D150216B4FF4C67303EB05130A7EE3
:100CD000D1F8191042EA01212268D15021680A583E
:100CE00001E00DE046E042F001020A5000F0FEFA99
:100CF00081464FF00008DFF888A0DFF888B019E0DF
:100D000022681358D1F80CC0098843EA0C0343EA5F
:100D100041511150B3E7701C0CD02EB100F0E6FA2F
:100D2000A0EB0900B04205D9032084F8380084F80C
:100D3000398083E795B12068012D816813D012486E
:100D400088430028E7D194F8380032280ED084F880
:100D5000387000BF84F8398000206FE72068816810
:100D60002AEA0100EDE72BEA0100EAE7222084F8F5
:100D70003800EFE7042084F8380001205EE7000027
:100D800003000004000300080000031070472DE971
:100D9000F0410446876D00F0A9FA064694F8350044
:100DA0000025022806D08020606584F83450012098
:100DB000BDE8F0812068016821F01601016020681B
:100DC000416921F080014161206C08B9A06C20B11B
:100DD0002068016821F0080101602068016821F0A5
:100DE000010101600BE000F081FA801B052806D9A3
:100DF0002020606504F8345F03206070D8E7206825
:100E00000068C007EFD194F85C103F208840B860BC
:100E100004F8345F012060700020C9E72DE9F84331
:100E200004464FF00008CDF8008064484FF4165196
:100E3000A56D0068B0FBF1F72E6894F85C100820EF
:100E400000FA01F131420FD021680A6852070BD530
:100E50000A6822F004020A6094F85C108840A860D6
:100E6000606D40F00100606594F85C105448884063
:100E7000304208D021684969090604D5A860606D30
:100E800040F0020060654E4894F85C10C01C884039
:100E9000304208D021680968890704D5A860606DD0
:100EA00040F00400606594F85C10102088403042E7
:100EB00018D021680968090714D5A860206801685E
:100EC000490304D50068000308D5A16C07E0016858
:100ED000C90503D4016821F008010160216C09B142
:100EE0002046884794F85C102020884030424FF01C
:100EF000010631D021680968C9062DD5A86094F88B
:100F0000350005282068016806D0490347D50068E8
:100F100000031DD4616C1CE021F016010160206803
:100F2000416921F080014161206C08B9A06C20B1B9
:100F30002068016821F00801016094F85C103F20EE
:100F40008840A86084F8348084F83560216D1FE003
:100F5000E16B09B120468847606D00282BD0606D99
:100F6000C00714D0052084F835002068016821F0FE
:100F7000010101600098401C0090B84203D820682D
:100F80000068C007F6D184F8348084F83560E16CDD
:100F9000002910D001B02046BDE8F04308470168A1
:100FA000C905D5D4016821F01001016084F83480AE
:100FB00084F83560CCE7BDE8F88300000400002029
:100FC000010080002DE9F041044600F08FF906464B
:100FD0005CB1002584F83450022084F83500206884
:100FE000016821F0010101600DE00120BDE8F08100
:100FF00000F07CF9801B052805D9202060650320BE
:1010000084F83500F2E720680068C007F0D1226854
:1010100011681F480140D4E901031843D4E903369D
:101020003343184363691843A3691843E3691843BA
:10103000236A18430843616A042903D1D4E90B13D6
:1010400019430843106020684069666A20F0070170
:1010500030460E43012704280AD1A06A06432046E1
:10106000FFF718FA20B14020606584F83570BCE7BE
:10107000206846612046FFF7F9F994F85C203F218B
:1010800091408160656584F835700020AEE700000E
:101090003F8010F02DE9F0410446866D90F8340051
:1010A000002501280DD0012084F8340094F8357013
:1010B0000020012F07D084F8340002252846BDE81F
:1010C000F0810220FBE7022784F835706065204636
:1010D000FFF70AFA94F85C103F208840B06020685F
:1010E000016841F0160101602068416941F080010A
:1010F0004161206C20B12068016841F00801016065
:101100002068016841F001010160D7E72DE9F84F3F
:10111000DFF890B100224FF001084FF0030A4FF0C2
:101120000F090BF1040E00BF0B6808FA02F423400C
:10113000A3426ED14D68022D01D0122D0ED1D508DB
:1011400000EB850CDCF820505607F70E09FA07F67D
:10115000B5430E69BE402E43CCF8206006685500AA
:101160000F790AFA05FC07F0030726EA0C06AF40E0
:10117000374307604E68012E05D0022E03D0112E92
:1011800001D0122E0ED18768CE6827EA0C07AE4038
:101190003E4386604668A6430C79C4F3001494402D
:1011A00034434460C4688E6824EA0C04AE4026438D
:1011B000C6604C68E4006FD53B4C256845F480451B
:1011C0002560246822F0030504F480440094374C21
:1011D0002E19D6F8084895072F0F09FA07F5AC43E2
:1011E000334DA84201D100252EE0324DA84201D155
:1011F000012529E0304DA84201D1022524E02F4DE0
:10120000A84201D103251FE02D4DA84202D104259B
:101210001AE041E02B4DA84201D1052514E02A4DEA
:10122000A84201D106250FE0284DA84201D107258B
:101230000AE0274DA84201D1082505E0254DA84226
:1012400001D1092500E00A25BD402543C6F808580C
:10125000DBF800405D464E689C43F60300D51C4316
:101260002C60DEF8004075464E689C43B60300D5FE
:101270001C432C600B4D08352C684E689C43F602CD
:1012800000D51C432C60074D0C352C684E689C43E0
:10129000B60200D51C432C60521C102AFFF444AF48
:1012A000BDE8F88F003C0140443802400030014066
:1012B000000002400004024000080240000C02400E
:1012C000001002400014024000180240001C0240BE
:1012D00000200240002402400069084000D00120A4
:1012E00070470AB1816170470904FBE70148006853
:1012F000704700001800002002480168491C016086
:1013000070470000180000200B4810B5016841F438
:1013100000710160016841F480610160016841F47D
:1013200080710160032000F0ABF8002000F006F8A7
:1013300000F018F8002010BD003C024010B5044633
:1013400007484FF47A710068B0FBF1F000F044FBFD
:1013500000222146501E00F073F8002010BD00004E
:10136000040000200B4882B0016841F48041016014
:10137000006800F4804000900648001F016841F0BA
:1013800080510160006800F080500090052002B09C
:1013900000F076B8443802402DE9F04116460F4679
:1013A000040004D094F83900002518B107E00120AA
:1013B000BDE8F08184F83850204600F0AFFC2420CE
:1013C00084F839002068C16821F40051C1602046CA
:1013D00001F07EFB2068016921F4904101612068E1
:1013E000416921F02A0141612068016921F00F0162
:1013F000016120680169394301612068C16821F4F5
:101400000061C1602068C1683143C1602068C16863
:1014100041F40051C160E563202084F8390084F86C
:101420003A000020C4E7002809DB00F01F02012178
:1014300091404009800000F1E020C0F800117047A1
:10144000F0B40E4B1B680C46C3F30223C3F107052F
:10145000042D00D90425191D072901D2002300E01D
:10146000DB1E012606FA05F1491E214099409E40E7
:10147000761E16403143F0BC01F081BC0CED00E05B
:10148000064900F0070208684FF6FF03184040EADB
:101490000220034A10430860704700000CED00E092
:1014A0000000FA052DE9F047DFF8649105460F4684
:1014B000D9F8000000F00F01F8B28046B94208D216
:1014C000014689F80010D9F8000000F00F00B8427A
:1014D00074D128784F4C800705D52068A96820F082
:1014E000F000084320602878C00759D0494968684F
:1014F000083901281AD002281BD0032819D00968FE
:10150000890700295ADA216821F00301014321608B
:10151000FFF7ECFE6968064641F28830012911D0D8
:1015200002291DD00329824627D035E009688903A6
:10153000E7E709688901E4E7FFF7D8FE811B514519
:1015400001D926E082462068C0F381000128F3D14A
:1015500026E000BFFFF7CAFE811B514501D918E004
:1015600082462068C0F381000228F3D118E000BF52
:10157000FFF7BCFE811B51450BD82068C0F38100EA
:101580000328F5D10CE000BFFFF7B0FE811B5145E9
:1015900002D90320BDE8F087206810F00C0FF3D1CA
:1015A000D9F80010484601F00F01B94208D980F877
:1015B0000080006800F00F00B84201D00120E9E788
:1015C0002878400705D52068E96820F4E0500843F2
:1015D00020602878000706D52068296920F460403B
:1015E00040EAC100206000F04BF82168F02292FA36
:1015F000A2F201F0F001B2FA82F2D140064A515C47
:10160000C840064908600020FFF798FE0020C1E7A7
:10161000003C0240083802400C2E00080400002064
:1016200008480949006809684FF4E05292FAA2F2AA
:1016300001F4E051B2FA82F2D140044A515CC84050
:101640007047000004000020083802400C2E0008FB
:1016500008480949006809684FF4604292FAA2F20A
:1016600001F46041B2FA82F2D140044A515CC840B0
:101670007047000004000020083802400C2E0008CB
:1016800030B51948006810F00C01184812D0184CF9
:1016900004290ED008290DD11349091F0A6802F048
:1016A0003F030A68550247F6C07204D5B4FBF3F055
:1016B00003E0204630BDB0FBF3F00B68096813402F
:1016C00092FAA2F2B2FA82F2D34058434FF4403277
:1016D00092FAA2F201F44031B2FA82F2D140491CEE
:1016E0004900B0FBF1F030BD083802400024F4009E
:1016F000001BB7002DE9F84F0446DFF8CC820078D4
:10170000A8F1040BC007ABF1040537D0D8F80010DE
:101710004046C1F38101012908D00068C0F381006F
:1017200002280AD1DBF80000400206D528688003B1
:1017300024D56068002878D020E0A3492079891F4B
:101740000870606868B1FFF7D1FD064605E000BF8C
:10175000FFF7CCFD801B642868D828688003F7D584
:101760000CE0FFF7C3FD064605E000BFFFF7BEFD36
:10177000801B6428F0D828688003F7D42078934E23
:1017800080074FF0010A4FF0000742D5D8F800104B
:10179000404611F00C0F08D00068C0F38100022809
:1017A0000AD1DBF80000400206D42868800714D56F
:1017B000E068012839D110E0E068D8B1C6F800A08F
:1017C000FFF794FD814605E0FFF790FDA0EB0900CF
:1017D0000228C1D828688007F6D52868F82292FA2E
:1017E000A2F22169B2FA82F220F0F8009140084397
:1017F00028600EE03760FFF779FD814606E000BF04
:10180000FFF774FDA0EB090002280FD828688007B5
:10181000F6D42078000728D56D486169A1B1C0F8D9
:1018200000A0FFF763FD814608E0CAE079E000BF51
:10183000FFF75CFDA0EB0900022872D862486C300B
:1018400000688007F4D510E00760FFF74FFD814680
:1018500006E000BFFFF74AFDA0EB0900022860D8B0
:1018600059486C3000688007F4D42078400749D587
:1018700055483830016841F080510160006800F03F
:10188000805000905348016841F480710160FFF777
:101890002DFD814606E000BFFFF728FDA0EB090003
:1018A00002283ED84B480068C005F5D5DFF81891EE
:1018B000207A09F1680989F80000A06888B1FFF76B
:1018C00015FD009008E000BFFFF710FD0099411AD8
:1018D00041F2883081426CD8D9F800008007F3D5F6
:1018E00010E0FFF703FD009008E000BFFFF7FEFCEB
:1018F0000099411A41F2883081425AD8D9F8000043
:101900008007F3D4A069E0B3D8F80010C1F38101D7
:10191000022956D00228376604D0FFF7E7FC0446B8
:101920004AE046E0FFF7E2FC074604E0FFF7DEFC92
:10193000C01B02283DD828688001F7D4D4E90701EC
:10194000084347F6C07292FAA2F2616AB2FA82F2D2
:101950009140A26A4FF0FF3303EB52024FF4403341
:1019600093FAA3F3B3FA83F39A40114308434FF079
:10197000706292FAA2F2E16AB2FA82F291400843EE
:1019800000E01CE0CBF80000C6F860A0FFF7AEFC5A
:10199000044604E0FFF7AAFC001B022809D82868C7
:1019A0008001F7D50BE000BFFFF7A0FC001B022869
:1019B00002D90320BDE8F88F28688001F4D4002004
:1019C000F8E70120F6E7000008380240000047422F
:1019D000800E47420070004010B5401EB0F1807F7D
:1019E00001D3012010BD4FF0E02460610F2160178A
:1019F00001F0C5F90020A06107202061002010BD82
:101A000030B590F83820012A19D0012200F8382F7B
:101A100002234370D1E900342343D1E902452C432A
:101A200023430C6923434C69896923430B4350F8D2
:101A3000381C4B64427000210170084630BD022002
:101A400030BD30B590F83820012A20D0012280F82E
:101A50003820022380F8393003685C6824F0700471
:101A60005C6003685C680D682C435C6003689C687C
:101A700024F080049C6003689C6849680C439C6067
:101A800080F83920002180F83810084630BD022047
:101A900030BD000070B586B0044614216846FEF7DC
:101AA000A8FB17492068884228D11648016841F0F0
:101AB00001010160016801F001010591016841F037
:101AC000100101600068022400F0100005904FF43E
:101AD0008070CDE9000402AA0325012682E8700087
:101AE00069460948FFF712FB6003CDE9000402AA2A
:101AF000694682E870000548FFF708FB06B070BD34
:101B00000000014030380240000002400010024056
:101B100070B5044690F838000D4601280DD0012616
:101B200084F83860022084F8390042B1042A18D0C1
:101B3000082A2AD00C2A4DD139E0022070BD206835
:101B400000F0AEFE2068816941F0080181612068E3
:101B5000816921F004018161206881692A6911434A
:101B600011E0206800F0C8FE2068816941F400613E
:101B700081612068816921F48061816120688169C7
:101B80002A6941EA0221816124E0206800F0E6FE32
:101B90002068C16941F00801C1612068C16921F074
:101BA0000401C1612068C1692A69114311E02068FC
:101BB00000F004FF2068C16941F40061C161206840
:101BC000C16921F48061C1612068C1692A6941EA63
:101BD0000221C16184F83960002084F8380070BDAA
:101BE00010B5040003D094F8390010B107E00120CB
:101BF00010BD002084F83800204600F00DF80220C7
:101C000084F83900211D206800F0DEFD012084F8F1
:101C10003900002010BD000008B500680B4988425B
:101C200012D10B48016841F00101016000680222F5
:101C300000F00100009011461B20FFF701FCBDE8F9
:101C400008401B20FFF7EFBB08BD0000000001406B
:101C50004438024010B50268044631B1042908D066
:101C6000082920D00C2908D121E0D06840F00200DA
:101C700002E0D06840F00400D0600122206800F04B
:101C800003FE0D492068884202D00C49884203D1E6
:101C9000416C41F4004141642068016841F0010158
:101CA0000160002010BDD06840F00800E4E7D06873
:101CB00040F01000E0E70000000001400004014097
:101CC00010B504460068416994F83920C1F3C01189
:101CD000212A0BD151B1416921F080014161206B72
:101CE00008B1FFF754F8204600F0E8FE206841698B
:101CF00094F83A20C1F38011222A0BD151B14169E5
:101D000021F040014161606B08B1FFF740F82046C7
:101D100000F0C6FE002010BD70470000F0B587B08F
:101D2000064614216846FEF764FA3449DFF8C8E035
:101D3000D6F800C0002531481039022303220827B5
:101D40002F4CF4451AD1066846F0804606600068BC
:101D500000F080400590086840F0100008600868B6
:101D6000694600F010000590D0018DE82900CDE90A
:101D700003272046FFF7CAF907B0F0BDDFF884E07B
:101D8000F445F9D1D0F800C04CF0004CC0F800C0C8
:101D9000006800F000400590086840F010000860FE
:101DA00008688DE82C0000F01000CDE90470694649
:101DB00003922046FFF7AAF9144C1348206000054F
:101DC000C4E901054FF48060C4E903506561A56171
:101DD000E561256220466562FFF7F4F808B1FEF779
:101DE00098FB7463022200215320A663FFF728FBAF
:101DF0005320FFF718FBBFE700780040403802404F
:101E000000100240007C0040A06002402001002041
:101E100070B5044690F83A00202839D1A9B3A2B38E
:101E200094F83800012833D0012084F83800A162EA
:101E3000A2850025E563222084F83A00636B1548EB
:101E4000D863636B14481864636B1448D864606B80
:101E5000134605650846666B216802463046091D33
:101E6000FFF718F92068C16841F48071C1602068EB
:101E7000416941F0010141612068416941F040013F
:101E8000416184F83850002070BDFFE70120FBE776
:101E90000220F9E75B2A0008972A0008112A0008A7
:101EA00070477047FEE7000010B5044601209FED23
:101EB0000E0A20726072F1EE082A9FED092ADFED0A
:101EC000091AB2EE021AF0EE400A04F1080000F01E
:101ED0008FFB9FED060A022084ED010A207010BDE1
:101EE00000000000CDCCCC3E00007A440000E1436D
:101EF00010B590ED040A00230C4AB5EEC00AF1EECD
:101F000010FA0FD00A4C4169A1420BDC094CA142E6
:101F100008D89178491CC9B291700A2903D39370EB
:101F2000032010BD9370007810BD00001400002045
:101F30000000A0410000A0C110B504461048844232
:101F40001CD108380178B1B1012907D0022902D08B
:101F5000032908D10CE090ED010A01E09FED090A88
:101F6000201D00F0CBFA201DBDE8104000F0CABAD9
:101F70009FED050AF4E79FED050AF1E710BD0000AB
:101F8000D0020020000000000000C8C2000034425F
:101F90002DE9F041054600780026184C0327A0B132
:101FA00002280CD0032808D12078401CC0B2207031
:101FB000C82802D3022028702670BDE8F081284688
:101FC000FFF796FF03280DD0F7E72846FFF790FFAD
:101FD000032807D04FF400710948FFF77DF9012865
:101FE00002D009E02F70E8E76078401CC0B2607052
:101FF0000228E2D1012028706670DEE7140000207C
:1020000000200240104810B50E49016002214160D5
:1020100000214FF450228160C0E903124FF4A00266
:10202000C0E905210122C161C0E90812C0E90A1214
:10203000FEF798FC002803D0BDE81040FEF769BA0F
:1020400010BD00000064004060000020094808B591
:10205000016841F4001101600068002200F40010E2
:10206000009011461120FFF7EBF9BDE80840112060
:10207000FFF7D9B930380240F0B587B0142168466F
:10208000FEF7B7F829480025016841F0100101600A
:10209000016801F010010591016841F04001016003
:1020A000016801F040010591016841F008010160FB
:1020B000016801F008010591016841F48071016037
:1020C000016801F480710591016841F0010101602E
:1020D000016801F001010591016841F08001016092
:1020E0000068012200F08000114F54030590214642
:1020F0003846FFF7F6F802260320CDE90260009487
:102100000124694601943846FFF700F860028DE823
:10211000610069460748FEF7F9FFCDE900456946C9
:1021200005480294FEF7F2FF07B0F0BD30380240D8
:1021300000180240002002400000024010B590B09C
:1021400000240E941C2168460F94FEF752F81C21BF
:1021500007A8FEF74EF8254823490160A721C0E9EA
:10216000011440F2CF71C0E903144461FFF738FD58
:1021700008B1FEF7CEF90E940EA91C480F94FFF794
:1021800060FC08B1FEF7C5F96020009040F2E7302E
:10219000CDE9010403940494059400226946134890
:1021A0000694FFF7B5FC08B1FEF7B3F90C226946B7
:1021B0000E48FFF7ADFC08B1FEF7ABF907940894A1
:1021C00009944FF400500A94CDE90B4007A9074841
:1021D0000D94FFF715FC08B1FEF79BF90348FFF7D4
:1021E00059FC10B010BD000000000140800100202B
:1021F0000D4810B50B4901604FF4E13141600021F9
:1022000081600C22C160C0E9041281610A46C1618B
:10221000FFF7C2F8002803D0BDE81040FEF779B9F7
:1022200010BD000000780040A00000200D4810B54F
:102230000B4901604FF4E1314160002181600C22C3
:10224000C160C0E9041281610A46C161FFF7A4F8C8
:10225000002803D0BDE81040FEF75BB910BD0000B8
:10226000007C0040E000002005480068C16841F0A3
:102270001001C160122203490148FFF7C9BD0000E7
:10228000E00000205403002000280ED0074950F839
:10229000013F01F18002C1F8CC3043688B64836850
:1022A0001361C268CA60007C08707047BC010020DE
:1022B00038B5214800680168C943C9063BD40168A4
:1022C000406800901D4800681C48001D00681C4CB8
:1022D0001C4A4FF400102168914202D919494C3927
:1022E00004E0194A914203D916495039086008E0C0
:1022F000154B154A603BB83A994201D9D06000E0CD
:1023000090600D48FFF7DCFC206840680F4CC0F17E
:102310001200122220600E490748FFF779FD20685D
:10232000122808D10A480078502804D1BDE8384066
:102330000748FFF7A9BF38BDE0000020007C00403F
:102340002001002058640240B86002401C000020B8
:1023500054030020FEE7F8B51E460546DDE90630C9
:1023600017460C460090324639462846FDF787FF4F
:1023700021462846BDE8F840FEF72CB8426B928A09
:1023800052BA12B200EE102AB8EEC00A81ED120A5B
:10239000406BC08A40BA00B200EE100AB8EEC00A24
:1023A00081ED030A70470000D0ED020A90ED030AA8
:1023B000C0ED030AB6EE001A30EEC00AD0ED040AF2
:1023C00020EE811AB4EEC01AF1EE10FA02D230EE0D
:1023D000600A0AE0BEEE001A20EE811AB4EEC01ABE
:1023E000F1EE10FA01DD30EE800AD0ED0F0A2B4A33
:1023F00080EE201A90ED010A30EE410A80ED010ACC
:10240000D0ED001A20EE200A31EE211A80ED001ADC
:1024100090ED0A1A80ED0B1A80ED0A0AD0ED090A38
:1024200070EE800A10EE901AC0ED090A914203DBAB
:10243000DFED1B0AC0ED090A10EE901A194A91420D
:1024400003D3DFED190AC0ED090A70EE410A90EDE1
:10245000061AD0ED091A21EE000A90ED071A01EED6
:10246000210A90ED081A01EE200A80ED0C0AD0ED49
:102470000E0AB4EEE00AF1EE10FA02DAF0EE400ACB
:1024800001E0C0ED0C0A90ED0D0AF4EEC00AF1EE89
:1024900010FA01D880ED0C0A7047000000401C467D
:1024A00000401C4600401CC600401CC6DFED113A2F
:1024B00000F15402C0ED113AC0ED193AC0ED1A3ADC
:1024C000C0ED1B3AC0ED1C3A80ED1D2AC0ED1E2A5E
:1024D000012182EC040A80F8801041789FED060A01
:1024E00019B1012901D0032901D180ED140A80ED31
:1024F0001F3A70470000000000F8FF4580ED010A18
:1025000070470000D0ED010A90ED031A90ED000A2B
:1025100070EEC11AF4EEC01AF1EE10FA02DD30EEE0
:10252000010A0AE090ED041A70EE811AF4EEC01A66
:10253000F1EE10FA04D230EE410A80ED000A01E01B
:10254000C0ED000AD0ED090A254AC0ED0A0A90ED57
:10255000020A90ED001AD0ED0E1A11EE210A80ED5C
:10256000090A30EE601AD0ED080A70EE800A10EE0B
:10257000901AC0ED080A914203DBDFED1A0AC0EDA4
:10258000080A10EE901A184A914203D3DFED170A99
:10259000C0ED080AD0ED050AD0ED081A20EE800A39
:1025A000D0ED060A00EEA10AD0ED070A00EE810A7E
:1025B00080ED0B0AD0ED0D0AB4EEE00AF1EE10FA50
:1025C00002DAF0EE400A01E0C0ED0B0A90ED0C0AD1
:1025D000F4EEC00AF1EE10FA01D880ED0B0A704754
:1025E00000401C4600401C4600401CC600401CC663
:1025F0009FED153A00F1100180ED023A80ED013AAD
:1026000080ED093A80ED0A3A80ED0B3A80ED0C3A04
:10261000C0ED0F2A81EC050A41789FED0C0ADFED31
:102620000C0A61B101290AD0032907D19FED090ADB
:1026300080ED0D0A9FED080A80ED0E0A704780EDCF
:102640000D0AC0ED0E0A70470000000000606AC667
:1026500000606A4600409CC600409C467047704738
:102660007047000010B500F0A5F800210648FFF7FC
:10267000F1FA0C210448FFF7EDFA044840F2135137
:1026800041600121017010BD800100200C0000207C
:102690000078002803D1024940F2E73048607047D3
:1026A0000C00002002484168024841630164704701
:1026B0000C00002000000140FEF71EBE30B593B0B4
:1026C00030216846FDF795FD14210CA8FDF791FD1A
:1026D0001C480025016841F080510160006800F04D
:1026E000805011901848016841F440410160006831
:1026F000022400F4404011900120009001908005D8
:10270000CDE906400C2008904FF4A870CDE90904EB
:1027100004200B906846FEF7EDFF00B1FEE70CA920
:102720000F2081E831004FF4A0500F904FF48050FB
:10273000109005210CA8FEF7B5FE002800D0FEE79A
:1027400013B030BD403802400070004010480168AE
:1027500041F4700101600F48016841F0010101601E
:102760000C4A00210832116002680B4B1A400260CB
:10277000031D0A4A1A60026822F48022026005489A
:102780000C3001600249580680390860704700002B
:1027900088ED00E000380240FFFFF6FE1030002414
:1027A00010B50348FFF774FFBDE81040FFF77ABF8C
:1027B0000C00002003480068016841F0010101603D
:1027C0007047000080010020F0B50268234B244DC3
:1027D000244E254F254C4FF0804C984209D060453F
:1027E00007D0A84205D0B04203D0B84201D0A042E1
:1027F00004D122F0700E4A6842EA0E0298421BD0C1
:10280000604519D0A84217D0B04215D0B84213D0B5
:10281000A04211D0164DA8420ED0164DA8420BD0A2
:10282000154DA84208D0154DA84205D0144DA84218
:1028300002D0144DA84203D122F44075CA682A433D
:1028400002608A68C2620A688262984201D0A0422D
:1028500001D10969016301214161F0BD000001401E
:102860000004004000080040000C0040000401404B
:102870000040014000440140004801400018004071
:10288000001C00400020004010B50123046A8B406A
:102890009C430462036A8A401343036210BD000034
:1028A00030B5026A22F001020262026A436884695A
:1028B0000D6824F07304254322F002048A68224341
:1028C0000B4CA04202D00B4CA0420BD122F00804CA
:1028D000CA6823F4407322434C6922F004021C436B
:1028E0008B6923434360856149684163026230BD5F
:1028F000000001400004014030B5026A22F01002DD
:102900000262026A436884690D6824F4E64444EA7A
:1029100005248D6822F0200242EA05120D4DA842DE
:1029200002D00D4DA8420ED1CD6822F0800242EABD
:1029300005124D6923F4406343EA85038D6922F053
:10294000400243EA8503436084614968816302620F
:1029500030BD0000000001400004014030B5026AB3
:1029600022F480720262036A4268C46923F400732D
:1029700024F073050C682C438D6843EA05230D4D44
:10298000A84202D00C4DA8420ED1CD6823F40063BA
:1029900043EA05234D6922F4405242EA05128D694B
:1029A00023F4806342EA05124260C4614968C1634E
:1029B000036230BD000001400004014030B5026AEE
:1029C00022F480520262046A4268C3690D6823F4EB
:1029D000E64343EA05238D6824F4005444EA0534B1
:1029E000084DA84202D0084DA84204D14D6922F4F6
:1029F000804242EA85124260C36149680164046210
:102A000030BD00000000014000040140FFF750BC51
:102A100070B5846B2068406994F83910C0F3C01019
:102A20000025212904D118B1E584204600F046F89C
:102A30002068406994F83A10C0F38010222904D12C
:102A400018B1E585204600F02BF8E06B40F010004F
:102A5000E0632046FFF760F970BD10B50146806B5A
:102A600009680968C90513D40021C1850168CA68CD
:102A700022F48072CA6001684A6922F001024A6148
:102A800001684A6922F040024A61202180F83A1028
:102A9000FFF706FA10BD10B5806BFFF702FA10BD04
:102AA0000168CA6822F49072CA6001684A6922F01B
:102AB00001024A61202180F83A1070470168CA6813
:102AC00022F0C002CA60202180F83910704700004F
:102AD0002DE9F04104460068016921F44052E168A3
:102AE000114301612168C86849F20C62904323696F
:102AF000A268E5691A4363692B431A430243CA601B
:102B00002168486920F44072A06910434861E16976
:102B10006425B1F5004F9748974A21684FF0320875
:102B20003FD0914201D081427CD1FEF791FD00EB74
:102B3000C00101EB001061688900B0FBF1F6FEF7FF
:102B400087FD00EBC00101EB001061688900B0FB5C
:102B5000F1F0B0FBF5F06FF01801484306EB80018F
:102B600008EB0110B0FBF5F000F0F006FEF770FD89
:102B700000EBC00101EB001061688900B0FBF1F0CF
:102B8000B0FBF5F006EB0016FEF762FD00EBC001AE
:102B900001EB001061688900B0FBF1F7FEF758FD0A
:102BA000D2E0914201D081423DD1FEF751FD00EBD0
:102BB000C00101EB001061684900B0FBF1F0B0FB0F
:102BC000F5F00601FEF744FD00EBC00101EB00103B
:102BD00061684900B0FBF1F7FEF73AFD00EBC00178
:102BE00001EB001061684900B0FBF1F0B0FBF5F0BB
:102BF0006FF01801484307EB800108EBC100B0FB00
:102C0000F5F000F0F80006EB4006FEF721FD00EBC2
:102C1000C00101EB001061684900B0FBF1F7FEF75D
:102C200017FD3CE055E0FEF7FBFC00EBC00101EBBB
:102C3000001061684900B0FBF1F0B0FBF5F006014F
:102C4000FEF7EEFC00EBC00101EB001061684900EB
:102C5000B0FBF1F7FEF7E4FC00EBC00101EB001064
:102C600061684900B0FBF1F0B0FBF5F06FF01801BE
:102C7000484307EB800108EBC100B0FBF5F000F022
:102C8000F80006EB4006FEF7CBFC00EBC00101EBC1
:102C9000001061684900B0FBF1F7FEF7C1FC00EBE2
:102CA000C00101EB001061684900B0FBF1F0B0FB1E
:102CB000F5F06FF01801484307EB800108EBC10005
:102CC000B0FBF5F000F00700216830448860BDE8F3
:102CD000F081FEF7A5FC00EBC00101EB001061687C
:102CE0008900B0FBF1F6FEF79BFC00EBC00101EBA5
:102CF000001061688900B0FBF1F0B0FBF5F06FF0F7
:102D00001801484306EB800108EB0110B0FBF5F019
:102D100000F0F006FEF784FC00EBC00101EB0010B0
:102D200061688900B0FBF1F0B0FBF5F006EB00162E
:102D3000FEF776FC00EBC00101EB00106168890032
:102D4000B0FBF1F7FEF76CFC00EBC00101EB0010EB
:102D500061688900B0FBF1F0B0FBF5F06FF018018D
:102D6000484307EB800108EB0110B0FBF5F000F0E1
:102D70000F00A9E70014014000100140FEE7090719
:102D8000090E002804DB00F1E02080F800147047F1
:102D900000F00F0000F1E02080F8141D704702E001
:102DA00008C8121F08C1002AFAD1704770470020D6
:102DB00001E001C1121F002AFBD17047FEF7A4FAFF
:102DC000FFF77CFCFFF758F9FFF740F9FFF71AF916
:102DD000FFF70EFAFFF72AFAFFF7B0F90748FDF7F9
:102DE00047FA0748FDF796FB0648FFF75DF80648E7
:102DF000FFF738FCFFF738FAFEE70000600000201C
:102E0000BC010020C80200200C00002000000000CF
:102E10000102030401020304060708090006101654
:102E200000061016442E00080000002020000000BC
:102E30009E2D0008642E0008200000204807000096
:102E4000AE2D0008000000000024F4000000000087
:102E50000000000000000000000000000000000072
:042E6000000000006E
:04000005080001AD41
:00000001FF
