:020000040800F2
:10000000C0070020C101000889260008032200085B
:10001000E92300084D050008DD2B00080000000062
:10002000000000000000000000000000AD260008F5
:10003000710A000800000000AB260008AF26000887
:10004000DB010008DB010008DB010008DB01000820
:10005000DB010008DB010008DB010008DB01000810
:10006000DB010008DB010008DB010008DB01000800
:10007000DB010008DB010008DB010008DB010008F0
:10008000DB01000879080008DB010008DB0100083B
:1000900051050008DB010008DB010008DB01000856
:1000A000DB010008DB010008DB010008DB010008C0
:1000B000DB010008DB010008DB010008DB010008B0
:1000C000DB010008DB010008DB010008DB010008A0
:1000D000DB010008DB010008DB010008DB01000890
:1000E000DB010008DB010008DB010008DB01000880
:1000F000DB010008DB010008DB010008DB01000870
:10010000DB010008DB010008DB010008DB0100085F
:10011000DB010008DB010008DB010008DB0100084F
:10012000DB01000885080008DB010008DB0100088E
:10013000DB010008DB010008DB010008DB0100082F
:10014000DB010008DB010008DB010008DB0100081F
:10015000DB010008DB010008DB010008852B00083B
:10016000DB010008DB010008DB010008DB010008FF
:10017000DB010008DB010008DB01000800000000D3
:10018000DB010008DB010008DB010008B1270008E3
:10019000DB010008DB010008DB010008DB010008CF
:1001A0000000000000000000DB010008DFF80CD0B8
:1001B00000F07EF800480047012C0008C00700202E
:1001C0000648804706480047FEE7FEE7FEE7FEE7F1
:1001D000FEE7FEE7FEE7FEE7FEE7FEE75D27000835
:1001E000AD01000800F0004230F000400AD0C10D1F
:1001F00001F56071C0F3160042EA0151C2084007E0
:100200001143704700200146704701F0004330B4AD
:1002100021F0004150EA010206D00A0DA2F56072F9
:10022000C1F31301002A02DC30BC00207047440FE8
:1002300044EAC104C100E01830BC00EBC250AFF387
:1002400000800029A8BF7047401C490008BF20F06B
:100250000100704710B4B0FA80FC00FA0CF050EACC
:10026000010404BF10BC704749B1CCF1200421FA4D
:1002700004F411FA0CF118BF012121430843A3EB48
:100280000C01CB1D4FEA00614FEA102042BF002055
:1002900010BC704700EBC35010440029A4BF10BC31
:1002A0007047401C490008BF20F0010010BC704797
:1002B000064C074D06E0E06840F0010394E80700B3
:1002C00098471034AC42F6D3FFF774FF5C2C00085B
:1002D0007C2C000805480068C16841F01001C1602D
:1002E00032220349014801F0E5BE00001801002058
:1002F0008402002070B500287ED06A4C9FED662AEB
:100300009FED661A9FED660A67490023DFED672AB5
:1003100003EB430202EBC302855C552D3BD1D2B205
:1003200002445578512D4DD0522D72D0532D02D00C
:10033000542D30D130E055885D4E00EE905AF8EEE5
:10034000600A60EE810A60EE820A10EE905AC1EDFA
:10035000090AB54205DDDFED571A70EEE10AC1ED7D
:10036000090AF1EE600AC1ED090A958800EE905A7B
:10037000F8EE600A60EE810A60EE820AC1ED0B0AB7
:10038000D28800EE902AF8EE600A60EE810A60EEF4
:10039000820AC1ED0A0A79E0558800EE905AF8EE1B
:1003A000600AC1ED060A958800EE905AF8EE600AE0
:1003B000C1ED070AD28800EE902AF8EE600AC1ED7E
:1003C000080A63E0558800EE905AF8EE600A60EE85
:1003D000811AF0EE000A61EEA01AC1ED001A9588AC
:1003E00001EE905AF8EE611A61EE811A61EEA01AE0
:1003F000C1ED011AD28801E04DE00AE001EE902A39
:10040000F8EE611A61EE811A61EEA00AC1ED020AEE
:100410003CE0558800EE905AF8EE600A60EE810AE2
:1004200060EE800A10EE905AC1ED030AA54203DD8A
:1004300070EEE20AC1ED030AF1EE600AC1ED030AB3
:10044000958800EE905AF8EE600A60EE810A60EE40
:10045000800A10EE905AC1ED040AA54203DD70EE49
:10046000E20AC1ED040AD28800EE902AF8EE600A92
:1004700060EE810A60EE800A10EE902AC1ED050A56
:10048000A24203DD70EEE20AC1ED050A5B1CDBB29D
:10049000032BFFF43DAF70BD000034430000003873
:1004A0000000FA440000FA444402002000007A45AB
:1004B000000034430000B44338B51E4800680168AA
:1004C000C943C90634D40168406800901A480068DE
:1004D0001948001D0068194C194A2168D01491422E
:1004E00002D917494C3904E0164A914203D91449FC
:1004F0005039086008E0134B124A603BB83A994201
:1005000001D9D06000E090600A4801F0FAFC206850
:1005100040683222C0F13200C4B20B49054801F0F4
:10052000C9FD162C04D1BDE838400748FFF7E2BEEC
:1005300038BD00001801002000140140B80100205F
:1005400058640240B860024084020020FEE70000C8
:10055000014800F0CBBB00005800002000B58BB074
:1005600000210122CDE90612039108920491019124
:1005700002910E2205910992044901631C314163E5
:10058000694600F03FFB0BB000BD000018000020E2
:1005900070B5066B0D0A049C3575056B6975056BA6
:1005A000110AA975016BCA75026B190A1176016BE4
:1005B0004B76026B210A9176006BC47670BD000009
:1005C00010B54FF4D872036802EB01129B5813F078
:1005D0000404436B9C600468436BA45854D0E40843
:1005E0005C6003689A58436B02F00202DA604FF4D1
:1005F000DA72036802EB01129B58446B03F00F039D
:10060000236103689A58436BC2F30722DA614FF4FF
:10061000DC72036802EB01129B58446B237503687C
:100620009B58446B1B0A637503689B58446B1B0CF7
:10063000A37503689A58436B120EDA754FF4DE7295
:10064000036802EB01129B58446B237603689B58A6
:10065000446B1B0A637603689B58446B1B0CA376A0
:1006600003689A58436B120EDA762022002901683B
:100670000DD00A6101684A6922F010024A6190F8BF
:100680003810222909D021E0640D1C60A9E7CA6056
:1006900001684A6922F00202F0E701684A6922F41F
:1006A00080724A6101684A6922F400724A610168F5
:1006B0004A6922F480624A6101684A6922F4006250
:1006C0004A6101684A6922F400424A6190F8381090
:1006D000322907D05FF0010180F8381000F09CFC4F
:1006E000002010BD1221F7E710B5026B1160026BFC
:1006F0005160026B00219160026BD160026B082196
:1007000011610A2100F0BAFC08B1002010BD0120DF
:1007100010BD10B501684A6922F001024A6190F8E3
:100720003810122918D101684A6922F480724A618E
:1007300001684A6922F400724A6101684A6922F438
:1007400080624A6101684A6922F400624A61016874
:100750004A6922F400424A6190F83810322906D0E2
:10076000012180F8381000F053FD002010BD222137
:10077000F7E70000002815D00178502912D10A4966
:1007800050F8012F0A6342684A6382688A63C2682C
:10079000CA63064A017C1170054A417C1170054903
:1007A000807C087070470000440200201400002084
:1007B0001600002017000020F8B5204C0120207002
:1007C0001F4800680168C943C90636D4016800257E
:1007D000406800901B4800681A48001D00681A4EC7
:1007E0001A4A4FF400103168914202D917494C3926
:1007F00004E0174A914203D914495039086008E0CF
:10080000134B134A603BB83A994201D9D06000E0DB
:1008100090600B4801F075FB306840681422C0F10D
:10082000140060600B49064801F044FC606814281D
:1008300002D10848FFF79EFF2570F8BD0400002094
:10084000D8000020007C004058010020586402407D
:10085000B8600240B602002005480068C16841F057
:100860001001C16014220349014801F023BC0000BB
:10087000D8000020B6020020014800F011BD0000A1
:1008800058010020014800F00BBD0000B801002015
:1008900001681823CAB2103AB2FBF3F2054B6FF3AA
:1008A0000901032A9B5CC36500D9091D81650846BF
:1008B00070470000542C000810B5014600208B69D9
:1008C0008A6A4FF0C07453B1B3F5005F15D072B1AE
:1008D000012A0CD0022A0AD0032A09D104E01AB155
:1008E000012A06D0022A03D1C96AC90100D5012014
:1008F00010BDC96AA142FAD010BD002AF7D0012A62
:10090000F2D0022AF3D0032AF3D010BD30B5046828
:10091000256825F480252560046863608368402B82
:10092000036803D099600068C26030BD9A600068B7
:10093000C16030BD0A2839D890B31D4924220B2844
:100940000A7033D2DFE800F032060A0E12161A1EC1
:1009500022272D0005204871062070470920487283
:100960000A2070470D2048730E20704711204874EC
:1009700012207047152048751620704719204876B8
:100980001A2070471D2048771E207047212081F8CB
:10099000210022207047252081F82500262070475D
:1009A00004E0292081F829002A20F8E70020F6E752
:1009B000180200200FB470B505AC01250FE0E41D4E
:1009C00024F00704B4EC020B51EC100BFFF71DFCF4
:1009D00000EE100A284600F01FF86D1CEDB29DF8DD
:1009E00010008542EBD9C0B2FFF7A4FF05460024F2
:1009F000074E07E0311932230122064801F0A4FB1B
:100A0000641CE4B2AC42F5D370BC5DF814FB00008A
:100A1000180200209800002001B50A282DED020BD5
:100A200012D8002810D00B280ED2DFE800F00D06F7
:100A3000080E10121416181A1C00012200E00522DC
:100A40000A49684600F015F80EBD0922F8E70D22A4
:100A5000F6E71122F4E71522F2E71922F0E71D224A
:100A6000EEE72122ECE72522EAE700001802002049
:100A7000704703788B54114443784B7082788A70A6
:100A8000C078C8707047000010B5254900202DEDD2
:100A9000028BF2EE000A9FED268A08704870DFEDA7
:100AA000212A9FED212ADFED211AB0EE481AB2EE7D
:100AB000080A084601F030FDB0EE482ADFED1D1AA5
:100AC000B2EE041AF2EE080AB2EE080A144801F077
:100AD000B7FD134901207831DFED172A08704870FF
:100AE0009FED162ADFED161AB0EE481AF2EE040A50
:100AF000B2EE000A084601F00FFDB0EE482ABDEC48
:100B0000028BB1EE081A0648BDE81040DFED0D1A61
:100B1000F2EE000AB2EE000A783001F091BD00005A
:100B2000CC02002000004844000048C40000A0435C
:100B3000000000009A99193E00009643000096C3F9
:100B4000000048439A99993E70B5044619481A4ADC
:100B50001A49037802F178006BB1012B08D0042BFD
:100B600027D104F13C0594420FD191ED0C0A10E01D
:100B70009FED130A15E0944202D191ED0E0A10E0A8
:100B8000844216D191ED0F0A0BE0844211D191ED10
:100B90000D0A284601F0DAFC284601F045FC94EDE8
:100BA0001A0A201D01F0D5FC201DBDE8704001F09F
:100BB000D3BC70BD14000020CC02002044020020F1
:100BC0000000000030B50C480C49054690ED0A0ABB
:100BD00001F1780381ED110A426A094C5A6495EDDE
:100BE000050AA24201D9B1EE400A81ED030A90ED57
:100BF000030A83ED030A30BD44020020CC0200202A
:100C00000000B4C2F0B50A7D01209040344A136858
:100C100043F001031360136823F47C5313601368DB
:100C20004C6A43EA042313602D4B1C331C68844335
:100C30001C602B4D2B4CCE690C35A6B92E68864313
:100C40002E608F894E6867F31F464F6904EBC70714
:100C5000C7F840660F890E6867F31F464F6904EBBB
:100C6000C707C7F84466CE69012E14D12E68064323
:100C70002E600E884D6866F31F454E6904EBC6066C
:100C8000C6F840560E89CD6866F31F454E6904EBE1
:100C9000C604C4F84456124C8D69241D002D2568E5
:100CA00006D0054325600E4C0D69143415B104E0DF
:100CB0008543F7E72568854325600D69012D02D13D
:100CC000256805432560096A012902D11968014395
:100CD0001960106820F0010010600020F0BD0000D5
:100CE00000660040006000407047000010B50446F8
:100CF00000684169C943C90714D1826858499143C2
:100D000068D000218368574A9A4365D000228368DF
:100D10005548984362D000201143014302D0204639
:100D2000FFF7F7FC2068C168406911F0030FC0F3BA
:100D3000400004D018B100212046FFF741FC216893
:100D40000869496910F0030FC1F3001104D019B10B
:100D500001212046FFF734FC20688169426911F0C7
:100D6000010FC2F300234269C2F3C03205D023B1A0
:100D70001AB1E16B41F00101E1638169C1F3400304
:100D800041694269C1F34021C2F3C0322BB121B1A4
:100D90001AB1E16B41F00201E16381694269C1F37B
:100DA0008001C2F380234269C2F3C03229B123B16A
:100DB0001AB1E16B41F00401E163816911F0700F38
:100DC0000ED0002142694369C2F3C022C3F3C0338D
:100DD00041B127E0012195E7012298E701209BE737
:100DE0000121EFE7F2B1EBB1816901F07001402917
:100DF00029D006DC102909D020290BD030290DD1AB
:100E00001DE0502923D0602908D124E0E16B41F096
:100E1000080102E0E16B41F01001E163816921F01A
:100E200070018161E06B002808D0216804204860CF
:100E3000012084F838002046FFF756FF10BDE16B13
:100E400041F02001E9E7E16B41F04001E5E7E16BAA
:100E500041F08001E1E7E16B41F48071DDE70000E2
:100E60000300000400030008000003102DE9F04116
:100E7000040004D094F83800002518B107E00120E0
:100E8000BDE8F08184F83950204600F093F8022044
:100E900084F838002068016821F0020101602068B0
:100EA000016841F00101016000F064FC074603267F
:100EB00005E000BF00F05EFCC01B0A2863D8206874
:100EC0004068C007F6D020684168C90768D0A169AA
:100ED000012901683FD021F080010160E06901280B
:100EE000206801683AD021F040010160206A0128A1
:100EF0002068016835D021F020010160606A012876
:100F00002068016830D021F010010160A06A01283A
:100F1000206801682BD021F008010160E06A0128F7
:100F20002068016826D021F004010160D4E90201A3
:100F30000843D4E90412114308436168491E084379
:100F40002168C8612068016821F00101016000F09A
:100F500011FC07461CE041F08001BEE741F0400172
:100F6000C3E741F02001C8E741F01001CDE741F0AF
:100F70000801D2E741F00401D7E700BF00F0FAFB17
:100F8000C01B0A2804D904F8386F0320657077E77E
:100F900020684068C007F1D120684068C00703D0CE
:100FA000042084F838006AE7E563012084F83800FB
:100FB000002065E710B504460068144986B08842F1
:100FC00022D113480021026842F0007202600068DA
:100FD000022200F0007005900320CDE90210CDE957
:100FE00000020920049069460A4800F0DDFA022256
:100FF0001146142000F08EFC142000F080FC2068C4
:10100000416941F00201416106B010BD0064004039
:1010100040380240000C02402DE9FC4104461448CF
:10102000844223D1DFF84C8098F80010491CC9B2E3
:1010300088F800101E2914D10F4F386CFFF7D2F832
:1010400005460E46F86BFFF7CDF841EC100BCDE9E5
:10105000005653EC102B0220FFF7ACFC002188F85F
:1010600000102068416941F002014161BDE8FC8146
:101070005800002000000020CC0200202DE9F05F85
:101080000E46016804468868400105D4886800015E
:1010900002D48868C00067D594F8390001280ED0C2
:1010A000012784F8397094F8380022280AD01220D9
:1010B00084F838008868400106D500250AE002203F
:1010C000BDE8F09F3220F3E78868000101D50125D3
:1010D00000E002254FF4C07000EB05100A5802F042
:1010E00001020A50216B8A68EAB3D4F800C05CF8A8
:1010F00000301343CA68496842EAC1010B434CF807
:101100000030216B0A7C02F00F020A614FF4C271B9
:10111000226801EB0511535823F00F035350226846
:101120005358D4F830C0DCF810C043EA0C035350D5
:10113000216B4FF4C47303EB05130A7DD1F815102E
:1011400042EA01212268D150216B4FF4C67303EBB0
:1011500005130A7ED1F8191042EA01212268D15004
:1011600021680A5801E00DE046E042F001020A5011
:1011700000F000FB81464FF00008DFF888A0DFF8A0
:1011800088B019E022681358D1F80CC0098843EAE6
:101190000C0343EA41511150B3E7701C0CD02EB13F
:1011A00000F0E8FAA0EB0900B04205D9032084F86A
:1011B000380084F8398083E795B12068012D816873
:1011C00013D0124888430028E7D194F83800322819
:1011D0000ED084F8387000BF84F8398000206FE7A3
:1011E000206881682AEA0100EDE72BEA0100EAE7BE
:1011F000222084F83800EFE7042084F8380001202A
:101200005EE7000003000004000300080000031074
:1012100070472DE9F0410446876D00F0ABFA0646B1
:1012200094F835000025022806D08020606584F8F7
:1012300034500120BDE8F0812068016821F01601DA
:1012400001602068416921F080014161206C08B98A
:10125000A06C20B12068016821F0080101602068BD
:10126000016821F0010101600BE000F083FA801BAE
:10127000052806D92020606504F8345F03206070DB
:10128000D8E720680068C007EFD194F85C103F20D1
:101290008840B86004F8345F012060700020C9E71E
:1012A0002DE9F84304464FF00008CDF8008064486B
:1012B0004FF41651A56D0068B0FBF1F72E6894F855
:1012C0005C10082000FA01F131420FD021680A6851
:1012D00052070BD50A6822F004020A6094F85C10E9
:1012E0008840A860606D40F00100606594F85C1073
:1012F00054488840304208D021684969090604D51D
:10130000A860606D40F0020060654E4894F85C1083
:10131000C01C8840304208D021680968890704D57C
:10132000A860606D40F00400606594F85C101020C7
:101330008840304218D021680968090714D5A86090
:1013400020680168490304D50068000308D5A16C32
:1013500007E00168C90503D4016821F008010160B4
:10136000216C09B12046884794F85C102020884001
:1013700030424FF0010631D021680968C9062DD5E9
:10138000A86094F8350005282068016806D0490354
:1013900047D5006800031DD4616C1CE021F01601E4
:1013A00001602068416921F080014161206C08B929
:1013B000A06C20B12068016821F00801016094F858
:1013C0005C103F208840A86084F8348084F8356041
:1013D000216D1FE0E16B09B120468847606D002850
:1013E0002BD0606DC00714D0052084F8350020682C
:1013F000016821F0010101600098401C0090B84292
:1014000003D820680068C007F6D184F8348084F8D7
:101410003560E16C002910D001B02046BDE8F043F2
:1014200008470168C905D5D4016821F010010160A1
:1014300084F8348084F83560CCE7BDE8F883000098
:1014400010000020010080002DE9F041044600F06A
:1014500091F906465CB1002584F83450022084F8E6
:1014600035002068016821F0010101600DE00120D4
:10147000BDE8F08100F07EF9801B052805D9202009
:101480006065032084F83500F2E720680068C00733
:10149000F0D1226811681F480140D4E901031843C4
:1014A000D4E903363343184363691843A3691843E7
:1014B000E3691843236A18430843616A042903D186
:1014C000D4E90B1319430843106020684069666A29
:1014D00020F0070130460E43012704280AD1A06AF4
:1014E00006432046FFF7E8F920B14020606584F804
:1014F0003570BCE7206846612046FFF7C9F994F8CB
:101500005C203F2191408160656584F83570002042
:10151000AEE700003F8010F02DE9F0410446866DF3
:1015200090F83400002501280DD0012084F8340003
:1015300094F835700020012F07D084F8340002257C
:101540002846BDE8F0810220FBE7022784F83570C9
:1015500060652046FFF7DAF994F85C103F20884078
:10156000B0602068016841F016010160206841699F
:1015700041F080014161206C20B12068016841F098
:10158000080101602068016841F001010160D7E7AE
:1015900031B500F0EFF8044600F0ECF80099001BBC
:1015A0008842F9D338BD00002DE9F84FDFF890B13B
:1015B00000224FF001084FF0030A4FF00F090BF122
:1015C000040E00BF0B6808FA02F42340A3426ED158
:1015D0004D68022D01D0122D0ED1D50800EB850CDF
:1015E000DCF820505607F70E09FA07F6B5430E69E6
:1015F000BE402E43CCF82060066855000F790AFAE9
:1016000005FC07F0030726EA0C06AF4037430760E6
:101610004E68012E05D0022E03D0112E01D0122EBD
:101620000ED18768CE6827EA0C07AE403E4386603D
:101630004668A6430C79C4F30014944034434460D4
:10164000C4688E6824EA0C04AE402643C6604C6829
:10165000E4006FD53B4C256845F48045256024683F
:1016600022F0030504F480440094374C2E19D6F878
:10167000084895072F0F09FA07F5AC43334DA842E8
:1016800001D100252EE0324DA84201D1012529E0EB
:10169000304DA84201D1022524E02F4DA84201D1AE
:1016A00003251FE02D4DA84202D104251AE041E098
:1016B0002B4DA84201D1052514E02A4DA84201D1A5
:1016C00006250FE0284DA84201D107250AE0274D45
:1016D000A84201D1082505E0254DA84201D10925E0
:1016E00000E00A25BD402543C6F80858DBF8004055
:1016F0005D464E689C43F60300D51C432C60DEF823
:10170000004075464E689C43B60300D51C432C60D0
:101710000B4D08352C684E689C43F60200D51C43DF
:101720002C60074D0C352C684E689C43B60200D5E2
:101730001C432C60521C102AFFF444AFBDE8F88F04
:10174000003C0140443802400030014000000240AB
:101750000004024000080240000C02400010024059
:101760000014024000180240001C02400020024009
:101770000024024001480068704700000C0000206F
:1017800002480168491C0160704700000C000020FD
:101790000B4810B5016841F400710160016841F423
:1017A00080610160016841F480710160032000F0F4
:1017B000D1F8002000F006F800F018F8002010BD65
:1017C000003C024010B5044607484FF47A710068A7
:1017D000B0FBF1F000F07DFB00222146501E00F02E
:1017E00099F8002010BD0000100000201F4808B527
:1017F000016841F480410160006800F4804000907D
:101800001A48001F016841F080510160006800F033
:1018100080500090052000F09DF8002211466FF0E6
:101820000B0000F077F8002211466FF00A0000F07C
:1018300071F8002211466FF0090000F06BF80022E9
:101840001146501F00F066F800221146101F00F0EC
:1018500061F800221146901E00F05CF80022BDE8FD
:1018600008401146501E00F055B8000044380240B0
:101870002DE9F04116460F46040004D094F83900D3
:10188000002518B107E00120BDE8F08184F8385048
:10189000204600F063FB242084F839002068C168EA
:1018A00021F40051C160204600F0E4FF2068016986
:1018B00021F4904101612068416921F02A014161D0
:1018C0002068016921F00F01016120680169394335
:1018D00001612068C16821F40061C1602068C168AD
:1018E0003143C1602068C16841F40051C160E563C3
:1018F000202084F8390084F83A000020C4E700F082
:101900001F02012191404009800000F1E020C0F851
:1019100000117047F0B40E4B1B680C46C3F3022352
:10192000C3F10705042D00D90425191D072901D28B
:10193000002300E0DB1E012606FA05F1491E2140C6
:1019400099409E40761E16403143F0BC00F09DBE8B
:101950000CED00E0064900F0070208684FF6FF03AF
:10196000184040EA0220034A104308607047000014
:101970000CED00E00000FA052DE9F047DFF8649176
:1019800005460F46D9F8000000F00F01F8B2804676
:10199000B94208D2014689F80010D9F8000000F0D9
:1019A0000F00B84274D128784F4C800705D52068C5
:1019B000A96820F0F000084320602878C00759D0BB
:1019C00049496868083901281AD002281BD0032821
:1019D00019D00968890700295ADA216821F0030122
:1019E00001432160FFF7C6FE6968064641F2883070
:1019F000012911D002291DD00329824627D035E0C4
:101A000009688903E7E709688901E4E7FFF7B2FE9F
:101A1000811B514501D926E082462068C0F3810030
:101A20000128F3D126E000BFFFF7A4FE811B51453A
:101A300001D918E082462068C0F381000228F3D162
:101A400018E000BFFFF796FE811B51450BD82068B8
:101A5000C0F381000328F5D10CE000BFFFF78AFE38
:101A6000811B514502D90320BDE8F087206810F0A2
:101A70000C0FF3D1D9F80010484601F00F01B9421C
:101A800008D980F80080006800F00F00B84201D04B
:101A90000120E9E72878400705D52068E96820F4A7
:101AA000E050084320602878000706D5206829699F
:101AB00020F4604040EAC100206000F051F8216845
:101AC000F02292FAA2F201F0F001B2FA82F2D140D1
:101AD000064A515CC840064908600020FFF772FEC4
:101AE0000020C1E7003C024008380240442C0008B6
:101AF000100000200148006870470000100000201E
:101B000008480949006809684FF4E05292FAA2F2C5
:101B100001F4E051B2FA82F2D140044A515CC8406B
:101B2000704700001000002008380240442C0008D4
:101B300008480949006809684FF4604292FAA2F225
:101B400001F46041B2FA82F2D140044A515CC840CB
:101B5000704700001000002008380240442C0008A4
:101B600030B51948006810F00C01184812D0184C14
:101B700004290ED008290DD11349091F0A6802F063
:101B80003F030A68550247F6C07204D5B4FBF3F070
:101B900003E0204630BDB0FBF3F00B68096813404A
:101BA00092FAA2F2B2FA82F2D34058434FF4403292
:101BB00092FAA2F201F44031B2FA82F2D140491C09
:101BC0004900B0FBF1F030BD083802400024F400B9
:101BD000001BB7002DE9F84F0446DFF8CC820078EF
:101BE000A8F1040BC007ABF1040537D0D8F80010FA
:101BF0004046C1F38101012908D00068C0F381008B
:101C000002280AD1DBF80000400206D528688003CC
:101C100024D56068002878D020E0A3492079891F66
:101C20000870606868B1FFF7A5FD064605E000BFD3
:101C3000FFF7A0FD801B642868D828688003F7D5CB
:101C40000CE0FFF797FD064605E000BFFFF792FDA9
:101C5000801B6428F0D828688003F7D42078934E3E
:101C600080074FF0010A4FF0000742D5D8F8001066
:101C7000404611F00C0F08D00068C0F38100022824
:101C80000AD1DBF80000400206D42868800714D58A
:101C9000E068012839D110E0E068D8B1C6F800A0AA
:101CA000FFF768FD814605E0FFF764FDA0EB090042
:101CB0000228C1D828688007F6D52868F82292FA49
:101CC000A2F22169B2FA82F220F0F80091400843B2
:101CD00028600EE03760FFF74DFD814606E000BF4B
:101CE000FFF748FDA0EB090002280FD828688007FD
:101CF000F6D42078000728D56D486169A1B1C0F8F5
:101D000000A0FFF737FD814608E0CAE079E000BF98
:101D1000FFF730FDA0EB0900022872D862486C3052
:101D200000688007F4D510E00760FFF723FD8146C7
:101D300006E000BFFFF71EFDA0EB0900022860D8F7
:101D400059486C3000688007F4D42078400749D5A2
:101D500055483830016841F080510160006800F05A
:101D6000805000905348016841F480710160FFF792
:101D700001FD814606E000BFFFF7FCFCA0EB090077
:101D800002283ED84B480068C005F5D5DFF8189109
:101D9000207A09F1680989F80000A06888B1FFF786
:101DA000E9FC009008E000BFFFF7E4FC0099411A4D
:101DB00041F2883081426CD8D9F800008007F3D511
:101DC00010E0FFF7D7FC009008E000BFFFF7D2FC5F
:101DD0000099411A41F2883081425AD8D9F800005E
:101DE0008007F3D4A069E0B3D8F80010C1F38101F3
:101DF000022956D00228376604D0FFF7BBFC044600
:101E00004AE046E0FFF7B6FC074604E0FFF7B2FC05
:101E1000C01B02283DD828688001F7D4D4E9070107
:101E2000084347F6C07292FAA2F2616AB2FA82F2ED
:101E30009140A26A4FF0FF3303EB52024FF440335C
:101E400093FAA3F3B3FA83F39A40114308434FF094
:101E5000706292FAA2F2E16AB2FA82F29140084309
:101E600000E01CE0CBF80000C6F860A0FFF782FCA1
:101E7000044604E0FFF77EFC001B022809D828680E
:101E80008001F7D50BE000BFFFF774FC001B0228B0
:101E900002D90320BDE8F88F28688001F4D400201F
:101EA000F8E70120F6E7000008380240000047424A
:101EB000800E4742007000404FF0E021042808697E
:101EC00003D020F004000861704740F00400FAE7F6
:101ED000704710B5401EB0F1807F01D3012010BDC6
:101EE0004FF0E02460610F21601700F0CEFB00206E
:101EF000A06107202061002010BD10B5FFF7E8FFAA
:101F000010BD10B504460068416994F83920C1F34A
:101F1000C011212A0BD151B1416921F080014161E9
:101F2000206B08B1FFF775F9204600F099FC206896
:101F3000416994F83A20C1F38011222A0BD151B1A2
:101F4000416921F040014161606B08B1FFF761F91F
:101F5000204600F077FC002010BD70472DE9F043CB
:101F60000646474FD0F800C000244649022203200D
:101F70000825454B87B0BC4513D10E6846F0804616
:101F80000E60096801F080410591C1018DE81600DD
:101F9000CDE9030569461846FFF706FB07B0BDE823
:101FA000F083DFF8E8804FF020674FF48069C44584
:101FB0002ED1D1F800C04CF0004CC1F800C0096827
:101FC0008DE8150001F00041CDE904510390694608
:101FD0001846FFF7E9FA2F4D2D482860C5E901742E
:101FE000C5E903496C61AC61EC612C6228466C6206
:101FF000FFF72AFA18B1AC2127A000F0F0FD7563B5
:10200000022211465320AE63FFF784FC532033E0D5
:1020100025498C45C2D11B49091D0B6843F020039B
:102020000B60096801F0200105914FF484418DE8AF
:102030001600CDE9030569461C48FFF7B5FA154DB2
:102040001B4860352860C5E90174C5E903496C6126
:10205000AC61EC612C6228466C62FFF7F5F918B1AF
:10206000D9210DA000F0BBFD75630222012147209C
:10207000AE63FFF74FFC4720FFF741FC8EE70000FF
:10208000007800404038024000100240007C0040D0
:10209000A0600240580100202E2E2F5372632F752E
:1020A000736172742E630000001401400018024036
:1020B0002864024070B5044690F83A00202839D1CF
:1020C000A9B3A2B394F83800012833D0012084F8D2
:1020D0003800A162A2850025E563222084F83A0039
:1020E000636B1548D863636B14481864636B1448BA
:1020F000D864606B134605650846666B2168024626
:102100003046091DFFF708FA2068C16841F4807164
:10211000C1602068416941F0010141612068416965
:1021200041F04001416184F83850002070BDFFE764
:102130000120FBE70220F9E7FF2700083B28000801
:10214000B5270008704770472DE9F843044690F81A
:1021500039001E4617460D46202850D135B32FB3FF
:1021600094F8380001284AD0012084F838004FF054
:102170000008C4F83C80212084F83900FFF7FAFAFF
:10218000A784E78481464FF48057E08C4B46401E7D
:10219000E084A0684FF00002B8424FF08001204672
:1021A000009611D100F0BCFC00BB02E00120BDE8AC
:1021B000F8832888C0F3080120684160206908B1CD
:1021C0006D1C08E0AD1C06E000F0AAFC70B92168A7
:1021D00015F8010B4860E08C0028D6D14B46002250
:1021E00040212046009600F09BFC08B10320DEE76A
:1021F000202084F8390084F838800020D7E70220B6
:10220000D5E7FEE7114810B50F4901600221416092
:1022100000214FF450228160C0E903124FF4A00264
:10222000C0E905210122C161C0E90812C0E90A1212
:10223000FEF71CFE002805D0BDE81040532104A085
:1022400000F0CDBC10BD000000640040580000202C
:102250002E2E2F5372632F63616E2E6300000000D9
:10226000114808B5016841F480010160016801F47A
:1022700080010091016841F40011016000680022B2
:1022800000F40010009011461120FFF743FB1120CD
:10229000FFF735FB002211463920FFF73BFBBDE875
:1022A00008403920FFF72BBB30380240114808B5F1
:1022B000016841F010010160016801F01001009116
:1022C000016841F040010160016801F040010091A6
:1022D000016841F008010160016801F00801009106
:1022E000016841F080010160006800F0800000900A
:1022F00008BD0000303802400E4810B50C4901609E
:102300004FF4E1314160002181600C22C160C0E9DD
:10231000041281610A46C161FFF7AAFA002805D0BC
:10232000BDE81040462104A000F059BC10BD0000DB
:1023300000780040980000202E2E2F5372632F75D6
:10234000736172742E6300000E4810B50C49016071
:102350004FF4E1314160002181600C22C160C0E98D
:10236000041281610A46C161FFF782FA002805D094
:10237000BDE81040582104A000F031BC10BD0000A1
:10238000007C0040D80000202E2E2F5372632F7542
:10239000736172742E6300000E4810B50C49016021
:1023A0004FF4E1314160002181600C22C160C0E93D
:1023B000041281610A46C161FFF75AFA002805D06C
:1023C000BDE810406B2104A000F009BC10BD000066
:1023D00000140140180100202E2E2F5372632F7518
:1023E000736172742E630000FEE7F8B51E46054661
:1023F000DDE9063017460C4600903246394628463D
:10240000FEF7C6F821462846BDE8F840FEF76CB94D
:102410000448012101704170072181700521C170BC
:102420007047000014000020D0ED020A90ED030A6E
:10243000C0ED030A314A30EEC00A9FED311AD0EDEB
:10244000010A10EE101A914202DD30EE410A06E058
:1024500010EE101A2B4A914201D930EE010A2A4A95
:1024600030EE800A80ED010A90ED091A80ED0A1A1B
:1024700090EC020A30EE600A80ED090AD0ED080AFD
:1024800070EE800A10EE901AC0ED080A914203DB4C
:10249000DFED1E0AC0ED080A10EE901A1C4A9142A8
:1024A00003D3DFED1C0AC0ED080A70EE410A90ED7F
:1024B000051AD0ED081A21EE000A90ED061A01EE79
:1024C000210A90ED071A01EE200A80ED0B0AD0EDEB
:1024D0000D0AB4EEE00AF1EE10FA02DAF0EE400A6C
:1024E00001E0C0ED0B0A90ED0C0AF4EEC00AF1EE2B
:1024F00010FA01D880ED0B0A704700000000344349
:102500000000B443000034C300401C4600401C4699
:1025100000401CC600401CC69FED0B3A00F14C0267
:1025200080ED0F3A80ED173A80ED183A80ED193AB8
:1025300080ED1A3A80ED1B2AC0ED1C2A012182ECA5
:10254000040A80F8741070470000000080ED000A53
:10255000704780ED010A7047D0ED010A90ED031A33
:1025600090ED000A70EEC11AF4EEC01AF1EE10FA06
:1025700002DD30EE010A0AE090ED041A70EE811AD5
:10258000F4EEC01AF1EE10FA04D230EE410A80EDFA
:10259000000A01E0C0ED000AD0ED090A244AC0EDAE
:1025A0000A0A90ED000A90ED021A30EE410A80ED21
:1025B000090A30EE601AD0ED080A70EE800A10EEBB
:1025C000901AC0ED080A914203DBDFED1A0AC0ED54
:1025D000080A10EE901A184A914203D3DFED170A49
:1025E000C0ED080AD0ED050AD0ED081A20EE800AE9
:1025F000D0ED060A00EEA10AD0ED070A00EE810A2E
:1026000080ED0B0AD0ED0D0AB4EEE00AF1EE10FAFF
:1026100002DAF0EE400A01E0C0ED0B0A90ED0C0A80
:10262000F4EEC00AF1EE10FA01D880ED0B0A704703
:1026300000401C4600401C4600401CC600401CC612
:10264000DFED0E2A00F11001C0ED022AC0ED012AD3
:1026500081EC060AC0ED0A2AC0ED0B2AC0ED0C2A57
:1026600041789FED070ADFED070A012901D0002913
:1026700003D180ED0D0AC0ED0E0A70470000000086
:1026800000606AC600606A4670470907090E0028A4
:1026900006DA00F00F0000F1E02080F8141D70470A
:1026A00000F1E02080F8001470477047704710B5C3
:1026B000FFF766F8BDE81040FFF71FBC30B52548AE
:1026C00093B00025016841F080510160006800F07E
:1026D000805011902048016841F440410160006839
:1026E000022400F4404011900120009001908005E8
:1026F000CDE906400C2008904FF4A870CDE90904FC
:1027000004200B906846FFF765FA00B1FEE70CA9BC
:102710000F2081E831004FF4A0500F904FF480500B
:10272000109005210CA8FFF727F900B1FEE7FFF78D
:10273000E1F94FF47A71B0FBF1F0FFF7CAFB042026
:10274000FFF7BAFB00221146501EFFF7E3F813B063
:1027500030BD000040380240007000401048016861
:1027600041F4700101600F48016841F0010101600E
:102770000C4A00210832116002680B4B1A400260BB
:10278000031D0A4A1A60026822F48022026005488A
:102790000C3001600249580680390860704700001B
:1027A00088ED00E000380240FFFFF6FE1030002404
:1027B000FEF702B870B5846B2068406994F8391050
:1027C000C0F3C0100025212904D118B1E5842046AA
:1027D00000F046F82068406994F83A10C0F3801081
:1027E000222904D118B1E585204600F02BF8E06BD2
:1027F00040F01000E0632046FFF7AFFB70BD10B55E
:102800000146806B09680968C90513D40021C18598
:102810000168CA6822F48072CA6001684A6922F0BD
:1028200001024A6101684A6922F040024A6120219E
:1028300080F83A10FFF786FC10BD10B5806BFFF7EB
:1028400082FC10BD0168CA6822F49072CA600168F7
:102850004A6922F001024A61202180F83A1070474B
:102860000168CA6822F0C002CA60202180F83910CD
:10287000704700002DE9F04104460068016921F429
:102880004052E168114301612168C86849F20C6255
:1028900090432369A268E5691A4363692B431A438D
:1028A0000243CA602168486920F44072A06910435D
:1028B0004861E1696425B1F5004F9748974A21685E
:1028C0004FF032083FD0914201D081427CD1FFF7D6
:1028D0002FF900EBC00101EB001061688900B0FB2B
:1028E000F1F6FFF725F900EBC00101EB001061687C
:1028F0008900B0FBF1F0B0FBF5F06FF01801484330
:1029000006EB800108EB0110B0FBF5F000F0F006DB
:10291000FFF70EF900EBC00101EB001061688900C0
:10292000B0FBF1F0B0FBF5F006EB0016FFF700F995
:1029300000EBC00101EB001061688900B0FBF1F70A
:10294000FFF7F6F8D2E0914201D081423DD1FFF786
:10295000EFF800EBC00101EB001061684900B0FB2B
:10296000F1F0B0FBF5F00601FFF7E2F800EBC00173
:1029700001EB001061684900B0FBF1F7FFF7D8F8F0
:1029800000EBC00101EB001061684900B0FBF1F001
:10299000B0FBF5F06FF01801484307EB800108EB3E
:1029A000C100B0FBF5F000F0F80006EB4006FFF7C1
:1029B000BFF800EBC00101EB001061684900B0FBFB
:1029C000F1F7FFF7B5F83CE055E0FFF799F800EBB9
:1029D000C00101EB001061684900B0FBF1F0B0FBF1
:1029E000F5F00601FFF78CF800EBC00101EB0010D9
:1029F00061684900B0FBF1F7FFF782F800EBC00116
:102A000001EB001061684900B0FBF1F0B0FBF5F09C
:102A10006FF01801484307EB800108EBC100B0FBE1
:102A2000F5F000F0F80006EB4006FFF769F800EB60
:102A3000C00101EB001061684900B0FBF1F7FFF73E
:102A40005FF800EBC00101EB001061684900B0FBCA
:102A5000F1F0B0FBF5F06FF01801484307EB80018F
:102A600008EBC100B0FBF5F000F00700216830442E
:102A70008860BDE8F081FFF743F800EBC00101EB8F
:102A8000001061688900B0FBF1F6FFF739F800EB40
:102A9000C00101EB001061688900B0FBF1F0B0FBF0
:102AA000F5F06FF01801484306EB800108EB0110C8
:102AB000B0FBF5F000F0F006FFF722F800EBC001E4
:102AC00001EB001061688900B0FBF1F0B0FBF5F09C
:102AD00006EB0016FFF714F800EBC00101EB001045
:102AE00061688900B0FBF1F7FFF70AF800EBC0015D
:102AF00001EB001061688900B0FBF1F0B0FBF5F06C
:102B00006FF01801484307EB800108EB0110B0FBA0
:102B1000F5F000F00F00A9E700140140001001409B
:102B20002DE9F041984617460E460446069D1DE0E5
:102B3000681C1BD02DB1FEF71DFEA0EB0800A842BB
:102B400014D92068C16821F4D071C160206841693E
:102B500021F001014161202084F8390084F83A0015
:102B6000002084F838000320BDE8F0812068006868
:102B700036EA000004D00020B842D9D00020F3E7A4
:102B80000120F9E71CB5FDF797FCFEF71BF810488C
:102B9000FDF7DAFF0F48FDF7D7FF00200090019006
:102BA0000C484FF4007190ED0C0AB1EE400ABDEEF6
:102BB000C00A10EE100A03B2054890ED0C0ABDEEF3
:102BC000C00A10EE100A02B20348FFF70EFC1CBD4B
:102BD000CC0200204403002058000020FEE7FEE75E
:102BE00002E008C8121F08C1002AFAD170477047D6
:102BF000002001E001C1121F002AFBD17047000034
:102C0000FEF7C6FDFFF75AFDFFF750FBFFF728FB65
:102C1000FFF7F8FAFFF770FBFFF7BEFBFFF794FB37
:102C2000FFF7F6FBFDF730FF0548FDF797FCFDF7D2
:102C300013FE4FF4FA50FEF7ABFCFDF74BFBFEE73B
:102C400058000020000000000102030401020304F8
:102C50000607080900061016000610167C2C00084E
:102C60000000002018000000E02B0008942C000851
:102C700018000020A8070000F02B0008000000004A
:102C80000000000000000000000000000024F4002C
:042C90000000000040
:04000005080001AD41
:00000001FF
