:020000040800F2
:10000000B8070020C1010008892B0008AB220008B6
:10001000A1270008F9020008913300080000000041
:10002000000000000000000000000000AD2B0008F0
:100030001907000800000000AB2B0008792C00080D
:10004000DB010008DB010008DB010008DB01000820
:10005000DB010008DB010008DB010008DB01000810
:10006000DB010008DB010008DB010008DB01000800
:10007000DB010008DB010008DB010008DB010008F0
:10008000DB0100082D050008DB010008DB0100088A
:10009000FD020008DB010008DB010008DB010008AD
:1000A000DB010008DB010008DB010008612D00080E
:1000B000DB010008DB010008DB010008DB010008B0
:1000C000DB010008DB010008DB010008DB010008A0
:1000D000DB010008DB010008DB010008DB01000890
:1000E000DB010008DB010008DB010008DB01000880
:1000F000DB010008DB010008DB010008DB01000870
:10010000DB010008DB010008DB010008DB0100085F
:10011000DB010008DB010008DB010008DB0100084F
:10012000DB010008DB010008DB010008DB0100083F
:10013000DB010008DB010008DB010008DB0100082F
:10014000DB010008DB010008DB010008DB0100081F
:10015000DB010008DB010008DB010008DB0100080F
:10016000DB010008DB010008DB010008DB010008FF
:10017000DB010008DB010008DB01000800000000D3
:10018000DB010008DB010008DB010008BD2F0008CF
:10019000DB010008DB010008DB010008DB010008CF
:1001A0000000000000000000DB010008DFF80CD0B8
:1001B00000F090F800480047B1330008B80700206D
:1001C0000648804706480047FEE7FEE7FEE7FEE7F1
:1001D000FEE7FEE7FEE7FEE7FEE7FEE70D2D00087F
:1001E000AD010008D2B201E000F8012B491EFBD29C
:1001F00070470022F6E710B513460A460446194632
:10020000FFF7F0FF204610BD00F0004230F0004044
:100210000AD0C10D01F56071C0F3160042EA015128
:10022000C20840071143704700200146704701F0A3
:10023000004330B421F0004150EA010206D00A0D1B
:10024000A2F56072C1F31301002A02DC30BC002069
:100250007047440F44EAC104C100E01830BC00EB11
:10026000C250AFF300800029A8BF7047401C49006E
:1002700008BF20F00100704710B4B0FA80FC00FA0B
:100280000CF050EA010404BF10BC704749B1CCF136
:10029000200421FA04F411FA0CF118BF01212143C2
:1002A0000843A3EB0C01CB1D4FEA00614FEA10207D
:1002B00042BF002010BC704700EBC350104400291F
:1002C000A4BF10BC7047401C490008BF20F00100CB
:1002D00010BC7047064C074D06E0E06840F0010393
:1002E00094E8070098471034AC42F6D3FFF762FF5A
:1002F0002C3400084C340008FEE70000014800F0F0
:100300000FBC00006400002000B58BB0002101226A
:10031000CDE90612039108920491019102910E22F7
:1003200005910992044901631C314163694600F05B
:1003300083FB0BB000BD00002400002001684A6967
:1003400042F002024A61FFF7DFBF70B5066B0D0A8B
:10035000049C3575056B6975056B110AA975016BF0
:10036000CA75026B190A1176016B4B76026B210A72
:100370009176006BC47670BD10B54FF4D8720368E7
:1003800002EB01129B5813F00404436B9C60046859
:10039000436BA45854D0E4085C6003689A58436BDC
:1003A00002F00202DA604FF4DA72036802EB011223
:1003B0009B58446B03F00F03236103689A58436B07
:1003C000C2F30722DA614FF4DC72036802EB011218
:1003D0009B58446B237503689B58446B1B0A6375D9
:1003E00003689B58446B1B0CA37503689A58436BB6
:1003F000120EDA754FF4DE72036802EB01129B589D
:10040000446B237603689B58446B1B0A637603682E
:100410009B58446B1B0CA37603689A58436B120ECF
:10042000DA762022002901680DD00A6101684A6944
:1004300022F010024A6190F83810222909D021E0F8
:10044000640D1C60A9E7CA6001684A6922F00202D3
:10045000F0E701684A6922F480724A6101684A69DA
:1004600022F400724A6101684A6922F480624A619A
:1004700001684A6922F400624A6101684A6922F40B
:1004800000424A6190F83810322907D05FF001012C
:1004900080F8381000F0E4FC002010BD1221F7E7CE
:1004A00010B5026B1160026B5160026B002191600C
:1004B000026BD160026B082111610A2100F044FD3A
:1004C00008B1002010BD012010BD10B501684A69B7
:1004D00022F001024A6190F83810122918D10168FF
:1004E0004A6922F480724A6101684A6922F4007202
:1004F0004A6101684A6922F480624A6101684A6976
:1005000022F400624A6101684A6922F400424A61A9
:1005100090F83810322906D0012180F8381000F008
:10052000DDFD002010BD2221F7E70000014800F0AA
:100530001DBE00006001002001681823CAB2103AF5
:10054000B2FBF3F2054B6FF30901032A9B5CC36511
:1005500000D9091D81650846704700002434000851
:1005600010B5014600208B698A6A4FF0C07453B100
:10057000B3F5005F15D072B1012A0CD0022A0AD05F
:10058000032A09D104E01AB1012A06D0022A03D1B4
:10059000C96AC90100D5012010BDC96AA142FAD0BB
:1005A00010BD002AF7D0012AF2D0022AF3D0032A84
:1005B000F3D010BD30B50468256825F4802525608A
:1005C000046863608368402B036803D09960006807
:1005D000C26030BD9A600068C16030BD0A2839D859
:1005E00090B31D4924220B280A7033D2DFE800F0B3
:1005F00032060A0E12161A1E22272D0005204871F7
:1006000006207047092048720A2070470D20487361
:100610000E2070471120487412207047152048752D
:1006200016207047192048761A2070471D204877F9
:100630001E207047212081F82100222070472520AC
:1006400081F825002620704704E0292081F8290040
:100650002A20F8E70020F6E7700300200FB470B5F9
:1006600005AC01250FE0E41D24F00704B4EC020BF7
:1006700051EC100BFFF7DBFD00EE100A284600F0EE
:100680001FF86D1CEDB29DF810008542EBD9C0B289
:10069000FFF7A4FF05460024074E07E03119322377
:1006A0000122064801F0A4FD641CE4B2AC42F5D37B
:1006B00070BC5DF814FB000070030020E000002017
:1006C00001B50A282DED020B12D8002810D00B28F6
:1006D0000ED2DFE800F00D06080E10121416181ADC
:1006E0001C00012200E005220A49684600F016F8C5
:1006F0000EBD0922F8E70D22F6E71122F4E71522D4
:10070000F2E71922F0E71D22EEE72122ECE725228D
:10071000EAE70000700300207047FEE703788B547F
:10072000114443784B7082788A70C078C8707047E3
:1007300070B504462DED048B00F18C05061D9FED70
:100740002D8A0020DFED2F8A9FED2F9A2870687088
:100750009FED274AF0EE483AB0EE483ADFED262A00
:100760009FED262ADFED261AB0EE481AF0EE680A51
:10077000B0EE490A284602F095F8DFED242AB0EEE3
:10078000482AF0EE681AB1EE081AF0EE490AB0EE07
:10079000490A284602F0C2F902253570032070701C
:1007A0009FED1B4ADFED1B3AB8EE083ADFED1A2A3F
:1007B0009FED1A2ADFED1A1AB0EE481ADFED190A7A
:1007C000B0EE000A304602F06DF8DFED172AB0EE09
:1007D000482AF0EE001A9FED151AF0EE000AB0EE6E
:1007E000000A304602F09AF92570BDEC048B70BD0A
:1007F000EED8A344000000000000FA440000FAC450
:10080000333313400AD7233CCDCC4C3F27A01941AA
:10081000B205B6410000B4C200004843000048C31E
:10082000000048429A99193F8AAB2A3E00005C4377
:100830002DE9FC4104464A48A0F18806844201D0D3
:10084000B4427DD1DFF81881A8F18C0898F8002017
:100850004449454D04F1400791EC020A082A5FD251
:10086000DFE802F055044B530C3A4755844201D15E
:10087000012135E0B44253D1012137E0844204D153
:10088000201D9FED3A0A02F09FF8B44248D1D4ED02
:10089000150AB1EE041A94ED100A70EEC10AB4EE16
:1008A000E00AF1EE10FA0DDAD4ED160AB2EE0E1AE5
:1008B00070EE810AB4EEE00AF1EE10FA02D995ED7D
:1008C000010A05E095ED010AB1EE400A85ED010A45
:1008D000201D02F079F823E022498442097A03D1ED
:1008E000384602F00BF812E0B44219D1B0EE600ABB
:1008F000F6E7201D02F09CF812E0844210D19FED33
:100900001C0A201D02F060F8F3E7844205D1384646
:1009100001F074FF94ED1E0AF3E79FED160AF0E76D
:100920006878401CC0B268701E2817D34446D8F8B7
:100930004800FFF769FC06460F46D4F8D00000E0F7
:100940000CE0FFF761FC41EC100B022053EC102B84
:10095000CDE90067FFF782FE00206870BDE8FC81EA
:100960004C020020AC0300200800002000001643C9
:100970000000C8420000704270B504462DED028BA5
:10098000007802283BD02078032838D02648407AC7
:100990002070207800259FED258A254E022830D032
:1009A000032829D194ED030AB5EEC00AF1EE10FA3E
:1009B00021D0D4ED040A94ED101A80EE810A10EED5
:1009C000100AB0F17E5F16DC10EE100A10F1814FB4
:1009D00011D83078401CC0B23070C8280CD32570B4
:1009E00084ED118A84ED128A0021B8EE080A04F120
:1009F000440001F083FF3570BDEC028B70BD2078A0
:100A0000C6E701210B4800F00FFE0028F3D1307833
:100A1000401CC0B230700328EED30320207084ED58
:100A2000338A84ED348AE6E7AC030020000000003E
:100A30000800002000000240F0B50A7D012090402F
:100A4000344A136843F001031360136823F47C53A2
:100A5000136013684C6A43EA042313602D4B1C3364
:100A60001C6884431C602B4D2B4CCE690C35A6B9F9
:100A70002E6886432E608F894E6867F31F464F6944
:100A800004EBC707C7F840660F890E6867F31F4677
:100A90004F6904EBC707C7F84466CE69012E14D12D
:100AA0002E6806432E600E884D6866F31F454E691A
:100AB00004EBC606C6F840560E89CD6866F31F459E
:100AC0004E6904EBC604C4F84456124C8D69241DCB
:100AD000002D256806D0054325600E4C0D691434A1
:100AE00015B104E08543F7E72568854325600D6966
:100AF000012D02D1256805432560096A012902D12B
:100B0000196801431960106820F00100106000208E
:100B1000F0BD00000066004000600040704700002B
:100B200010B5044600684169C943C90714D18268F9
:100B30005849914368D000218368574A9A4365D049
:100B4000002283685548984362D000201143014336
:100B500002D02046FFF7B9FC2068C168406911F057
:100B6000030FC0F3400004D018B100212046FFF766
:100B700003FC21680869496910F0030FC1F30011F3
:100B800004D019B101212046FFF7F6FB20688169E6
:100B9000426911F0010FC2F300234269C2F3C0326F
:100BA00005D023B11AB1E16B41F00101E163816924
:100BB000C1F3400341694269C1F34021C2F3C0322D
:100BC0002BB121B11AB1E16B41F00201E1638169FE
:100BD0004269C1F38001C2F380234269C2F3C0328B
:100BE00029B123B11AB1E16B41F00401E1638169DC
:100BF00011F0700F0ED0002142694369C2F3C02288
:100C0000C3F3C03341B127E0012195E7012298E702
:100C100001209BE70121EFE7F2B1EBB1816901F01F
:100C20007001402929D006DC102909D020290BD0D9
:100C300030290DD11DE0502923D0602908D124E0AE
:100C4000E16B41F0080102E0E16B41F01001E1636A
:100C5000816921F070018161E06B002808D0216872
:100C600004204860012084F838002046FFF756FF32
:100C700010BDE16B41F02001E9E7E16B41F040017B
:100C8000E5E7E16B41F08001E1E7E16B41F4807160
:100C9000DDE700000300000400030008000003106B
:100CA0002DE9F041040004D094F83800002518B173
:100CB00007E00120BDE8F08184F83950204600F0BB
:100CC00093F8022084F838002068016821F00201BE
:100CD00001602068016841F00101016000F0AEFC94
:100CE0000746032605E000BF00F0A8FCC01B0A2849
:100CF00063D820684068C007F6D020684168C907FB
:100D000068D0A169012901683FD021F0800101600C
:100D1000E0690128206801683AD021F040010160B3
:100D2000206A01282068016835D021F02001016087
:100D3000606A01282068016830D021F0100101604C
:100D4000A06A0128206801682BD021F00801016009
:100D5000E06A01282068016826D021F004010160C2
:100D6000D4E902010843D4E904121143084361683D
:100D7000491E08432168C8612068016821F001010B
:100D8000016000F05BFC07461CE041F08001BEE71B
:100D900041F04001C3E741F02001C8E741F01001F4
:100DA000CDE741F00801D2E741F00401D7E700BFE9
:100DB00000F044FCC01B0A2804D904F8386F032053
:100DC000657077E720684068C007F1D12068406807
:100DD000C00703D0042084F838006AE7E5630120E7
:100DE00084F83800002065E710B586B00446142169
:100DF0006846FFF7FEF917492068884227D1164850
:100E00000021026842F000720260006800F0007089
:100E1000059011481038026842F00802026000682C
:100E2000022200F0080005900320CDE90210CDE970
:100E30000002092004906946084800F00FFB0222D6
:100E40001146142000F0A2FC142000F094FC06B01F
:100E500010BD00000064004040380240000C024019
:100E60002DE9FC4105463448854263D1686B8168B1
:100E7000002956D1C168E9BB0068304E304FA0F55B
:100E80000070053804D0012811D002282AD11EE0B4
:100E90002A4928468C310C4601F096FC2748CC3074
:100EA00001F095FD2548FFF767FD20460CE034462C
:100EB000311D284601F088FC2048443001F087FDB0
:100EC0001E48FFF759FD201DFFF7B2FC0AE03C4623
:100ED000391D284601F078FC194801F06BFA201DF5
:100EE00001F020FA97ED0D0A0021BDEEC00A10EEC8
:100EF000100A00E015E000B2CDE9000196ED0D0A00
:100F000040F2FF11BDEEC00A10EE100A96ED2F0A56
:100F100003B2BDEEC00A10EE100A02B2284601F07C
:100F200040FC08490878401C08702868416941F075
:100F300002014161BDE8FC8164000020C001002085
:100F4000E4020020000000202DE9F05F0E46016859
:100F500004468868400105D48868000102D4886886
:100F6000C00067D594F8390001280ED0012784F815
:100F7000397094F8380022280AD0122084F83800FA
:100F80008868400106D500250AE00220BDE8F09FF0
:100F90003220F3E78868000101D5012500E0022531
:100FA0004FF4C07000EB05100A5802F001020A501D
:100FB000216B8A68EAB3D4F800C05CF800301343B0
:100FC000CA68496842EAC1010B434CF80030216B02
:100FD0000A7C02F00F020A614FF4C271226801EB31
:100FE0000511535823F00F03535022685358D4F877
:100FF00030C0DCF810C043EA0C035350216B4FF4AF
:10100000C47303EB05130A7DD1F8151042EA0121E0
:101010002268D150216B4FF4C67303EB05130A7E8F
:10102000D1F8191042EA01212268D15021680A58EA
:1010300001E00DE046E042F001020A5000F0FEFA45
:1010400081464FF00008DFF888A0DFF888B019E08B
:1010500022681358D1F80CC0098843EA0C0343EA0C
:1010600041511150B3E7701C0CD02EB100F0E6FADC
:10107000A0EB0900B04205D9032084F8380084F8B9
:10108000398083E795B12068012D816813D012481B
:1010900088430028E7D194F8380032280ED084F82D
:1010A000387000BF84F8398000206FE720688168BD
:1010B0002AEA0100EDE72BEA0100EAE7222084F8A2
:1010C0003800EFE7042084F8380001205EE70000D4
:1010D00003000004000300080000031070472DE91E
:1010E000F0410446876D00F0A9FA064694F83500F1
:1010F0000025022806D08020606584F83450012045
:10110000BDE8F0812068016821F0160101602068C7
:10111000416921F080014161206C08B9A06C20B1C7
:101120002068016821F0080101602068016821F051
:10113000010101600BE000F081FA801B052806D94F
:101140002020606504F8345F03206070D8E72068D1
:101150000068C007EFD194F85C103F208840B86069
:1011600004F8345F012060700020C9E72DE9F843DE
:1011700004464FF00008CDF8008064484FF4165143
:10118000A56D0068B0FBF1F72E6894F85C1008209C
:1011900000FA01F131420FD021680A6852070BD5DD
:1011A0000A6822F004020A6094F85C108840A86083
:1011B000606D40F00100606594F85C105448884010
:1011C000304208D021684969090604D5A860606DDD
:1011D00040F0020060654E4894F85C10C01C8840E6
:1011E000304208D021680968890704D5A860606D7D
:1011F00040F00400606594F85C1010208840304294
:1012000018D021680968090714D5A860206801680A
:10121000490304D50068000308D5A16C07E0016804
:10122000C90503D4016821F008010160216C09B1EE
:101230002046884794F85C102020884030424FF0C8
:10124000010631D021680968C9062DD5A86094F837
:10125000350005282068016806D0490347D5006895
:1012600000031DD4616C1CE021F0160101602068B0
:10127000416921F080014161206C08B9A06C20B166
:101280002068016821F00801016094F85C103F209B
:101290008840A86084F8348084F83560216D1FE0B0
:1012A000E16B09B120468847606D00282BD0606D46
:1012B000C00714D0052084F835002068016821F0AB
:1012C000010101600098401C0090B84203D82068DA
:1012D0000068C007F6D184F8348084F83560E16C8A
:1012E000002910D001B02046BDE8F043084701684E
:1012F000C905D5D4016821F01001016084F834805B
:1013000084F83560CCE7BDE8F883000004000020D5
:10131000010080002DE9F041044600F08FF90646F7
:101320005CB1002584F83450022084F83500206830
:10133000016821F0010101600DE00120BDE8F081AC
:1013400000F07CF9801B052805D92020606503206A
:1013500084F83500F2E720680068C007F0D1226801
:1013600011681F480140D4E901031843D4E903364A
:101370003343184363691843A3691843E369184367
:10138000236A18430843616A042903D1D4E90B1383
:1013900019430843106020684069666A20F007011D
:1013A00030460E43012704280AD1A06A064320468E
:1013B000FFF7D6F820B14020606584F83570BCE7AF
:1013C000206846612046FFF7B7F894F85C203F217B
:1013D00091408160656584F835700020AEE70000BB
:1013E0003F8010F02DE9F0410446866D90F83400FE
:1013F000002501280DD0012084F8340094F83570C0
:101400000020012F07D084F8340002252846BDE8CB
:10141000F0810220FBE7022784F8357060652046E2
:10142000FFF7C8F894F85C103F208840B06020684F
:10143000016841F0160101602068416941F08001B6
:101440004161206C20B12068016841F00801016011
:101450002068016841F001010160D7E72DE9F84FEC
:10146000DFF890B100224FF001084FF0030A4FF06F
:101470000F090BF1040E00BF0B6808FA02F42340B9
:10148000A3426ED14D68022D01D0122D0ED1D50888
:1014900000EB850CDCF820505607F70E09FA07F62A
:1014A000B5430E69BE402E43CCF820600668550057
:1014B0000F790AFA05FC07F0030726EA0C06AF408D
:1014C000374307604E68012E05D0022E03D0112E3F
:1014D00001D0122E0ED18768CE6827EA0C07AE40E5
:1014E0003E4386604668A6430C79C4F300149440DA
:1014F00034434460C4688E6824EA0C04AE4026433A
:10150000C6604C68E4006FD53B4C256845F48045C7
:101510002560246822F0030504F480440094374CCD
:101520002E19D6F8084895072F0F09FA07F5AC438E
:10153000334DA84201D100252EE0324DA84201D101
:10154000012529E0304DA84201D1022524E02F4D8C
:10155000A84201D103251FE02D4DA84202D1042548
:101560001AE041E02B4DA84201D1052514E02A4D97
:10157000A84201D106250FE0284DA84201D1072538
:101580000AE0274DA84201D1082505E0254DA842D3
:1015900001D1092500E00A25BD402543C6F80858B9
:1015A000DBF800405D464E689C43F60300D51C43C3
:1015B0002C60DEF8004075464E689C43B60300D5AB
:1015C0001C432C600B4D08352C684E689C43F6027A
:1015D00000D51C432C60074D0C352C684E689C438D
:1015E000B60200D51C432C60521C102AFFF444AFF5
:1015F000BDE8F88F003C0140443802400030014013
:10160000000002400004024000080240000C0240BA
:10161000001002400014024000180240001C02406A
:1016200000200240002402400069084000D0012050
:1016300070470AB1816170470904FBE701480068FF
:10164000704700002000002002480168491C01602A
:1016500070470000200000200B4810B5016841F4DD
:1016600000710160016841F480610160016841F42A
:1016700080710160032000F0A9F8002000F006F856
:1016800000F018F8002010BD003C024010B50446E0
:1016900007484FF47A710068B0FBF1F000F042FBAC
:1016A00000222146501E00F071F8002010BD0000FD
:1016B000040000200B4882B0016841F480410160C1
:1016C000006800F4804000900648001F016841F067
:1016D00080510160006800F080500090052002B049
:1016E00000F074B8443802402DE9F04116460F4628
:1016F000040004D094F83900002518B107E0012057
:10170000BDE8F08184F83850204600F0ADFC24207C
:1017100084F839002068C16821F40051C160204676
:1017200001F0AEFC2068016921F49041016120685C
:10173000416921F02A0141612068016921F00F010E
:10174000016120680169394301612068C16821F4A1
:101750000061C1602068C1683143C1602068C16810
:1017600041F40051C160E563202084F8390084F819
:101770003A000020C4E700F01F0201219140400917
:10178000800000F1E020C0F800117047F0B40E4B6B
:101790001B680C46C3F30223C3F10705042D00D9CF
:1017A0000425191D072901D2002300E0DB1E0126B4
:1017B00006FA05F1491E214099409E40761E1640CA
:1017C0003143F0BC01F0E1B90CED00E0064900F056
:1017D000070208684FF6FF03184040EA0220034A58
:1017E00010430860704700000CED00E00000FA05AF
:1017F0002DE9F047DFF8649105460F46D9F800005F
:1018000000F00F01F8B28046B94208D2014689F8CB
:101810000010D9F8000000F00F00B84274D1287809
:101820004F4C800705D52068A96820F0F0000843D8
:1018300020602878C00759D04949686808390128CC
:101840001AD002281BD0032819D00968890700295B
:101850005ADA216821F0030101432160FFF7EEFE0F
:101860006968064641F28830012911D002291DD04D
:101870000329824627D035E009688903E7E709682C
:101880008901E4E7FFF7DAFE811B514501D926E023
:1018900082462068C0F381000128F3D126E000BF12
:1018A000FFF7CCFE811B514501D918E08246206824
:1018B000C0F381000228F3D118E000BFFFF7BEFE9D
:1018C000811B51450BD82068C0F381000328F5D156
:1018D0000CE000BFFFF7B2FE811B514502D9032087
:1018E000BDE8F087206810F00C0FF3D1D9F8001094
:1018F000484601F00F01B94208D980F8008000681D
:1019000000F00F00B84201D00120E9E72878400735
:1019100005D52068E96820F4E05008432060287865
:10192000000706D52068296920F4604040EAC1001C
:10193000206000F04BF82168F02292FAA2F201F048
:10194000F001B2FA82F2D140064A515CC840064921
:1019500008600020FFF79AFE0020C1E7003C02402B
:1019600008380240143400080400002008480949DF
:10197000006809684FF4E05292FAA2F201F4E051D3
:10198000B2FA82F2D140044A515CC840704700006C
:1019900004000020083802401434000808480949AF
:1019A000006809684FF4604292FAA2F201F46041C3
:1019B000B2FA82F2D140044A515CC840704700003C
:1019C00004000020083802401434000830B51948DB
:1019D000006810F00C01184812D0184C04290ED0E1
:1019E00008290DD11349091F0A6802F03F030A684C
:1019F000550247F6C07204D5B4FBF3F003E020466D
:101A000030BDB0FBF3F00B680968134092FAA2F204
:101A1000B2FA82F2D34058434FF4403292FAA2F223
:101A200001F44031B2FA82F2D140491C4900B0FBC6
:101A3000F1F030BD083802400024F400001BB7006C
:101A40002DE9F84F0446DFF8CC820078A8F1040BAA
:101A5000C007ABF1040537D0D8F800104046C1F3F9
:101A60008101012908D00068C0F3810002280AD151
:101A7000DBF80000400206D52868800324D56068A2
:101A8000002878D020E0A3492079891F0870606879
:101A900068B1FFF7D3FD064605E000BFFFF7CEFDB6
:101AA000801B642868D828688003F7D50CE0FFF70E
:101AB000C5FD064605E000BFFFF7C0FD801B64289A
:101AC000F0D828688003F7D42078934E80074FF031
:101AD000010A4FF0000742D5D8F80010404611F037
:101AE0000C0F08D00068C0F3810002280AD1DBF88F
:101AF0000000400206D42868800714D5E068012859
:101B000039D110E0E068D8B1C6F800A0FFF796FD23
:101B1000814605E0FFF792FDA0EB09000228C1D83D
:101B200028688007F6D52868F82292FAA2F221697F
:101B3000B2FA82F220F0F8009140084328600EE0EB
:101B40003760FFF77BFD814606E000BFFFF776FDBB
:101B5000A0EB090002280FD828688007F6D4207867
:101B6000000728D56D486169A1B1C0F800A0FFF752
:101B700065FD814608E0CAE079E000BFFFF75EFD41
:101B8000A0EB0900022872D862486C300068800718
:101B9000F4D510E00760FFF751FD814606E000BF75
:101BA000FFF74CFDA0EB0900022860D859486C30C3
:101BB00000688007F4D42078400749D5554838306C
:101BC000016841F080510160006800F08050009091
:101BD0005348016841F480710160FFF72FFD814691
:101BE00006E000BFFFF72AFDA0EB090002283ED85F
:101BF0004B480068C005F5D5DFF81891207A09F147
:101C0000680989F80000A06888B1FFF717FD009007
:101C100008E000BFFFF712FD0099411A41F2883039
:101C200081426CD8D9F800008007F3D510E0FFF7A7
:101C300005FD009008E000BFFFF700FD0099411A84
:101C400041F2883081425AD8D9F800008007F3D495
:101C5000A069E0B3D8F80010C1F38101022956D081
:101C60000228376604D0FFF7E9FC04464AE046E064
:101C7000FFF7E4FC074604E0FFF7E0FCC01B022886
:101C80003DD828688001F7D4D4E90701084347F616
:101C9000C07292FAA2F2616AB2FA82F29140A26A2A
:101CA0004FF0FF3303EB52024FF4403393FAA3F3A8
:101CB000B3FA83F39A40114308434FF0706292FAEB
:101CC000A2F2E16AB2FA82F29140084300E01CE01D
:101CD000CBF80000C6F860A0FFF7B0FC044604E0B3
:101CE000FFF7ACFC001B022809D828688001F7D553
:101CF0000BE000BFFFF7A2FC001B022802D9032063
:101D0000BDE8F88F28688001F4D40020F8E70120AE
:101D1000F6E700000838024000004742800E4742C4
:101D20000070004010B5401EB0F1807F01D301204B
:101D300010BD4FF0E02460610F21601700F025FF17
:101D40000020A06107202061002010BD30B590F870
:101D50003820012A19D0012200F8382F02234370BD
:101D6000D1E900342343D1E902452C4323430C69D4
:101D700023434C69896923430B4350F8381C4B6457
:101D8000427000210170084630BD022030BD30B5E0
:101D900090F83820012A20D0012280F83820022330
:101DA00080F8393003685C6824F070045C60036874
:101DB0005C680D682C435C6003689C6824F08004B8
:101DC0009C6003689C6849680C439C6080F83920DB
:101DD000002180F83810084630BD022030BD0000D8
:101DE00070B586B0044614216846FEF702FA17491A
:101DF0002068884228D11648016841F0010101603D
:101E0000016801F001010591016841F010010160D4
:101E10000068022400F0100005904FF48070CDE9B6
:101E2000000402AA0325012682E8700069460948D9
:101E3000FFF714FB6003CDE9000402AA694682E8BB
:101E400070000548FFF70AFB06B070BD00000140B6
:101E500030380240000002400010024070B50446D5
:101E600090F838000D4601280DD0012684F838601E
:101E7000022084F8390042B1042A18D0082A2AD056
:101E80000C2A4DD139E0022070BD206800F0E0FF3F
:101E90002068816941F0080181612068816921F031
:101EA00004018161206881692A69114311E0206879
:101EB00000F0FAFF2068816941F4006181612068C7
:101EC000816921F480618161206881692A6941EA20
:101ED0000221816124E0206801F018F82068C169BE
:101EE00041F00801C1612068C16921F00401C161AC
:101EF0002068C1692A69114311E0206801F036F8B1
:101F00002068C16941F40061C1612068C16921F4A0
:101F10008061C1612068C1692A6941EA0221C16109
:101F200084F83960002084F8380070BD10B50400D2
:101F300003D094F8390010B107E0012010BD002053
:101F400084F83800204600F00DF8022084F83900AB
:101F5000211D206800F010FF012084F839000020C6
:101F600010BD000008B500680B49884212D10B482B
:101F7000016841F0010101600068022200F00100E7
:101F8000009011461B20FFF701FCBDE808401B2014
:101F9000FFF7F1BB08BD00000000014044380240DB
:101FA00010B50268044631B1042908D0082920D0B0
:101FB0000C2908D121E0D06840F0020002E0D0688E
:101FC00040F00400D0600122206800F035FF0D4988
:101FD0002068884202D00C49884203D1416C41F408
:101FE000004141642068016841F001010160002066
:101FF00010BDD06840F00800E4E7D06840F0100061
:10200000E0E70000000001400004014010B5044674
:102010000068416994F83920C1F3C011212A0BD11D
:1020200051B1416921F080014161206B08B1FFF796
:1020300056F8204601F01AF82068416994F83A20D1
:10204000C1F38011222A0BD151B1416921F0400125
:102050004161606B08B1FFF742F8204600F0F8FFDD
:10206000002010BD70470000F0B587B0064614216F
:102070006846FEF7BEF83449DFF8C8E0D6F800C07D
:102080000025314810390223032208272F4CF4453C
:102090001AD1066846F080460660006800F080406D
:1020A0000590086840F0100008600868694600F074
:1020B00010000590D0018DE82900CDE903272046C6
:1020C000FFF7CCF907B0F0BDDFF884E0F445F9D1B3
:1020D000D0F800C04CF0004CC0F800C0006800F020
:1020E00000400590086840F01000086008688DE81E
:1020F0002C0000F01000CDE90470694603922046E0
:10210000FFF7ACF9144C134820600005C4E9010541
:102110004FF48060C4E903506561A561E561256203
:1021200020466562FFF7F6F808B1FEF7F6FA746329
:10213000022200215320A663FFF728FB5320FFF75C
:102140001AFBBFE700780040403802400010024010
:10215000007C0040A06002406001002070B5044691
:1021600090F83A00202839D1A9B3A2B394F83800E6
:10217000012833D0012084F83800A162A28500250F
:10218000E563222084F83A00636B1548D863636BDB
:1021900014481864636B1448D864606B1346056573
:1021A0000846666B216802463046091DFFF71AF99A
:1021B0002068C16841F48071C1602068416941F0C4
:1021C000010141612068416941F04001416184F8A9
:1021D0003850002070BDFFE70120FBE70220F9E73F
:1021E0000B30000847300008C12F000870477047C7
:1021F0002DE9F843044690F839001E4617460D466F
:10220000202850D135B32FB394F8380001284AD094
:10221000012084F838004FF00008C4F83C802120E9
:1022200084F83900FFF70AFAA784E78481464FF45F
:102230008057E08C4B46401EE084A0684FF00002BF
:10224000B8424FF080012046009611D101F06EF89F
:1022500000BB02E00120BDE8F8832888C0F3080134
:1022600020684160206908B16D1C08E0AD1C06E0E3
:1022700001F05CF870B9216815F8010B4860E08C3A
:102280000028D6D14B46002240212046009601F07E
:102290004DF808B10320DEE7202084F8390084F8E7
:1022A00038800020D7E70220D5E7FEE770B501258A
:1022B000057104464571F1EE082A9FED072ADFED0E
:1022C000071AB2EE021AF1EE000AB1EE000A001D82
:1022D00000F024FC657070BD00000000CDCCCC3E49
:1022E00090ED030A00220C49B5EEC00AF1EE10FA97
:1022F0000FD00069094B98420BDC094B984208D873
:102300004878401CC0B24870322803D34A7001207C
:1023100070474A7000207047180000200000A0405D
:102320000000A0C010B50446184884422CD1001FFC
:10233000407809280ED2DFE800F005081215181BB6
:102340001E2124009FED120A01E09FED120A201DBC
:1023500000F03AFB201DBDE8104000F069BB9FED86
:102360000E0AF4E79FED0D0AF1E79FED0D0AEEE787
:102370009FED0C0AEBE79FED0C0AE8E79FED0B0AD7
:10238000E5E79FED0B0AE2E710BD0000E802002040
:102390000000B442000000000000B4C20000074387
:1023A00000006143000087430000B4430000E143A4
:1023B0000000614470B50446407880B1607802281E
:1023C0000DD01A48807A60706078022509280DD2F5
:1023D000DFE800F0190C0D07070707070700607812
:1023E000F1E72046FFF77CFF01281AD070BD1048A6
:1023F0000178491CC9B20170C829F7D321786170EE
:102400000021017070BD2046FFF76AFF012808D047
:102410004FF400710748FFF707F90128F2D1607007
:1024200070BD60782070657070BD0000AC03002046
:102430001800002000200240104810B50E4901602D
:102440000221416000214FF450228160C0E9031253
:102450004FF4A002C0E905210122C161C0E90812C0
:10246000C0E90A12FEF71CFC002803D0BDE81040AA
:10247000FEF753B910BD0000006400406400002066
:10248000094808B5016841F40011016000680022A4
:1024900000F40010009011461120FFF777F9BDE815
:1024A00008401120FFF767B930380240F0B587B017
:1024B00014216846FDF79DFE29480025016841F07A
:1024C00010010160016801F010010591016841F0FF
:1024D00040010160016801F040010591016841F08F
:1024E00008010160016801F008010591016841F4EB
:1024F00080710160016801F480710591016841F00B
:1025000001010160016801F001010591016841F0DC
:10251000800101600068012200F08000114F540327
:10252000059021463846FFF784F802260320CDE9BE
:10253000026000940124694601943846FEF78EFF3C
:1025400060028DE8610069460748FEF787FFCDE924
:102550000045694605480294FEF780FF07B0F0BDCC
:1025600030380240001802400020024000000240C3
:1025700010B590B000240E941C2168460F94FDF70E
:1025800038FE1C2107A8FDF734FE254823490160C9
:10259000A721C0E9011440F2CF71C0E903144461DE
:1025A000FFF7C4FC08B1FEF7B8F80E940EA91C485A
:1025B0000F94FFF7ECFB08B1FEF7AFF86020009036
:1025C00040F2E730CDE9010403940494059400221D
:1025D000694613480694FFF741FC08B1FEF79DF8E1
:1025E0000C2269460E48FFF739FC08B1FEF795F852
:1025F0000794089409944FF400500A94CDE90B40D5
:1026000007A907480D94FFF7A1FB08B1FEF785F86D
:102610000348FFF7E5FB10B010BD000000000140CB
:10262000A40000200D4810B50B4901604FF4E131C2
:102630004160002181600C22C160C0E90412816107
:102640000A46C161FFF750F8002803D0BDE81040EA
:10265000FEF763B810BD000000780040E0000020E5
:102660000D4810B50B4901604FF4E1314160002184
:1026700081600C22C160C0E9041281610A46C16117
:10268000FFF732F8002803D0BDE81040FEF745B848
:1026900010BD0000007C00402001002007489FED95
:1026A000060A012180ED000A80ED010A0172002274
:1026B00042728172C172704700000000AC030020BA
:1026C00005480068C16841F01001C1600D2203494E
:1026D0000148FFF743BD0000200100209C030020BB
:1026E000002807D0044950F8012F0A6142684A6166
:1026F00080688861704700009C03002038B521483D
:1027000000680168C943C9063BD40168406800906D
:102710001D4800681C48001D00681C4C1C4A4FF4F2
:1027200000102168914202D919494C3904E0194A34
:10273000914203D916495039086008E0154B154AF3
:10274000603BB83A994201D9D06000E090600D48F2
:10275000FFF75CFC206840680F4CC0F10D000D22B3
:1027600020600E490748FFF7F9FC20680D2808D1C2
:102770000A480078502804D1BDE838400748FFF7E0
:10278000AFBF38BD20010020007C00406001002068
:1027900058640240B86002401C0000209C030020E6
:1027A000FEE7F8B51E460546DDE9063017460C463D
:1027B0000090324639462846FDF7C7FD2146284697
:1027C000BDE8F840FDF76CBE426B91ED120A928AAB
:1027D00052BA12B200EE902AF8EEE00AC1ED120AE7
:1027E00081ED130A406BC08A40BA00B200EE100AB5
:1027F000B8EEC00A81ED030A7047000090ED0C1A94
:10280000244A80ED0D1A90ED010AD0ED110A20EE58
:10281000200A80ED0C0AD0ED0B0A70EE800A10EE53
:10282000901AC0ED0B0A914203DBDFED1B0AC0EDED
:102830000B0A10EE901A194A914203D3DFED180AE1
:10284000C0ED0B0A70EE410A90ED081AD0ED0B1A9C
:1028500021EE000A90ED091A01EE210A90ED0A1A04
:1028600001EE200A80ED0E0AD0ED100AB4EEE00A67
:10287000F1EE10FA02DAF0EE400A01E0C0ED0E0AC5
:1028800090ED0F0AF4EEC00AF1EE10FA01D880EDD7
:102890000E0A704700401C4600401C4600401CC603
:1028A00000401CC6DFED134A00F15C01C0ED104A88
:1028B000C0ED114AC0ED1B4AC0ED1C4AC0ED1D4AD7
:1028C000C0ED1E4A80ED1F2AC0ED202A80ED153A8A
:1028D000C0ED163A81EC040A41789FED070A19B160
:1028E000012901D0032901D180ED140A80ED214A8C
:1028F000704700000000000000F8FF4590ED051A49
:10290000D0ED060A2C4B71EE601A11EE902A9A4215
:1029100024DA11B1012920D11DE0D0ED000A274AA7
:1029200010EE901A914204DC10EE901A244A914263
:102930000FD99FED241AC0EE811AFDEEE10A10EEC8
:10294000901A49B200EE901AF8EEE00A00EE810A01
:1029500001E030EE600A80ED010A7047A9B101295B
:10296000FBD1D0ED001A31EE802AB4EEC12AF1EE8F
:1029700010FA02DB31EE610AEDE7B4EEE02AF1EE87
:1029800010FAE8D830EEE10AE5E7B4EEC01AF1EE4D
:1029900010FA04D890ED000A31EE400ADBE7F4EEBD
:1029A000C00AF1EE10FA04DB90ED000A30EEC00A26
:1029B000D1E7D0ED000ACCE70AD7233C0000B443AE
:1029C0000000B4C30000B44380ED010A704790EDED
:1029D000020AD0ED030AB6EE001A30EE600AD0ED1E
:1029E000040A20EE811AB4EEC01AF1EE10FA02D2F7
:1029F00030EE600A0AE0BEEE001A20EE811AB4EE54
:102A0000C01AF1EE10FA01DD30EE800A90ED111AD5
:102A1000C0EE010A90ED010A30EE600A80ED010A75
:102A200090ED000A30EE800A80ED000A7047000049
:102A3000D0ED010A90ED031A90ED000A70EEC11A74
:102A4000F4EEC01AF1EE10FA02DD30EE010A0AE0EF
:102A500090ED041A70EE811AF4EEC01AF1EE10FA3D
:102A600004D230EE410A80ED000A01E0C0ED000A18
:102A7000D0ED090A254AC0ED0A0A90ED020A90ED50
:102A8000001AD0ED0E1A11EE210A80ED090A30EE7F
:102A9000601AD0ED080A70EE800A10EE901AC0EDB0
:102AA000080A914203DBDFED1A0AC0ED080A10EEB6
:102AB000901A184A914203D3DFED170AC0ED080AB5
:102AC000D0ED050AD0ED081A20EE800AD0ED060AF6
:102AD00000EEA10AD0ED070A00EE810A80ED0B0A94
:102AE000D0ED0D0AB4EEE00AF1EE10FA02DAF0EEE3
:102AF000400A01E0C0ED0B0A90ED0C0AF4EEC00AAA
:102B0000F1EE10FA01D880ED0B0A704700401C4628
:102B100000401C4600401CC600401CC69FED153AF4
:102B200000F1100180ED023A80ED013A80ED093AA2
:102B300080ED0A3A80ED0B3A80ED0C3AC0ED0F2A99
:102B400081EC050A41789FED0C0ADFED0C0A61B1BA
:102B500001290AD0032907D19FED090A80ED0D0A4A
:102B60009FED080A80ED0E0A704780ED0D0AC0ED5A
:102B70000E0A70470000000000E02BC600E02B4664
:102B80000050C3C60050C34670470907090E00280D
:102B900006DA00F00F0000F1E02080F8141D704705
:102BA00000F1E02080F80014704770477047000083
:102BB00010B500210848FFF7F3F90C210648FFF78C
:102BC000EFF9064800210173022101604160BDE870
:102BD000104000F005B80000A4000020D40200203E
:102BE000012251030148FEF724BD000000180240F5
:102BF000017B052914D2DFE801F00306090C0F0060
:102C000040F2E7310AE040F27E4107E04FF496617E
:102C100004E040F2E24101E040F2145100F002B859
:102C2000704700002DE9F0410746007B0E460D4D30
:102C30000D4C4FF00008696348B1606868B1FEF759
:102C4000FDFC20606168401AB0F5967F08D32E64C1
:102C5000387B4046C4F8008001E0FEF7EFFC60607E
:102C6000BDE8F08100000140100000200149C97A50
:102C700001737047AC030020FEF7E6BC30B593B09B
:102C800030216846FDF7B5FA14210CA8FDF7B1FA1A
:102C90001C480025016841F080510160006800F087
:102CA000805011901848016841F44041016000686B
:102CB000022400F440401190012000900190800512
:102CC000CDE906400C2008904FF4A870CDE9090426
:102CD00004200B906846FEF7B3FE00B1FEE70CA996
:102CE0000F2081E831004FF4A0500F904FF4805036
:102CF000109005210CA8FEF77BFD002800D0FEE710
:102D000013B030BD403802400070004010480168E8
:102D100041F4700101600F48016841F00101016058
:102D20000C4A00210832116002680B4B1A40026005
:102D3000031D0A4A1A60026822F4802202600548D4
:102D40000C30016002495806803908607047000065
:102D500088ED00E000380240FFFFF6FE103000244E
:102D600010B50448FFF782FFBDE810400148FFF7A7
:102D70003FBF0000D4020020F0B50268234B244D71
:102D8000244E254F254C4FF0804C984209D0604589
:102D900007D0A84205D0B04203D0B84201D0A0422B
:102DA00004D122F0700E4A6842EA0E0298421BD00B
:102DB000604519D0A84217D0B04215D0B84213D000
:102DC000A04211D0164DA8420ED0164DA8420BD0ED
:102DD000154DA84208D0154DA84205D0144DA84263
:102DE00002D0144DA84203D122F44075CA682A4388
:102DF00002608A68C2620A688262984201D0A04278
:102E000001D10969016301214161F0BD0000014068
:102E10000004004000080040000C00400004014095
:102E200000400140004401400048014000180040BB
:102E3000001C00400020004010B50123046A8B40B4
:102E40009C430462036A8A401343036210BD00007E
:102E500030B5026A22F001020262026A43688469A4
:102E60000D6824F07304254322F002048A6822438B
:102E70000B4CA04202D00B4CA0420BD122F0080414
:102E8000CA6823F4407322434C6922F004021C43B5
:102E90008B6923434360856149684163026230BDA9
:102EA000000001400004014030B5026A22F0100227
:102EB0000262026A436884690D6824F4E64444EAC5
:102EC00005248D6822F0200242EA05120D4DA84229
:102ED00002D00D4DA8420ED1CD6822F0800242EA08
:102EE00005124D6923F4406343EA85038D6922F09E
:102EF000400243EA8503436084614968816302625A
:102F000030BD0000000001400004014030B5026AFD
:102F100022F480720262036A4268C46923F4007377
:102F200024F073050C682C438D6843EA05230D4D8E
:102F3000A84202D00C4DA8420ED1CD6823F4006304
:102F400043EA05234D6922F4405242EA05128D6995
:102F500023F4806342EA05124260C4614968C16398
:102F6000036230BD000001400004014030B5026A38
:102F700022F480520262046A4268C3690D6823F435
:102F8000E64343EA05238D6824F4005444EA0534FB
:102F9000084DA84202D0084DA84204D14D6922F440
:102FA000804242EA85124260C3614968016404625A
:102FB00030BD00000000014000040140FFF79EBB4F
:102FC00070B5846B2068406994F83910C0F3C01064
:102FD0000025212904D118B1E584204600F046F8E7
:102FE0002068406994F83A10C0F38010222904D177
:102FF00018B1E585204600F02BF8E06B40F010009A
:10300000E0632046FFF72EF870BD10B50146806BD7
:1030100009680968C90513D40021C1850168CA6817
:1030200022F48072CA6001684A6922F001024A6192
:1030300001684A6922F040024A61202180F83A1072
:10304000FFF7D4F810BD10B5806BFFF7D0F810BDB6
:103050000168CA6822F49072CA6001684A6922F065
:1030600001024A61202180F83A1070470168CA685D
:1030700022F0C002CA60202180F839107047000099
:103080002DE9F04104460068016921F44052E168ED
:10309000114301612168C86849F20C6290432369B9
:1030A000A268E5691A4363692B431A430243CA6065
:1030B0002168486920F44072A06910434861E169C1
:1030C0006425B1F5004F9748974A21684FF03208C0
:1030D0003FD0914201D081427CD1FEF75FFC00EBF2
:1030E000C00101EB001061688900B0FBF1F6FEF74A
:1030F00055FC00EBC00101EB001061688900B0FBDA
:10310000F1F0B0FBF5F06FF01801484306EB8001D9
:1031100008EB0110B0FBF5F000F0F006FEF73EFC06
:1031200000EBC00101EB001061688900B0FBF1F019
:10313000B0FBF5F006EB0016FEF730FC00EBC0012B
:1031400001EB001061688900B0FBF1F7FEF726FC87
:10315000D2E0914201D081423DD1FEF71FFC00EB4D
:10316000C00101EB001061684900B0FBF1F0B0FB59
:10317000F5F00601FEF712FC00EBC00101EB0010B8
:1031800061684900B0FBF1F7FEF708FC00EBC001F5
:1031900001EB001061684900B0FBF1F0B0FBF5F005
:1031A0006FF01801484307EB800108EBC100B0FB4A
:1031B000F5F000F0F80006EB4006FEF7EFFB00EB41
:1031C000C00101EB001061684900B0FBF1F7FEF7A8
:1031D000E5FB3CE055E0FEF7C9FB00EBC00101EB6D
:1031E000001061684900B0FBF1F0B0FBF5F006019A
:1031F000FEF7BCFB00EBC00101EB00106168490069
:10320000B0FBF1F7FEF7B2FB00EBC00101EB0010E1
:1032100061684900B0FBF1F0B0FBF5F06FF0180108
:10322000484307EB800108EBC100B0FBF5F000F06C
:10323000F80006EB4006FEF799FB00EBC00101EB3E
:10324000001061684900B0FBF1F7FEF78FFB00EB5F
:10325000C00101EB001061684900B0FBF1F0B0FB68
:10326000F5F06FF01801484307EB800108EBC1004F
:10327000B0FBF5F000F00700216830448860BDE83D
:10328000F081FEF773FB00EBC00101EB00106168F9
:103290008900B0FBF1F6FEF769FB00EBC00101EB22
:1032A000001061688900B0FBF1F0B0FBF5F06FF041
:1032B0001801484306EB800108EB0110B0FBF5F064
:1032C00000F0F006FEF752FB00EBC00101EB00102E
:1032D00061688900B0FBF1F0B0FBF5F006EB001679
:1032E000FEF744FB00EBC00101EB001061688900B0
:1032F000B0FBF1F7FEF73AFB00EBC00101EB001069
:1033000061688900B0FBF1F0B0FBF5F06FF01801D7
:10331000484307EB800108EB0110B0FBF5F000F02B
:103320000F00A9E700140140001001402DE9F04111
:10333000984617460E460446069D1DE0681C1BD0A5
:103340002DB1FEF77BF9A0EB0800A84214D9206844
:10335000C16821F4D071C1602068416921F0010188
:103360004161202084F8390084F83A00002084F874
:1033700038000320BDE8F0812068006836EA0000CC
:1033800004D00020B842D9D00020F3E70120F9E7AB
:10339000FEE702E008C8121F08C1002AFAD17047F0
:1033A0007047002001E001C1121F002AFBD17047C5
:1033B000FEF752F9FFF762FCFFF778F8FFF760F8C5
:1033C000FFF73AF8FFF72EF9FFF74AF9FFF7D0F8C1
:1033D0000C48FCF7B3FF0C48FDF7AAF90B48FEF7C1
:1033E00065FF094909480A78002AFCD14278012A78
:1033F000F9D1FFF753F90648FFF7DAFBFFF760F959
:10340000FEE7000064000020C0010020E40200206C
:10341000D4020020000000000102030401020304A2
:103420000607080900061016000610164C3400089E
:1034300000000020240000009233000870340008CF
:103440002400002094070000A233000800000000C0
:103450000024F400000000000000F0410000000023
:10346000000000000000000000000000000000005C
:04000005080001AD41
:00000001FF
