:020000040800F2
:10000000800D0020C1010008153200081B280008DF
:10001000B92D00082D020008093B0008000000006F
:10002000000000000000000000000000D3330008C2
:100030002905000800000000D13300080135000840
:10004000DB010008DB010008DB010008DB01000820
:10005000DB010008DB010008DB010008DB01000810
:10006000DB010008DB010008DB010008DB01000800
:1000700061040008DB010008DB010008DB01000867
:10008000DB0100086D040008DB010008DB0100084B
:1000900031020008DB010008DB010008DB01000879
:1000A000DB010008DB010008DB010008DB010008C0
:1000B000DB010008DB010008DB010008DB010008B0
:1000C000DB010008DB010008DB010008DB010008A0
:1000D000DB010008DB010008DB010008B53A00087D
:1000E000DB010008DB010008DB010008DB01000880
:1000F000DB010008DB010008DB010008DB01000870
:10010000DB010008DB010008DB010008DB0100085F
:10011000DB010008DB010008E9350008DB0100080D
:10012000DB01000879040008DB010008DB0100089E
:10013000DB010008DB010008DB010008DB0100082F
:10014000DB010008DB010008DB010008DB0100081F
:10015000DB010008DB010008DB010008C93A0008E8
:10016000DB010008DB010008DB010008DB010008FF
:10017000DB010008DB010008DB01000800000000D3
:10018000DB010008DB010008DB010008C1360008C4
:10019000DB010008DB010008DB010008DB010008CF
:1001A0000000000000000000DB010008DFF80CD0B8
:1001B00000F02AF800480047293B0008800D002085
:1001C0000648804706480047FEE7FEE7FEE7FEE7F1
:1001D000FEE7FEE7FEE7FEE7FEE7FEE795350008EF
:1001E000AD010008D2B201E000F8012B491EFBD29C
:1001F00070470022F6E710B513460A460446194632
:10020000FFF7F0FF204610BD064C074D06E0E06802
:1002100040F0010394E8070098471034AC42F6D34D
:10022000FFF7C8FFB03B0008D03B0008FEE7000026
:10023000014800F089BF00000801002000B58BB024
:1002400000210122CDE90612039108920491019147
:1002500002910E2205910992044901631C31416308
:10026000694600F0FDFE0BB000BD0000C800002094
:1002700001684A6942F002024A61FFF7DFBF70B5C8
:10028000066B0D0A049C3575056B6975056B110AC3
:10029000A975016BCA75026B190A1176016B4B7651
:1002A000026B210A9176006BC47670BD10B54FF4D5
:1002B000D872036802EB01129B5813F00404436BDD
:1002C0009C600468436BA45854D0E4085C600368E5
:1002D0009A58436B02F00202DA604FF4DA72036854
:1002E00002EB01129B58446B03F00F032361036878
:1002F0009A58436BC2F30722DA614FF4DC72036849
:1003000002EB01129B58446B237503689B58446BA6
:100310001B0A637503689B58446B1B0CA375036829
:100320009A58436B120EDA754FF4DE72036802EBD3
:1003300001129B58446B237603689B58446B1B0A3D
:10034000637603689B58446B1B0CA37603689A582A
:10035000436B120EDA762022002901680DD00A6163
:1003600001684A6922F010024A6190F83810222987
:1003700009D021E0640D1C60A9E7CA6001684A69E0
:1003800022F00202F0E701684A6922F480724A61B1
:1003900001684A6922F400724A6101684A6922F4DC
:1003A00080624A6101684A6922F400624A61016818
:1003B0004A6922F400424A6190F83810322907D085
:1003C0005FF0010180F8381001F05EF8002010BDE8
:1003D0001221F7E710B5026B1160026B5160026BDE
:1003E00000219160026BD160026B082111610A212A
:1003F00001F0C4F808B1002010BD012010BD10B5F7
:1004000001684A6922F001024A6190F83810122905
:1004100018D101684A6922F480724A6101684A6908
:1004200022F400724A6101684A6922F480624A61DA
:1004300001684A6922F400624A6101684A6922F44B
:1004400000424A6190F83810322906D0012180F824
:10045000381001F05DF9002010BD2221F7E70000FF
:10046000014801F09DB90000E4020020014801F0BC
:1004700097B9000084020020014801F091B9000002
:100480004403002001681823CAB2103AB2FBF3F209
:10049000054B6FF30901032A9B5CC36500D9091D55
:1004A0008165084670470000A83B000810B501466A
:1004B00000208B698A6A4FF0C07453B1B3F5005FB6
:1004C00015D072B1012A0CD0022A0AD0032A09D110
:1004D00004E01AB1012A06D0022A03D1C96AC9016F
:1004E00000D5012010BDC96AA142FAD010BD002A72
:1004F000F7D0012AF2D0022AF3D0032AF3D010BD9C
:1005000030B50468256825F480252560046863609B
:100510008368402B036803D099600068C26030BDD7
:100520009A600068C16030BD7047FEE72DE9F04178
:1005300000F564752DED048B02274FF003089FED45
:100540002C8ADFED2C8A9FED2C9ADFED2D9A2F70EF
:10055000044600F5407680F89183F7EE002AB0EE6D
:10056000482AF0EE481AB0EE681AF0EE490A23491C
:10057000B0EE690A284602F05FFC2049B7EE001A87
:100580002439F3EE0E0AB0EE690A284602F006FEA0
:100590001A49377086F80180DFED1A2A9FED1A2A72
:1005A000F0EE481AB0EE681AF0EE490A2431B2EEC5
:1005B000040A304602F040FC10499FED141A0C3931
:1005C000F2EE040AB2EE040A304602F0E7FD2770AC
:1005D000002084F82004012084F82104204600F043
:1005E0003DF8BDEC048B2046BDE8F04100F010B8AA
:1005F0000000000000001644000016C4480000205F
:1006000000004842B205B6C1000048C28AAB2ABE0B
:1006100010B5044601F034FBA060E06000202074B7
:100620006074F02104F11400FFF7E3FDF02104F5FC
:100630008270FFF7DEFDF02104F5FA70FFF7D9FDB7
:100640009FED050A84EDBC0A84EDBD0A84EDBE0A67
:1006500084EDBF0A10BD0000000000000021C17041
:100660004170022202718170704700002DE9F0474D
:100670000446FF482DED048BA0F19006844201D082
:10068000B44272D1FB4D29784FF0020A4FF00008B6
:10069000DFEDF98A4FF001099FEDF88A04F1400778
:1006A0000A2962D2DFE801F00513EBEB3962E5E4D9
:1006B000E3E2844201D1F24903E0B44255D1F0496A
:1006C0001831201D02F02DFD9FEDEE0AF8E0DFF855
:1006D000B88384420DD1EA493846243102F004FD42
:1006E000E749201D02F01DFD95EDF60AD8ED000A40
:1006F0000FE0B44239D1E2493846483102F0F4FC07
:10070000DF49201D183102F00CFD95EDD20AD8ED1D
:10071000010A002130EE200A17E2844206D1D849AE
:10072000201D02F0FEFCB0EE680AC9E0B4421CD104
:10073000D349201D183102F0F4FCD449206C8842C2
:1007400001D885F80580D249206C884201D385F80C
:1007500005A095F90500401E00EE100AB8EEC00A8B
:10076000DFEDCC0A20EE200AAAE088E084427CD1AA
:10077000C0493846183902F0B7FCC149201D02F0C3
:10078000D0FCC549206DC54A0144914201D2697827
:10079000E9B3C349884205DDBF49C943884201DA4C
:1007A0006878A8B385F8019095EDF40AC0EE080AC0
:1007B000FDEEE00AB8EEE00ADFEDBA1AB0EE612A0B
:1007C00000EE082A94ED100A9FEDB71AB4EEC02A85
:1007D000F1EE10FA0FD210EE900A401C02EE100A51
:1007E000F8EEC22AB0EE412A02EE882AB4EEC02A00
:1007F000F1EE10FA19DC10EE900A401E02EE100A1B
:10080000B8EEC22A42EE081AF4EEC01A01E00FE078
:1008100017E0F1EE10FA36D2F8EEE00A00EE881A90
:10082000B4EEC01AF1EE10FA2DDD85F803803EE03B
:1008300085F8048095EDF40AC0EE080ABDEEE00AE2
:100840000CE085F804A095EDF40AC0EE080ABDEEB0
:10085000E00A10EE100A401C00EE100A00212046AB
:10086000B8EEC00A20EE080A04E030E087E173E148
:10087000EEE03CE002F0CDFA6878012894D0BDECBF
:10088000048BBDE8F087E87888B9A878401CC0B22E
:10089000A870032804D985F8018085F8038006E054
:1008A0002879801E00D54042287185F8039095F97B
:1008B0000400401E00EE100AB8EEC00A20EE280A1E
:1008C000BDEC048B2046BDE8F04702F061BCB442A9
:1008D000D5D1684938460C3902F006FC6849201D1C
:1008E000183102F01EFC00219FED700A2DE18442B8
:1008F0006AD160493846183902F0F6FB6049201D7C
:1009000002F00FFC95EDF40AC0EE080AFDEEE00AD5
:10091000B8EEE01A9FED669AB0EE490A01EE080AB9
:1009200094ED141AB4EEC10AF1EE10FA11D210EEE1
:10093000900A94ED101A401C00EE100AB8EEC00A9E
:1009400020EE080AB4EEC10AF1EE10FA01DD687873
:10095000C8B3B8EEE00A20EE081A94ED100AB4EE1F
:10096000C01AF1EE10FA0CD2F8EEE01A9FED511A0F
:1009700001EE881AB4EEC01AF1EE10FA01DD6878C3
:1009800028B385F8019000BF95EDF40AC0EE080A7F
:10099000BDEEE00AF8EEC00A9FED471A00EE881A95
:1009A000D4ED100AB4EEE01AF1EE10FA1FD2B8EE50
:1009B000C00A00EE089AB4EEE09AF1EE10FA16DDE5
:1009C00085F8038027E000E031E0404600E0504633
:1009D0002871F8EEE00AB0EE680A0021204600EE29
:1009E000880A02F016FA68780128CDD01FE0E8786E
:1009F00088B9A878401CC0B2A870032804D985F82B
:100A0000018085F8038006E02879801E00D54042E9
:100A1000287185F8039095F90400401E00EE100A35
:100A20002046B8EEC00A20EE280A02F0B1FBB4421C
:100A30007FF425AF0F4938460C3902F055FB1049B9
:100A4000201D183102F06DFB0021BAEE0A0A7CE08D
:100A5000DFF86880844252D195EDF60AD5EDF40AAC
:100A6000074830EE600A1C3880ED010A28E00000DB
:100A70004C070020BC030020000034430000B443B6
:100A8000240000200000000018090020000020C100
:100A90000000F0C10000C842FF7F0EBCFFFF8101D3
:100AA0000060A4450080A24300000C4200008CC1FD
:100AB00000005243000016430000114324090020A7
:100AC000D0ED030AB4EEE00AF1EE10FA06DCF1EE26
:100AD000600AB4EEE00AF1EE10FA01D2374901E003
:100AE00036490C31384602F0FFFA3449201D2439CA
:100AF00002F017FB98ED000AD5EDBE0A22E0B442E1
:100B000096D195EDD20AD5EDD00A30EE600A10EEFE
:100B1000100AB0F17E5F04DC10EE100A10F1814F74
:100B200002D92649243101E024493031384602F007
:100B3000DBFA2249201D183902F0F3FA98ED010A78
:100B4000D5EDBF0A012130EE200ABDEC048B204612
:100B5000BDE8F04702F05DB9844202D1174930394F
:100B600003E0B442CCD115491839201D02F0D9FA5E
:100B7000BDEC048B201DBDE8F04702F0E3B98442D0
:100B800007D10E4938460C3902F0AEFA0B4930391C
:100B900008E0B442B4D109493846183102F0A4FA49
:100BA00006491839201D02F0BCFA384602F072F9E5
:100BB00094ED200A201D02F0B1FAD9E7540000207C
:100BC0002DE9F04105462DED048B00F108049FED61
:100BD000B48AB44E0020F0EE488AB17BF0EE689AF9
:100BE000B0EE689A012902D12978072928D001217D
:100BF0002172607284EDB78A84EDB88A84EDB98A77
:100C000095EDF40A84EDBA0A95EDD00A84EDBB0A9D
:100C100001F036F82060606084EDBD8A84EDBC8A06
:100C20005FF0000004EB8001401C81ED038AC0B23C
:100C300081ED3F8A3B28F5D3BDEC048BBDE8F08104
:100C4000217A994F79B32072607284EDB78A84ED6E
:100C5000B88A84EDB98A96ED020A87ED060A95ED09
:100C6000F40AD6ED000A30EE200A84EDBA0A95EDBA
:100C7000D00AD6ED010A30EE200A84EDBB0A00F05E
:100C8000FFFF2060606084EDBD8A84EDBC8A002097
:100C900004EB8001401C81ED038AC0B281ED3F8AE4
:100CA0003B28F5D3C8E7FFE700F0EAFF00216060CA
:100CB00004EB8100491C90ED040AC9B280ED030ADF
:100CC00090ED400A3B2980ED3F0A90ED7C0A80EDD3
:100CD0007B0AEDD395EDF40AD6ED000A30EE200A3A
:100CE000D4EDBA0A30EE601A87ED021AD4E9000199
:100CF000081A00EE100AF8EE401ADFED6C0A81EED9
:100D0000A00AC1EE001A00EE100AB8EE401A81EEF9
:100D1000200AC4ED3E1AD5EDD00A96ED011A70EE08
:100D2000810A94EDBB1A70EEC10A80EE801A84ED40
:100D30007A1A96ED020AD7ED060A30EEC01AB0EE26
:100D4000C11A11EE100AB0F17C5F02DA84EDB60A26
:100D500003E0C4EDB60AB0EE600A87ED060A002093
:100D600004EB8002401C92ED030AC0B23C2870EEF6
:100D7000299A92ED3F0A30EE099A92ED7B0A70EEC5
:100D8000288AEDD3DFED4A0A88EEA00A89EEA02A70
:100D9000C9EE201AF1EE040A84EDB72AC0EE802ACB
:100DA000C4EDB81A84EDB90A9FED421A82EE813A79
:100DB000DFED410A63EE202AF4EEC22AF1EE10FACA
:100DC00001D2C4EDB72AB9EE042AC2EE002A82EE9F
:100DD000812A94EDB71A62EE200AF4EEC10AF1EE10
:100DE00010FA01DDC4EDB70AB3EE071A334AC0EEBC
:100DF000010A94EDB70A20EE800A60EEA10A10EE17
:100E0000100A84EDBC0AC4EDBD0A904206DA10EE69
:100E1000100A2B4A904201D284EDBC8A294AD4F8A8
:100E2000F002904203DDB2EE060A84EDBC0A264AC7
:100E3000D4F8F002904203D9BAEE060A84EDBC0A57
:100E400010EE900A214A904206DA10EE900A204AEB
:100E5000904201D284EDBD8A1E4AD4F8F402904239
:100E600003DDB0EE080A84EDBD0AD4F8F40210F1F7
:100E70007F5F03D9B8EE080A84EDBD0A216095EDC5
:100E8000F40AD6ED000A30EE200A84EDBA0A95ED98
:100E9000D00AD6ED010A30EE200A84EDBB0ACBE67B
:100EA00000000000240900200800002000007A440F
:100EB00000007042560E494000003443CDCC4C3EF9
:100EC000CDCC4CBE00003041000030C1CDCCCC3E7A
:100ED000CDCCCCBE00004040F0B52B482B4990ED66
:100EE000F60AD0EDF40A30EE600A81ED040A90EDC6
:100EF000D20AD0EDD00A30EE600A81ED050A027800
:100F000000212348072A3DD11F4C224A224D94ED4F
:100F1000F40AD4EDF60A94EDD21A92F80CE030EE11
:100F2000C00A1E4B03260627F0EEC00A94EDD00A35
:100F300092684FF07E5C31EE400ABEF1000FB0EED9
:100F4000C00A0BD0AA4210EE902A14DD624519DACD
:100F500010EE102A9A4215DA0670F0BDAA4210EE81
:100F6000902A03DD0E4CA242F2DB0BE0624505DB6A
:100F700008E00770F0BDB2F17F5F03DA10EE102ACF
:100F80009A42F6DB0170F0BDBC030020080000208F
:100F9000A8000020240900200000C0409A99193FB1
:100FA000CDCC4C3F10B5034600781878274C801EF6
:100FB00008283CD2DFE800F0172004040404303095
:100FC000207A012833D02249497B012906D01870A4
:100FD0009878032823D9207A187020E01846FFF764
:100FE0003DFB0720F8E71B4890ED010A032083ED45
:100FF000F40A83EDF60AEFE793EDD40ADFED160A63
:1010000093EDE31A002070EE600A80EE810A83ED12
:10101000D00A83EDD20ADFE71846FFF71FFB0F481F
:10102000017801290FD01978012904D00BE0184666
:10103000FFF714FBCFE793EDF40A83EDF60A93ED87
:10104000D00A83EDD20A1978017010BD180900206A
:10105000240900205809002000502B4508000020DA
:10106000F0B50A7D01209040344A136843F0010333
:101070001360136823F47C53136013684C6A43EACB
:10108000042313602D4B1C331C6884431C602B4DC0
:101090002B4CCE690C35A6B92E6886432E608F89FD
:1010A0004E6867F31F464F6904EBC707C7F84066F1
:1010B0000F890E6867F31F464F6904EBC707C7F82F
:1010C0004466CE69012E14D12E6806432E600E8828
:1010D0004D6866F31F454E6904EBC606C6F84056D8
:1010E0000E89CD6866F31F454E6904EBC604C4F84B
:1010F0004456124C8D69241D002D256806D00543E9
:1011000025600E4C0D69143415B104E08543F7E7F2
:101110002568854325600D69012D02D125680543A9
:101120002560096A012902D1196801431960106814
:1011300020F0010010600020F0BD000000660040BB
:10114000006000407047000010B504460068416927
:10115000C943C90714D182685849914368D0002116
:101160008368574A9A4365D000228368554898435C
:1011700062D000201143014302D02046FFF73FF91F
:101180002068C168406911F0030FC0F3400004D02B
:1011900018B100212046FFF789F8216808694969DC
:1011A00010F0030FC1F3001104D019B10121204642
:1011B000FFF77CF820688169426911F0010FC2F3E2
:1011C00000234269C2F3C03205D023B11AB1E16BEA
:1011D00041F00101E1638169C1F340034169426962
:1011E000C1F34021C2F3C0322BB121B11AB1E16B7E
:1011F00041F00201E16381694269C1F38001C2F3F8
:1012000080234269C2F3C03229B123B11AB1E16B24
:1012100041F00401E163816911F0700F0ED00021EB
:1012200042694369C2F3C022C3F3C03341B127E02E
:10123000012195E7012298E701209BE70121EFE7D3
:10124000F2B1EBB1816901F07001402929D006DCCF
:10125000102909D020290BD030290DD11DE05029AB
:1012600023D0602908D124E0E16B41F0080102E0BD
:10127000E16B41F01001E163816921F0700181614E
:10128000E06B002808D0216804204860012084F821
:1012900038002046FFF756FF10BDE16B41F02001FA
:1012A000E9E7E16B41F04001E5E7E16B41F08001E6
:1012B000E1E7E16B41F48071DDE700000300000429
:1012C00000030008000003102DE9F041040004D0E1
:1012D00094F83800002518B107E00120BDE8F0813E
:1012E00084F83950204600F093F8022084F8380042
:1012F0002068016821F0020101602068016841F066
:101300000101016000F0BCFC0746032605E000BFB8
:1013100000F0B6FCC01B0A2863D820684068C007EC
:10132000F6D020684168C90768D0A1690129016821
:101330003FD021F080010160E06901282068016848
:101340003AD021F040010160206A0128206801683C
:1013500035D021F020010160606A01282068016811
:1013600030D021F010010160A06A012820680168D6
:101370002BD021F008010160E06A01282068016893
:1013800026D021F004010160D4E902010843D4E928
:101390000412114308436168491E08432168C8616B
:1013A0002068016821F00101016000F069FC074636
:1013B0001CE041F08001BEE741F04001C3E741F08D
:1013C0002001C8E741F01001CDE741F00801D2E764
:1013D00041F00401D7E700BF00F052FCC01B0A280F
:1013E00004D904F8386F0320657077E720684068F7
:1013F000C007F1D120684068C00703D0042084F8FA
:1014000038006AE7E563012084F83800002065E7CA
:1014100010B586B0044614216846FEF7EAFE174967
:101420002068884227D116480021026842F00072E5
:101430000260006800F000700590114810380268E2
:1014400042F0080202600068022200F008000590E5
:101450000320CDE90210CDE900020920049069467D
:10146000084800F021FB02221146142000F0B0FCD5
:10147000142000F0A2FC06B010BD00000064004083
:1014800040380240000C02407CB504463748844294
:101490006AD1606B8168002961D1C168E9BB0168CC
:1014A000334DA1F50071053906D001290ED002296E
:1014B0001FD003292CD11EE0808A40BA00B200EE72
:1014C000100AB8EEC00A85EDF80A21E02949204645
:1014D0000E4601F085FC2748403001F02FFE2878A9
:1014E000022815D02248FFF75DFD3046FFF7BEF811
:1014F0000EE0214901E0204990310E46204601F0DE
:101500006FFC1D48083801F0F3FF304601F0A4FFDE
:101510001948083890ED320A00E020E0BDEEC00A1C
:1015200010EE101A90ED0E0A09B2BDEEC00A10EED0
:10153000100A00B2CDE9000195EDCC0A40F2FF118E
:10154000BDEEC00A10EE100A95EDF00A03B2BDEE32
:10155000C00A10EE100A02B2204601F02EFC2068EC
:10156000416941F0020141617CBD00000801002099
:10157000BC030020BC060020E80700202DE9F05F36
:101580000E46016804468868400105D48868000159
:1015900002D48868C00067D594F8390001280ED0BD
:1015A000012784F8397094F8380022280AD01220D4
:1015B00084F838008868400106D500250AE002203A
:1015C000BDE8F09F3220F3E78868000101D50125CE
:1015D00000E002254FF4C07000EB05100A5802F03D
:1015E00001020A50216B8A68EAB3D4F800C05CF8A3
:1015F00000301343CA68496842EAC1010B434CF802
:101600000030216B0A7C02F00F020A614FF4C271B4
:10161000226801EB0511535823F00F035350226841
:101620005358D4F830C0DCF810C043EA0C035350D0
:10163000216B4FF4C47303EB05130A7DD1F8151029
:1016400042EA01212268D150216B4FF4C67303EBAB
:1016500005130A7ED1F8191042EA01212268D150FF
:1016600021680A5801E00DE046E042F001020A500C
:1016700000F006FB81464FF00008DFF888A0DFF895
:1016800088B019E022681358D1F80CC0098843EAE1
:101690000C0343EA41511150B3E7701C0CD02EB13A
:1016A00000F0EEFAA0EB0900B04205D9032084F85F
:1016B000380084F8398083E795B12068012D81686E
:1016C00013D0124888430028E7D194F83800322814
:1016D0000ED084F8387000BF84F8398000206FE79E
:1016E000206881682AEA0100EDE72BEA0100EAE7B9
:1016F000222084F83800EFE7042084F83800012025
:101700005EE700000300000400030008000003106F
:1017100070472DE9F0410446876D00F0B1FA0646A6
:1017200094F835000025022806D08020606584F8F2
:1017300034500120BDE8F0812068016821F01601D5
:1017400001602068416921F080014161206C08B985
:10175000A06C20B12068016821F0080101602068B8
:10176000016821F0010101600BE000F089FA801BA3
:10177000052806D92020606504F8345F03206070D6
:10178000D8E720680068C007EFD194F85C103F20CC
:101790008840B86004F8345F012060700020C9E719
:1017A0002DE9F84304464FF00008CDF80080644866
:1017B0004FF41651A56D0068B0FBF1F72E6894F850
:1017C0005C10082000FA01F131420FD021680A684C
:1017D00052070BD50A6822F004020A6094F85C10E4
:1017E0008840A860606D40F00100606594F85C106E
:1017F00054488840304208D021684969090604D518
:10180000A860606D40F0020060654E4894F85C107E
:10181000C01C8840304208D021680968890704D577
:10182000A860606D40F00400606594F85C101020C2
:101830008840304218D021680968090714D5A8608B
:1018400020680168490304D50068000308D5A16C2D
:1018500007E00168C90503D4016821F008010160AF
:10186000216C09B12046884794F85C1020208840FC
:1018700030424FF0010631D021680968C9062DD5E4
:10188000A86094F8350005282068016806D049034F
:1018900047D5006800031DD4616C1CE021F01601DF
:1018A00001602068416921F080014161206C08B924
:1018B000A06C20B12068016821F00801016094F853
:1018C0005C103F208840A86084F8348084F835603C
:1018D000216D1FE0E16B09B120468847606D00284B
:1018E0002BD0606DC00714D0052084F83500206827
:1018F000016821F0010101600098401C0090B8428D
:1019000003D820680068C007F6D184F8348084F8D2
:101910003560E16C002910D001B02046BDE8F043ED
:1019200008470168C905D5D4016821F0100101609C
:1019300084F8348084F83560CCE7BDE8F883000093
:1019400000000020010080002DE9F041044600F075
:1019500097F906465CB1002584F83450022084F8DB
:1019600035002068016821F0010101600DE00120CF
:10197000BDE8F08100F084F9801B052805D92020FE
:101980006065032084F83500F2E720680068C0072E
:10199000F0D1226811681F480140D4E901031843BF
:1019A000D4E903363343184363691843A3691843E2
:1019B000E3691843236A18430843616A042903D181
:1019C000D4E90B1319430843106020684069666A24
:1019D00020F0070130460E43012704280AD1A06AEF
:1019E00006432046FEF762FD20B14020606584F882
:1019F0003570BCE7206846612046FEF743FD94F849
:101A00005C203F2191408160656584F8357000203D
:101A1000AEE700003F8010F02DE9F0410446866DEE
:101A200090F83400002501280DD0012084F83400FE
:101A300094F835700020012F07D084F83400022577
:101A40002846BDE8F0810220FBE7022784F83570C4
:101A500060652046FEF754FD94F85C103F208840F6
:101A6000B0602068016841F016010160206841699A
:101A700041F080014161206C20B12068016841F093
:101A8000080101602068016841F001010160D7E7A9
:101A900031B500F0F5F8044600F0F2F80099001BAB
:101AA0008842F9D338BD00002DE9F84FDFF890B136
:101AB00000224FF001084FF0030A4FF00F090BF11D
:101AC000040E00BF0B6808FA02F42340A3426ED153
:101AD0004D68022D01D0122D0ED1D50800EB850CDA
:101AE000DCF820505607F70E09FA07F6B5430E69E1
:101AF000BE402E43CCF82060066855000F790AFAE4
:101B000005FC07F0030726EA0C06AF4037430760E1
:101B10004E68012E05D0022E03D0112E01D0122EB8
:101B20000ED18768CE6827EA0C07AE403E43866038
:101B30004668A6430C79C4F30014944034434460CF
:101B4000C4688E6824EA0C04AE402643C6604C6824
:101B5000E4006FD53B4C256845F48045256024683A
:101B600022F0030504F480440094374C2E19D6F873
:101B7000084895072F0F09FA07F5AC43334DA842E3
:101B800001D100252EE0324DA84201D1012529E0E6
:101B9000304DA84201D1022524E02F4DA84201D1A9
:101BA00003251FE02D4DA84202D104251AE041E093
:101BB0002B4DA84201D1052514E02A4DA84201D1A0
:101BC00006250FE0284DA84201D107250AE0274D40
:101BD000A84201D1082505E0254DA84201D10925DB
:101BE00000E00A25BD402543C6F80858DBF8004050
:101BF0005D464E689C43F60300D51C432C60DEF81E
:101C0000004075464E689C43B60300D51C432C60CB
:101C10000B4D08352C684E689C43F60200D51C43DA
:101C20002C60074D0C352C684E689C43B60200D5DD
:101C30001C432C60521C102AFFF444AFBDE8F88FFF
:101C4000003C0140443802400030014000000240A6
:101C50000004024000080240000C02400010024054
:101C60000014024000180240001C02400020024004
:101C7000002402400AB1816170470904FBE70000BB
:101C80000148006870470000C40000200248016855
:101C9000491C016070470000C40000200B4810B5CB
:101CA000016841F400710160016841F480610160E4
:101CB000016841F480710160032000F0A9F8002060
:101CC00000F006F800F018F8002010BD003C0240BB
:101CD00010B5044607484FF47A710068B0FBF1F084
:101CE00000F042FB00222146501E00F071F8002057
:101CF00010BD0000000000200B4882B0016841F4D4
:101D000080410160006800F4804000900648001F98
:101D1000016841F080510160006800F0805000903F
:101D2000052002B000F074B8443802402DE9F041BB
:101D300016460F46040004D094F83900002518B167
:101D400007E00120BDE8F08184F83850204600F01B
:101D5000BBFB242084F839002068C16821F40051BD
:101D6000C160204601F01EFD2068016921F4904108
:101D700001612068416921F02A01416120680169FF
:101D800021F00F0101612068016939430161206878
:101D9000C16821F40061C1602068C1683143C1603D
:101DA0002068C16841F40051C160E563202084F8D7
:101DB000390084F83A000020C4E700F01F02012136
:101DC00091404009800000F1E020C0F80011704708
:101DD000F0B40E4B1B680C46C3F30223C3F1070596
:101DE000042D00D90425191D072901D2002300E084
:101DF000DB1E012606FA05F1491E214099409E404E
:101E0000761E16403143F0BC01F005BA0CED00E03F
:101E1000064900F0070208684FF6FF03184040EA41
:101E20000220034A10430860704700000CED00E0F8
:101E30000000FA052DE9F047DFF8649105460F46EA
:101E4000D9F8000000F00F01F8B28046B94208D27C
:101E5000014689F80010D9F8000000F00F00B842E0
:101E600074D128784F4C800705D52068A96820F0E8
:101E7000F000084320602878C00759D049496868B5
:101E8000083901281AD002281BD0032819D0096864
:101E9000890700295ADA216821F0030101432160F2
:101EA000FFF7EEFE6968064641F28830012911D03D
:101EB00002291DD00329824627D035E0096889030D
:101EC000E7E709688901E4E7FFF7DAFE811B51457E
:101ED00001D926E082462068C0F381000128F3D1B1
:101EE00026E000BFFFF7CCFE811B514501D918E069
:101EF00082462068C0F381000228F3D118E000BFB9
:101F0000FFF7BEFE811B51450BD82068C0F381004E
:101F10000328F5D10CE000BFFFF7B2FE811B51454D
:101F200002D90320BDE8F087206810F00C0FF3D130
:101F3000D9F80010484601F00F01B94208D980F8DD
:101F40000080006800F00F00B84201D00120E9E7EE
:101F50002878400705D52068E96820F4E050084358
:101F600020602878000706D52068296920F46040A1
:101F700040EAC100206000F04BF82168F02292FA9C
:101F8000A2F201F0F001B2FA82F2D140064A515CAD
:101F9000C840064908600020FFF79AFE0020C1E70C
:101FA000003C024008380240983B00080000002036
:101FB00008480949006809684FF4E05292FAA2F211
:101FC00001F4E051B2FA82F2D140044A515CC840B7
:101FD000704700000000002008380240983B0008CD
:101FE00008480949006809684FF4604292FAA2F271
:101FF00001F46041B2FA82F2D140044A515CC84017
:10200000704700000000002008380240983B00089C
:1020100030B51948006810F00C01184812D0184C5F
:1020200004290ED008290DD11349091F0A6802F0AE
:102030003F030A68550247F6C07204D5B4FBF3F0BB
:1020400003E0204630BDB0FBF3F00B680968134095
:1020500092FAA2F2B2FA82F2D34058434FF44032DD
:1020600092FAA2F201F44031B2FA82F2D140491C54
:102070004900B0FBF1F030BD083802400024F40004
:10208000001BB7002DE9F84F0446DFF8CC8200783A
:10209000A8F1040BC007ABF1040537D0D8F8001045
:1020A0004046C1F38101012908D00068C0F38100D6
:1020B00002280AD1DBF80000400206D52868800318
:1020C00024D56068002878D020E0A3492079891FB2
:1020D0000870606868B1FFF7D3FD064605E000BFF1
:1020E000FFF7CEFD801B642868D828688003F7D5E9
:1020F0000CE0FFF7C5FD064605E000BFFFF7C0FD99
:10210000801B6428F0D828688003F7D42078934E89
:1021100080074FF0010A4FF0000742D5D8F80010B1
:10212000404611F00C0F08D00068C0F3810002286F
:102130000AD1DBF80000400206D42868800714D5D5
:10214000E068012839D110E0E068D8B1C6F800A0F5
:10215000FFF796FD814605E0FFF792FDA0EB090031
:102160000228C1D828688007F6D52868F82292FA94
:10217000A2F22169B2FA82F220F0F80091400843FD
:1021800028600EE03760FFF77BFD814606E000BF68
:10219000FFF776FDA0EB090002280FD8286880071A
:1021A000F6D42078000728D56D486169A1B1C0F840
:1021B00000A0FFF765FD814608E0CAE079E000BFB6
:1021C000FFF75EFDA0EB0900022872D862486C3070
:1021D00000688007F4D510E00760FFF751FD8146E5
:1021E00006E000BFFFF74CFDA0EB0900022860D815
:1021F00059486C3000688007F4D42078400749D5EE
:1022000055483830016841F080510160006800F0A5
:10221000805000905348016841F480710160FFF7DD
:102220002FFD814606E000BFFFF72AFDA0EB090065
:1022300002283ED84B480068C005F5D5DFF8189154
:10224000207A09F1680989F80000A06888B1FFF7D1
:1022500017FD009008E000BFFFF712FD0099411A3A
:1022600041F2883081426CD8D9F800008007F3D55C
:1022700010E0FFF705FD009008E000BFFFF700FD4C
:102280000099411A41F2883081425AD8D9F80000A9
:102290008007F3D4A069E0B3D8F80010C1F381013E
:1022A000022956D00228376604D0FFF7E9FC04461D
:1022B0004AE046E0FFF7E4FC074604E0FFF7E0FCF5
:1022C000C01B02283DD828688001F7D4D4E9070153
:1022D000084347F6C07292FAA2F2616AB2FA82F239
:1022E0009140A26A4FF0FF3303EB52024FF44033A8
:1022F00093FAA3F3B3FA83F39A40114308434FF0E0
:10230000706292FAA2F2E16AB2FA82F29140084354
:1023100000E01CE0CBF80000C6F860A0FFF7B0FCBE
:10232000044604E0FFF7ACFC001B022809D828682B
:102330008001F7D50BE000BFFFF7A2FC001B0228CD
:1023400002D90320BDE8F88F28688001F4D400206A
:10235000F8E70120F6E70000083802400000474295
:10236000800E47420070004010B5401EB0F1807FE3
:1023700001D3012010BD4FF0E02460610F216017F0
:1023800000F049FF0020A06107202061002010BD5F
:1023900030B590F83820012A20D0012280F838206A
:1023A000022380F8393003685C6824F070045C60B4
:1023B00003685C680D682C435C6003689C6824F0CB
:1023C00080049C6003689C6849680C439C6080F8AA
:1023D0003920002180F83810084630BD022030BD79
:1023E00010B5040003D094F8390010B107E00120C3
:1023F00010BD002084F83800204600F00DF80220BF
:1024000084F83900211D206801F0FAF8012084F8D1
:102410003900002010BD000008B500680B49884253
:1024200012D10B48016841F01001016000680322DD
:1024300000F01000009011463620FFF7C9FCBDE8FF
:1024400008403620FFF7B9BC08BD0000001000406E
:10245000403802400168CA6842F00102CA60006860
:10246000016841F0010101600020704710B5044689
:102470000068416994F83920C1F3C011212A0BD1B9
:1024800051B1416921F080014161206B08B1FFF732
:1024900040F9204601F07CF92068416994F83A201F
:1024A000C1F38011222A0BD151B1416921F04001C1
:1024B0004161606B08B1FFF72CF9204601F05AF931
:1024C000002010BD704700002DE9F04786B005469A
:1024D00014216846FDF78DFE7248714ED5F800C094
:1024E000002470491038022303220827DFF8B8A11E
:1024F000B4451BD10D6845F080450D60096801F0B9
:1025000080410591016841F0100101600068694651
:1025100000F010000590D0018DE81900CDE90327E7
:102520005046FFF7C1FA06B0BDE8F087DFF87C81BE
:102530004FF020694FF48066C44534D1D1F800C013
:102540004CF0004CC1F800C0096801F00041059151
:10255000016841F01001016000688DE81C0000F086
:102560001000CDE90470694603925046FFF79CFACB
:10257000504F4F483860C7E90194C7E903467C6172
:10258000BC61FC613C6238467C62FFF7DDF908B152
:10259000FDF7CBFF6F63022200215320BD63FFF7DD
:1025A00017FC53203CE0DFF81081C4453BD10F6895
:1025B00047F480270F60096801F4802105910168C4
:1025C00041F0080101600068694600F008000590CC
:1025D0004FF440708DE819000720CDE903203748FB
:1025E000FFF762FA334F32486037783838604FF07F
:1025F0000060C7E90104C7E903467C61BC61FC6176
:102600003C6238467C62FFF79FF908B1FDF78DFF09
:102610006F63022201212720BD63FFF7D9FB27202A
:10262000FFF7CBFB7FE726498C45FBD11D49091DF0
:10263000D1F800C04CF0200CC1F800C0096801F0CE
:1026400020010591016841F0400101600068694680
:1026500000F0400005904FF484408DE81900CDE96A
:1026600003271848FFF720FA124F1748C037386081
:10267000C7E90194C7E903467C61BC61FC613C6227
:1026800038467C62FFF760F908B1FDF74EFF6F63D3
:10269000022201214720BD63FFF79AFB4720BFE7D5
:1026A000007800404038024000100240007C0040AA
:1026B000A06002408402002000480040000C02405C
:1026C00000140140001802402864024070B504461E
:1026D00090F83A00202839D1A9B3A2B394F8380071
:1026E000012833D0012084F83800A162A28500259A
:1026F000E563222084F83A00636B1548D863636B66
:1027000014481864636B1448D864606B13460565FD
:102710000846666B216802463046091DFFF77CF9C2
:102720002068C16841F48071C1602068416941F04E
:10273000010141612068416941F04001416184F833
:102740003850002070BDFFE70120FBE70220F9E7C9
:102750002F3700086B370008E536000870477047D0
:102760002DE9F843044690F839001E4617460D46F9
:10277000202850D135B32FB394F8380001284AD01F
:10278000012084F838004FF00008C4F83C80212074
:1027900084F83900FFF774FAA784E78481464FF480
:1027A0008057E08C4B46401EE084A0684FF000024A
:1027B000B8424FF080012046009611D101F048F94F
:1027C00000BB02E00120BDE8F8832888C0F30801BF
:1027D00020684160206908B16D1C08E0AD1C06E06E
:1027E00001F036F970B9216815F8010B4860E08CEA
:1027F0000028D6D14B46002240212046009601F009
:1028000027F908B10320DEE7202084F8390084F896
:1028100038800020D7E70220D5E7FEE706489FED85
:10282000050A80ED040A80ED000A90ED010A80EDB2
:10283000020A704700000000580900201E4808B531
:1028400000680168C943C90634D401684068009033
:102850001A4800681948001D00681948194A01689B
:10286000D014914202D917494C3904E0164A9142DA
:1028700003D914495039086008E0134B124A603BF1
:10288000B83A994201D9D06000E090600A48FFF759
:10289000EDFD14220D490848FFF718FF0B48017899
:1028A0005A2907D14078A52804D1BDE80840074837
:1028B00000F01EB808BD00004402002000140140D2
:1028C0004403002058640240B86002406C090020B4
:1028D00005480068C16841F01001C1601422034935
:1028E0000148FFF7F3BE0000440200206C090020FD
:1028F00070B5DFED3B1A9FED3B1A3B4B0022815C2C
:102900005A2962D184186178A5295ED164880F2C78
:102910005FD8002157E055180544AE79C02E1FD06E
:1029200008DC902E0FD0A02E1AD0A52E18D0B02ED5
:1029300047D10BE0D02E15D0D12E4DD0D92E49D075
:10294000F02E3ED14AE0491CC9B23AE0B5F90B502D
:1029500000EE105AB8EEC00A20EE210A83ED000AFC
:10296000891DF1E7B5F90B50DFED200A00EE105A92
:10297000891D1F4EB8EEC00AC9B240EE210AC3ED50
:10298000010A93ED020A30EEC00A10EE105A83EDF0
:10299000030AB54202D930EE010A06E010EE105AE1
:1029A000144EB54203DD30EE410A83ED030A93ED88
:1029B000040A93ED032A30EE020A83ED040AC3ED04
:1029C000020A491CC9B2A142A5D3521CD2B2142A90
:1029D00095D370BD0C31B7E71031B5E7091DB3E7EA
:1029E000CDCCCC3D0000B443580900200000344356
:1029F000000096C300009643104810B50E490160D0
:102A00000221416000214FF450228160C0E903128D
:102A10004FF4A002C0E905210122C161C0E90812FA
:102A2000C0E90A12FEF750FC002803D0BDE81040B0
:102A3000FDF77BBD10BD00000064004008010020D0
:102A4000154808B5016841F400110160016801F4FE
:102A500000110091016841F48001016000680022CA
:102A600000F48000009011460C20FFF7B1F90C2013
:102A7000FFF7A3F9002211461120FFF7A9F9112051
:102A8000FFF79BF9002211463920FFF7A1F9BDE8B5
:102A900008403920FFF791B93038024070B586B050
:102AA00014216846FDF7A5FB22480025016841F086
:102AB00010010160016801F010010591016841F009
:102AC00040010160016801F040010591016841F099
:102AD00008010160016801F008010591016841F4F5
:102AE00080710160016801F480710591016841F015
:102AF000800101600068012200F080000E4E540346
:102B0000059021463046FFF7B5F80120CDE9004099
:102B100002240320CDE9024069463046FEF7C4FF97
:102B20002002CDE90005694602940448FEF7BCFF87
:102B300006B070BD3038024000180240002002404C
:102B40001CB500240E4800940C49019401605321E7
:102B5000C0E9011440F2E7314461C160FFF740FC75
:102B600008B1FDF7E2FC0094694605480194FFF7BF
:102B70000FFC002801D0FDF7D8FC1CBD0010004060
:102B8000480100200D4810B50B4901604FF4E131B8
:102B90004160002181600C22C160C0E904128161A2
:102BA0000A46C161FFF7C2F8002803D0BDE8104013
:102BB000FDF7BBBC10BD0000007800408401002080
:102BC0000D4810B50B4901604FF4E131416000211F
:102BD00081600C22C160C0E9041281610A46C161B2
:102BE000FFF7A4F8002803D0BDE81040FDF79DBC16
:102BF00010BD0000007C0040C40100200D4810B54D
:102C00000B4901604FF4E1314160002181600C22E9
:102C1000C160C0E9041281610A46C161FFF786F80C
:102C2000002803D0BDE81040FDF77FBC10BD0000B8
:102C300000480040040200200D4810B50B49016017
:102C40004FF4E1314160002181600C22C160C0E994
:102C5000041281610A46C161FFF768F8002803D0B9
:102C6000BDE81040FDF761BC10BD0000001401403C
:102C70004402002007489FED060A002180ED000A6B
:102C800080ED010A01724172034801707047000033
:102C90000000000018090020A80000200548006876
:102CA000C16841F01001C1600B2203490148FFF7E0
:102CB0000DBD0000C40100200C090020002807D031
:102CC000044950F8012FCA6042680A61806848616F
:102CD000704700000C090020034950200870881E2E
:102CE0000188A0F803107047AA00002038B52148D9
:102CF00000680168C943C9063BD401684068009078
:102D00001D4800681C48001D00681C4C1C4A4FF4FC
:102D100000102168914202D919494C3904E0194A3E
:102D2000914203D916495039086008E0154B154AFD
:102D3000603BB83A994201D9D06000E090600D48FC
:102D4000FFF794FB206840680F4CC0F10B000B228A
:102D5000A0600E490748FFF7B9FCA0680B2808D10E
:102D60000A480078502804D1BDE838400748FFF7EA
:102D7000A5BF38BDC4010020007C004084020020B3
:102D800058640240B8600240A80000200C090020EE
:102D900070B5FFF7A1FF064D002429190A2301226F
:102DA0000448FFF7DDFC641CE4B2032CF5D370BDCE
:102DB000AA000020C4010020FEE7F8B51E46054623
:102DC000DDE9063017460C46009032463946284663
:102DD000FDF755FA21462846BDE8F840FDF7FABA56
:102DE000426B91ED140A928A52BA12B200EE902A06
:102DF000F8EEE00AC1ED140A81ED150A406BC08AB5
:102E000040BA00B200EE100AB8EEC00A81ED030A23
:102E1000704730B504464030054600F01DF928469D
:102E200000F038F894ED200A201D84ED020ABDE878
:102E3000304000F087B8000010B59FED143A04460A
:102E400080ED103A80ED113A80ED190A403000F023
:102E50004BF984ED1D3A84ED1E3A84ED1F3A84ED62
:102E6000203AC4ED210A84ED221AC4ED171A84ED2C
:102E7000182A60789FED060A18B1012801D00328AE
:102E800001D184ED160AC4ED232A10BD0000000014
:102E900000F8FF4590ED0E1A264A80ED0F1A90EDCE
:102EA000020AD0ED000A30EE600AD0ED130A20EEDF
:102EB000200A80ED0E0AD0ED0D0A70EE800A10EEA9
:102EC000901AC0ED0D0A914203DBDFED1B0AC0ED45
:102ED0000D0A10EE901A194A914203D3DFED180A39
:102EE000C0ED0D0A70EE410A90ED0A1AD0ED0D1AF0
:102EF00021EE000A90ED0B1A01EE210A90ED0C1A5A
:102F000001EE200A80ED100AD0ED120AB4EEE00ABC
:102F1000F1EE10FA02DAF0EE400A01E0C0ED100A1C
:102F200090ED110AF4EEC00AF1EE10FA01D880ED2E
:102F3000100A704700401C4600401C4600401CC65A
:102F400000401CC690EC020A90ED031AF5EEC00A90
:102F5000F1EE10FA17DD70EEC11AF4EEC01AF1EEC0
:102F600010FA02DD30EE010A0AE090ED041A70EE6C
:102F7000811AF4EEC01AF1EE10FA14D230EE410AC2
:102F800080ED000A11E070EE811AF4EEC01AF1EE45
:102F900010FAF3D390ED041A70EEC11AF4EEC01AD1
:102FA000F1EE10FADEDCC0ED000AD0ED090A264A87
:102FB000C0ED0A0A90ED020A90ED001AD0ED0E1A4B
:102FC00011EE210A80ED090A30EE601AD0ED080AF0
:102FD00070EE800A10EE901AC0ED080A914203DBF1
:102FE000DFED1A0AC0ED080A10EE901A184A914255
:102FF00003D3DFED180AC0ED080AD0ED050AD0EDC5
:10300000081A20EE800AD0ED060A00EEA10AD0EDE3
:10301000070A00EE810A80ED0B0AD0ED0D0AB4EE2E
:10302000E00AF1EE10FA02DAF0EE400A01E0C0ED3B
:103030000B0A90ED0C0AF4EEC00AF1EE10FA01D87A
:1030400080ED0B0A7047000000401C4600401C4603
:1030500000401CC600401CC690ED071AD0ED080ABF
:10306000204B71EE601A11EE902A9A4209DA29B1CA
:10307000012905D1D0ED000A30EE800A80ED020A68
:103080007047F1B10129FBD1D0ED021A31EE802A4F
:10309000B4EEC12AF1EE10FA18DCD0ED001AF4EE0D
:1030A000C11AF1EE10FA11DCB4EEE02AF1EE10FADA
:1030B00014D3F4EEE01AF1EE10FA0FD331EE800AD9
:1030C000DCE7B4EEC01AF1EE10FA02D280ED021A7B
:1030D0007047F4EEC00AF1EE10FACFDDC0ED020A3F
:1030E000704700000AD7233C0A4A13688B4203D07A
:1030F0009FED090A80ED0D0A91ED000A80ED0A0AA4
:1031000091ED010A80ED0B0A91ED020A80ED0C0AA7
:1031100011607047040000200000000080ED010AEB
:10312000704791ED000A80ED050A91ED010A80EDEE
:10313000060A91ED020A80ED070A704790ED040A35
:10314000D0ED050AB6EE001A30EE600AD0ED060AA0
:1031500020EE811AB4EEC01AF1EE10FA02D230EE6F
:10316000600A0AE0BEEE001A20EE811AB4EEC01A20
:10317000F1EE10FA01DD30EE800AD0ED130A80EE98
:10318000201A90ED000A31EE000A80ED000A704727
:1031900080ED020A001DFFF7D5BE000000B5DFED8F
:1031A000181A0246C0ED021AC0ED011A80ED040A99
:1031B000C0ED050A001DFFF7B4FFC2ED091AC2ED0C
:1031C0000A1AC2ED0B1AC2ED0C1A82ED0F1A5078D2
:1031D0009FED0C0ADFED0C0A60B101280AD003282C
:1031E00007D19FED0A0A82ED0D0A9FED090A82EDD3
:1031F0000E0A00BD82ED0D0AC2ED0E0A00BD0000F0
:103200000000000000E02BC600E02B460020CBC6EB
:103210000020CB4670470907090E002806DA00F0A7
:103220000F0000F1E02080F8141D704700F1E0204D
:1032300080F80014704700000A489FED090A002139
:1032400080ED000A80ED010A80ED020A01734173EE
:1032500081730174044880ED010A80ED000A704713
:103260000000000024090020BC00002038B52448DC
:1032700000680168C943C90641D401680024406858
:103280000090204800681F48001D00681E481F4A23
:103290000168D014914202D91C494C3904E01C4AFF
:1032A000914203D919495039086008E0184B184A6F
:1032B000603BB83A994201D9D06000E09060104874
:1032C000FFF7D4F8132213490D48FFF7FFF911480F
:1032D0000178A52913D141785A2910D1417CAA2916
:1032E0000DD1807CAA280AD10A490120143908741A
:1032F00009480460BDE83840064800F01FB838BDF2
:103300000402002000480040E4020020586402400B
:10331000B860024038090020B40000200548006869
:10332000C16841F01001C160132203490148FFF751
:10333000CDB900000402002038090020144950F8DB
:10334000022F0A6000EE102AB1EE400A81ED000A59
:1033500042684A6082688A60027B0A73427B4A73D1
:10336000807B88730B48B5EEC00AD0ED010AF1EE00
:1033700010FA03DD30EE200A81ED000AB5EEC00A36
:10338000F1EE10FA03D230EE600A81ED000A7047C8
:1033900024090020B40000200A480168491C01608B
:1033A00050290ED90021016008489FED070A80EDE1
:1033B000000A80ED010A80ED020A017341738173F6
:1033C00001747047B40000200000000024090020B0
:1033D0007047704770B500252DED028B04469FEDB8
:1033E000158ADFED128A057200F1080200F19806D5
:1033F0004572B0EE681A0E49F0EE480AB0EE480A7F
:103400001046FFF7CBFE0A4935707570B0EE681AAA
:103410000C31F0EE480AB0EE480A3046FFF7BEFE27
:1034200084F82851BDEC028B70BD00008AAB2A3EA7
:10343000900000200024744900224FF400510148FC
:10344000FEF718BC00180240012251030148FEF7A4
:1034500011BC00000018024070B5204D04462DED4F
:10346000028B95F82801A0B1FFF7EEFF1B489FEDF6
:103470001C8A0830844215D11A49201DFFF751FEDD
:1034800095F82801052825D2DFE800F00624242439
:103490000900FFF7D1FFE9E7B0EE480A13E09FED1E
:1034A000120A10E00F49201D0C31FFF73AFE95F883
:1034B000280105280ED2DFE800F0030D0D0D0400F1
:1034C000EAE79FED0A0A2046BDEC028BBDE870409A
:1034D000FFF75EBEBDEC028B70BD0000E007002070
:1034E000000000009000002000F827C700F82747E0
:1034F0000249497A80F82811704700001809002015
:10350000FEF7C4BB30B593B030216846FCF771FEBE
:1035100014210CA8FCF76DFE1C480025016841F041
:1035200080510160006800F08050119018480168D7
:1035300041F4404101600068022400F440401190D1
:103540000120009001908005CDE906400C200890F4
:103550004FF4A870CDE9090404200B906846FEF7EB
:1035600091FD00B1FEE70CA90F2081E831004FF476
:10357000A0500F904FF48050109005210CA8FEF73A
:1035800059FC002800D0FEE713B030BD403802409F
:10359000007000401048016841F4700101600F485C
:1035A000016841F0010101600C4A002108321160FC
:1035B00002680B4B1A400260031D0A4A1A60026837
:1035C00022F48022026005480C300160024958064E
:1035D000803908607047000088ED00E00038024044
:1035E000FFFFF6FE1030002410B5FFF7D5FE0349AB
:1035F0006FF001000968086110BD0000480100205B
:10360000F0B50268234B244D244E254F254C4FF036
:10361000804C984209D0604507D0A84205D0B042FE
:1036200003D0B84201D0A04204D122F0700E4A6803
:1036300042EA0E0298421BD0604519D0A84217D02A
:10364000B04215D0B84213D0A04211D0164DA842B6
:103650000ED0164DA8420BD0154DA84208D0154DDE
:10366000A84205D0144DA84202D0144DA84203D15F
:1036700022F44075CA682A4302608A68C2620A68F6
:103680008262984201D0A04201D1096901630121FF
:103690004161F0BD0000014000040040000800400E
:1036A000000C004000040140004001400044014083
:1036B0000048014000180040001C0040002000406D
:1036C00010B5FFF713FBFDF707FC04480449407BE6
:1036D0004870BDE81040FFF75BBB000024090020E4
:1036E000A800002070B5846B2068406994F83910F8
:1036F000C0F3C0100025212904D118B1E58420466B
:1037000000F046F82068406994F83A10C0F3801041
:10371000222904D118B1E585204600F02BF8E06B92
:1037200040F01000E0632046FEF7CCFE70BD10B5FF
:103730000146806B09680968C90513D40021C18559
:103740000168CA6822F48072CA6001684A6922F07E
:1037500001024A6101684A6922F040024A6120215F
:1037600080F83A10FEF7FAFF10BD10B5806BFEF737
:10377000F6FF10BD0168CA6822F49072CA60016841
:103780004A6922F001024A61202180F83A1070470C
:103790000168CA6822F0C002CA60202180F839108E
:1037A000704700002DE9F04104460068016921F4EA
:1037B0004052E168114301612168C86849F20C6216
:1037C00090432369A268E5691A4363692B431A434E
:1037D0000243CA602168486920F44072A06910431E
:1037E0004861E1696425B1F5004F9748974A21681F
:1037F0004FF032083FD0914201D081427CD1FEF798
:10380000EFFB00EBC00101EB001061688900B0FB29
:10381000F1F6FEF7E5FB00EBC00101EB001061687B
:103820008900B0FBF1F0B0FBF5F06FF018014843F0
:1038300006EB800108EB0110B0FBF5F000F0F0069C
:10384000FEF7CEFB00EBC00101EB001061688900C0
:10385000B0FBF1F0B0FBF5F006EB0016FEF7C0FB95
:1038600000EBC00101EB001061688900B0FBF1F7CB
:10387000FEF7B6FBD2E0914201D081423DD1FEF786
:10388000AFFB00EBC00101EB001061684900B0FB29
:10389000F1F0B0FBF5F00601FEF7A2FB00EBC00172
:1038A00001EB001061684900B0FBF1F7FEF798FBEF
:1038B00000EBC00101EB001061684900B0FBF1F0C2
:1038C000B0FBF5F06FF01801484307EB800108EBFF
:1038D000C100B0FBF5F000F0F80006EB4006FEF783
:1038E0007FFB00EBC00101EB001061684900B0FBF9
:1038F000F1F7FEF775FB3CE055E0FEF759FB00EBF6
:10390000C00101EB001061684900B0FBF1F0B0FBB1
:10391000F5F00601FEF74CFB00EBC00101EB0010D7
:1039200061684900B0FBF1F7FEF742FB00EBC00114
:1039300001EB001061684900B0FBF1F0B0FBF5F05D
:103940006FF01801484307EB800108EBC100B0FBA2
:10395000F5F000F0F80006EB4006FEF729FB00EB5F
:10396000C00101EB001061684900B0FBF1F7FEF700
:103970001FFB00EBC00101EB001061684900B0FBC8
:10398000F1F0B0FBF5F06FF01801484307EB800150
:1039900008EBC100B0FBF5F000F0070021683044EF
:1039A0008860BDE8F081FEF703FB00EBC00101EB8E
:1039B000001061688900B0FBF1F6FEF7F9FA00EB40
:1039C000C00101EB001061688900B0FBF1F0B0FBB1
:1039D000F5F06FF01801484306EB800108EB011089
:1039E000B0FBF5F000F0F006FEF7E2FA00EBC001E4
:1039F00001EB001061688900B0FBF1F0B0FBF5F05D
:103A000006EB0016FEF7D4FA00EBC00101EB001044
:103A100061688900B0FBF1F7FEF7CAFA00EBC0015C
:103A200001EB001061688900B0FBF1F0B0FBF5F02C
:103A30006FF01801484307EB800108EB0110B0FB61
:103A4000F5F000F00F00A9E700140140001001405C
:103A50002DE9F041984617460E460446069D1DE0A6
:103A6000681C1BD02DB1FEF70BF9A0EB0800A84293
:103A700014D92068C16821F4D071C16020684169FF
:103A800021F001014161202084F8390084F83A00D6
:103A9000002084F838000320BDE8F0812068006829
:103AA00036EA000004D00020B842D9D00020F3E765
:103AB0000120F9E710B5FFF7D9FBBDE81040014838
:103AC000FDF77EB8BC03002010B5FEF7B7FE0B482B
:103AD00090F8201400290FD1094991ED040A80EDD6
:103AE000F40A91ED000A80EDE70AFDF75BFABDE804
:103AF00010400448FCF7BABD10BD0000BC03002014
:103B0000580900204C070020FEE702E008C8121FF9
:103B100008C1002AFAD170477047002001E001C1B6
:103B2000121F002AFBD17047FEF7B8F8FFF7EAFC36
:103B3000FEF7B4FFFEF784FFFFF724F8FFF740F825
:103B4000FFF75CF8FEF758FFFEF7FAFFFFF774F88F
:103B50000D48FCF7EBFC0D48FFF73CFCFFF78AF83B
:103B6000FFF76AFBFEF75AFEFFF798F8FFF7D6FB60
:103B7000FEF7AEFE6420FDF78BFF0548FCF778FBEF
:103B80000448FEF767FCFEE7BC030020E0070020C6
:103B90000801002048010020000000000102030489
:103BA0000102030406070809000610160006101695
:103BB000D03B000800000020C80000000A3B0008BD
:103BC000983C0008C8000020B80C00001A3B000810
:103BD0000024F400000000000000000000000000CD
:103BE0000000000000000040000000000000000095
:103BF00000000000000070C3000020C100000000B1
:103C0000000070C2CDCCCCBE0000000000003443E8
:103C100000004040000000000000304100000000B3
:103C20000000000000009041000000000000164469
:103C3000000000420000A04100009643000000BFC9
:103C40000000000000000000000080BF0000000035
:103C500000000000000080BF000000000000000025
:103C6000000030416F12833B000000000000304133
:103C70000000000000000000000000000000000044
:103C80000000000000000000000000000000000034
:083C900000000000000000002C
:04000005080001AD41
:00000001FF
