:020000040800F2
:10000000780A0020C1010008212D00089F26000861
:10001000FD2A0008ED0600084F3A00080000000025
:10002000000000000000000000000000F93100089E
:100030001D0E000800000000C12E00086F340008EB
:10004000DB010008DB010008DB010008DB01000820
:10005000DB010008DB010008DB010008DB01000810
:10006000DB010008DB010008DB010008DB01000800
:100070000D0C0008DB010008DB010008DB010008B3
:10008000DB010008DB010008DB010008DB010008E0
:10009000F1060008DB010008DB010008DB010008B5
:1000A000DB010008DB010008DB010008DB010008C0
:1000B000DB010008DB010008DB010008DB010008B0
:1000C000DB010008DB010008DB010008DB010008A0
:1000D000DB010008393A0008DB010008473A000854
:1000E000DB010008DB010008DB010008DB01000880
:1000F000DB010008DB010008DB010008DB01000870
:10010000DB010008DB010008DB010008DB0100085F
:10011000DB010008DB0100085935000875350008CF
:10012000DB010008190C0008250C0008DB010008A1
:10013000DB010008DB010008DB010008DB0100082F
:10014000DB010008DB010008DB010008DB0100081F
:10015000DB010008310C0008DB0100084B3A000805
:10016000DB010008DB010008DB010008DB010008FF
:10017000DB010008DB010008DB01000800000000D3
:10018000DB010008DB010008DB010008DB010008DF
:10019000DB010008DB010008DB010008DB010008CF
:1001A0000000000000000000DB010008DFF80CD0B8
:1001B00000F07AFA00480047DD3A0008780A00208B
:1001C0000648804706480047FEE7FEE7FEE7FEE7F1
:1001D000FEE7FEE7FEE7FEE7FEE7FEE7053500087F
:1001E000AD0100080649074A0868504343F2390246
:1001F00010440860400870470149086070470000DB
:10020000380000206D4EC64140EA01039B0703D031
:1002100009E008C9121F08C0042AFAD203E011F845
:10022000013B00F8013B521EF9D27047D2B201E007
:1002300000F8012B491EFBD270470022F6E710B5EB
:1002400013460A4604461946FFF7F0FF204610BD44
:100250002DE9FE4F804681EA0300C00F0C46009056
:1002600021F0004123F00045B8EB0200A94105D27E
:100270004046214690461C460B46024623F000406D
:10028000104347D0270DC7F30A00C3F30A51029069
:10029000401A019040286BDAC3F3130040F4801B2E
:1002A0000098924620B10023D2EB030A63EB0B0BBC
:1002B00001985946C0F14002504600F03FF9064609
:1002C0000D4650465946019A00F047F910EB0800D8
:1002D0006141002487EA115284EAE7731A4340D04F
:1002E000009A62B3019A012A4FEA075215DC001BFB
:1002F00061EB02014FF0004202EA0752CDE90042F1
:10030000001C41F5801132462B4600F07EF903B007
:10031000BDE8F08F40462146F9E7001B61EB020182
:10032000001C41F5801300185B412018A2F500174E
:1003300047EB030140EAD570B6196D4111E06D0835
:100340004FEA360645EAC0754FEA0752001B61EBDB
:100350000201001C41F5801149084FEA30000019E4
:10036000514132462B4603B0BDE8F04F00F03EB994
:100370000098012240000023D0EB020263EBE073FF
:10038000009821464FEAE074B8EB000061EB0401ED
:10039000E9E783F000435BE781F0004158E72DE98E
:1003A000F04D81EA030404F0004B21F000451446AF
:1003B0004FF0000A23F0004150EA050220D054EA31
:1003C00001021DD0C5F30A570246C5F31303C1F35A
:1003D0001300C1F30A5640F4801543F48013A7EBD1
:1003E0000608101BD64608F2FD3873EB050002D351
:1003F00008F1010801E092185B41B8F1000F03DA3F
:1004000000200146BDE8F08D00204FF48011064623
:1004100084460EE0171B73EB050705D3121B63EB35
:10042000050306434CEA010C49084FEA30009218D4
:100430005B4150EA0107EDD152EA030012D082EA93
:10044000040083EA0501084305D0101BAB4106D226
:100450000122002306E000224FF0004302E06FF08B
:10046000010253101AEB06004CEB085110EB0A0086
:1004700041EB0B01BDE8F04D00F0B8B800F00042D0
:1004800030F000400AD0C10D01F56071C0F31600D4
:1004900042EA0151C208400711437047002001465B
:1004A0007047000030B5041E71F1000404DB4FF00A
:1004B0000044404264EB0101141E73F1000405DBAB
:1004C0001C464FF00043524263EB04038B4208BFCB
:1004D000824230BD30B5041E71F1000404DB4FF0E0
:1004E0000044404264EB0101141E73F1000405DB7B
:1004F0001C464FF00043524263EB0403994208BF8D
:10050000904230BD01F0004330B421F0004150EA88
:10051000010206D00A0DA2F56072C1F31301002A90
:1005200002DC30BC00207047440F44EAC104C10023
:10053000E01830BC00EBC25000F021B8202A04DBE8
:10054000203A00FA02F1002070479140C2F12003E6
:1005500020FA03F3194390407047202A06DBCB179B
:10056000203A41FA02F043EAE07306E041FA02F36E
:10057000D040C2F12002914008431946704700293B
:10058000A8BF7047401C490008BF20F00100704719
:1005900010B4B0FA80FC00FA0CF050EA010404BF79
:1005A00010BC704749B1CCF1200421FA04F411FACF
:1005B0000CF118BF012121430843A3EB0C01CB1D13
:1005C0004FEA00614FEA102042BF002010BC704784
:1005D00000EBC35010440029A4BF10BC7047401C5E
:1005E000490008BF20F0010010BC704710B5141E70
:1005F00073F1000408DA401C41F1000192185B41DC
:100600001A4301D120F0010010BD2DE9F04D9246B2
:100610009B4611B1B1FA81F202E0B0FA80F22032C9
:100620009046FFF78BFF04460F4640EA0A0041EA76
:100630000B0153465A46084313D0114653EA0100B2
:1006400019D0C8F14002504600F040F805460E4669
:10065000504659464246FFF771FF084305D0012036
:1006600004E020463946BDE8F08D0020054346EA07
:10067000E0762C4337430A986305E40AA0EB0800B0
:100680000022FD0A44EA47540A3002D50020014600
:10069000E9E7010510196941DDE9084500196941DB
:1006A000BDE8F04DA2E70000064C074D06E0E0680B
:1006B00040F0010394E8070098471034AC42F6D3A9
:1006C000FFF778FD803E0008A03E0008202A04DBEA
:1006D000203A21FA02F00021704721FA02F3D040BB
:1006E000C2F120029140084319467047FEE700001E
:1006F000014800F043BC00007C00002000B58BB036
:1007000000210122CDE90612039108920491019182
:1007100002910E2205910992044901631C31416343
:10072000694600F0B7FB0BB000BD00003C000020A4
:1007300001684A6942F002024A61FFF7DFBF70B503
:10074000066B0D0A049C3575056B6975056B110AFE
:10075000A975016BCA75026B190A1176016B4B768C
:10076000026B210A9176006BC47670BD10B54FF410
:10077000D872036802EB01129B5813F00404436B18
:100780009C600468436BA45854D0E4085C60036820
:100790009A58436B02F00202DA604FF4DA7203688F
:1007A00002EB01129B58446B03F00F0323610368B3
:1007B0009A58436BC2F30722DA614FF4DC72036884
:1007C00002EB01129B58446B237503689B58446BE2
:1007D0001B0A637503689B58446B1B0CA375036865
:1007E0009A58436B120EDA754FF4DE72036802EB0F
:1007F00001129B58446B237603689B58446B1B0A79
:10080000637603689B58446B1B0CA37603689A5865
:10081000436B120EDA762022002901680DD00A619E
:1008200001684A6922F010024A6190F838102229C2
:1008300009D021E0640D1C60A9E7CA6001684A691B
:1008400022F00202F0E701684A6922F480724A61EC
:1008500001684A6922F400724A6101684A6922F417
:1008600080624A6101684A6922F400624A61016853
:100870004A6922F400424A6190F83810322907D0C0
:100880005FF0010180F8381000F018FD002010BD65
:100890001221F7E710B5026B1160026B5160026B19
:1008A00000219160026BD160026B082111610A2165
:1008B00000F056FD08B1002010BD012010BD10B59C
:1008C00001684A6922F001024A6190F83810122941
:1008D00018D101684A6922F480724A6101684A6944
:1008E00022F400724A6101684A6922F480624A6116
:1008F00001684A6922F400624A6101684A6922F487
:1009000000424A6190F83810322906D0012180F85F
:10091000381000F0EFFD002010BD2221F7E70000A5
:1009200070B500262DED048B0446011D9FED1B8A3A
:100930009FED199A067100F190054671F0EE492A73
:10094000B0EE482AF0EE481AB2EE041AF1EE040AAC
:10095000B1EE040A084602F0ADF9DFED118AF0EEBF
:10096000492AC4ED238A2E706E70B0EE482AF0EE4C
:10097000481AB2EE041AF1EE040AB1EE040A28464F
:1009800002F098F9C4ED468A01202070022084F814
:100990001C01BDEC048B70BD842AAF400000000038
:1009A0008AA81B4270B5114C002520B1022808D13D
:1009B00081030F4802E04FF480510E4801F04CF8DB
:1009C00018B165602560002070BD606850B101F00D
:1009D00049F820606168401A0528F4D32560012099
:1009E000656070BD01F03EF86060ECE70800002033
:1009F000000C0240001C02402DE9F04104462DEDA0
:100A0000048BFFF7EFFB4FF0030890FBF8F208FBB5
:100A10001200401CC7B25548844202D08C30844238
:100A20007DD1524D2D1F28789FED519ADFED519ABF
:100A3000514E06281ED2DFE800F0033A1024303D64
:100A40004E48C088C0F5806000EE100AF8EEC00A7B
:100A50009FED4B1A80EE810A80E095F91C01401E43
:100A600000EE100AB8EEC00ADFED460A12E0201DC3
:100A700002F071F8BDEC048B201DBDE8F04102F0DE
:100A8000A3B895F91C01401E00EE100AB8EEC00A8A
:100A9000DFED3D0A20EE200AE9E795F91C01401E32
:100AA00000EE100AB8EEC00A20EE290ADFE79FED3B
:100AB000370ADCE7D4F88800FFF7E0FC41EC180BBC
:100AC000A06CFFF7DBFC53EC182BFFF768FC96EDEE
:100AD000021B53EC112BFFF7BBFB00EE107A41EC2D
:100AE000180BB8EE400A86ED028B20EE290A10EEB4
:100AF000100AFFF7C3FC53EC182BFFF7D3FC14D3F9
:100B000000EE107ADFED220AB8EE400A20EE200A4D
:100B100010EE100AFFF7B2FC96ED021B00E020E099
:100B200053EC112BFFF7D6FC11D29FED1A0B86ED7B
:100B3000020BFFF757FB90FBF8F0FFF753FB00EBBE
:100B4000D07121F00101401A400085F81C0195F98F
:100B50001C01401E00EE100AB8EEC00A20EE090A81
:100B600085E7BDEC048BBDE8F0810000F8030020B0
:100B700000006144000048430800002034060020C3
:100B800000002544000016440000A04300000000BF
:100B9000000048C3000000000000000070B50446DB
:100BA00017480025817A1748012904D0022907D067
:100BB000032907D102E01449497802E0057001E0F9
:100BC000012101702078022805D0032803D00428D1
:100BD00001D005280AD194F81C0140B1022805D1A2
:100BE000FFF7E0FE012801D184F81C5170BD002000
:100BF000FFF7D8FE0128F9D1022084F81C0170BD4E
:100C000034060020F403002030000020014800F0EA
:100C1000B9BC0000D4020020014800F0B3BC0000C1
:100C200034030020014800F0ADBC00007402002035
:100C3000014800F0A7BC00009403002001681823BD
:100C4000CAB2103AB2FBF3F2054B6FF30901032A63
:100C50009B5CC36500D9091D81650846704700008B
:100C6000783B000810B5014600208B698A6A4FF076
:100C7000C07453B1B3F5005F15D072B1012A0CD026
:100C8000022A0AD0032A09D104E01AB1012A06D0A7
:100C9000022A03D1C96AC90100D5012010BDC96A61
:100CA000A142FAD010BD002AF7D0012AF2D0022AC0
:100CB000F3D0032AF3D010BD30B50468256825F4BD
:100CC00080252560046863608368402B036803D037
:100CD00099600068C26030BD9A600068C16030BD34
:100CE0000A2839D890B31D4924220B280A7033D220
:100CF000DFE800F032060A0E12161A1E22272D0017
:100D00000520487106207047092048720A20704764
:100D10000D2048730E207047112048741220704730
:100D20001520487516207047192048761A207047FC
:100D30001D2048771E207047212081F821002220A5
:100D40007047252081F825002620704704E02920DF
:100D500081F829002A20F8E70020F6E7F6050020B0
:100D60000FB470B505AC01250FE0E41D24F00704B5
:100D7000B4EC020B51EC100BFFF7C4FB00EE100AB1
:100D8000284600F01FF86D1CEDB29DF8100085425A
:100D9000EBD9C0B2FFF7A4FF05460024074E07E0D9
:100DA000311932230122064801F01CFC641CE4B214
:100DB000AC42F5D370BC5DF814FB0000F6050020D2
:100DC0003401002001B50A282DED020B12D80028AD
:100DD00010D00B280ED2DFE800F00D06080E10121E
:100DE0001416181A1C00012200E005220A49684660
:100DF00000F022F80EBD0922F8E70D22F6E71122D5
:100E0000F4E71522F2E71922F0E71D22EEE721228E
:100E1000ECE72522EAE70000F6050020704710B550
:100E200000231C4604E08B4200D0C4545B1CDBB2A0
:100E30009342F8D310BDFEE703788B5411444378F6
:100E40004B7082788A70C078C870704710B558B1FE
:100E5000084C491E0BD310F8013B5340DBB234F869
:100E6000133083EA1222F4E74FF6FF7010BD1046EC
:100E700010BD0000803C000810B5054C04E000BF28
:100E800010F8013B5340E25C491EF9D2104610BDF8
:100E9000803B0008F0B50A7D01209040344A136879
:100EA00043F001031360136823F47C531360136849
:100EB0004C6A43EA042313602D4B1C331C688443A3
:100EC0001C602B4D2B4CCE690C35A6B92E68864381
:100ED0002E608F894E6867F31F464F6904EBC70782
:100EE000C7F840660F890E6867F31F464F6904EB29
:100EF000C707C7F84466CE69012E14D12E68064391
:100F00002E600E884D6866F31F454E6904EBC606D9
:100F1000C6F840560E89CD6866F31F454E6904EB4E
:100F2000C604C4F84456124C8D69241D002D256852
:100F300006D0054325600E4C0D69143415B104E04C
:100F40008543F7E72568854325600D69012D02D1AA
:100F5000256805432560096A012902D11968014302
:100F60001960106820F0010010600020F0BD000042
:100F700000660040006000407047000010B5044665
:100F800000684169C943C90714D18268584991432F
:100F900068D000218368574A9A4365D0002283684D
:100FA0005548984362D000201143014302D02046A7
:100FB000FFF785FC2068C168406911F0030FC0F39A
:100FC000400004D018B100212046FFF7CFFB216874
:100FD0000869496910F0030FC1F3001104D019B179
:100FE00001212046FFF7C2FB20688169426911F0A8
:100FF000010FC2F300234269C2F3C03205D023B10E
:101000001AB1E16B41F00101E1638169C1F3400371
:1010100041694269C1F34021C2F3C0322BB121B111
:101020001AB1E16B41F00201E16381694269C1F3E8
:101030008001C2F380234269C2F3C03229B123B1D7
:101040001AB1E16B41F00401E163816911F0700FA5
:101050000ED0002142694369C2F3C022C3F3C033FA
:1010600041B127E0012195E7012298E701209BE7A4
:101070000121EFE7F2B1EBB1816901F07001402984
:1010800029D006DC102909D020290BD030290DD118
:101090001DE0502923D0602908D124E0E16B41F004
:1010A000080102E0E16B41F01001E163816921F088
:1010B00070018161E06B002808D02168042048603D
:1010C000012084F838002046FFF756FF10BDE16B81
:1010D00041F02001E9E7E16B41F04001E5E7E16B18
:1010E00041F08001E1E7E16B41F48071DDE7000050
:1010F0000300000400030008000003102DE9F04184
:10110000040004D094F83800002518B107E001204D
:10111000BDE8F08184F83950204600F093F80220B1
:1011200084F838002068016821F00201016020681D
:10113000016841F00101016000F094FC07460326BC
:1011400005E000BF00F08EFCC01B0A2863D82068B1
:101150004068C007F6D020684168C90768D0A16917
:10116000012901683FD021F080010160E069012878
:10117000206801683AD021F040010160206A01280E
:101180002068016835D021F020010160606A0128E3
:101190002068016830D021F010010160A06A0128A8
:1011A000206801682BD021F008010160E06A012865
:1011B0002068016826D021F004010160D4E9020111
:1011C0000843D4E90412114308436168491E0843E7
:1011D0002168C8612068016821F00101016000F008
:1011E00041FC07461CE041F08001BEE741F04001B0
:1011F000C3E741F02001C8E741F01001CDE741F01D
:101200000801D2E741F00401D7E700BF00F02AFC53
:10121000C01B0A2804D904F8386F0320657077E7EB
:1012200020684068C007F1D120684068C00703D03B
:10123000042084F838006AE7E563012084F8380068
:10124000002065E710B586B0044614216846FEF715
:10125000F4FF17492068884227D116480021026808
:1012600042F000720260006800F0007005901148C2
:101270001038026842F0080202600068022200F0A2
:10128000080005900320CDE90210CDE900020920F5
:1012900004906946084800F0F9FA02221146142029
:1012A00000F088FC142000F07AFC06B010BD0000AD
:1012B0000064004040380240000C02407CB5054606
:1012C0002548854247D1686B8168E1BBC168D1BBC5
:1012D0000068224CA0F50070013802D001281DD111
:1012E0000CE0211D284601F01DFC1C48FFF756FCB0
:1012F0001A48443001F032FC201D0DE01749284601
:1013000090310E4601F00EFC1448FFF747FC1348DD
:10131000D03001F023FC3046FFF76EFB0020009038
:10132000019094ED300A4FF40071BDEEC00A10EE4A
:10133000100A94ED0D0A03B2BDEEC00A10EE100AB9
:1013400002B2284600E001E001F0D9FB28684169BB
:1013500041F0020141617CBD7C000020F4030020CB
:101360002DE9F05F0E46016804468868400105D407
:101370008868000102D48868C00067D594F83900F5
:1013800001280ED0012784F8397094F838002228FB
:101390000AD0122084F838008868400106D500255C
:1013A0000AE00220BDE8F09F3220F3E788680001E0
:1013B00001D5012500E002254FF4C07000EB0510B7
:1013C0000A5802F001020A50216B8A68EAB3D4F885
:1013D00000C05CF800301343CA68496842EAC101A2
:1013E0000B434CF80030216B0A7C02F00F020A61BB
:1013F0004FF4C271226801EB0511535823F00F031B
:10140000535022685358D4F830C0DCF810C043EA77
:101410000C035350216B4FF4C47303EB05130A7D87
:10142000D1F8151042EA01212268D150216B4FF406
:10143000C67303EB05130A7ED1F8191042EA0121A5
:101440002268D15021680A5801E00DE046E042F0E0
:1014500001020A5000F006FB81464FF00008DFF859
:1014600088A0DFF888B019E022681358D1F80CC0C2
:10147000098843EA0C0343EA41511150B3E7701C59
:101480000CD02EB100F0EEFAA0EB0900B04205D965
:10149000032084F8380084F8398083E795B1206808
:1014A000012D816813D0124888430028E7D194F8B1
:1014B000380032280ED084F8387000BF84F83980A4
:1014C00000206FE7206881682AEA0100EDE72BEA37
:1014D0000100EAE7222084F83800EFE7042084F8CE
:1014E000380001205EE7000003000004000300084C
:1014F0000000031070472DE9F0410446876D00F0AD
:10150000B1FA064694F835000025022806D080205E
:10151000606584F834500120BDE8F08120680168DE
:1015200021F0160101602068416921F080014161CC
:10153000206C08B9A06C20B12068016821F0080176
:1015400001602068016821F0010101600BE000F0FA
:1015500089FA801B052806D92020606504F8345FCD
:1015600003206070D8E720680068C007EFD194F8C6
:101570005C103F208840B86004F8345F0120607040
:101580000020C9E72DE9F84304464FF00008CDF8E4
:10159000008064484FF41651A56D0068B0FBF1F768
:1015A0002E6894F85C10082000FA01F131420FD047
:1015B00021680A6852070BD50A6822F004020A6003
:1015C00094F85C108840A860606D40F00100606590
:1015D00094F85C1054488840304208D0216849692A
:1015E000090604D5A860606D40F0020060654E48B1
:1015F00094F85C10C01C8840304208D0216809680B
:10160000890704D5A860606D40F00400606594F817
:101610005C1010208840304218D021680968090702
:1016200014D5A86020680168490304D50068000348
:1016300008D5A16C07E00168C90503D4016821F051
:1016400008010160216C09B12046884794F85C10BC
:101650002020884030424FF0010631D021680968CF
:10166000C9062DD5A86094F83500052820680168C2
:1016700006D0490347D5006800031DD4616C1CE007
:1016800021F0160101602068416921F0800141616B
:10169000206C08B9A06C20B12068016821F0080115
:1016A000016094F85C103F208840A86084F8348082
:1016B00084F83560216D1FE0E16B09B12046884751
:1016C000606D00282BD0606DC00714D0052084F811
:1016D00035002068016821F0010101600098401C7C
:1016E0000090B84203D820680068C007F6D184F89B
:1016F000348084F83560E16C002910D001B02046B8
:10170000BDE8F04308470168C905D5D4016821F058
:101710001001016084F8348084F83560CCE7BDE8BE
:10172000F883000004000020010080002DE9F04152
:10173000044600F097F906465CB1002584F8345061
:10174000022084F835002068016821F00101016061
:101750000DE00120BDE8F08100F084F9801B052830
:1017600005D920206065032084F83500F2E7206861
:101770000068C007F0D1226811681F480140D4E911
:1017800001031843D4E9033633431843636918430C
:10179000A3691843E3691843236A18430843616A3D
:1017A000042903D1D4E90B131943084310602068BE
:1017B0004069666A20F0070130460E43012704287D
:1017C0000AD1A06A06432046FFF74CFA20B1402018
:1017D000606584F83570BCE7206846612046FFF7F5
:1017E0002DFA94F85C203F2191408160656584F872
:1017F00035700020AEE700003F8010F02DE9F04189
:101800000446866D90F83400002501280DD0012093
:1018100084F8340094F835700020012F07D084F844
:10182000340002252846BDE8F0810220FBE70227AC
:1018300084F8357060652046FFF73EFA94F85C1036
:101840003F208840B0602068016841F016010160C7
:101850002068416941F080014161206C20B120681D
:10186000016841F0080101602068016841F0010150
:101870000160D7E731B500F0F5F8044600F0F2F862
:101880000099001B8842F9D338BD00002DE9F84FBC
:10189000DFF890B100224FF001084FF0030A4FF03B
:1018A0000F090BF1040E00BF0B6808FA02F4234085
:1018B000A3426ED14D68022D01D0122D0ED1D50854
:1018C00000EB850CDCF820505607F70E09FA07F6F6
:1018D000B5430E69BE402E43CCF820600668550023
:1018E0000F790AFA05FC07F0030726EA0C06AF4059
:1018F000374307604E68012E05D0022E03D0112E0B
:1019000001D0122E0ED18768CE6827EA0C07AE40B0
:101910003E4386604668A6430C79C4F300149440A5
:1019200034434460C4688E6824EA0C04AE40264305
:10193000C6604C68E4006FD53B4C256845F4804593
:101940002560246822F0030504F480440094374C99
:101950002E19D6F8084895072F0F09FA07F5AC435A
:10196000334DA84201D100252EE0324DA84201D1CD
:10197000012529E0304DA84201D1022524E02F4D58
:10198000A84201D103251FE02D4DA84202D1042514
:101990001AE041E02B4DA84201D1052514E02A4D63
:1019A000A84201D106250FE0284DA84201D1072504
:1019B0000AE0274DA84201D1082505E0254DA8429F
:1019C00001D1092500E00A25BD402543C6F8085885
:1019D000DBF800405D464E689C43F60300D51C438F
:1019E0002C60DEF8004075464E689C43B60300D577
:1019F0001C432C600B4D08352C684E689C43F60246
:101A000000D51C432C60074D0C352C684E689C4358
:101A1000B60200D51C432C60521C102AFFF444AFC0
:101A2000BDE8F88F003C01404438024000300140DE
:101A3000000002400004024000080240000C024086
:101A4000001002400014024000180240001C024036
:101A500000200240002402400069084000D001201C
:101A60007047000001480068704700000000002037
:101A700002480168491C0160704700000000002016
:101A80000B4810B5016841F400710160016841F430
:101A900080610160016841F480710160032000F001
:101AA000A9F8002000F006F800F018F8002010BD9A
:101AB000003C024010B5044607484FF47A710068B4
:101AC000B0FBF1F000F042FB00222146501E00F076
:101AD00071F8002010BD0000040000200B4882B007
:101AE000016841F480410160006800F4804000908A
:101AF0000648001F016841F080510160006800F055
:101B000080500090052002B000F074B844380240C4
:101B10002DE9F04116460F46040004D094F8390030
:101B2000002518B107E00120BDE8F08184F83850A5
:101B3000204600F0CFFB242084F839002068C168DB
:101B400021F40051C160204601F0EEFD20680169DA
:101B500021F4904101612068416921F02A0141612D
:101B60002068016921F00F01016120680169394392
:101B700001612068C16821F40061C1602068C1680A
:101B80003143C1602068C16841F40051C160E56320
:101B9000202084F8390084F83A000020C4E700F0DF
:101BA0001F02012191404009800000F1E020C0F8AF
:101BB00000117047F0B40E4B1B680C46C3F30223B0
:101BC000C3F10705042D00D90425191D072901D2E9
:101BD000002300E0DB1E012606FA05F1491E214024
:101BE00099409E40761E16403143F0BC01F099B8F2
:101BF0000CED00E0064900F0070208684FF6FF030D
:101C0000184040EA0220034A104308607047000071
:101C10000CED00E00000FA052DE9F047DFF86491D3
:101C200005460F46D9F8000000F00F01F8B28046D3
:101C3000B94208D2014689F80010D9F8000000F036
:101C40000F00B84274D128784F4C800705D5206822
:101C5000A96820F0F000084320602878C00759D018
:101C600049496868083901281AD002281BD003287E
:101C700019D00968890700295ADA216821F003017F
:101C800001432160FFF7EEFE6968064641F28830A5
:101C9000012911D002291DD00329824627D035E021
:101CA00009688903E7E709688901E4E7FFF7DAFED5
:101CB000811B514501D926E082462068C0F381008E
:101CC0000128F3D126E000BFFFF7CCFE811B514570
:101CD00001D918E082462068C0F381000228F3D1C0
:101CE00018E000BFFFF7BEFE811B51450BD82068EE
:101CF000C0F381000328F5D10CE000BFFFF7B2FE6E
:101D0000811B514502D90320BDE8F087206810F0FF
:101D10000C0FF3D1D9F80010484601F00F01B94279
:101D200008D980F80080006800F00F00B84201D0A8
:101D30000120E9E72878400705D52068E96820F404
:101D4000E050084320602878000706D520682969FC
:101D500020F4604040EAC100206000F04BF82168A8
:101D6000F02292FAA2F201F0F001B2FA82F2D1402E
:101D7000064A515CC840064908600020FFF79AFEF9
:101D80000020C1E7003C024008380240683B0008E0
:101D90000400002008480949006809684FF4E0522F
:101DA00092FAA2F201F4E051B2FA82F2D140044A6E
:101DB000515CC84070470000040000200838024011
:101DC000683B000808480949006809684FF4604208
:101DD00092FAA2F201F46041B2FA82F2D140044ACE
:101DE000515CC840704700000400002008380240E1
:101DF000683B000830B51948006810F00C0118481D
:101E000012D0184C04290ED008290DD11349091FEE
:101E10000A6802F03F030A68550247F6C07204D50B
:101E2000B4FBF3F003E0204630BDB0FBF3F00B68E9
:101E30000968134092FAA2F2B2FA82F2D3405843F0
:101E40004FF4403292FAA2F201F44031B2FA82F237
:101E5000D140491C4900B0FBF1F030BD08380240C8
:101E60000024F400001BB7002DE9F84F0446DFF80A
:101E7000CC820078A8F1040BC007ABF1040537D081
:101E8000D8F800104046C1F38101012908D000684C
:101E9000C0F3810002280AD1DBF80000400206D519
:101EA0002868800324D56068002878D020E0A34902
:101EB0002079891F0870606868B1FFF7D3FD064676
:101EC00005E000BFFFF7CEFD801B642868D82868B6
:101ED0008003F7D50CE0FFF7C5FD064605E000BF1F
:101EE000FFF7C0FD801B6428F0D828688003F7D472
:101EF0002078934E80074FF0010A4FF0000742D53B
:101F0000D8F80010404611F00C0F08D00068C0F35C
:101F1000810002280AD1DBF80000400206D42868BC
:101F2000800714D5E068012839D110E0E068D8B105
:101F3000C6F800A0FFF796FD814605E0FFF792FD89
:101F4000A0EB09000228C1D828688007F6D52868C8
:101F5000F82292FAA2F22169B2FA82F220F0F80095
:101F60009140084328600EE03760FFF77BFD814613
:101F700006E000BFFFF776FDA0EB090002280FD8AE
:101F800028688007F6D42078000728D56D48616955
:101F9000A1B1C0F800A0FFF765FD814608E0CAE0E6
:101FA00079E000BFFFF75EFDA0EB0900022872D8C0
:101FB00062486C3000688007F4D510E00760FFF7D6
:101FC00051FD814606E000BFFFF74CFDA0EB090084
:101FD000022860D859486C3000688007F4D4207813
:101FE000400749D555483830016841F080510160BB
:101FF000006800F0805000905348016841F48071FF
:102000000160FFF72FFD814606E000BFFFF72AFDC4
:10201000A0EB090002283ED84B480068C005F5D562
:10202000DFF81891207A09F1680989F80000A068A2
:1020300088B1FFF717FD009008E000BFFFF712FD21
:102040000099411A41F2883081426CD8D9F80000D9
:102050008007F3D510E0FFF705FD009008E000BF12
:10206000FFF700FD0099411A41F2883081425AD8A9
:10207000D9F800008007F3D4A069E0B3D8F80010C5
:10208000C1F38101022956D00228376604D0FFF738
:10209000E9FC04464AE046E0FFF7E4FC074604E0BA
:1020A000FFF7E0FCC01B02283DD828688001F7D468
:1020B000D4E90701084347F6C07292FAA2F2616AB6
:1020C000B2FA82F29140A26A4FF0FF3303EB520260
:1020D0004FF4403393FAA3F3B3FA83F39A401143D6
:1020E00008434FF0706292FAA2F2E16AB2FA82F209
:1020F0009140084300E01CE0CBF80000C6F860A067
:10210000FFF7B0FC044604E0FFF7ACFC001B02281C
:1021100009D828688001F7D50BE000BFFFF7A2FCC3
:10212000001B022802D90320BDE8F88F286880012F
:10213000F4D40020F8E70120F6E700000838024058
:1021400000004742800E47420070004010B5401E1C
:10215000B0F1807F01D3012010BD4FF0E024606119
:102160000F21601700F0DDFD0020A0610720206135
:10217000002010BD30B590F83820012A20D001226F
:1021800080F83820022380F8393003685C6824F036
:1021900070045C6003685C680D682C435C600368D5
:1021A0009C6824F080049C6003689C6849680C4328
:1021B0009C6080F83920002180F83810084630BD36
:1021C000022030BD10B5040003D094F8390010B1DE
:1021D00007E0012010BD002084F83800204600F000
:1021E0000DF8022084F83900211D206801F0DCF987
:1021F000012084F83900002010BD000008B5154A00
:102200000168154891420ED1016841F0100101604A
:102210000068032200F01000009001213620FFF733
:10222000C9FC362010E00D4A914211D1016841F0FD
:10223000200101600068022200F020000090114699
:102240003720FFF7B7FC3720BDE80840FFF7A7BCF1
:1022500008BD00000010004040380240001400405B
:102260000168CA6842F00102CA600068016841F072
:10227000010101600020704710B504460068416903
:1022800094F83920C1F3C011212A0BD151B1416911
:1022900021F080014161206B08B1FFF72CF9204645
:1022A00001F038FA2068416994F83A20C1F38011AE
:1022B000222A0BD151B1416921F040014161606B8B
:1022C00008B1FFF718F9204601F016FA002010BDFA
:1022D000704700002DE9F04F87B00546142168468D
:1022E000FDF7ABFF8D48DFF83082D5F800C08B4991
:1022F0001038022303220826894F0024C44517D131
:102300000D6845F080450D60096801F08041059138
:10231000016841F0100101600068694600F010009A
:102320000590D0018DE81900CDE90326384619E063
:10233000DFF8F081C4451AD10D6845F000450D6005
:10234000096801F000410591016841F01001016048
:1023500000688DE81C0000F01000CDE904606946BB
:1023600003923846FFF792FA07B0BDE8F08FDFF826
:10237000B881DFF8A8914FF0070A09F104094FF07E
:10238000006B4FF48067C44536D1D9F8006046F041
:102390001006C9F80060D9F8001001F0100105918D
:1023A000016841F0020101600068694600F0020026
:1023B0000590C0208DE81900CDE9032A5B48FFF79E
:1023C00065FA5C4E5A483060C6E901B4C6E9034775
:1023D0007461B461F461346230467462FFF7A6F947
:1023E00008B1FEF728FD6E63022201212520B563A6
:1023F000FFF7E0FB252038E0DFF83C81C44537D10A
:102400000E6846F480260E60096801F4802105916B
:10241000016841F0080101600068694600F00800A9
:1024200005904FF440708DE81900CDE9032A434828
:10243000FFF72CFA3F4E424860363060C6E901B4DF
:10244000C6E903477461B461F46134623046746272
:10245000FFF76CF908B1FEF7EEFC6E63022211463D
:102460002720B563FFF7A6FB2720FFF798FB7BE744
:1024700034498C45FBD1D9F800C04CF0200CC9F888
:1024800000C0D9F8001001F020010591016841F069
:10249000400101600068694600F0400005904FF47B
:1024A00084408DE81900CDE903262748FFF7EEF9AF
:1024B000204E1F48C036183830604FF02068C6E9FB
:1024C0000184C6E903477461B461F4613462304643
:1024D0007462FFF72BF908B1FEF7ADFC6E63B563CC
:1024E00013481A4E6030E6E80208402091C61748AB
:1024F00046F81449B461F46134627462FFF716F966
:1025000008B1FEF798FC2E63022211464720B563FE
:10251000FFF750FB4720A8E7007800404038024012
:1025200000100240007C0040001001400004024006
:10253000406402407402002000480040000C024049
:10254000286002400014014000180240940300205B
:1025500070B5044690F83A00202839D1A9B3A2B347
:1025600094F83800012833D0012084F83800A162A3
:10257000A2850025E563222084F83A00636B1548A4
:10258000D863636B14481864636B1448D864606B39
:10259000134605650846666B216802463046091DEC
:1025A000FFF72CF92068C16841F48071C160206890
:1025B000416941F0010141612068416941F04001F8
:1025C000416184F83850002070BDFFE70120FBE72F
:1025D0000220F9E7B3360008EF3600086936000834
:1025E000704770472DE9F843044690F839001E46BD
:1025F00017460D46202850D135B32FB394F8380034
:1026000001284AD0012084F838004FF00008C4F8AF
:102610003C80212084F83900FFF724FAA784E7845E
:1026200081464FF48057E08C4B46401EE084A06802
:102630004FF00002B8424FF080012046009611D1C1
:1026400001F0C8F900BB02E00120BDE8F88328884A
:10265000C0F3080120684160206908B16D1C08E0E2
:10266000AD1C06E001F0B6F970B9216815F8010B50
:102670004860E08C0028D6D14B46002240212046FD
:10268000009601F0A7F908B10320DEE7202084F8C6
:10269000390084F838800020D7E70220D5E7FEE72C
:1026A000104810B50E4901600221416000214FF42D
:1026B00050228160C0E903124FF4A002C0E9052155
:1026C0000122C161C0E90812C0E90A12FEF716FD35
:1026D000002803D0BDE81040FEF7ADBB10BD0000E0
:1026E000006400407C000020194808B5016841F4EE
:1026F00080010160016801F480010091016841F4EA
:10270000001101600068002200F4001000901146E2
:102710000C20FFF74FFA0C20FFF741FA0022114678
:102720003920FFF747FA3920FFF739FA0222012151
:102730003A20FFF73FFA3A20FFF731FA002211461C
:102740004520FFF737FABDE808404520FFF727BAD4
:102750003038024030B587B014216846FDF76DFD72
:102760001D480024016841F010010160016801F07A
:1027700010010591016841F040010160016801F01C
:1027800040010591016841F002010160016801F01A
:1027900002010591016841F008010160016801F042
:1027A00008010591016841F0800101600068012580
:1027B00000F0800005904FF480508DE831006946AC
:1027C0000648FFF763F8E8038DE8310069460448DE
:1027D000FFF75CF807B030BD30380240001C024003
:1027E000000C02401CB500240E4800940C490194D2
:1027F00001605321C0E9011440F2E7314461C16036
:10280000FFF7E0FC08B1FEF716FB009469460548A7
:102810000194FFF7AFFC002801D0FEF70CFB1CBDB4
:1028200000100040BC0000201CB500240E4800949D
:102830000C49019401605321C0E9011441F2873130
:102840004461C160FFF7BEFC08B1FEF7F4FA0094E2
:10285000694605480194FFF78DFC002801D0FEF77A
:10286000EAFA1CBD00140040F80000200D4810B525
:102870000B4901604FF4E1314160002181600C227D
:10288000C160C0E9041281610A46C161FFF740F9E5
:10289000002803D0BDE81040FEF7CDBA10BD0000FF
:1028A00000780040340100200D4810B50B4901604C
:1028B0004FF4E1314160002181600C22C160C0E928
:1028C000041281610A46C161FFF722F9002803D092
:1028D000BDE81040FEF7AFBA10BD0000007C00401C
:1028E000740100200D4810B50B4901600C4941608E
:1028F00000214FF480628160C0E903120422C0E924
:1029000005210A46C161FFF703F9002803D0BDE89D
:102910001040FEF790BA10BD00100140B401002035
:10292000A08601000D4810B50B4901604FF4E1315C
:102930004160002181600C22C160C0E90412816104
:102940000A46C161FFF7E4F8002803D0BDE8104053
:10295000FEF771BA10BD000000480040F4010020ED
:102960000D4810B50B4901604FF4E1314160002181
:1029700081600C22C160C0E9041281610A46C16114
:10298000FFF7C6F8002803D0BDE81040FEF753BAA1
:1029900010BD0000001401403402002007489FEDE4
:1029A000060A012180ED000A80ED010A0172002271
:1029B00042728172C272704700000000240500203C
:1029C00006495020087008460169C0F801104169A5
:1029D000C0F805108169C0F809107047140500207F
:1029E00030B5344A04250023D47A01213248012C21
:1029F00004D0022C06D0032C05D101E0457202E080
:102A0000417200E04372447AF4B3012C16D0042CD6
:102A100013D12A4991ED000AB1EE400A80ED000A77
:102A200091ED010AB1EE400A80ED010A097A0172C6
:102A30002349CA7882720979C17230BD5488A4F5DD
:102A4000806400EE104AB8EEC01A9FED1E0AC1EE77
:102A5000000A9FED1D1A60EE810AC0ED000A9488FD
:102A6000A4F5806400EE904A40F20A44F8EEE00AD1
:102A700080EE801AB3EE090A21EE000A80ED010A09
:102A800001721289A24200E00AE001D3C57200E09F
:102A9000C372A2F5C063943B00D10321817230BDA3
:102AA0009FED0A0A80ED000A80ED010A0172817231
:102AB000C37230BD34060020240500204C060020DF
:102AC00030000020000025440000B4C200000000D7
:102AD00070B5FFF785FFFFF773FF064D0024291936
:102AE0000A2301220448FFF77DFD641CE4B20D2C8B
:102AF000F5D370BD1405002074010020FEE7F8B581
:102B00001E460546DDE9063017460C460090324663
:102B100039462846FDF713FE21462846BDE8F84011
:102B2000FDF7B8BE91ED130A81ED140A426B928A4B
:102B300052BA12B200EE102AB8EEC00A81ED130AA2
:102B4000406BC08A40BA00B200EE100AB8EEC00A6C
:102B500081ED030A704780ED010A704790ED030A8A
:102B6000D0ED040AB6EE001A30EE600A80ED020ADB
:102B7000D0ED050A20EE811AB4EEC10AF1EE10FA8A
:102B800002DD30EE600A0AE0BEEE001A20EE811A85
:102B9000B4EEC10AF1EE10FA03D230EE200A80ED55
:102BA000020A90ED121AF0EE400A80EE810AD0ED92
:102BB000010A70EEC00AC0ED010AD0ED000A30EE45
:102BC000200A80ED000A7047D0ED010A90ED031A4B
:102BD00090ED000A70EEC11AF4EEC01AF1EE10FA90
:102BE00002DD30EE010A0AE090ED041A70EE811A5F
:102BF000F4EEC01AF1EE10FA04D230EE410A80ED84
:102C0000000A01E0C0ED000AD0ED090A254AC0ED36
:102C10000A0A90ED020A90ED001AD0ED0E1A11EE9C
:102C2000210A80ED090A30EE601AD0ED080A70EE34
:102C3000800A10EE901AC0ED080A914203DBDFED26
:102C40001A0AC0ED080A10EE901A184A914203D3EE
:102C5000DFED170AC0ED080AD0ED050AD0ED081A1D
:102C600020EE800AD0ED060A00EEA10AD0ED070A98
:102C700000EE810A80ED0B0AD0ED0D0AB4EEE00AF9
:102C8000F1EE10FA02DAF0EE400A01E0C0ED0B0AB4
:102C900090ED0C0AF4EEC00AF1EE10FA01D880EDC6
:102CA0000B0A704700401C4600401C4600401CC6F2
:102CB00000401CC69FED153A00F1100180ED023A6C
:102CC00080ED013A80ED093A80ED0A3A80ED0B3A49
:102CD00080ED0C3AC0ED0F2A81EC050A41789FED9A
:102CE0000C0ADFED0C0A61B101290AD0032907D1D2
:102CF0009FED090A80ED0D0A9FED080A80ED0E0A8E
:102D0000704780ED0D0AC0ED0E0A7047000000000C
:102D100000E02BC600E02B4600409CC600409C46CD
:102D200070470907090E002806DA00F00F0000F1CD
:102D3000E02080F8141D704700F1E02080F80014B6
:102D40007047000008489FED070A012180ED000A46
:102D500080ED010A017280ED030A002101744174C3
:102D600001757047000000004C06002038B524486B
:102D700000680168C943C90641D40168002440685D
:102D80000090204800681F48001D00681E481F4A28
:102D90000168D014914202D91C494C3904E01C4A04
:102DA000914203D919495039086008E0184B184A74
:102DB000603BB83A994201D9D06000E09060104879
:102DC000FFF75AFA132213490D48FFF7C1FB1148C8
:102DD0000178A52913D141785A2910D1417CAA291B
:102DE0000DD1807CAA280AD10A490120183908751A
:102DF00009480460BDE83840064800F01FB838BDF7
:102E0000F401002000480040D40200205864024031
:102E1000B8600240640600202400002005480068D5
:102E2000C16841F01001C160132203490148FFF756
:102E30008FBB0000F4010020640600207CB5104C1C
:102E400050F8021F216041686160017A2172D0F858
:102E50000910E160417B2174807B60746068FDF73C
:102E60000DFB05460E462068FDF708FB41EC100BF4
:102E7000CDE9005653EC102B0220FDF771FF7CBD0D
:102E80004C0600200B4A1068401C106050280FD9D7
:102E900000210A489FED080A116080ED000A80EDCC
:102EA000010A0122027280ED030A01744174017566
:102EB0007047000024000020000000004C060020A5
:102EC00070470000002836D00188C1F30A021A4971
:102ED0004A8042788378D20842EA4312C2F30A0257
:102EE0008A808278C378920942EA8302037942EAAF
:102EF0008322C2F30A02CA8002794379520842EA65
:102F0000C312C2F30A020A81427992098A72427993
:102F1000C2F30112CA72C2888A810289CA814289B7
:102F20000A82027B8A74427BCA74C2898A82008ABE
:102F3000C0F30A00C8827047340600201C4808B558
:102F400000680168C943C90631D40168406800902F
:102F5000184800681748001D00681748174A01689C
:102F6000D014914202D915494C3904E0144A9142D7
:102F700003D912495039086008E0114B104A603BF0
:102F8000B83A994201D9D06000E090600848FFF754
:102F900073F980220B490648FFF7DAFA09480078EE
:102FA000A52804D1BDE80840064800F01DB808BDBA
:102FB0003402002000140140340300205864024011
:102FC000B86002407605002005480068C16841F0FD
:102FD0001001C160802203490148FFF7B9BA00001F
:102FE00034020020760500202DE9F843434E0746C1
:102FF0000024385DA52806D138190546052100F0C2
:1030000045FD012801D0641C0DE0B5F80100ADF8C4
:103010000000BDF8001028468846093100F018FD70
:10302000012802D0641DE4B262E0B5F8050040F268
:103030000221ADF80000A0F2022288423AD00FDC53
:1030400003281FD004DC012813D002284CD116E03D
:10305000A0F58070013819D0B0F5807F44D11AE016
:10306000012A2CD0022A31D0042A33D0052A3BD1A0
:1030700034E0B5F807003080687AB07034E0E87961
:10308000F07031E0B5F80700B0802DE0D5F807000A
:10309000C6F8060028E019480F22E91D0F30FDF799
:1030A000B3F8F07B11281FD11548F17C4170717C79
:1030B000017019E011480E22E91D1E3003E00F488F
:1030C0001022E91D2C30FDF79FF80DE0E87986F815
:1030D0003C0009E0E87986F83F0005E055F8070F65
:1030E0003064A888A6F8440004EB08000930C4B294
:1030F000802CFFF47EAFBDE8F8830000300500208F
:103100001800002038B5214800680168C943C90685
:103110003AD401680024406800901D480168406866
:103120001C4D1D4A4FF400102968914202D91A49DA
:103130004C3904E0194A914203D9174950390860C3
:1031400008E0164B154A603BB83A994201D9D06065
:1031500000E090600D48FFF78FF82868406814225F
:10316000C0F11400C5B20E490848FFF7F1F9122D5D
:103170000AD10B490120143108700A480460BDE8E7
:1031800038400748FFF79EBE38BD0000B40100205C
:10319000001001407402002058640240B8600240F0
:1031A000200600202000002005480068C16841F08A
:1031B0001001C160142203490148FFF7C9B900009A
:1031C000B401002020060020094910B50868401C01
:1031D000086040280AD9074C00200860207016219A
:1031E000A01CFDF72AF80220A072E07210BD0000BA
:1031F00020000020340600207047000070B506460D
:1032000042484349002590ED030A424C10EE100A53
:1032100088420DDD20780622401C207000212046C7
:10322000FDF7FDFD2078142801D32570357070BDA1
:1032300010EE100A38490844384988420DD26078A7
:103240000622401C607001213248FDF7E8FD6078DD
:103250001428ECD36570012013E010EE100A3049F9
:103260000844304988420ED2A0780622401CA07043
:1032700002212848FDF7D3FDA0781428D7D3A570E4
:103280000220307070BD10EE100A2749084427490B
:1032900088420DD2E0780622401CE07003211D48D0
:1032A000FDF7BDFDE0781428ECD3E5700320E8E7D6
:1032B00010EE100A1E4908441E4988420DD220799A
:1032C0000622401C207104211248FDF7A8FD207938
:1032D0001428D7D325710420D3E710EE100A14491F
:1032E000C9438842CEDAB5EEC00AF1EE10FAC9DD64
:1032F00060790622401C607105210648FDF78FFDAC
:1033000060791428BED365710520BAE74C06002009
:1033100000409C452A000020FFFF85BAFF3F2200A5
:10332000FF7FC4BAFF7F3E00FFFF05BBFF7F410068
:10333000FFFF85BBFFFF7F00002101700422427068
:1033400081700122C270017141718271C171704737
:1033500070B54178022901D0042907D10949042216
:103360000123C98C142902D84270437170BD46797B
:1033700000240225012E02D04570447170BDC82979
:10338000FAD2F1E730050020042181707047000077
:10339000F0B5C3780022274C0121032B09D0042B60
:1033A00007D0052B05D0062B03D0072B01D0082B07
:1033B0000FD1D4F84250204BB5F17E5F0DDC1D8853
:1033C00041F288366D1CADB21D80B54201D31A8022
:1033D00082718379012B06D02AE01A8081712264E0
:1033E000A4F84420F5E7154B1B7C012B20D1037872
:1033F000062B18D2DFE803F01703030606060422A3
:10340000C27011E0258D0326B5F5E17F03D8C77999
:1034100007231FB125B1C670C17105E0C37003E079
:10342000C370C27100E0C170228DB2F5EB7F00D98C
:10343000C170F0BD30050020280000204C0600209F
:1034400082790021012A10D1027872B1017806290F
:103450000CD2DFE801F0030305070909042104E0A9
:10346000032102E0022100E0012101717047FEF713
:10347000FFBA000030B593B030216846FCF7DDFE9E
:1034800014210CA8FCF7D9FE1C480025016841F066
:1034900080510160006800F0805011901848016868
:1034A00041F4404101600068022400F44040119062
:1034B0000120009001908005CDE906400C20089085
:1034C0004FF4A870CDE9090404200B906846FEF77C
:1034D000CBFC00B1FEE70CA90F2081E831004FF4CE
:1034E000A0500F904FF48050109005210CA8FEF7CB
:1034F00093FB002800D0FEE713B030BD40380240F7
:10350000007000401048016841F4700101600F48EC
:10351000016841F0010101600C4A0021083211608C
:1035200002680B4B1A400260031D0A4A1A600268C7
:1035300022F48022026005480C30016002495806DE
:10354000803908607047000088ED00E000380240D4
:10355000FFFFF6FE1030002410B5FFF793FCFFF7D5
:1035600033FE03496FF001000968086110BD0000D7
:10357000BC00002010B50A48FFF740FE0848FFF7DE
:103580005FFF0748FFF704FF0548FFF7FDFE04480B
:10359000FFF7DEFE03496FF001000968086110BD06
:1035A00030000020F8000020F0B50268234B244DC5
:1035B000244E254F254C4FF0804C984209D0604551
:1035C00007D0A84205D0B04203D0B84201D0A042F3
:1035D00004D122F0700E4A6842EA0E0298421BD0D3
:1035E000604519D0A84217D0B04215D0B84213D0C8
:1035F000A04211D0164DA8420ED0164DA8420BD0B5
:10360000154DA84208D0154DA84205D0144DA8422A
:1036100002D0144DA84203D122F44075CA682A434F
:1036200002608A68C2620A688262984201D0A0423F
:1036300001D10969016301214161F0BD0000014030
:103640000004004000080040000C0040000401405D
:103650000040014000440140004801400018004083
:10366000001C00400020004070B5846B2068406959
:1036700094F83910C0F3C0100025212904D118B1E5
:10368000E584204600F046F82068406994F83A1036
:10369000C0F38010222904D118B1E585204600F03E
:1036A0002BF8E06B40F01000E0632046FEF710FEC0
:1036B00070BD10B50146806B09680968C90513D44F
:1036C0000021C1850168CA6822F48072CA6001685D
:1036D0004A6922F001024A6101684A6922F0400207
:1036E0004A61202180F83A10FEF77AFF10BD10B52C
:1036F000806BFEF776FF10BD0168CA6822F49072F5
:10370000CA6001684A6922F001024A61202180F8FA
:103710003A1070470168CA6822F0C002CA602021CE
:1037200080F83910704700002DE9F0410446006828
:10373000016921F44052E168114301612168C868C0
:1037400049F20C6290432369A268E5691A436369F0
:103750002B431A430243CA602168486920F440722F
:10376000A06910434861E1696425B1F5004F9748AD
:10377000974A21684FF032083FD0914201D08142F0
:103780007CD1FEF71FFB00EBC00101EB001061686C
:103790008900B0FBF1F6FEF715FB00EBC00101EB71
:1037A000001061688900B0FBF1F0B0FBF5F06FF03C
:1037B0001801484306EB800108EB0110B0FBF5F05F
:1037C00000F0F006FEF7FEFA00EBC00101EB00107E
:1037D00061688900B0FBF1F0B0FBF5F006EB001674
:1037E000FEF7F0FA00EBC00101EB00106168890000
:1037F000B0FBF1F7FEF7E6FAD2E0914201D0814248
:103800003DD1FEF7DFFA00EBC00101EB001061686B
:103810004900B0FBF1F0B0FBF5F00601FEF7D2FA7B
:1038200000EBC00101EB001061684900B0FBF1F74B
:10383000FEF7C8FA00EBC00101EB00106168490017
:10384000B0FBF1F0B0FBF5F06FF01801484307EB67
:10385000800108EBC100B0FBF5F000F0F80006EBCA
:103860004006FEF7AFFA00EBC00101EB0010616803
:103870004900B0FBF1F7FEF7A5FA3CE055E0FEF792
:1038800089FA00EBC00101EB001061684900B0FB50
:10389000F1F0B0FBF5F00601FEF77CFA00EBC00199
:1038A00001EB001061684900B0FBF1F7FEF772FA16
:1038B00000EBC00101EB001061684900B0FBF1F0C2
:1038C000B0FBF5F06FF01801484307EB800108EBFF
:1038D000C100B0FBF5F000F0F80006EB4006FEF783
:1038E00059FA00EBC00101EB001061684900B0FB20
:1038F000F1F7FEF74FFA00EBC00101EB0010616831
:103900004900B0FBF1F0B0FBF5F06FF0180148434F
:1039100007EB800108EBC100B0FBF5F000F00700F9
:10392000216830448860BDE8F081FEF733FA00EB8F
:10393000C00101EB001061688900B0FBF1F6FEF7F1
:1039400029FA00EBC00101EB001061688900B0FBAF
:10395000F1F0B0FBF5F06FF01801484306EB800181
:1039600008EB0110B0FBF5F000F0F006FEF712FADC
:1039700000EBC00101EB001061688900B0FBF1F0C1
:10398000B0FBF5F006EB0016FEF704FA00EBC00101
:1039900001EB001061688900B0FBF1F7FEF7FAF95E
:1039A00000EBC00101EB001061688900B0FBF1F091
:1039B000B0FBF5F06FF01801484307EB800108EB0E
:1039C0000110B0FBF5F000F00F00A9E70014014072
:1039D000001001402DE9F041984617460E46044676
:1039E000069D1DE0681C1BD02DB1FEF73BF8A0EB37
:1039F0000800A84214D92068C16821F4D071C160C0
:103A00002068416921F001014161202084F83900DA
:103A100084F83A00002084F838000320BDE8F081E3
:103A20002068006836EA000004D00020B842D9D0EF
:103A30000020F3E70120F9E710B5FFF763FBBDE8CD
:103A40001040FFF745B8FFF791B9FFF777BAFEE7E7
:103A500030B50C46050014D0022C12D90A48A11E1C
:103A600042882846FDF7F2F92919C2B211F8023C42
:103A70009A4206D111F8011CB1EB102F01D101209F
:103A800030BD002030BD00001A00002030B50C46CB
:103A900005000ED0022C0CD90748611E027828467A
:103AA000FDF7EAF9291911F8011C814201D1012021
:103AB00030BD002030BD00001A00002002E008C820
:103AC000121F08C1002AFAD170477047002001E098
:103AD00001C1121F002AFBD170470000FDF7D0FF83
:103AE000FFF7C8FCFEF736FEFEF7FEFDFEF7D8FD39
:103AF000FEF7F8FEFEF7BAFEFEF7D6FEFEF730FF41
:103B0000FEF710FFFEF76EFEFEF78EFE1048FCF784
:103B100007FFFEF743FFFFF715F90E48FFF70CFC10
:103B2000FFF742FBFFF750FAFFF778F90A48FEF774
:103B300097FB0A48FEF794FB0948FCF7F9FD094C8E
:103B40001E20FDF797FEE18C0120FDF709F9F7E74C
:103B5000F403002030000020BC000020F80000200A
:103B60007C0000203005002000000000010203045A
:103B700001020304060708090006101600061016C5
:103B8000005EBCE2613FDD83C29C7E20A3FD1F413D
:103B90009DC3217FFCA2401E5F01E3BD3E6082DC2D
:103BA000237D9FC1421CFEA0E1BF5D0380DE3C621D
:103BB000BEE0025CDF81633D7C22C09E1D43A1FF0D
:103BC0004618FAA427799BC584DA3866E5BB5907FD
:103BD000DB856739BAE406581947A5FB7826C49AED
:103BE000653BD987045AB8E6A7F91B45C6987A24DD
:103BF000F8A6441A99C7257B3A6486D85B05E7B9CD
:103C00008CD2306EEDB3510F4E10F2AC2F7193CDBC
:103C1000114FADF3702ECC92D38D6F31B2EC0E50AC
:103C2000AFF1134DCE90722C6D33D18F0C52B0EE9C
:103C3000326C8ED0530DEFB1F0AE4C1291CF2D738C
:103C4000CA947628ABF517490856B4EA6937D58B7C
:103C50005709EBB536688AD495CB2977F4AA48166C
:103C6000E9B7550B88D6346A2B7597C94A14F6A85C
:103C7000742AC896154BA9F7B6E80A54D7896B354C
:103C80000000891112239B322446AD573665BF745C
:103C9000488CC19D5AAFD3BE6CCAE5DB7EE9F7F80C
:103CA0008110080193331A22A5562C47B7753E643C
:103CB000C99C408DDBBF52AEEDDA64CBFFF976E8EC
:103CC00002218B30100299132667AF763444BD551C
:103CD0004AADC3BC588ED19F6EEBE7FA7CC8F5D9CC
:103CE00083310A2091121803A7772E66B5543C45FC
:103CF000CBBD42ACD99E508FEFFB66EAFDD874C9AC
:103D000004428D5316619F702004A9153227BB36DB
:103D10004CCEC5DF5EEDD7FC6888E1997AABF3BA8B
:103D200085520C4397711E60A1142805B3373A26BB
:103D3000CDDE44CFDFFD56ECE9986089FBBB72AA6B
:103D400006638F7214409D512225AB343006B9179B
:103D50004EEFC7FE5CCCD5DD6AA9E3B8788AF19B4B
:103D600087730E6295501C41A3352A24B11638077B
:103D7000CFFF46EEDDDC54CDEBB962A8F99A708B2B
:103D8000088481951AA793B62CC2A5D33EE1B7F05B
:103D90004008C919522BDB3A644EED5F766DFF7C0B
:103DA000899400859BB712A6ADD224C3BFF136E03B
:103DB000C1184809D33B5A2AE55E6C4FF77D7E6CEB
:103DC0000AA583B4188691972EE3A7F23CC0B5D11B
:103DD0004229CB38500AD91B666FEF7E744CFD5DCB
:103DE0008BB502A499961087AFF326E2BDD034C1FB
:103DF000C3394A28D11A580BE77F6E6EF55C7C4DAB
:103E00000CC685D71EE597F42880A1913AA3B3B2DA
:103E1000444ACD5B5669DF78600CE91D722FFB3E8A
:103E20008DD604C79FF516E4A9902081BBB332A2BA
:103E3000C55A4C4BD7795E68E11C680DF33F7A2E6A
:103E40000EE787F61CC495D52AA1A3B03882B1939A
:103E5000466BCF7A5448DD59622DEB3C700EF91F4A
:103E60008FF706E69DD414C5ABB122A0B99230837A
:103E7000C77B4E6AD5585C49E33D6A2CF11E780F2A
:103E8000A03E0008000000203C000000BC3A0008F2
:103E9000DC3E00083C0000203C0A0000CC3A000850
:103EA000000000000024F4000000000000000000FA
:103EB00000000000000000000000FF00FFFF000005
:103EC00000000000000000000000000000000000F2
:0C3ED000000000000000000000000000E6
:04000005080001AD41
:00000001FF
