:020000040800F2
:10000000F8090020C10100082D270008B7220008C8
:100010007525000851020008BB31000800000000EF
:10002000000000000000000000000000212B00087C
:10003000FD0800080000000029280008232B000804
:10004000DB010008DB010008DB010008DB01000820
:10005000DB010008DB010008DB010008DB01000810
:10006000DB010008DB010008DB010008DB01000800
:1000700029080008DB010008DB010008DB0100089B
:10008000DB010008DB010008DB010008DB010008E0
:1000900055020008DB010008DB010008DB01000855
:1000A000DB010008DB010008DB010008DB010008C0
:1000B000DB010008DB010008DB010008DB010008B0
:1000C000DB010008DB010008DB010008DB010008A0
:1000D000DB010008A5310008DB010008B33100088E
:1000E000DB010008DB010008DB010008DB01000880
:1000F000DB010008DB010008DB010008DB01000870
:10010000DB010008DB010008292C0008DB010008E6
:10011000DB010008DB010008DB010008DB0100084F
:10012000DB0100083508000841080008DB01000871
:10013000DB010008DB010008DB010008DB0100082F
:10014000DB010008DB010008DB010008DB0100081F
:10015000DB0100084D080008DB010008B73100088A
:10016000DB010008DB010008DB010008DB010008FF
:10017000DB010008DB010008DB01000800000000D3
:10018000DB010008DB010008DB010008DB010008DF
:10019000DB010008DB010008DB010008DB010008CF
:1001A0000000000000000000DB010008DFF80CD0B8
:1001B00000F03CF80048004749320008F8090020E8
:1001C0000648804706480047FEE7FEE7FEE7FEE7F1
:1001D000FEE7FEE7FEE7FEE7FEE7FEE7B92B0008D5
:1001E000AD01000840EA01039B0703D009E008C9FC
:1001F000121F08C0042AFAD203E011F8013B00F8EC
:10020000013B521EF9D27047D2B201E000F8012B37
:10021000491EFBD270470022F6E710B513460A4686
:1002200004461946FFF7F0FF204610BD064C074D67
:1002300006E0E06840F0010394E8070098471034B6
:10024000AC42F6D3FFF7B6FFB0350008D035000852
:10025000FEE70000014800F0EBBB00006400002056
:1002600000B58BB000210122CDE90612039108925E
:100270000491019102910E220591099204490163B2
:100280001C314163694600F05FFB0BB000BD00000C
:100290002400002001684A6942F002024A61FFF727
:1002A000DFBF70B5066B0D0A049C3575056B69756B
:1002B000056B110AA975016BCA75026B190A1176D3
:1002C000016B4B76026B210A9176006BC47670BD90
:1002D00010B54FF4D872036802EB01129B5813F06B
:1002E0000404436B9C600468436BA45854D0E40836
:1002F0005C6003689A58436B02F00202DA604FF4C4
:10030000DA72036802EB01129B58446B03F00F038F
:10031000236103689A58436BC2F30722DA614FF4F2
:10032000DC72036802EB01129B58446B237503686F
:100330009B58446B1B0A637503689B58446B1B0CEA
:10034000A37503689A58436B120EDA754FF4DE7288
:10035000036802EB01129B58446B237603689B5899
:10036000446B1B0A637603689B58446B1B0CA37693
:1003700003689A58436B120EDA762022002901682E
:100380000DD00A6101684A6922F010024A6190F8B2
:100390003810222909D021E0640D1C60A9E7CA6049
:1003A00001684A6922F00202F0E701684A6922F412
:1003B00080724A6101684A6922F400724A610168E8
:1003C0004A6922F480624A6101684A6922F4006243
:1003D0004A6101684A6922F400424A6190F8381083
:1003E000322907D05FF0010180F8381000F0C0FC1E
:1003F000002010BD1221F7E710B5026B1160026BEF
:100400005160026B00219160026BD160026B082188
:1004100011610A2100F0EEFC08B1002010BD01209E
:1004200010BD10B501684A6922F001024A6190F8D6
:100430003810122918D101684A6922F480724A6181
:1004400001684A6922F400724A6101684A6922F42B
:1004500080624A6101684A6922F400624A61016867
:100460004A6922F400424A6190F83810322906D0D5
:10047000012180F8381000F087FD002010BD2221F6
:10048000F7E7000070B500252DED028B04469FEDC7
:100490001B8ADFED1B8A0571011D00F1880645717D
:1004A000B0EE482AF0EE481AB2EE041AF0EE680AEE
:1004B000B0EE680A084602F007F935707570B0EEC4
:1004C000482AF0EE481AB2EE041AF0EE680AB0EECE
:1004D000680A304602F0F8F8012004F8F00B9FEDAE
:1004E000090A207725626562A56284ED0A0ABDECDF
:1004F000028BBDE8704002F089BB000000000000E4
:100500000000FA43000016432DE9F04704462DEDA4
:10051000028B0E4600680069394D8007B2EE048AEE
:100520004FF000094FF0010815D568784FF6F577C0
:1005300001284FF0000120462BD001F087FCA86075
:1005400085F801802068016A394001622068016AEB
:1005500041F00201016220680069400715D5A878C2
:100560004FF65F7701284FF0040120462CD001F0B0
:100570006DFC286185F802802068016A39400162BB
:100580002068016A41F020010162BDEC028BBDE8E8
:10059000F08701F05BFCE86021680A6A3A400A6271
:1005A00021680A6A0A62A968884201D2E268104496
:1005B000401A00EE100AB8EE400AC0EE080AC6ED76
:1005C000440A85F80190C6E701F040FC68612168A3
:1005D0000A6A3A400A6221680A6A0A6229698842FC
:1005E00001D2E2681044401A00EE100AB8EE400A48
:1005F000C0EE080AC6ED450A85F80290C5E700007E
:10060000080000201C4910B5884202D0843188427D
:1006100031D1194900F10804091F0A7822B1012AD1
:1006200026D0022A1FD110E014489FED151A8088A9
:10063000C0F5806000EE100AB8EEC00AC0EE010AF4
:100640009FED100A20EE800A0AE091F90C0100EEFD
:10065000100A0D48B8EEC00AD0ED010A20EE200ABB
:10066000204601F0BAFF2046BDE8104001F0B8BFB7
:100670009FED060AF4E710BDA4030020C805002082
:100680000000254400401C46080000200000000037
:1006900030B5214900220B7A2049012B04D0022BCE
:1006A00006D0032B06D101E0022302E00A7001E02C
:1006B00003230B700178022924D1194BCC1E90F929
:1006C0000C511978491CC9B2A5420BD0012D19D182
:1006D00090ED450AD0ED460AB4EEE00AF1EE10FACC
:1006E00013D910E090ED440AD0ED460AB4EEE00ACA
:1006F000F1EE10FA07D819700A2903D31A700121F4
:1007000080F80C1130BD1A7030BD19700529FBD36B
:100710001A7080F80C4130BDC8050020A0030020ED
:100720000800002004485021182200F8011B02494B
:100730001C31FFF757BD0000BC04002028490122EE
:1007400028484B7A012B04D0022B07D0032B06D16B
:1007500001E0032300E00023037500E00275037D40
:10076000CBB19FED210A012B34D0032B12D11F49AD
:10077000D1ED000AF1EE600AC0ED000AD1ED010AE8
:10078000F1EE600AC0ED010A0A7A027281ED000AF8
:1007900081ED010A70470B88A3F5806300EE103AE3
:1007A000B8EEC01A9FED120AC1EE000A9FED111AB1
:1007B00060EE810AC0ED000A4988A1F5806100EE73
:1007C000901AF8EEE00A80EE801A9FED0B0A21EEF7
:1007D000000A01E080ED000A80ED010A0272704714
:1007E000C8050020D804002000000000E00500201B
:1007F00000002544000034C30000344270B5FFF708
:100800009DFFFFF78FFF064D002429190A230122BF
:10081000044801F0F3FC641CE4B2192CF5D370BD5C
:10082000BC04002020010020014800F0F5BB0000BE
:1008300080020020014800F0EFBB0000E002002031
:10084000014800F0E9BB000020020020014800F050
:10085000E3BB00004003002001681823CAB2103A2D
:10086000B2FBF3F2054B6FF30901032A9B5CC365EE
:1008700000D9091D8165084670470000A8320008AC
:1008800010B5014600208B698A6A4FF0C07453B1DD
:10089000B3F5005F15D072B1012A0CD0022A0AD03C
:1008A000032A09D104E01AB1012A06D0022A03D191
:1008B000C96AC90100D5012010BDC96AA142FAD098
:1008C00010BD002AF7D0012AF2D0022AF3D0032A61
:1008D000F3D010BD30B50468256825F48025256067
:1008E000046863608368402B036803D099600068E4
:1008F000C26030BD9A600068C16030BD7047FEE7DD
:1009000010B558B1084C491E0BD310F8013B5340A9
:10091000DBB234F8133083EA1222F4E74FF6FF70AB
:1009200010BD104610BD0000B033000810B5054CD6
:1009300004E000BF10F8013B5340E25C491EF9D2CD
:10094000104610BDB0320008F0B50A7D012090407D
:10095000344A136843F001031360136823F47C5393
:10096000136013684C6A43EA042313602D4B1C3355
:100970001C6884431C602B4D2B4CCE690C35A6B9EA
:100980002E6886432E608F894E6867F31F464F6935
:1009900004EBC707C7F840660F890E6867F31F4668
:1009A0004F6904EBC707C7F84466CE69012E14D11E
:1009B0002E6806432E600E884D6866F31F454E690B
:1009C00004EBC606C6F840560E89CD6866F31F458F
:1009D0004E6904EBC604C4F84456124C8D69241DBC
:1009E000002D256806D0054325600E4C0D69143492
:1009F00015B104E08543F7E72568854325600D6957
:100A0000012D02D1256805432560096A012902D11B
:100A1000196801431960106820F00100106000207F
:100A2000F0BD00000066004000600040704700001C
:100A300010B5044600684169C943C90714D18268EA
:100A40005849914368D000218368574A9A4365D03A
:100A5000002283685548984362D000201143014327
:100A600002D02046FFF7DDFC2068C168406911F024
:100A7000030FC0F3400004D018B100212046FFF757
:100A800027FC21680869496910F0030FC1F30011C0
:100A900004D019B101212046FFF71AFC20688169B2
:100AA000426911F0010FC2F300234269C2F3C03260
:100AB00005D023B11AB1E16B41F00101E163816915
:100AC000C1F3400341694269C1F34021C2F3C0321E
:100AD0002BB121B11AB1E16B41F00201E1638169EF
:100AE0004269C1F38001C2F380234269C2F3C0327C
:100AF00029B123B11AB1E16B41F00401E1638169CD
:100B000011F0700F0ED0002142694369C2F3C02278
:100B1000C3F3C03341B127E0012195E7012298E7F3
:100B200001209BE70121EFE7F2B1EBB1816901F010
:100B30007001402929D006DC102909D020290BD0CA
:100B400030290DD11DE0502923D0602908D124E09F
:100B5000E16B41F0080102E0E16B41F01001E1635B
:100B6000816921F070018161E06B002808D0216863
:100B700004204860012084F838002046FFF756FF23
:100B800010BDE16B41F02001E9E7E16B41F040016C
:100B9000E5E7E16B41F08001E1E7E16B41F4807151
:100BA000DDE700000300000400030008000003105C
:100BB0002DE9F041040004D094F83800002518B164
:100BC00007E00120BDE8F08184F83950204600F0AC
:100BD00093F8022084F838002068016821F00201AF
:100BE00001602068016841F00101016000F072FCC1
:100BF0000746032605E000BF00F06CFCC01B0A2876
:100C000063D820684068C007F6D020684168C907EB
:100C100068D0A169012901683FD021F080010160FD
:100C2000E0690128206801683AD021F040010160A4
:100C3000206A01282068016835D021F02001016078
:100C4000606A01282068016830D021F0100101603D
:100C5000A06A0128206801682BD021F008010160FA
:100C6000E06A01282068016826D021F004010160B3
:100C7000D4E902010843D4E904121143084361682E
:100C8000491E08432168C8612068016821F00101FC
:100C9000016000F01FFC07461CE041F08001BEE748
:100CA00041F04001C3E741F02001C8E741F01001E5
:100CB000CDE741F00801D2E741F00401D7E700BFDA
:100CC00000F008FCC01B0A2804D904F8386F032080
:100CD000657077E720684068C007F1D120684068F8
:100CE000C00703D0042084F838006AE7E5630120D8
:100CF00084F83800002065E710B586B0044614215A
:100D00006846FFF788FA17492068884227D11648B5
:100D10000021026842F000720260006800F000707A
:100D2000059011481038026842F00802026000681D
:100D3000022200F0080005900320CDE90210CDE961
:100D40000002092004906946084800F0DDFA0222FA
:100D50001146142000F066FC142000F058FC06B088
:100D600010BD00000064004040380240000C02400A
:100D70007CB505461D48854237D1686B816879BBD3
:100D8000C16869BB00681A4CA0F50070013802D038
:100D900001280FD105E0211D284601F0FFFB201D91
:100DA00006E01349284688310E4601F0F7FB30462D
:100DB000FFF728FC00200090019094ED2F0A4FF4DB
:100DC0000071BDEEC00A10EE100A94ED0E0A03B2D7
:100DD000BDEEC00A10EE100A02B2284601F0CBFBAD
:100DE0002868416941F0020141617CBD6400002036
:100DF000A00300202DE9F05F0E46016804468868D4
:100E0000400105D48868000102D48868C00067D515
:100E100094F8390001280ED0012784F8397094F82D
:100E2000380022280AD0122084F83800886840014F
:100E300006D500250AE00220BDE8F09F3220F3E746
:100E40008868000101D5012500E002254FF4C0703B
:100E500000EB05100A5802F001020A50216B8A6863
:100E6000EAB3D4F800C05CF800301343CA6849689C
:100E700042EAC1010B434CF80030216B0A7C02F0BE
:100E80000F020A614FF4C271226801EB0511535839
:100E900023F00F03535022685358D4F830C0DCF8C5
:100EA00010C043EA0C035350216B4FF4C47303EB9F
:100EB00005130A7DD1F8151042EA01212268D150AC
:100EC000216B4FF4C67303EB05130A7ED1F819109A
:100ED00042EA01212268D15021680A5801E00DE060
:100EE00046E042F001020A5000F0F4FA81464FF069
:100EF0000008DFF888A0DFF888B019E022681358EE
:100F0000D1F80CC0098843EA0C0343EA415111505F
:100F1000B3E7701C0CD02EB100F0DCFAA0EB090096
:100F2000B04205D9032084F8380084F8398083E77B
:100F300095B12068012D816813D01248884300289C
:100F4000E7D194F8380032280ED084F8387000BF0A
:100F500084F8398000206FE7206881682AEA010060
:100F6000EDE72BEA0100EAE7222084F83800EFE7FA
:100F7000042084F8380001205EE70000030000042C
:100F8000000300080000031070472DE9F0410446FB
:100F9000876D00F09FFA064694F835000025022878
:100FA00006D08020606584F834500120BDE8F081CF
:100FB0002068016821F0160101602068416921F074
:100FC00080014161206C08B9A06C20B120680168E3
:100FD00021F0080101602068016821F00101016031
:100FE0000BE000F077FA801B052806D92020606509
:100FF00004F8345F03206070D8E720680068C007F9
:10100000EFD194F85C103F208840B86004F8345F5A
:10101000012060700020C9E72DE9F84304464FF035
:101020000008CDF8008064484FF41651A56D0068A3
:10103000B0FBF1F72E6894F85C10082000FA01F17B
:1010400031420FD021680A6852070BD50A6822F096
:1010500004020A6094F85C108840A860606D40F05B
:101060000100606594F85C1054488840304208D014
:1010700021684969090604D5A860606D40F0020046
:1010800060654E4894F85C10C01C8840304208D01F
:1010900021680968890704D5A860606D40F00400E4
:1010A000606594F85C1010208840304218D02168A8
:1010B0000968090714D5A86020680168490304D5A8
:1010C0000068000308D5A16C07E00168C90503D4D6
:1010D000016821F008010160216C09B120468847B0
:1010E00094F85C102020884030424FF0010631D047
:1010F00021680968C9062DD5A86094F8350005282F
:101100002068016806D0490347D5006800031DD454
:10111000616C1CE021F0160101602068416921F03A
:1011200080014161206C08B9A06C20B12068016881
:1011300021F00801016094F85C103F208840A8600D
:1011400084F8348084F83560216D1FE0E16B09B1CB
:1011500020468847606D00282BD0606DC00714D0F2
:10116000052084F835002068016821F00101016044
:101170000098401C0090B84203D820680068C0075F
:10118000F6D184F8348084F83560E16C002910D001
:1011900001B02046BDE8F04308470168C905D5D431
:1011A000016821F01001016084F8348084F8356012
:1011B000CCE7BDE8F88300000400002001008000B7
:1011C0002DE9F041044600F085F906465CB10025A2
:1011D00084F83450022084F835002068016821F03A
:1011E000010101600DE00120BDE8F08100F072F91D
:1011F000801B052805D920206065032084F8350070
:10120000F2E720680068C007F0D1226811681F4823
:101210000140D4E901031843D4E9033633431843AA
:1012200063691843A3691843E3691843236A1843A1
:101230000843616A042903D1D4E90B131943084315
:10124000106020684069666A20F0070130460E434E
:10125000012704280AD1A06A06432046FFF710FBA5
:1012600020B14020606584F83570BCE72068466195
:101270002046FFF7F1FA94F85C203F21914081600D
:10128000656584F835700020AEE700003F8010F0FF
:101290002DE9F0410446866D90F8340000250128C0
:1012A0000DD0012084F8340094F835700020012F0F
:1012B00007D084F8340002252846BDE8F0810220DA
:1012C000FBE7022784F8357060652046FFF702FBD4
:1012D00094F85C103F208840B0602068016841F0BD
:1012E000160101602068416941F080014161206C74
:1012F00020B12068016841F00801016020680168A0
:1013000041F001010160D7E72DE9F84FDFF890B116
:1013100000224FF001084FF0030A4FF00F090BF1C4
:10132000040E00BF0B6808FA02F42340A3426ED1FA
:101330004D68022D01D0122D0ED1D50800EB850C81
:10134000DCF820505607F70E09FA07F6B5430E6988
:10135000BE402E43CCF82060066855000F790AFA8B
:1013600005FC07F0030726EA0C06AF403743076089
:101370004E68012E05D0022E03D0112E01D0122E60
:101380000ED18768CE6827EA0C07AE403E438660E0
:101390004668A6430C79C4F3001494403443446077
:1013A000C4688E6824EA0C04AE402643C6604C68CC
:1013B000E4006FD53B4C256845F4804525602468E2
:1013C00022F0030504F480440094374C2E19D6F81B
:1013D000084895072F0F09FA07F5AC43334DA8428B
:1013E00001D100252EE0324DA84201D1012529E08E
:1013F000304DA84201D1022524E02F4DA84201D151
:1014000003251FE02D4DA84202D104251AE041E03A
:101410002B4DA84201D1052514E02A4DA84201D147
:1014200006250FE0284DA84201D107250AE0274DE7
:10143000A84201D1082505E0254DA84201D1092582
:1014400000E00A25BD402543C6F80858DBF80040F7
:101450005D464E689C43F60300D51C432C60DEF8C5
:10146000004075464E689C43B60300D51C432C6073
:101470000B4D08352C684E689C43F60200D51C4382
:101480002C60074D0C352C684E689C43B60200D585
:101490001C432C60521C102AFFF444AFBDE8F88FA7
:1014A000003C01404438024000300140000002404E
:1014B0000004024000080240000C024000100240FC
:1014C0000014024000180240001C024000200240AC
:1014D000002402400148006870470000000000201E
:1014E00002480168491C01607047000000000020AC
:1014F0000B4810B5016841F400710160016841F4C6
:1015000080610160016841F480710160032000F096
:10151000A9F8002000F006F800F018F8002010BD2F
:10152000003C024010B5044607484FF47A71006849
:10153000B0FBF1F000F042FB00222146501E00F00B
:1015400071F8002010BD0000040000200B4882B09C
:10155000016841F480410160006800F4804000901F
:101560000648001F016841F080510160006800F0EA
:1015700080500090052002B000F074B8443802405A
:101580002DE9F04116460F46040004D094F83900C6
:10159000002518B107E00120BDE8F08184F838503B
:1015A000204600F0A3FC242084F839002068C1689C
:1015B00021F40051C160204601F06CFC20680169F3
:1015C00021F4904101612068416921F02A014161C3
:1015D0002068016921F00F01016120680169394328
:1015E00001612068C16821F40061C1602068C168A0
:1015F0003143C1602068C16841F40051C160E563B6
:10160000202084F8390084F83A000020C4E700F074
:101610001F02012191404009800000F1E020C0F844
:1016200000117047F0B40E4B1B680C46C3F3022345
:10163000C3F10705042D00D90425191D072901D27E
:10164000002300E0DB1E012606FA05F1491E2140B9
:1016500099409E40761E16403143F0BC01F067B8B9
:101660000CED00E0064900F0070208684FF6FF03A2
:10167000184040EA0220034A104308607047000007
:101680000CED00E00000FA052DE9F047DFF8649169
:1016900005460F46D9F8000000F00F01F8B2804669
:1016A000B94208D2014689F80010D9F8000000F0CC
:1016B0000F00B84274D128784F4C800705D52068B8
:1016C000A96820F0F000084320602878C00759D0AE
:1016D00049496868083901281AD002281BD0032814
:1016E00019D00968890700295ADA216821F0030115
:1016F00001432160FFF7EEFE6968064641F288303B
:10170000012911D002291DD00329824627D035E0B6
:1017100009688903E7E709688901E4E7FFF7DAFE6A
:10172000811B514501D926E082462068C0F3810023
:101730000128F3D126E000BFFFF7CCFE811B514505
:1017400001D918E082462068C0F381000228F3D155
:1017500018E000BFFFF7BEFE811B51450BD8206883
:10176000C0F381000328F5D10CE000BFFFF7B2FE03
:10177000811B514502D90320BDE8F087206810F095
:101780000C0FF3D1D9F80010484601F00F01B9420F
:1017900008D980F80080006800F00F00B84201D03E
:1017A0000120E9E72878400705D52068E96820F49A
:1017B000E050084320602878000706D52068296992
:1017C00020F4604040EAC100206000F04BF821683E
:1017D000F02292FAA2F201F0F001B2FA82F2D140C4
:1017E000064A515CC840064908600020FFF79AFE8F
:1017F0000020C1E7003C024008380240983200084F
:101800000400002008480949006809684FF4E052C4
:1018100092FAA2F201F4E051B2FA82F2D140044A03
:10182000515CC840704700000400002008380240A6
:101830009832000808480949006809684FF4604276
:1018400092FAA2F201F46041B2FA82F2D140044A63
:10185000515CC84070470000040000200838024076
:101860009832000830B51948006810F00C0118488B
:1018700012D0184C04290ED008290DD11349091F84
:101880000A6802F03F030A68550247F6C07204D5A1
:10189000B4FBF3F003E0204630BDB0FBF3F00B687F
:1018A0000968134092FAA2F2B2FA82F2D340584386
:1018B0004FF4403292FAA2F201F44031B2FA82F2CD
:1018C000D140491C4900B0FBF1F030BD083802405E
:1018D0000024F400001BB7002DE9F84F0446DFF8A0
:1018E000CC820078A8F1040BC007ABF1040537D017
:1018F000D8F800104046C1F38101012908D00068E2
:10190000C0F3810002280AD1DBF80000400206D5AE
:101910002868800324D56068002878D020E0A34997
:101920002079891F0870606868B1FFF7D3FD06460B
:1019300005E000BFFFF7CEFD801B642868D828684B
:101940008003F7D50CE0FFF7C5FD064605E000BFB4
:10195000FFF7C0FD801B6428F0D828688003F7D407
:101960002078934E80074FF0010A4FF0000742D5D0
:10197000D8F80010404611F00C0F08D00068C0F3F2
:10198000810002280AD1DBF80000400206D4286852
:10199000800714D5E068012839D110E0E068D8B19B
:1019A000C6F800A0FFF796FD814605E0FFF792FD1F
:1019B000A0EB09000228C1D828688007F6D528685E
:1019C000F82292FAA2F22169B2FA82F220F0F8002B
:1019D0009140084328600EE03760FFF77BFD8146A9
:1019E00006E000BFFFF776FDA0EB090002280FD844
:1019F00028688007F6D42078000728D56D486169EB
:101A0000A1B1C0F800A0FFF765FD814608E0CAE07B
:101A100079E000BFFFF75EFDA0EB0900022872D855
:101A200062486C3000688007F4D510E00760FFF76B
:101A300051FD814606E000BFFFF74CFDA0EB090019
:101A4000022860D859486C3000688007F4D42078A8
:101A5000400749D555483830016841F08051016050
:101A6000006800F0805000905348016841F4807194
:101A70000160FFF72FFD814606E000BFFFF72AFD5A
:101A8000A0EB090002283ED84B480068C005F5D5F8
:101A9000DFF81891207A09F1680989F80000A06838
:101AA00088B1FFF717FD009008E000BFFFF712FDB7
:101AB0000099411A41F2883081426CD8D9F800006F
:101AC0008007F3D510E0FFF705FD009008E000BFA8
:101AD000FFF700FD0099411A41F2883081425AD83F
:101AE000D9F800008007F3D4A069E0B3D8F800105B
:101AF000C1F38101022956D00228376604D0FFF7CE
:101B0000E9FC04464AE046E0FFF7E4FC074604E04F
:101B1000FFF7E0FCC01B02283DD828688001F7D4FD
:101B2000D4E90701084347F6C07292FAA2F2616A4B
:101B3000B2FA82F29140A26A4FF0FF3303EB5202F5
:101B40004FF4403393FAA3F3B3FA83F39A4011436B
:101B500008434FF0706292FAA2F2E16AB2FA82F29E
:101B60009140084300E01CE0CBF80000C6F860A0FC
:101B7000FFF7B0FC044604E0FFF7ACFC001B0228B2
:101B800009D828688001F7D50BE000BFFFF7A2FC59
:101B9000001B022802D90320BDE8F88F28688001C5
:101BA000F4D40020F8E70120F6E7000008380240EE
:101BB00000004742800E47420070004010B5401EB2
:101BC000B0F1807F01D3012010BD4FF0E0246061AF
:101BD0000F21601700F0ABFD0020A06107202061FD
:101BE000002010BD30B590F83820012A20D0012205
:101BF00080F83820022380F8393003685C6824F0CC
:101C000070045C6003685C680D682C435C6003686A
:101C10009C6824F080049C6003689C6849680C43BD
:101C20009C6080F83920002180F83810084630BDCB
:101C3000022030BD2DE9F041044690F838000D46F1
:101C400001283DD0012684F83860022084F839004C
:101C5000AAB3042A46D02068082A55D0D5E900271F
:101C6000E968036A23F480530362D0F81CC0036A56
:101C70002CF4407C4CEA07274FF6FF7C27F4704792
:101C80000CEA013139434FF4204723F4204307EA9B
:101C900002321A43C16102622068C16921F44061C5
:101CA000C1612068C169AA6841EA0221C0F81C101C
:101CB00084F83960002084F83800BDE8F08101E044
:101CC0000220FAE7D5E90012EB68206801F026F857
:101CD0002068816921F00C01816120688169AA680E
:101CE00011430FE0D5E90012EB68206801F058F8C5
:101CF0002068816921F44061816120688169AA6856
:101D000041EA02218161D3E7D5E9002C2F7B016AEA
:101D100021F480710162C169036A21F0030141EA83
:101D20000C0121F0F00C39074FF420674CEA1161E7
:101D300023F4206307EA02221A43C1610262206889
:101D4000C16921F00C01C1612068C169AA68114311
:101D5000ACE710B5040003D094F8390010B107E0E7
:101D6000012010BD002084F83800204600F00CF857
:101D7000022084F83900211D206800F063FF012053
:101D800084F83900002010BD10B586B00446142137
:101D90006846FEF740FA17492068884227D116485E
:101DA000016841F008010160006800F0080005903A
:101DB00011481038016841F080010160006803217A
:101DC00000F0800005904FF4406000900220CDE9C3
:101DD00002010190049069460848FFF795FA022233
:101DE00011463220FFF71EFC3220FFF710FC06B030
:101DF00010BD0000000C004040380240001C0240B2
:101E000010B50268044631B1042908D0082915D05C
:101E10000C2908D116E0D06840F0020002E0D0683A
:101E200040F00400D0600122206800F06BFF2068C1
:101E3000016841F001010160002010BDD06840F050
:101E40000800EFE7D06840F01000EBE790F838307A
:101E50000022012B0AD0012380F8383041B1042937
:101E600009D008290AD00C290DD10AE002207047B8
:101E700001684A6B07E001688A6B04E00168CA6B7D
:101E800001E001680A6C002180F8381010467047A4
:101E900010B504460068416994F83920C1F3C011B7
:101EA000212A0BD151B1416921F080014161206BA0
:101EB00008B1FFF76AF8204600F0E3FF20684169A7
:101EC00094F83A20C1F38011222A0BD151B1416913
:101ED00021F040014161606B08B1FFF756F82046E0
:101EE00000F0C1FF002010BD704700002DE9F04F49
:101EF00087B0054614216846FEF78DF98D48DFF856
:101F00003082D5F800C08B491038022303220826FE
:101F1000894F0024C44517D10D6845F080450D60F8
:101F2000096801F080410591016841F010010160EC
:101F30000068694600F010000590D0018DE8190096
:101F4000CDE90326384619E0DFF8F081C4451AD1FF
:101F50000D6845F000450D60096801F000410591EC
:101F6000016841F01001016000688DE81C0000F07C
:101F70001000CDE90460694603923846FFF7C4F9C2
:101F800007B0BDE8F08FDFF8B881DFF8A8914FF017
:101F9000070A09F104094FF0006B4FF48067C4454C
:101FA00036D1D9F8006046F01006C9F80060D9F8BB
:101FB000001001F010010591016841F0020101607B
:101FC0000068694600F002000590C0208DE8190005
:101FD000CDE9032A5B48FFF797F95C4E5A48306019
:101FE000C6E901B4C6E903477461B461F4613462BF
:101FF00030467462FFF7E4F808B1FEF780FC6E63C8
:10200000022201212520B563FFF70CFB252038E0D3
:10201000DFF83C81C44537D10E6846F480260E6057
:10202000096801F480210591016841F0080101600F
:102030000068694600F0080005904FF440708DE894
:102040001900CDE9032A4348FFF75EF93F4E4248A5
:1020500060363060C6E901B4C6E903477461B46113
:10206000F461346230467462FFF7AAF808B1FEF7F3
:1020700046FC6E63022211462720B563FFF7D2FAB1
:102080002720FFF7C4FA7BE734498C45FBD1D9F808
:1020900000C04CF0200CC9F800C0D9F8001001F0C5
:1020A00020010591016841F0400101600068694626
:1020B00000F0400005904FF484408DE81900CDE910
:1020C00003262748FFF720F9204E1F48C03618384E
:1020D00030604FF02068C6E90184C6E903477461A7
:1020E000B461F461346230467462FFF769F808B194
:1020F000FEF705FC6E63B56313481A4E6030E6E8E0
:102100000208402091C6174846F81449B461F461AA
:1021100034627462FFF754F808B1FEF7F0FB2E63E7
:10212000022211464720B563FFF77CFA4720A8E753
:10213000007800404038024000100240007C00401F
:1021400000100140000402404064024020020020D0
:1021500000480040000C024028600240001401408A
:10216000001802404003002070B5044690F83A0081
:10217000202839D1A9B3A2B394F83800012833D06C
:10218000012084F83800A162A2850025E5632220A1
:1021900084F83A00636B1548D863636B144818647D
:1021A000636B1448D864606B134605650846666B1C
:1021B000216802463046091DFFF76AF82068C168A9
:1021C00041F48071C1602068416941F001014161C1
:1021D0002068416941F04001416184F83850002095
:1021E00070BDFFE70120FBE70220F9E7212E000880
:1021F0005D2E0008D72D0008704770472DE9F84381
:10220000044690F839001E4617460D46202850D146
:1022100035B32FB394F8380001284AD0012084F850
:1022200038004FF00008C4F83C80212084F83900C1
:10223000FFF750F9A784E78481464FF48057E08C7C
:102240004B46401EE084A0684FF00002B8424FF0B9
:1022500080012046009611D100F072FF00BB02E021
:102260000120BDE8F8832888C0F308012068416098
:10227000206908B16D1C08E0AD1C06E000F060FFAD
:1022800070B9216815F8010B4860E08C0028D6D1A0
:102290004B46002240212046009600F051FF08B135
:1022A0000320DEE7202084F8390084F838800020FD
:1022B000D7E70220D5E7FEE7104810B50E490160C8
:1022C0000221416000214FF450228160C0E90312D5
:1022D0004FF4A002C0E905210122C161C0E9081242
:1022E000C0E90A12FEF764FC002803D0BDE81040E4
:1022F000FEF705BB10BD0000006400406400002034
:10230000194808B5016841F480010160016801F4D1
:1023100080010091016841F4001101600068002211
:1023200000F40010009011460C20FFF77BF90C2000
:10233000FFF76DF9002211463920FFF773F93920B4
:10234000FFF765F9022201213A20FFF76BF93A20E5
:10235000FFF75DF9002211464520FFF763F9BDE85C
:1023600008404520FFF753B930380240154808B5FA
:10237000016841F010010160016801F01001009155
:10238000016841F040010160016801F040010091E5
:10239000016841F002010160016801F00201009151
:1023A000016841F008010160016801F00801009135
:1023B000016841F080010160006800F08000009039
:1023C00008BD00003038024010B586B000241C481B
:1023D00005940494009401940294184903940160B4
:1023E0005321C0E901146FF07F41C0E90314FFF7E6
:1023F000B0FC08B1FEF783FA049404A910480594D0
:10240000FFF7F0FB08B1FEF77AFA0120CDE90040B2
:102410000294002269460A480394FFF70BFC08B1B6
:10242000FEF76DFA042269460548FFF703FC002811
:1024300001D0FEF764FA06B010BD0000000C0040A9
:10244000A40000200D4810B50B4901604FF4E131A4
:102450004160002181600C22C160C0E904128161E9
:102460000A46C161FFF78CF8002803D0BDE8104090
:10247000FEF745BA10BD000000780040E0000020E3
:102480000D4810B50B4901604FF4E1314160002166
:1024900081600C22C160C0E9041281610A46C161F9
:1024A000FFF76EF8002803D0BDE81040FEF727BA0A
:1024B00010BD0000007C0040200100200D4810B538
:1024C0000B4901600C49416000214FF4806281603A
:1024D000C0E903120422C0E905210A46C161FFF7E1
:1024E0004FF8002803D0BDE81040FEF708BA10BD31
:1024F0000010014060010020A08601000D4810B5C9
:102500000B4901604FF4E1314160002181600C22F0
:10251000C160C0E9041281610A46C161FFF730F869
:10252000002803D0BDE81040FEF7E9B910BD000057
:1025300000480040A00100200D4810B50B49016083
:102540004FF4E1314160002181600C22C160C0E99B
:10255000041281610A46C161FFF712F8002803D016
:10256000BDE81040FEF7CBB910BD000000140140DB
:10257000E0010020FEE7F8B51E460546DDE906301D
:1025800017460C460090324639462846FDF789FE2C
:1025900021462846BDE8F840FDF72EBF426B928ADF
:1025A00052BA12B200EE102AB8EEC00A81ED120A39
:1025B000426BD28A52BA12B200EE102AB8EEC00AAA
:1025C00081ED040A406B008B40BA00B200EE100AA5
:1025D000B8EEC00A81ED010A704780ED010A70472C
:1025E000D0ED010A90ED031A90ED000A70EEC11AC9
:1025F000F4EEC01AF1EE10FA02DD30EE010A0AE044
:1026000090ED041A70EE811AF4EEC01AF1EE10FA91
:1026100004D230EE410A80ED000A01E0C0ED000A6C
:10262000D0ED090A244AC0ED0A0A90ED000A90EDA7
:10263000021A30EE410A80ED090A30EE601AD0ED40
:10264000080A70EE800A10EE901AC0ED080A914256
:1026500003DBDFED1A0AC0ED080A10EE901A184AE3
:10266000914203D3DFED170AC0ED080AD0ED050A49
:10267000D0ED081A20EE800AD0ED060A00EEA10A7D
:10268000D0ED070A00EE810A80ED0B0AD0ED0D0AAD
:10269000B4EEE00AF1EE10FA02DAF0EE400A01E0E0
:1026A000C0ED0B0A90ED0C0AF4EEC00AF1EE10FA40
:1026B00001D880ED0B0A704700401C4600401C46C4
:1026C00000401CC600401CC6DFED132A00F11401B7
:1026D000C0ED032AC0ED022A81EC060AC0ED0B2AE8
:1026E000C0ED0C2AC0ED0D2A41789FED0C0ADFEDFC
:1026F0000C0A61B101290AD0032907D19FED090A0B
:1027000080ED0E0A9FED080A80ED0F0A704780EDFC
:102710000E0AC0ED0F0A70470000000000606AC694
:1027200000606A4600803BC500803B457047090752
:10273000090E002806DA00F00F0000F1E02080F812
:10274000141D704700F1E02080F80014704700006D
:10275000214808B500680168C943C9063AD4016830
:10276000406800901D4800681C48001D00681C4817
:102770001C4A0168D014914202D91A494C3904E02C
:10278000194A914203D917495039086008E0164B9D
:10279000154A603BB83A994201D9D06000E0906098
:1027A0000D48FFF775FB0C2210490B48FFF7DCFCC6
:1027B0000E480178A5290DD141785A290AD1817A8C
:1027C000AA2907D1C07AAA2804D1BDE80840074841
:1027D00000F01EB808BD0000A00100200048004025
:1027E0008002002058640240B8600240EC050020DE
:1027F00005480068C16841F01001C1600C2203491E
:102800000148FFF7B1BC0000A0010020EC0500204A
:10281000044950F8022F0A6042684A60007A087240
:1028200070470000E005002070470000002836D007
:102830000188C1F30A021A490A8042788378D208D3
:1028400042EA4312C2F30A024A808278C3789209AC
:1028500042EA8302037942EA8322C2F30A028A80AF
:1028600002794379520842EAC312C2F30A02CA80CB
:10287000427992090A724279C2F301124A72C288FD
:102880004A8102898A814289CA81027B0A74427B19
:102890004A74C2894A82008AC0F30A00888270475B
:1028A000C80500201C4808B500680168C943C9066E
:1028B00031D4016840680090184800681748001D2E
:1028C00000681748174A0168D014914202D9154987
:1028D0004C3904E0144A914203D912495039086036
:1028E00008E0114B104A603BB83A994201D9D060D8
:1028F00000E090600848FFF7CBFA80220B490648B9
:10290000FFF732FC09480078A52804D1BDE808404B
:10291000064800F01DB808BDE00100200014014089
:10292000E002002058640240B860024034050020F4
:1029300005480068C16841F01001C1608022034968
:102940000148FFF711BC0000E00100203405002021
:102950002DE9F843454E07460024385DA52806D1E9
:102960003D190521284600F047FC012801D0641CD0
:102970000DE0B5F80100ADF80000BDF800102846E4
:102980008846093100F01AFC012802D0641DE4B227
:1029900067E0B5F8050040F20222ADF80000A0F2B1
:1029A0000221904238D013DC40F20111A0F2011252
:1029B000884221D006DC012811D0022815D0032836
:1029C0004BD115E0012A1CD0B2F5807F45D11EE025
:1029D000062942D2DFE801F041272C30363AB5F81B
:1029E00007003080687AB07037E0E879F07034E042
:1029F000B5F80700B08030E0D5F80700C6F806004B
:102A00002BE0B5F807007081687A307325E017482D
:102A10000F22E91D0F3003E014480E22E91D1C307F
:102A2000FDF7E0FB19E011481022E91D2A30F7E715
:102A3000E87986F83A0010E0B5F80700A6F83B0000
:102A4000687A00E0E87986F83D0006E055F8070F5F
:102A5000C6F83E00A888A6F8420004EB080009303A
:102A6000C4B2802CFFF479AFBDE8F883F0040020F5
:102A700038B51D4800680168C943C90633D40168E8
:102A800040680090194801684068194C194A4FF491
:102A900000102168914202D916494C3904E0164AC7
:102AA000914203D913495039086008E0124B124A89
:102AB000603BB83A994201D9D06000E090600A4882
:102AC000FFF7E6F9206840681422C0F11400C4B290
:102AD0000A490548FFF748FB122C04D1BDE83840ED
:102AE0000648FFF7A3BE38BD60010020001001407A
:102AF0002002002058640240B8600240B405002063
:102B000005480068C16841F01001C1601422034902
:102B10000148FFF729BB000060010020B405002038
:102B20007047FEF7DDBC000030B593B03021684639
:102B3000FDF771FB14210CA8FDF76DFB1C48002567
:102B4000016841F080510160006800F080501190F0
:102B50001848016841F4404101600068022400F413
:102B6000404011900120009001908005CDE9064081
:102B70000C2008904FF4A870CDE9090404200B90B4
:102B80006846FEF7A9FE00B1FEE70CA90F2081E818
:102B900031004FF4A0500F904FF480501090052159
:102BA0000CA8FEF771FD002800D0FEE713B030BD81
:102BB00040380240007000401048016841F4700144
:102BC00001600F48016841F0010101600C4A0021D9
:102BD0000832116002680B4B1A400260031D0A4A5A
:102BE0001A60026822F48022026005480C300160FD
:102BF00002495806803908607047000088ED00E0FF
:102C000000380240FFFFF6FE1030002410B500210E
:102C10000448FFF7F5F8BDE8104004210148FFF72C
:102C2000EFB80000A400002010B504490448FDF7E7
:102C30006BFCBDE810400148FDF72ABDA003002051
:102C4000A4000020F0B50268234B244D244E254FEC
:102C5000254C4FF0804C984209D0604507D0A842DF
:102C600005D0B04203D0B84201D0A04204D122F036
:102C7000700E4A6842EA0E0298421BD0604519D095
:102C8000A84217D0B04215D0B84213D0A04211D0FC
:102C9000164DA8420ED0164DA8420BD0154DA84295
:102CA00008D0154DA84205D0144DA84202D0144DAD
:102CB000A84203D122F44075CA682A4302608A6898
:102CC000C2620A688262984201D0A04201D10969B9
:102CD000016301214161F0BD00000140000400409A
:102CE00000080040000C004000040140004001408A
:102CF000004401400048014000180040001C004012
:102D00000020004010B50123046A8B409C430462FC
:102D1000036A8A401343036210BD000070B5046A61
:102D200024F0010404628469056A164EB04214D08E
:102D3000B0F1804F11D0144EB0420ED0134EB042BD
:102D40000BD0134EB04208D0124EB04205D0124EF6
:102D5000B04202D0114EB04203D124F00304144318
:102D600003E024F0030242F001041A0724F0F00407
:102D700044EA126225F00A0301F00A011943826154
:102D8000016270BD000001400004004000080040E6
:102D9000000C0040000401400040014000180040C9
:102DA00030B5046A24F0100404628469056A24F4CE
:102DB000407444EA022222F470444FF6FF7202EAA1
:102DC00003322243A02425F0A00304EA0111194391
:102DD0008261016230BD70B5846B2068406994F8EF
:102DE0003910C0F3C0100025212904D118B1E584A1
:102DF000204600F046F82068406994F83A10C0F385
:102E00008010222904D118B1E585204600F02BF866
:102E1000E06B40F01000E0632046FFF765F870BDFE
:102E200010B50146806B09680968C90513D40021F3
:102E3000C1850168CA6822F48072CA6001684A6963
:102E400022F001024A6101684A6922F040024A61A7
:102E5000202180F83A10FFF7CFF910BD10B5806B34
:102E6000FFF7CBF910BD0168CA6822F49072CA60FE
:102E700001684A6922F001024A61202180F83A1073
:102E800070470168CA6822F0C002CA60202180F839
:102E9000391070472DE9F04104460068016921F4BA
:102EA0004052E168114301612168C86849F20C622F
:102EB00090432369A268E5691A4363692B431A4367
:102EC0000243CA602168486920F44072A069104337
:102ED0004861E1696425B1F5004F9748974A216838
:102EE0004FF032083FD0914201D081427CD1FEF7B1
:102EF000A1FC00EBC00101EB001061688900B0FB90
:102F0000F1F6FEF797FC00EBC00101EB00106168E1
:102F10008900B0FBF1F0B0FBF5F06FF01801484309
:102F200006EB800108EB0110B0FBF5F000F0F006B5
:102F3000FEF780FC00EBC00101EB00106168890026
:102F4000B0FBF1F0B0FBF5F006EB0016FEF772FCFB
:102F500000EBC00101EB001061688900B0FBF1F7E4
:102F6000FEF768FCD2E0914201D081423DD1FEF7EC
:102F700061FC00EBC00101EB001061684900B0FB8F
:102F8000F1F0B0FBF5F00601FEF754FC00EBC001D8
:102F900001EB001061684900B0FBF1F7FEF74AFC55
:102FA00000EBC00101EB001061684900B0FBF1F0DB
:102FB000B0FBF5F06FF01801484307EB800108EB18
:102FC000C100B0FBF5F000F0F80006EB4006FEF79C
:102FD00031FC00EBC00101EB001061684900B0FB5F
:102FE000F1F7FEF727FC3CE055E0FEF70BFC00EBA9
:102FF000C00101EB001061684900B0FBF1F0B0FBCB
:10300000F5F00601FEF7FEFB00EBC00101EB00103E
:1030100061684900B0FBF1F7FEF7F4FB00EBC0017B
:1030200001EB001061684900B0FBF1F0B0FBF5F076
:103030006FF01801484307EB800108EBC100B0FBBB
:10304000F5F000F0F80006EB4006FEF7DBFB00EBC6
:10305000C00101EB001061684900B0FBF1F7FEF719
:10306000D1FB00EBC00101EB001061684900B0FB2F
:10307000F1F0B0FBF5F06FF01801484307EB800169
:1030800008EBC100B0FBF5F000F007002168304408
:103090008860BDE8F081FEF7B5FB00EBC00101EBF5
:1030A000001061688900B0FBF1F6FEF7ABFB00EBA6
:1030B000C00101EB001061688900B0FBF1F0B0FBCA
:1030C000F5F06FF01801484306EB800108EB0110A2
:1030D000B0FBF5F000F0F006FEF794FB00EBC0014A
:1030E00001EB001061688900B0FBF1F0B0FBF5F076
:1030F00006EB0016FEF786FB00EBC00101EB0010AB
:1031000061688900B0FBF1F7FEF77CFB00EBC001C2
:1031100001EB001061688900B0FBF1F0B0FBF5F045
:103120006FF01801484307EB800108EB0110B0FB7A
:10313000F5F000F00F00A9E7001401400010014075
:103140002DE9F041984617460E460446069D1DE0BF
:10315000681C1BD02DB1FEF7BDF9A0EB0800A842FA
:1031600014D92068C16821F4D071C1602068416918
:1031700021F001014161202084F8390084F83A00EF
:10318000002084F838000320BDE8F0812068006842
:1031900036EA000004D00020B842D9D00020F3E77E
:1031A0000120F9E710B5FFF763FCBDE81040FDF71B
:1031B00025BBFFF7CDBAFFF775BBFEE730B50C4670
:1031C000050014D0022C12D90A48A11E42882846B4
:1031D000FDF796FB2919C2B211F8023C9A4206D1BA
:1031E00011F8011CB1EB102F01D1012030BD0020DE
:1031F00030BD00002000002030B50C4605000ED088
:10320000022C0CD90748611E02782846FDF78EFB78
:10321000291911F8011C814201D1012030BD002083
:1032200030BD00002000002002E008C8121F08C1C5
:10323000002AFAD170477047002001E001C1121F37
:10324000002AFBD170470000FEF752F9FFF76CFC33
:10325000FFF78CF8FFF754F8FFF72EF8FFF72EF979
:10326000FFF7F0F8FFF70CF9FFF766F9FFF746F9FB
:10327000FFF7AAF80648FDF705F9FFF741FCFFF74D
:1032800057FBFFF7B5FA0348FDF704F8FEE7000027
:10329000A0030020640000200000000001020304DD
:1032A000010203040607080900061016000610169E
:1032B000005EBCE2613FDD83C29C7E20A3FD1F4116
:1032C0009DC3217FFCA2401E5F01E3BD3E6082DC06
:1032D000237D9FC1421CFEA0E1BF5D0380DE3C62F6
:1032E000BEE0025CDF81633D7C22C09E1D43A1FFE6
:1032F0004618FAA427799BC584DA3866E5BB5907D6
:10330000DB856739BAE406581947A5FB7826C49AC5
:10331000653BD987045AB8E6A7F91B45C6987A24B5
:10332000F8A6441A99C7257B3A6486D85B05E7B9A5
:103330008CD2306EEDB3510F4E10F2AC2F7193CD95
:10334000114FADF3702ECC92D38D6F31B2EC0E5085
:10335000AFF1134DCE90722C6D33D18F0C52B0EE75
:10336000326C8ED0530DEFB1F0AE4C1291CF2D7365
:10337000CA947628ABF517490856B4EA6937D58B55
:103380005709EBB536688AD495CB2977F4AA481645
:10339000E9B7550B88D6346A2B7597C94A14F6A835
:1033A000742AC896154BA9F7B6E80A54D7896B3525
:1033B0000000891112239B322446AD573665BF7435
:1033C000488CC19D5AAFD3BE6CCAE5DB7EE9F7F8E5
:1033D0008110080193331A22A5562C47B7753E6415
:1033E000C99C408DDBBF52AEEDDA64CBFFF976E8C5
:1033F00002218B30100299132667AF763444BD55F5
:103400004AADC3BC588ED19F6EEBE7FA7CC8F5D9A4
:1034100083310A2091121803A7772E66B5543C45D4
:10342000CBBD42ACD99E508FEFFB66EAFDD874C984
:1034300004428D5316619F702004A9153227BB36B4
:103440004CCEC5DF5EEDD7FC6888E1997AABF3BA64
:1034500085520C4397711E60A1142805B3373A2694
:10346000CDDE44CFDFFD56ECE9986089FBBB72AA44
:1034700006638F7214409D512225AB343006B91774
:103480004EEFC7FE5CCCD5DD6AA9E3B8788AF19B24
:1034900087730E6295501C41A3352A24B116380754
:1034A000CFFF46EEDDDC54CDEBB962A8F99A708B04
:1034B000088481951AA793B62CC2A5D33EE1B7F034
:1034C0004008C919522BDB3A644EED5F766DFF7CE4
:1034D000899400859BB712A6ADD224C3BFF136E014
:1034E000C1184809D33B5A2AE55E6C4FF77D7E6CC4
:1034F0000AA583B4188691972EE3A7F23CC0B5D1F4
:103500004229CB38500AD91B666FEF7E744CFD5DA3
:103510008BB502A499961087AFF326E2BDD034C1D3
:10352000C3394A28D11A580BE77F6E6EF55C7C4D83
:103530000CC685D71EE597F42880A1913AA3B3B2B3
:10354000444ACD5B5669DF78600CE91D722FFB3E63
:103550008DD604C79FF516E4A9902081BBB332A293
:10356000C55A4C4BD7795E68E11C680DF33F7A2E43
:103570000EE787F61CC495D52AA1A3B03882B19373
:10358000466BCF7A5448DD59622DEB3C700EF91F23
:103590008FF706E69DD414C5ABB122A0B992308353
:1035A000C77B4E6AD5585C49E33D6A2CF11E780F03
:1035B000D035000800000020240000002832000858
:1035C000F435000824000020D40900003832000837
:1035D000000000000024F400000000000000164578
:1035E00000000000000000000000000000000000DB
:0435F000FF00FFFFDA
:04000005080001AD41
:00000001FF
