:020000040800F2
:10000000480B0020C10100086D2F00083F260008A2
:100010000D2D00089F0400089F3C00080000000010
:10002000000000000000000000000000AD330008E8
:10003000C10B0008000000008F2F0008CB3500081E
:10004000DB010008DB010008DB010008DB01000820
:10005000DB010008DB010008DB010008DB01000810
:10006000DB010008DB010008DB010008DB01000800
:10007000DB010008DB010008DB010008DB010008F0
:10008000DB010008ED0A0008DB010008DB010008C5
:10009000A1040008DB010008DB010008DB01000807
:1000A000DB010008DB010008DB010008DB010008C0
:1000B000DB010008DB010008DB010008DB010008B0
:1000C000DB010008DB010008DB010008DB010008A0
:1000D000DB0100088D3C0008DB010008DB010008A3
:1000E000DB010008DB010008DB010008DB01000880
:1000F000DB010008DB010008DB010008DB01000870
:10010000DB010008DB010008D1360008DB01000834
:10011000DB010008DB010008E1360008F9360008C1
:10012000DB010008F90A0008050B0008DB010008E4
:10013000DB010008DB010008DB010008DB0100082F
:10014000DB010008DB010008DB010008DB0100081F
:10015000DB010008110B0008DB0100089B3C0008D4
:10016000DB010008DB010008DB010008DB010008FF
:10017000DB010008DB010008DB01000800000000D3
:10018000DB010008DB010008DB010008BB380008C8
:10019000DB010008DB010008DB010008DB010008CF
:1001A0000000000000000000DB010008DFF80CD0B8
:1001B00000F044F9004800472D3D0008480B00209E
:1001C0000648804706480047FEE7FEE7FEE7FEE7F1
:1001D000FEE7FEE7FEE7FEE7FEE7FEE76136000822
:1001E000AD0100080649074A0868504343F2390246
:1001F00010440860400870470149086070470000DB
:10020000640000206D4EC64140EA01039B0703D005
:1002100009E008C9121F08C0042AFAD203E011F845
:10022000013B00F8013B521EF9D27047D2B201E007
:1002300000F8012B491EFBD270470022F6E710B5EB
:1002400013460A4604461946FFF7F0FF204610BD44
:100250002DE9FE4F81EA030404F0004421F000413F
:1002600000944FF0000B23F0004350EA01045ED0ED
:1002700052EA03045BD0C3F30A54C1F30A552C4479
:10028000A4F2F3340194A0FB0254C1F3130141F42E
:100290008011C3F3130343F4801301FB024400FBFA
:1002A000034E840A970A44EA815447EA8357A4FB21
:1002B000076802958D0A05FB07854FEA932C04FB1E
:1002C0000C542705029D4FEA065847EA1637B5EB4E
:1002D00008056EEB070C870E920E47EA811742EA7B
:1002E0008312A7FB0201B6EB0B0164EB00042B0D9C
:1002F00043EA0C335E1844EB1C50DA465146E7FBE8
:100300000201C5F313044FEA0B3343EA14534FEAD7
:100310000432019C43EA0603A4F10C040294009CFD
:10032000CDE900B400F03BF803B0BDE8F08F002049
:100330000146F9E70EB540F2334102910021CDE9C3
:1003400000110A460B4600F02AF803B000BD000079
:1003500030B5041E71F1000404DB4FF0004440424C
:1003600064EB0101141E73F1000405DB1C464FF021
:100370000043524263EB04038B4208BF824230BD0C
:1003800010B5141E73F1000408DA401C41F100019D
:1003900092185B411A4301D120F0010010BD2DE9F4
:1003A000F04D92469B4611B1B1FA81F202E0B0FAEB
:1003B00080F22032904600F053F804460F4640EA9F
:1003C0000A0041EA0B0153465A46084313D011462E
:1003D00053EA010019D0C8F14002504600F04FF82E
:1003E00005460E4650465946424600F039F8084345
:1003F00005D0012004E020463946BDE8F08D0020FC
:10040000054346EAE0762C4337430A986305E40A3D
:10041000A0EB08000022FD0A44EA47540A3002D546
:1004200000200146E9E7010510196941DDE90845A9
:1004300000196941BDE8F04DA2E70000064C074DE8
:1004400006E0E06840F0010394E8070098471034A4
:10045000AC42F6D3FFF7AEFEC8400008E840000803
:10046000202A04DB203A00FA02F100207047914074
:10047000C2F1200320FA03F3194390407047202A69
:1004800004DB203A21FA02F00021704721FA02F33E
:10049000D040C2F120029140084319467047FEE760
:1004A000014800F027BC0000A800002000B58BB078
:1004B00000210122CDE906120391089204910191D5
:1004C00002910E2205910992044901631C31416396
:1004D000694600F09BFB0BB000BD000068000020E7
:1004E00001684A6942F002024A61FFF7DFBF70B556
:1004F000066B0D0A049C3575056B6975056B110A51
:10050000A975016BCA75026B190A1176016B4B76DE
:10051000026B210A9176006BC47670BD10B54FF462
:10052000D872036802EB01129B5813F00404436B6A
:100530009C600468436BA45854D0E4085C60036872
:100540009A58436B02F00202DA604FF4DA720368E1
:1005500002EB01129B58446B03F00F032361036805
:100560009A58436BC2F30722DA614FF4DC720368D6
:1005700002EB01129B58446B237503689B58446B34
:100580001B0A637503689B58446B1B0CA3750368B7
:100590009A58436B120EDA754FF4DE72036802EB61
:1005A00001129B58446B237603689B58446B1B0ACB
:1005B000637603689B58446B1B0CA37603689A58B8
:1005C000436B120EDA762022002901680DD00A61F1
:1005D00001684A6922F010024A6190F83810222915
:1005E00009D021E0640D1C60A9E7CA6001684A696E
:1005F00022F00202F0E701684A6922F480724A613F
:1006000001684A6922F400724A6101684A6922F469
:1006100080624A6101684A6922F400624A610168A5
:100620004A6922F400424A6190F83810322907D012
:100630005FF0010180F8381000F0FCFC002010BDD4
:100640001221F7E710B5026B1160026B5160026B6B
:1006500000219160026BD160026B082111610A21B7
:1006600000F056FD08B1002010BD012010BD10B5EE
:1006700001684A6922F001024A6190F83810122993
:1006800018D101684A6922F480724A6101684A6996
:1006900022F400724A6101684A6922F480624A6168
:1006A00001684A6922F400624A6101684A6922F4D9
:1006B00000424A6190F83810322906D0012180F8B2
:1006C000381000F0EFFD002010BD2221F7E70000F8
:1006D00070B500252DED028B04469FED288ADFEDD5
:1006E000268A0571011D00F194064571F0EE682A15
:1006F000B0EE482AF0EE481AB3EE041AF0EE080AFB
:10070000B1EE040A084602F0FBFB9FED1D0AF0EE75
:10071000682A84ED240A35707570B0EE482AF0EE30
:10072000481AB3EE041AF0EE080AB1EE040A304695
:1007300002F0E6FBB7EE000A84ED480A9FED110ACD
:10074000012084ED3B0A2070022084F8340184F8F3
:10075000350184F8245184F8255184ED4A8A9FEDAF
:100760000A0A84ED4B8A84ED4C0ABDEC028BBDE88D
:10077000704002F09FBF0000842AAF4000000000DC
:100780008AA81B4200F8FF4500002F442DE9F047DE
:1007900004462DED028B0E4600680069394D400776
:1007A000B2EE048A4FF000094FF0010815D56879C0
:1007B0004FF65F7701284FF0040120462BD001F05F
:1007C0002DFDE86185F805802068016A39400162E5
:1007D0002068016A41F020010162206800698007F9
:1007E00015D528794FF6F57701284FF000012046FE
:1007F0002CD001F013FD686185F804802068016A3F
:10080000394001622068016A41F002010162BDECD9
:10081000028BBDE8F08701F001FD286221680A6AB9
:100820003A400A6221680A6A0A62E969884201D28A
:10083000E2681044401A00EE100AB8EE400AC0EE1A
:10084000080AC6ED4B0A85F80590C6E701F0E6FCFC
:10085000A86121680A6A3A400A6221680A6A0A6243
:100860006969884201D2E2681044401A00EE100A19
:10087000B8EE400AC0EE080AC6ED4A0A85F80490B0
:10088000C5E70000080000202DE9F04790ED4A0A76
:10089000D0ED4C0A00252D4EB4EEE00ADFF8A8900A
:1008A000F1EE10FA04464FF00108A6F1100703D24A
:1008B00094F83401022811D035603D6094ED4B0A64
:1008C000D4ED4C0AB4EEE00AF1EE10FA02D294F83C
:1008D0003401E8B175607D60BDE8F087306898B19B
:1008E00000F086FF38603168401A6428E6D33D6026
:1008F000356084F83551A4F8245184F8248189F8AE
:10090000005089F80150D9E700F072FF3060D5E758
:100910007068A0B100F06CFF78607168401A6428BC
:10092000DAD37D600420756084F83501A4F8245181
:1009300084F8258189F8005089F80150CCE700F04F
:1009400057FF7060C8E70000080000202C0400205A
:100950002DE9F04148492DED028B884202D09031BB
:1009600088427CD1444D2D1F29780027DFED430AB2
:100970009FED438A434C00F1080606292BD2DFE89D
:1009800001F0034D316A31393F4CE088C0F5806099
:1009900000EE100AF8EEC00A9FED3C1A304680EED9
:1009A000810ADFED3B0A20EE200A02F0E6F9E0883A
:1009B0004FF48061884202D985F834710BE0884297
:1009C00009D2022085F8340105E000BF20EE200A9C
:1009D000304602F0D2F9BDEC028B3046BDE8F04162
:1009E00002F004BA95F93401401E00EE100AB8EE88
:1009F000C00AEBE72069A0B100F0FAFEE0602169CF
:100A0000401AE17801EBC10202EB0111B0EB011FCA
:100A100021D32048B0F84200642806D2B0EE480A3C
:100A2000D6E700F0E5FE206115E000F0E1FEFFF7FB
:100A3000E3FBFFF7D7FB032190FBF1F201FB120070
:100A4000801CE07095F83401801E00D5404285F886
:100A50003401E760276195F93401401E00E006E0AB
:100A600000EE100AD4ED020AB8EEC00AAEE7BDEC03
:100A7000028BBDE8F0810000400400200000164415
:100A8000000000000800002020070020000025448E
:100A900000006144200600200F4B30B40F499A78C3
:100AA000897A012A05D0012903D19FED0D0A80ED35
:100AB000360A0C4A012904D002290BD0032905D19A
:100AC00002E0094C647800E000241470997030BC96
:100AD000FFF7DABE0524F8E7080000202007002011
:100AE000000000003C04002038070020014800F00E
:100AF00021BC00009C020020014800F01BBC00004B
:100B00005C030020014800F015BC0000FC0200203E
:100B1000014800F00FBC0000BC030020016818234E
:100B2000CAB2103AB2FBF3F2054B6FF30901032A84
:100B30009B5CC36500D9091D8165084670470000AC
:100B4000C03D000810B5014600208B698A6A4FF04D
:100B5000C07453B1B3F5005F15D072B1012A0CD047
:100B6000022A0AD0032A09D104E01AB1012A06D0C8
:100B7000022A03D1C96AC90100D5012010BDC96A82
:100B8000A142FAD010BD002AF7D0012AF2D0022AE1
:100B9000F3D0032AF3D010BD30B50468256825F4DE
:100BA00080252560046863608368402B036803D058
:100BB00099600068C26030BD9A600068C16030BD55
:100BC0007047FEE710B558B1084C491E0BD310F81A
:100BD000013B5340DBB234F8133083EA1222F4E7CE
:100BE0004FF6FF7010BD104610BD0000C83E000853
:100BF00010B5054C04E000BF10F8013B5340E25C27
:100C0000491EF9D2104610BDC83D0008F0B50A7D56
:100C100001209040344A136843F0010313601368C5
:100C200023F47C53136013684C6A43EA0423136073
:100C30002D4B1C331C6884431C602B4D2B4CCE6900
:100C40000C35A6B92E6886432E608F894E6867F3EF
:100C50001F464F6904EBC707C7F840660F890E6847
:100C600067F31F464F6904EBC707C7F84466CE69B0
:100C7000012E14D12E6806432E600E884D6866F34F
:100C80001F454E6904EBC606C6F840560E89CD686E
:100C900066F31F454E6904EBC604C4F84456124C73
:100CA0008D69241D002D256806D0054325600E4C56
:100CB0000D69143415B104E08543F7E725688543D1
:100CC00025600D69012D02D1256805432560096A5B
:100CD000012902D1196801431960106820F0010050
:100CE00010600020F0BD0000006600400060004081
:100CF0007047000010B5044600684169C943C90740
:100D000014D182685849914368D000218368574ABA
:100D10009A4365D0002283685548984362D00020EA
:100D20001143014302D02046FFF7A1FC2068C168AF
:100D3000406911F0030FC0F3400004D018B1002146
:100D40002046FFF7EBFB21680869496910F0030FA3
:100D5000C1F3001104D019B101212046FFF7DEFBD9
:100D600020688169426911F0010FC2F300234269D2
:100D7000C2F3C03205D023B11AB1E16B41F00101D9
:100D8000E1638169C1F3400341694269C1F34021D4
:100D9000C2F3C0322BB121B11AB1E16B41F00201B3
:100DA000E16381694269C1F38001C2F38023426932
:100DB000C2F3C03229B123B11AB1E16B41F0040191
:100DC000E163816911F0700F0ED00021426943691F
:100DD000C2F3C022C3F3C03341B127E0012195E73C
:100DE000012298E701209BE70121EFE7F2B1EBB187
:100DF000816901F07001402929D006DC102909D051
:100E000020290BD030290DD11DE0502923D0602995
:100E100008D124E0E16B41F0080102E0E16B41F010
:100E20001001E163816921F070018161E06B0028AC
:100E300008D0216804204860012084F8380020464A
:100E4000FFF756FF10BDE16B41F02001E9E7E16BD0
:100E500041F04001E5E7E16B41F08001E1E7E16B42
:100E600041F48071DDE70000030000040003000886
:100E7000000003102DE9F041040004D094F838007C
:100E8000002518B107E00120BDE8F08184F8395051
:100E9000204600F093F8022084F8380020680168AA
:100EA00021F0020101602068016841F00101016048
:100EB00000F09EFC0746032605E000BF00F098FC0A
:100EC000C01B0A2863D820684068C007F6D0206895
:100ED0004168C90768D0A169012901683FD021F0A4
:100EE00080010160E0690128206801683AD021F0A2
:100EF00040010160206A01282068016835D021F096
:100F000020010160606A01282068016830D021F06A
:100F100010010160A06A0128206801682BD021F02F
:100F200008010160E06A01282068016826D021F0EC
:100F300004010160D4E902010843D4E90412114319
:100F400008436168491E08432168C8612068016838
:100F500021F00101016000F04BFC07461CE041F06C
:100F60008001BEE741F04001C3E741F02001C8E73E
:100F700041F01001CDE741F00801D2E741F0040152
:100F8000D7E700BF00F034FCC01B0A2804D904F8DE
:100F9000386F0320657077E720684068C007F1D19B
:100FA00020684068C00703D0042084F838006AE74E
:100FB000E563012084F83800002065E710B586B0AD
:100FC000044614216846FFF738F91749206888421B
:100FD00027D116480021026842F0007202600068C2
:100FE00000F00070059011481038026842F00802C5
:100FF00002600068022200F0080005900320CDE99D
:101000000210CDE90002092004906946084800F06A
:1010100009FB02221146142000F092FC142000F07B
:1010200084FC06B010BD000000640040403802405F
:10103000000C02402DE9FC410546324885425FD153
:10104000686B8168002956D1C168E9BB00682E4EE3
:101050002E4FA0F50070013804D0012810D00228CE
:101060002AD11EE03446311D284601F063FE264891
:10107000FFF712FD2448483001F082FE201D0DE0EC
:101080002149284694310C4601F054FE1E48FFF7D2
:1010900003FD1D48D83001F073FE2046FFF758FCD1
:1010A0000AE03C46391D284601F044FE174801F08D
:1010B00059FB201D01F00EFB97ED0E0A0021BDEE3D
:1010C000C00A10EE100A00E015E000B2CDE9000100
:1010D00096ED320A4FF40071BDEEC00A10EE100A10
:1010E00096ED0E0A03B2BDEEC00A10EE100A02B26F
:1010F000284601F00CFE2868416941F00201416177
:10110000BDE8FC81A80000203C04002074050020FC
:101110002DE9F05F0E46016804468868400105D459
:101120008868000102D48868C00067D594F8390047
:1011300001280ED0012784F8397094F8380022284D
:101140000AD0122084F838008868400106D50025AE
:101150000AE00220BDE8F09F3220F3E78868000132
:1011600001D5012500E002254FF4C07000EB051009
:101170000A5802F001020A50216B8A68EAB3D4F8D7
:1011800000C05CF800301343CA68496842EAC101F4
:101190000B434CF80030216B0A7C02F00F020A610D
:1011A0004FF4C271226801EB0511535823F00F036D
:1011B000535022685358D4F830C0DCF810C043EACA
:1011C0000C035350216B4FF4C47303EB05130A7DDA
:1011D000D1F8151042EA01212268D150216B4FF459
:1011E000C67303EB05130A7ED1F8191042EA0121F8
:1011F0002268D15021680A5801E00DE046E042F033
:1012000001020A5000F0F4FA81464FF00008DFF8BE
:1012100088A0DFF888B019E022681358D1F80CC014
:10122000098843EA0C0343EA41511150B3E7701CAB
:101230000CD02EB100F0DCFAA0EB0900B04205D9C9
:10124000032084F8380084F8398083E795B120685A
:10125000012D816813D0124888430028E7D194F803
:10126000380032280ED084F8387000BF84F83980F6
:1012700000206FE7206881682AEA0100EDE72BEA89
:101280000100EAE7222084F83800EFE7042084F820
:10129000380001205EE7000003000004000300089E
:1012A0000000031070472DE9F0410446876D00F0FF
:1012B0009FFA064694F835000025022806D08020C3
:1012C000606584F834500120BDE8F0812068016831
:1012D00021F0160101602068416921F0800141611F
:1012E000206C08B9A06C20B12068016821F00801C9
:1012F00001602068016821F0010101600BE000F04D
:1013000077FA801B052806D92020606504F8345F31
:1013100003206070D8E720680068C007EFD194F818
:101320005C103F208840B86004F8345F0120607092
:101330000020C9E72DE9F84304464FF00008CDF836
:10134000008064484FF41651A56D0068B0FBF1F7BA
:101350002E6894F85C10082000FA01F131420FD099
:1013600021680A6852070BD50A6822F004020A6055
:1013700094F85C108840A860606D40F001006065E2
:1013800094F85C1054488840304208D0216849697C
:10139000090604D5A860606D40F0020060654E4803
:1013A00094F85C10C01C8840304208D0216809685D
:1013B000890704D5A860606D40F00400606594F86A
:1013C0005C1010208840304218D021680968090755
:1013D00014D5A86020680168490304D5006800039B
:1013E00008D5A16C07E00168C90503D4016821F0A4
:1013F00008010160216C09B12046884794F85C100F
:101400002020884030424FF0010631D02168096821
:10141000C9062DD5A86094F8350005282068016814
:1014200006D0490347D5006800031DD4616C1CE059
:1014300021F0160101602068416921F080014161BD
:10144000206C08B9A06C20B12068016821F0080167
:10145000016094F85C103F208840A86084F83480D4
:1014600084F83560216D1FE0E16B09B120468847A3
:10147000606D00282BD0606DC00714D0052084F863
:1014800035002068016821F0010101600098401CCE
:101490000090B84203D820680068C007F6D184F8ED
:1014A000348084F83560E16C002910D001B020460A
:1014B000BDE8F04308470168C905D5D4016821F0AB
:1014C0001001016084F8348084F83560CCE7BDE811
:1014D000F883000004000020010080002DE9F041A5
:1014E000044600F085F906465CB1002584F83450C6
:1014F000022084F835002068016821F001010160B4
:101500000DE00120BDE8F08100F072F9801B052894
:1015100005D920206065032084F83500F2E72068B3
:101520000068C007F0D1226811681F480140D4E963
:1015300001031843D4E9033633431843636918435E
:10154000A3691843E3691843236A18430843616A8F
:10155000042903D1D4E90B13194308431060206810
:101560004069666A20F0070130460E4301270428CF
:101570000AD1A06A06432046FFF7E4FA20B14020D2
:10158000606584F83570BCE7206846612046FFF747
:10159000C5FA94F85C203F2191408160656584F82C
:1015A00035700020AEE700003F8010F02DE9F041DB
:1015B0000446866D90F83400002501280DD00120E6
:1015C00084F8340094F835700020012F07D084F897
:1015D000340002252846BDE8F0810220FBE70227FF
:1015E00084F8357060652046FFF7D6FA94F85C10F1
:1015F0003F208840B0602068016841F0160101601A
:101600002068416941F080014161206C20B120686F
:10161000016841F0080101602068016841F00101A2
:101620000160D7E72DE9F84FDFF890B100224FF0C5
:1016300001084FF0030A4FF00F090BF1040E00BF31
:101640000B6808FA02F42340A3426ED14D68022DC4
:1016500001D0122D0ED1D50800EB850CDCF82050FE
:101660005607F70E09FA07F6B5430E69BE402E433A
:10167000CCF82060066855000F790AFA05FC07F0DF
:10168000030726EA0C06AF40374307604E68012E79
:1016900005D0022E03D0112E01D0122E0ED1876854
:1016A000CE6827EA0C07AE403E4386604668A643F4
:1016B0000C79C4F30014944034434460C4688E68C9
:1016C00024EA0C04AE402643C6604C68E4006FD5A3
:1016D0003B4C256845F480452560246822F00305CD
:1016E00004F480440094374C2E19D6F80848950726
:1016F0002F0F09FA07F5AC43334DA84201D100255D
:101700002EE0324DA84201D1012529E0304DA842FA
:1017100001D1022524E02F4DA84201D103251FE06D
:101720002D4DA84202D104251AE041E02B4DA842DC
:1017300001D1052514E02A4DA84201D106250FE06C
:10174000284DA84201D107250AE0274DA84201D122
:10175000082505E0254DA84201D1092500E00A250C
:10176000BD402543C6F80858DBF800405D464E688A
:101770009C43F60300D51C432C60DEF80040754600
:101780004E689C43B60300D51C432C600B4D0835B6
:101790002C684E689C43F60200D51C432C60074D14
:1017A0000C352C684E689C43B60200D51C432C6057
:1017B000521C102AFFF444AFBDE8F88F003C0140F2
:1017C0004438024000300140000002400004024062
:1017D00000080240000C02400010024000140240C9
:1017E00000180240001C0240002002400024024079
:1017F00001480068704700000000002002480168AE
:10180000491C016070470000000000200B4810B523
:10181000016841F400710160016841F48061016078
:10182000016841F480710160032000F0A9F80020F4
:1018300000F006F800F018F8002010BD003C02404F
:1018400010B5044607484FF47A710068B0FBF1F018
:1018500000F042FB00222146501E00F071F80020EB
:1018600010BD0000040000200B4882B0016841F464
:1018700080410160006800F4804000900648001F2D
:10188000016841F080510160006800F080500090D4
:10189000052002B000F074B8443802402DE9F04150
:1018A00016460F46040004D094F83900002518B1FC
:1018B00007E00120BDE8F08184F83850204600F0B0
:1018C000FDFC242084F839002068C16821F400510F
:1018D000C160204602F052F82068016921F490416D
:1018E00001612068416921F02A0141612068016994
:1018F00021F00F010161206801693943016120680D
:10190000C16821F40061C1602068C1683143C160D1
:101910002068C16841F40051C160E563202084F86B
:10192000390084F83A000020C4E700F01F020121CA
:1019300091404009800000F1E020C0F8001170479C
:10194000F0B40E4B1B680C46C3F30223C3F107052A
:10195000042D00D90425191D072901D2002300E018
:10196000DB1E012606FA05F1491E214099409E40E2
:10197000761E16403143F0BC01F0F9BA0CED00E0E0
:10198000064900F0070208684FF6FF03184040EAD6
:101990000220034A10430860704700000CED00E08D
:1019A0000000FA052DE9F047DFF8649105460F467F
:1019B000D9F8000000F00F01F8B28046B94208D211
:1019C000014689F80010D9F8000000F00F00B84275
:1019D00074D128784F4C800705D52068A96820F07D
:1019E000F000084320602878C00759D0494968684A
:1019F000083901281AD002281BD0032819D00968F9
:101A0000890700295ADA216821F003010143216086
:101A1000FFF7EEFE6968064641F28830012911D0D1
:101A200002291DD00329824627D035E009688903A1
:101A3000E7E709688901E4E7FFF7DAFE811B514512
:101A400001D926E082462068C0F381000128F3D145
:101A500026E000BFFFF7CCFE811B514501D918E0FD
:101A600082462068C0F381000228F3D118E000BF4D
:101A7000FFF7BEFE811B51450BD82068C0F38100E3
:101A80000328F5D10CE000BFFFF7B2FE811B5145E2
:101A900002D90320BDE8F087206810F00C0FF3D1C5
:101AA000D9F80010484601F00F01B94208D980F872
:101AB0000080006800F00F00B84201D00120E9E783
:101AC0002878400705D52068E96820F4E0500843ED
:101AD00020602878000706D52068296920F4604036
:101AE00040EAC100206000F04BF82168F02292FA31
:101AF000A2F201F0F001B2FA82F2D140064A515C42
:101B0000C840064908600020FFF79AFE0020C1E7A0
:101B1000003C024008380240B03D000804000020AC
:101B200008480949006809684FF4E05292FAA2F2A5
:101B300001F4E051B2FA82F2D140044A515CC8404B
:101B4000704700000400002008380240B03D000843
:101B500008480949006809684FF4604292FAA2F205
:101B600001F46041B2FA82F2D140044A515CC840AB
:101B7000704700000400002008380240B03D000813
:101B800030B51948006810F00C01184812D0184CF4
:101B900004290ED008290DD11349091F0A6802F043
:101BA0003F030A68550247F6C07204D5B4FBF3F050
:101BB00003E0204630BDB0FBF3F00B68096813402A
:101BC00092FAA2F2B2FA82F2D34058434FF4403272
:101BD00092FAA2F201F44031B2FA82F2D140491CE9
:101BE0004900B0FBF1F030BD083802400024F40099
:101BF000001BB7002DE9F84F0446DFF8CC820078CF
:101C0000A8F1040BC007ABF1040537D0D8F80010D9
:101C10004046C1F38101012908D00068C0F381006A
:101C200002280AD1DBF80000400206D528688003AC
:101C300024D56068002878D020E0A3492079891F46
:101C40000870606868B1FFF7D3FD064605E000BF85
:101C5000FFF7CEFD801B642868D828688003F7D57D
:101C60000CE0FFF7C5FD064605E000BFFFF7C0FD2D
:101C7000801B6428F0D828688003F7D42078934E1E
:101C800080074FF0010A4FF0000742D5D8F8001046
:101C9000404611F00C0F08D00068C0F38100022804
:101CA0000AD1DBF80000400206D42868800714D56A
:101CB000E068012839D110E0E068D8B1C6F800A08A
:101CC000FFF796FD814605E0FFF792FDA0EB0900C6
:101CD0000228C1D828688007F6D52868F82292FA29
:101CE000A2F22169B2FA82F220F0F8009140084392
:101CF00028600EE03760FFF77BFD814606E000BFFD
:101D0000FFF776FDA0EB090002280FD828688007AE
:101D1000F6D42078000728D56D486169A1B1C0F8D4
:101D200000A0FFF765FD814608E0CAE079E000BF4A
:101D3000FFF75EFDA0EB0900022872D862486C3004
:101D400000688007F4D510E00760FFF751FD814679
:101D500006E000BFFFF74CFDA0EB0900022860D8A9
:101D600059486C3000688007F4D42078400749D582
:101D700055483830016841F080510160006800F03A
:101D8000805000905348016841F480710160FFF772
:101D90002FFD814606E000BFFFF72AFDA0EB0900FA
:101DA00002283ED84B480068C005F5D5DFF81891E9
:101DB000207A09F1680989F80000A06888B1FFF766
:101DC00017FD009008E000BFFFF712FD0099411ACF
:101DD00041F2883081426CD8D9F800008007F3D5F1
:101DE00010E0FFF705FD009008E000BFFFF700FDE1
:101DF0000099411A41F2883081425AD8D9F800003E
:101E00008007F3D4A069E0B3D8F80010C1F38101D2
:101E1000022956D00228376604D0FFF7E9FC0446B1
:101E20004AE046E0FFF7E4FC074604E0FFF7E0FC89
:101E3000C01B02283DD828688001F7D4D4E90701E7
:101E4000084347F6C07292FAA2F2616AB2FA82F2CD
:101E50009140A26A4FF0FF3303EB52024FF440333C
:101E600093FAA3F3B3FA83F39A40114308434FF074
:101E7000706292FAA2F2E16AB2FA82F291400843E9
:101E800000E01CE0CBF80000C6F860A0FFF7B0FC53
:101E9000044604E0FFF7ACFC001B022809D82868C0
:101EA0008001F7D50BE000BFFFF7A2FC001B022862
:101EB00002D90320BDE8F88F28688001F4D40020FF
:101EC000F8E70120F6E7000008380240000047422A
:101ED000800E47420070004010B5401EB0F1807F78
:101EE00001D3012010BD4FF0E02460610F21601785
:101EF00001F03DF80020A06107202061002010BD06
:101F000030B590F83820012A20D0012280F83820FE
:101F1000022380F8393003685C6824F070045C6048
:101F200003685C680D682C435C6003689C6824F05F
:101F300080049C6003689C6849680C439C6080F83E
:101F40003920002180F83810084630BD022030BD0D
:101F500010B5040003D094F8390010B107E0012057
:101F600010BD002084F83800204600F00DF8022053
:101F700084F83900211D206801F0D6FB012084F887
:101F80003900002010BD000008B5154A0168154849
:101F900091420ED1016841F01001016000680322F6
:101FA00000F01000009001213620FFF7C9FC362018
:101FB00010E00D4A914211D1016841F02001016009
:101FC0000068022200F02000009011463720FFF741
:101FD000B7FC3720BDE80840FFF7A7BC08BD0000EC
:101FE0000010004040380240001400400168CA68F8
:101FF00042F00102CA600068016841F0010101601D
:10200000002070472DE9F041044690F838000D4655
:1020100001283DD0012684F83860022084F8390078
:10202000AAB3042A46D02068082A55D0D5E900274B
:10203000E968036A23F480530362D0F81CC0036A82
:102040002CF4407C4CEA07274FF6FF7C27F47047BE
:102050000CEA013139434FF4204723F4204307EAC7
:1020600002321A43C16102622068C16921F44061F1
:10207000C1612068C169AA6841EA0221C0F81C1048
:1020800084F83960002084F83800BDE8F08101E070
:102090000220FAE7D5E90012EB68206801F0B0FBF6
:1020A0002068816921F00C01816120688169AA683A
:1020B00011430FE0D5E90012EB68206801F0E2FB64
:1020C0002068816921F44061816120688169AA6882
:1020D00041EA02218161D3E7D5E9002C2F7B016A17
:1020E00021F480710162C169036A21F0030141EAB0
:1020F0000C0121F0F00C39074FF420674CEA116114
:1021000023F4206307EA02221A43C16102622068B5
:10211000C16921F00C01C1612068C169AA6811433D
:10212000ACE710B5040003D094F8390010B107E013
:10213000012010BD002084F83800204600F00CF883
:10214000022084F83900211D206801F0EDFA0120F9
:1021500084F83900002010BD10B586B00446142163
:102160006846FEF76AF817492068884227D1164862
:102170000021026842F008020260006800F00800D6
:10218000059011481038026842F080020260006831
:1021900000F0800005904FF4406000900220CDE9EF
:1021A0000101CDE9031069460848FFF73BFA022216
:1021B00000213220FFF7C4FB3220FFF7B6FB06B048
:1021C00010BD0000000C004040380240001C0240DE
:1021D00010B50268044631B1042908D0082915D089
:1021E0000C2908D116E0D06840F0020002E0D06867
:1021F00040F00400D0600122206801F0F5FA206868
:10220000016841F001010160002010BDD06840F07C
:102210000800EFE7D06840F01000EBE790F83830A6
:102220000022012B0AD0012380F8383041B1042963
:1022300009D008290AD00C290DD10AE002207047E4
:1022400001684A6B07E001688A6B04E00168CA6BA9
:1022500001E001680A6C002180F8381010467047D0
:1022600010B504460068416994F83920C1F3C011E3
:10227000212A0BD151B1416921F080014161206BCC
:1022800008B1FFF710F8204601F06FFB20684169A4
:1022900094F83A20C1F38011222A0BD151B141693F
:1022A00021F040014161606B08B1FEF7FCFF204660
:1022B00001F04DFB002010BD704700002DE9F047F4
:1022C00086B0044614216846FDF7B7FF7D487C4E72
:1022D000D4F800C07B491038022303220827DFF816
:1022E000E8A10025B4451BD10C6844F080440C6083
:1022F000096801F080410591016841F01001016019
:102300000068694600F010000590D0018DE82900B2
:10231000CDE903275046FFF785F906B0BDE8F08701
:10232000DFF8A8814FF020694FF48066C44534D1AE
:10233000D1F800C04CF0004CC1F800C0096801F0B1
:1023400000410591016841F01001016000688DE8CD
:102350002C0000F01000CDE904706946039250464D
:10236000FFF760F95B4F5A483860C7E90195C7E944
:1023700003567D61BD61FD613D6238467D62FFF7B8
:10238000ADF808B1FEF71DFC67630222012153205E
:10239000BC63FFF7D5FA53203CE04A49DFF83881A7
:1023A000091DC44539D10F6847F010070F6009684F
:1023B00001F010010591016841F00201016000681F
:1023C000694600F002000590C0208DE82900072032
:1023D000CDE903204148FFF725F93E4F40486037DB
:1023E00038604FF00060C7E90105C7E903567D6119
:1023F000BD61FD613D6238467D62FFF76FF808B14F
:10240000FEF7DFFB6763022201212520BC63FFF793
:1024100097FA2520FFF789FA7FE7DFF8C880C445DF
:10242000FAD1D1F800C04CF0200CC1F800C0096806
:1024300001F020010591016841F040010160006850
:10244000694600F0400005904FF484408DE8290073
:10245000CDE903272448FFF7E5F81E4F2048C03791
:1024600018383860C7E90195C7E903567D61BD6139
:10247000FD613D62C84638467D62FFF72FF808B11E
:10248000FEF79FFB6763BC631548184F6030E7E8B1
:102490000208402061C7154847F81459BD61FD6125
:1024A0003D627D62FFF71AF808B1FEF78AFB2763E9
:1024B000022211464720BC63FFF742FA4720A9E7F2
:1024C000007800404038024000100240007C00408C
:1024D000A06002409C020020001001400004024065
:1024E000406402400014014000180240BC03002078
:1024F00070B5044690F83A00202839D1A9B3A2B3A8
:1025000094F83800012833D0012084F83800A16203
:10251000A2850025E563222084F83A00636B154804
:10252000D863636B14481864636B1448D864606B99
:10253000134605650846666B216802463046091D4C
:10254000FFF734F82068C16841F48071C1602068E9
:10255000416941F0010141612068416941F0400158
:10256000416184F83850002070BDFFE70120FBE78F
:102570000220F9E70939000845390008BF3800088A
:10258000704770472DE9F843044690F839001E461D
:1025900017460D46202850D135B32FB394F8380094
:1025A00001284AD0012084F838004FF00008C4F810
:1025B0003C80212084F83900FFF71AF9A784E784CA
:1025C00081464FF48057E08C4B46401EE084A06863
:1025D0004FF00002B8424FF080012046009611D122
:1025E00001F022FB00BB02E00120BDE8F88328884F
:1025F000C0F3080120684160206908B16D1C08E043
:10260000AD1C06E001F010FB70B9216815F8010B54
:102610004860E08C0028D6D14B460022402120465D
:10262000009601F001FB08B10320DEE7202084F8CA
:10263000390084F838800020D7E70220D5E7FEE78C
:1026400010B50446012020716071F1EE082A9FED5B
:10265000082ADFED081AB2EE021AF2EE040AB2EE10
:10266000040A201D00F04CFC0020607010BD00002A
:1026700000000000CDCCCC3E10B590ED040A002344
:102680000F49B5EEC00AF1EE10FA16D00D4C4269B2
:10269000A24212DC0C4CA2420FD880680B4A904236
:1026A00002DC0B4A904208D94868401C4860B0F5EB
:1026B000FA7F03D301204B6010BD4B60002010BD9A
:1026C0002C0000200000A0410000A0C10000FA443E
:1026D0000000FAC4194910B588422ED1091F497863
:1026E00000F1080409290ED2DFE801F005081215EF
:1026F000181B1E2124009FED120A01E09FED110A14
:10270000204600F03AFB2046BDE8104000F06EBBCA
:102710009FED0D0AF4E79FED0D0AF1E79FED0C0A1E
:10272000EEE79FED0C0AEBE79FED0B0AE8E79FED64
:102730000B0AE5E79FED0A0AE2E710BD78050020E5
:10274000000000000000E1C30000074300006143F7
:10275000000087430000B4430000E14300C0284468
:102760000000614410B5044640780022012811D0D1
:102770001948C17A012904D0022905D0032909D1B9
:1027800002E01648C07810E00089A0F5C0619439D5
:102790000AD062706078092812D2DFE800F01112C6
:1027A000080808080808080006206070F2E72046BC
:1027B000FFF762FF012803D160782070012060706C
:1027C00010BD07480168491C0160C829F8D3217869
:1027D0006170026010BD0000200700203807002053
:1027E0002C000020104810B50E4901600221416004
:1027F00000214FF450228160C0E903124FF4A0027F
:10280000C0E905210122C161C0E90812C0E90A122C
:10281000FEF730FB002803D0BDE81040FEF7D1B929
:1028200010BD000000640040A8000020194808B551
:10283000016841F480010160016801F480010091A8
:10284000016841F4001101600068002200F40010EA
:10285000009011461120FFF773F81120FFF765F87B
:10286000002211463920FFF76BF83920FFF75DF899
:10287000022201213A20FFF763F83A20FFF755F8CA
:10288000002211464520FFF75BF8BDE808404520CF
:10289000FFF74BB83038024030B587B01421684696
:1028A000FDF7CBFC1D480024016841F010010160D8
:1028B000016801F010010591016841F040010160DB
:1028C000016801F040010591016841F002010160D9
:1028D000016801F002010591016841F00801016001
:1028E000016801F008010591016841F08001016073
:1028F0000068012500F0800005904FF480508DE8BD
:10290000310069460648FEF78DFEE8038DE8310088
:1029100069460448FEF786FE07B030BD30380240F5
:10292000001C0240000C024010B586B000241C4878
:10293000059404940094019402941849039401604E
:102940005321C0E901146FF07F41C0E903144461D1
:10295000FFF7E7FB08B1FEF734F9049404A9104827
:102960000594FFF7CDFA08B1FEF72BF90120CDE968
:10297000004002940022694609480394FFF742FB95
:1029800008B1FEF71EF9042269460548FFF73AFB35
:10299000002801D0FEF715F906B010BD000C00406C
:1029A000E80000201CB500240E4800940C49019456
:1029B00001605321C0E9011440F2E7314461C16074
:1029C000FFF7C6FA08B1FEF7FCF80094694605481F
:1029D0000194FFF795FA002801D0FEF7F2F81CBD2C
:1029E00000100040240100201CB500240E48009473
:1029F0000C49019401605321C0E9011441F287316F
:102A00004461C160FFF7A4FA08B1FEF7DAF8009458
:102A1000694605480194FFF773FA002801D0FEF7D4
:102A2000D0F81CBD00140040600100200D4810B516
:102A30000B4901604FF4E1314160002181600C22BB
:102A4000C160C0E9041281610A46C161FEF726FF38
:102A5000002803D0BDE81040FEF7B3B810BD000059
:102A6000007800409C0100200D4810B50B49016022
:102A70004FF4E1314160002181600C22C160C0E966
:102A8000041281610A46C161FEF708FF002803D0E5
:102A9000BDE81040FEF795B810BD0000007C004076
:102AA000DC0100200D4810B50B4901600C49416064
:102AB00000214FF480628160C0E903120422C0E962
:102AC00005210A46C161FEF7E9FE002803D0BDE8F2
:102AD0001040FEF776B810BD001001401C02002027
:102AE000A08601000D4810B50B4901604FF4E1319B
:102AF0004160002181600C22C160C0E90412816143
:102B00000A46C161FEF7CAFE002803D0BDE81040A6
:102B1000FEF757B810BD0000001401405C02002011
:102B200007489FED060A002180ED000A80ED010AAA
:102B300001724172034801707047000000000000FC
:102B4000140600203400002005480068C16841F0E8
:102B50001001C160032203490148FFF7C9BC00000E
:102B6000DC01002036000020002803D00249B0F824
:102B70000100088070470000340000200649502002
:102B800008700846C168C0F801100169C0F8051056
:102B90004169C0F80910704708060020F0B52349C4
:102BA000234A2448CF7A9378012F0AD00A4600247A
:102BB0000426128940F20A45022F07D0032F0BD1B9
:102BC00003E003721279427206E001230372AA4203
:102BD00001D3467200E04472027A012A09D0072A22
:102BE00006D19FED150A80ED000A00BF80ED010AB5
:102BF000F0BD4A88C2F5806200EE102AF8EEC00AE5
:102C00009FED0E0A80EE801AF0EE000A21EE201AE7
:102C100080ED001A8988A1F5806101EE101AB8EEE6
:102C2000C11AC1EE001A21EEA00ADFE7200700203A
:102C30003807002014060020000000000000254492
:102C400038B5214800680168C943C9063BD401680A
:102C5000406800901D4800681C48001D00681C4C1E
:102C60001C4A4FF400102168914202D919494C398D
:102C700004E0194A914203D916495039086008E026
:102C8000154B154A603BB83A994201D9D06000E033
:102C900090600D48FFF7E4FA206840680F4CC0F1DF
:102CA00003000322A060A11C0748FFF721FCA068D5
:102CB000032808D1A01C0078502804D1A01CBDE82E
:102CC0003840FFF751BF38BDDC010020007C0040D8
:102CD0009C02002058640240B8600240340000208A
:102CE00070B5FFF75BFFFFF749FF064D0024291978
:102CF0000A2301220448FFF745FC641CE4B20B2CB4
:102D0000F5D370BD08060020DC010020FEE7F8B511
:102D10001E460546DDE9063017460C460090324651
:102D200039462846FDF7E3FB21462846BDE8F84032
:102D3000FDF788BC91ED140A81ED150A426B928A69
:102D400052BA12B200EE102AB8EEC00A81ED140A8F
:102D5000426BD28A52BA12B200EE102AB8EEC00A02
:102D600081ED040A406B008B40BA00B200EE100AFD
:102D7000B8EEC00A81ED010A704780ED010A704784
:102D800090ED030AD0ED040AB6EE001A30EE600AA8
:102D900080ED020AD0ED050A20EE811AB4EEC10AD8
:102DA000F1EE10FA02DD30EE600A0AE0BEEE001A23
:102DB00020EE811AB4EEC10AF1EE10FA03D230EE21
:102DC000200A80ED020A90ED121AF0EE400A80EE21
:102DD000810AD0ED010A70EEC00AC0ED010AD0ED03
:102DE000000A30EE200A80ED000A704790EC020ADB
:102DF00090ED031AF5EEC00AF1EE10FA17DD70EE51
:102E0000C11AF4EEC01AF1EE10FA02DD30EE010A3A
:102E10000AE090ED041A70EE811AF4EEC01AF1EE99
:102E200010FA14D230EE410A80ED000A11E070EE83
:102E3000811AF4EEC01AF1EE10FAF3D390ED041AF1
:102E400070EEC11AF4EEC01AF1EE10FADEDCC0ED3D
:102E5000000AD0ED090A264AC0ED0A0A90ED020ADE
:102E600090ED001AD0ED0E1A11EE210A80ED090A3C
:102E700030EE601AD0ED080A70EE800A10EE901A5B
:102E8000C0ED080A914203DBDFED1A0AC0ED080A23
:102E900010EE901A184A914203D3DFED180AC0EDE4
:102EA000080AD0ED050AD0ED081A20EE800AD0ED10
:102EB000060A00EEA10AD0ED070A00EE810A80EDB5
:102EC0000B0AD0ED0D0AB4EEE00AF1EE10FA02DAC8
:102ED000F0EE400A01E0C0ED0B0A90ED0C0AF4EEB2
:102EE000C00AF1EE10FA01D880ED0B0A704700001D
:102EF00000401C4600401C4600401CC600401CC64A
:102F00009FED153A00F1140180ED033A80ED023A8D
:102F100080ED0A3A80ED0B3A80ED0C3A80ED0D3AE7
:102F2000C0ED102A81EC050A41789FED0C0ADFED17
:102F30000C0A61B101290AD0032907D19FED090AC2
:102F400080ED0E0A9FED080A80ED0F0A704780EDB4
:102F50000E0AC0ED0F0A70470000000000007AC69C
:102F600000007A4600409CC600409C467047090716
:102F7000090E002806DA00F00F0000F1E02080F8CA
:102F8000141D704700F1E02080F80014704770476E
:102F9000002836D00188C1F30A021A494A804278D3
:102FA0008378D20842EA4312C2F30A028A80827806
:102FB000C378920942EA8302037942EA8322C2F388
:102FC0000A02CA8002794379520842EAC312C2F364
:102FD0000A020A81427992098A724279C2F3011285
:102FE000CA72C2888A810289CA8142890A82027BA6
:102FF0008A74427BCA74C2898A82008AC0F30A003A
:10300000C8827047200700201C4808B50068016886
:10301000C943C90631D40168406800901848006867
:103020001748001D00681748174A0168D0149142DC
:1030300002D915494C3904E0144A914203D9124986
:103040005039086008E0114B104A603BB83A994289
:1030500001D9D06000E090600848FFF701F98022B4
:103060000B490648FFF744FA09480078A52804D11F
:10307000BDE80840064800F01DB808BD5C0200200D
:10308000001401405C03002058640240B860024014
:103090008B06002005480068C16841F01001C1603E
:1030A000802203490148FFF723BA00005C02002098
:1030B0008B0600202DE9FC5FDFF8DC810024774ED1
:1030C00007464FF0010BA246A8F10809385DA52874
:1030D00006D138190546052100F000FE012801D06F
:1030E000641C0DE0B5F80100ADF80000BDF800105B
:1030F00000912846093100F0D3FD012802D0641D5B
:10310000E4B2C4E0B5F8050040F20221ADF80400D5
:10311000A0F2022288427DD013DC40F20111A0F21D
:103120000112884229D006DC012819D002281DD0BE
:1031300003281AD11DE0032A23D0B2F5807F14D1D1
:1031400024E0052A67D006DC012A78D0022A7DD047
:10315000042A0AD17EE0062A6BD0FF2A05D189E035
:10316000B5F807003080687AB0708CE0E879F070CC
:1031700089E0B5F80700B08085E0D5F80700306237
:1031800081E0B5F80700A6F829007CE043480F224B
:10319000E91D2B30FDF738F896F82B000A2804D9E2
:1031A0005946424688F807B003E05146424688F83F
:1031B00007A01546C9B201EB8101072202EB4101CC
:1031C000884260D1B6F82F00A5F80500B5F80300D5
:1031D000A5F80100B6F82D10A5F80310884203D019
:1031E00096F85B00000905D02878012804D05046E5
:1031F000494615E085F800B0D9F8040090B1FEF713
:10320000F7FAC9F80000D9F804204946801AB0F549
:10321000FA6F01E00EE021E035D3504685F800A0BA
:10322000086001E0FEF7E4FAC9F804002BE006E0CC
:103230000CE01AE019480E22E91D3A3003E0174865
:103240001022E91D4830FCF7DFFF1CE0E87986F822
:10325000580018E0E87986F85B0014E055F8070F8D
:10326000F065A888A6F860000DE0B5F80700A6F89C
:10327000620008E055F8070F7066A888A6F8680095
:10328000A87986F86A00009820440930C4B2802CDE
:10329000FFF41CAFBDE8FC9F480000202006002082
:1032A0000448002100F8011B4FF416710180418091
:1032B000818070474800002038B5214800680168C7
:1032C000C943C9063AD401680024406800901D48EB
:1032D000016840681C4D1D4A4FF400102968914256
:1032E00002D91A494C3904E0194A914203D91749C5
:1032F0005039086008E0164B154A603BB83A9942CD
:1033000001D9D06000E090600D48FEF7A9FF286861
:1033100040681422C0F11400C5B20E490848FFF7F6
:10332000E7F8122D0AD10B490120143108700A4820
:103330000460BDE838400748FFF72ABE38BD0000EA
:103340001C02002000100140FC02002058640240D2
:10335000B86002400C0700205400002005480068B7
:10336000C16841F01001C160142203490148FFF710
:10337000BFB800001C0200200C070020094910B54E
:103380000868401C086040280AD9074C00200860E3
:1033900020701621A01CFCF750FF0220A072E072E2
:1033A00010BD0000540000202007002070470221BB
:1033B000017001224270042181700021C1700171ED
:1033C00041718171C2710172704700002DE9F05F97
:1033D000DFF864A104462DED028B0025BAF8420007
:1033E0005649042603274FF0010B142801D85846EC
:1033F00002E0C82822D0A079A0718946B1F8050062
:10340000FCF798FF9FED4E1B53EC112BFCF720FFB0
:1034100041EC180BB9F80300FCF78CFF53EC182BA8
:10342000FCF796FF05D9E07918B1474840780128A4
:1034300006D0A07968B301282CD128E0A571DCE77B
:10344000DFF80881D8F80800A0B1FEF7D1F90146ED
:10345000C8F80410D8F808204046891A44F62062BB
:10346000914211D8B9F80310B8F80000401A642846
:103470000FDC0CE0FEF7BCF9C8F808006670B9F87C
:103480000310A8F8001005E08560C8F804506670C5
:1034900000E0677061792E48022241B1012936D0DF
:1034A000022917D190F8351104293AD13FE0294B70
:1034B000D0F8D8109FED280A994214DD667090F874
:1034C0002411012906D1BAF84210642906D800BF98
:1034D00080F834B1BDEC028BBDE8F09F80F8345128
:1034E00080F824510FE01D4B9942F3D9667090F893
:1034F00025110129EED1BAF842106429E8D980F8E3
:10350000342180F8255180ED360A6770E2E790F8A3
:10351000351131B1012904D0032905D00429D9D1AD
:1035200002E080F83451D5E780F83421D2E790F8F2
:1035300025110129F8D0CDE7200600204800002001
:10354000333333333333D33F34000020580000206B
:103550003C040020007C124A00000000007C12CADB
:103560000421817070470000144B10B5B3F844106B
:103570000022B1F5B47F01D8027201E0012101728D
:10358000C179012905D1047A0D4909789CB1012C32
:1035900001D0C27010BD052905D0062903D0072926
:1035A00001D0082907D1B3F84410B1F5D27F01D872
:1035B000052100E00321C17010BD0000200600209D
:1035C00034000020042101717047FEF717B9000094
:1035D00030B593B030216846FCF72FFE14210CA8BB
:1035E000FCF72BFE1C480025016841F0805101606A
:1035F000006800F0805011901848016841F4404183
:1036000001600068022400F4404011900120009005
:1036100001908005CDE906400C2008904FF4A87079
:10362000CDE9090404200B906846FEF7E3FA00B1E7
:10363000FEE70CA90F2081E831004FF4A0500F9055
:103640004FF48050109005210CA8FEF7ABF900282C
:1036500000D0FEE713B030BD40380240007000409B
:103660001048016841F4700101600F48016841F0A1
:10367000010101600C4A00210832116002680B4B05
:103680001A400260031D0A4A1A60026822F480226E
:10369000026005480C300160024958068039086014
:1036A0007047000088ED00E000380240FFFFF6FEA2
:1036B0001030002410B500210448FEF789FDBDE854
:1036C000104004210148FEF783BD0000E8000020FF
:1036D00001490248FDF75AB83C040020E8000020E8
:1036E00010B5FFF74BFE03496FF001000968086150
:1036F00010BD00002401002010B50948FFF762FF4B
:103700000748FFF731FF0648FFF72AFF0448FFF795
:103710005DFE04496FF001000968086110BD0000FA
:103720003807002060010020F0B50268234B244DCB
:10373000244E254F254C4FF0804C984209D06045CF
:1037400007D0A84205D0B04203D0B84201D0A04271
:1037500004D122F0700E4A6842EA0E0298421BD051
:10376000604519D0A84217D0B04215D0B84213D046
:10377000A04211D0164DA8420ED0164DA8420BD033
:10378000154DA84208D0154DA84205D0144DA842A9
:1037900002D0144DA84203D122F44075CA682A43CE
:1037A00002608A68C2620A688262984201D0A042BE
:1037B00001D10969016301214161F0BD00000140AF
:1037C0000004004000080040000C004000040140DC
:1037D0000040014000440140004801400018004002
:1037E000001C00400020004010B50123046A8B40FB
:1037F0009C430462036A8A401343036210BD0000C5
:1038000070B5046A24F0010404628469056A164EE6
:10381000B04214D0B0F1804F11D0144EB0420ED04F
:10382000134EB0420BD0134EB04208D0124EB042ED
:1038300005D0124EB04202D0114EB04203D124F056
:103840000304144303E024F0030242F001041A07C6
:1038500024F0F00444EA126225F00A0301F00A01A0
:1038600019438261016270BD000001400004004004
:1038700000080040000C00400004014000400140EE
:103880000018004030B5046A24F010040462846912
:10389000056A24F4407444EA022222F470444FF68C
:1038A000FF7202EA03322243A02425F0A00304EAB7
:1038B000011119438261016230BDFFF7C1B970B5D2
:1038C000846B2068406994F83910C0F3C01000255B
:1038D000212904D118B1E584204600F046F820687B
:1038E000406994F83A10C0F38010222904D118B12D
:1038F000E585204600F02BF8E06B40F01000E06317
:103900002046FEF7D9FC70BD10B50146806B0968F2
:103910000968C90513D40021C1850168CA6822F469
:103920008072CA6001684A6922F001024A61016836
:103930004A6922F040024A61202180F83A10FEF7DD
:103940001FFE10BD10B5806BFEF71BFE10BD016899
:10395000CA6822F49072CA6001684A6922F00102C2
:103960004A61202180F83A1070470168CA6822F045
:10397000C002CA60202180F8391070472DE9F0415B
:1039800004460068016921F44052E1681143016175
:103990002168C86849F20C6290432369A268E5690E
:1039A0001A4363692B431A430243CA60216848697A
:1039B00020F44072A06910434861E1696425B1F5C3
:1039C000004F9748974A21684FF032083FD0914204
:1039D00001D081427CD1FEF7BBF800EBC00101EBC6
:1039E000001061688900B0FBF1F6FEF7B1F800EB5A
:1039F000C00101EB001061688900B0FBF1F0B0FB81
:103A0000F5F06FF01801484306EB800108EB011058
:103A1000B0FBF5F000F0F006FEF79AF800EBC001FD
:103A200001EB001061688900B0FBF1F0B0FBF5F02C
:103A300006EB0016FEF78CF800EBC00101EB00105E
:103A400061688900B0FBF1F7FEF782F8D2E091429D
:103A500001D081423DD1FEF77BF800EBC00101EBC4
:103A6000001061684900B0FBF1F0B0FBF5F0060111
:103A7000FEF76EF800EBC00101EB00106168490031
:103A8000B0FBF1F7FEF764F800EBC00101EB0010AA
:103A900061684900B0FBF1F0B0FBF5F06FF0180180
:103AA000484307EB800108EBC100B0FBF5F000F0E4
:103AB000F80006EB4006FEF74BF800EBC00101EB07
:103AC000001061684900B0FBF1F7FEF741F83CE0F7
:103AD00055E0FEF725F800EBC00101EB001061682E
:103AE0004900B0FBF1F0B0FBF5F00601FEF718F865
:103AF00000EBC00101EB001061684900B0FBF1F779
:103B0000FEF70EF800EBC00101EB00106168490000
:103B1000B0FBF1F0B0FBF5F06FF01801484307EB94
:103B2000800108EBC100B0FBF5F000F0F80006EBF7
:103B30004006FDF7F5FF00EBC00101EB00106168E6
:103B40004900B0FBF1F7FDF7EBFF00EBC00101EB23
:103B5000001061684900B0FBF1F0B0FBF5F06FF0C8
:103B60001801484307EB800108EBC100B0FBF5F0FA
:103B700000F00700216830448860BDE8F081FDF75F
:103B8000CFFF00EBC00101EB001061688900B0FBC2
:103B9000F1F6FDF7C5FF00EBC00101EB0010616815
:103BA0008900B0FBF1F0B0FBF5F06FF0180148436D
:103BB00006EB800108EB0110B0FBF5F000F0F00619
:103BC000FDF7AEFF00EBC00101EB0010616889005A
:103BD000B0FBF1F0B0FBF5F006EB0016FDF7A0FF2F
:103BE00000EBC00101EB001061688900B0FBF1F748
:103BF000FDF796FF00EBC00101EB00106168890042
:103C0000B0FBF1F0B0FBF5F06FF01801484307EBA3
:103C1000800108EB0110B0FBF5F000F00F00A9E700
:103C200000140140001001402DE9F041984617466C
:103C30000E460446069D1DE0681C1BD02DB1FDF705
:103C4000D7FDA0EB0800A84214D92068C16821F470
:103C5000D071C1602068416921F0010141612020DB
:103C600084F8390084F83A00002084F838000320F2
:103C7000BDE8F0812068006836EA000004D000202A
:103C8000B842D9D00020F3E70120F9E710B5FFF7DB
:103C900013FBBDE81040FFF723B8FFF7B5B9FEE707
:103CA00030B50C46050014D0022C12D90A48A11ECA
:103CB00042882846FCF786FF2919C2B211F8023C57
:103CC0009A4206D111F8011CB1EB102F01D101204D
:103CD00030BD002030BD00005000002030B50C4643
:103CE00005000ED0022C0CD90748611E0278284628
:103CF000FCF77EFF291911F8011C814201D1012036
:103D000030BD002030BD00005000002002E008C897
:103D1000121F08C1002AFAD170477047002001E045
:103D200001C1121F002AFBD170470000FDF76EFD94
:103D3000FFF74EFCFEF7B0FDFEF778FDFEF752FDF3
:103D4000FEF7B0FEFEF772FEFEF78EFEFEF7CAFE2D
:103D5000FEF728FEFEF748FEFEF7E6FD0E48FCF7EC
:103D6000B7FC0E48FEF76CFCFEF7DAFEFFF798FA98
:103D70000B48FFF71CFBFFF7F1FAFFF78BF9FEF793
:103D8000E3FE0848FEF732F90748FEF72FF9074827
:103D9000FCF7A6FBFEE700003C04002074050020B1
:103DA000380700202401002060010020A800002026
:103DB00000000000010203040102030406070809D1
:103DC0000006101600061016005EBCE2613FDD839F
:103DD000C29C7E20A3FD1F419DC3217FFCA2401EEB
:103DE0005F01E3BD3E6082DC237D9FC1421CFEA0DB
:103DF000E1BF5D0380DE3C62BEE0025CDF81633DCB
:103E00007C22C09E1D43A1FF4618FAA427799BC5BA
:103E100084DA3866E5BB5907DB856739BAE40658AA
:103E20001947A5FB7826C49A653BD987045AB8E69A
:103E3000A7F91B45C6987A24F8A6441A99C7257B8A
:103E40003A6486D85B05E7B98CD2306EEDB3510F7A
:103E50004E10F2AC2F7193CD114FADF3702ECC926A
:103E6000D38D6F31B2EC0E50AFF1134DCE90722C5A
:103E70006D33D18F0C52B0EE326C8ED0530DEFB14A
:103E8000F0AE4C1291CF2D73CA947628ABF517493A
:103E90000856B4EA6937D58B5709EBB536688AD42A
:103EA00095CB2977F4AA4816E9B7550B88D6346A1A
:103EB0002B7597C94A14F6A8742AC896154BA9F70A
:103EC000B6E80A54D7896B350000891112239B325A
:103ED0002446AD573665BF74488CC19D5AAFD3BEDA
:103EE0006CCAE5DB7EE9F7F88110080193331A22EA
:103EF000A5562C47B7753E64C99C408DDBBF52AEBA
:103F0000EDDA64CBFFF976E802218B3010029913C9
:103F10002667AF763444BD554AADC3BC588ED19F99
:103F20006EEBE7FA7CC8F5D983310A2091121803A9
:103F3000A7772E66B5543C45CBBD42ACD99E508F79
:103F4000EFFB66EAFDD874C904428D5316619F7079
:103F50002004A9153227BB364CCEC5DF5EEDD7FC59
:103F60006888E1997AABF3BA85520C4397711E6069
:103F7000A1142805B3373A26CDDE44CFDFFD56EC39
:103F8000E9986089FBBB72AA06638F7214409D5149
:103F90002225AB343006B9174EEFC7FE5CCCD5DD19
:103FA0006AA9E3B8788AF19B87730E6295501C4129
:103FB000A3352A24B1163807CFFF46EEDDDC54CDF9
:103FC000EBB962A8F99A708B088481951AA793B609
:103FD0002CC2A5D33EE1B7F04008C919522BDB3AF9
:103FE000644EED5F766DFF7C899400859BB712A6C9
:103FF000ADD224C3BFF136E0C1184809D33B5A2AD9
:10400000E55E6C4FF77D7E6C0AA583B418869197A8
:104010002EE3A7F23CC0B5D14229CB38500AD91BB8
:10402000666FEF7E744CFD5D8BB502A49996108788
:10403000AFF326E2BDD034C1C3394A28D11A580B98
:10404000E77F6E6EF55C7C4D0CC685D71EE597F458
:104050002880A1913AA3B3B2444ACD5B5669DF7878
:10406000600CE91D722FFB3E8DD604C79FF516E448
:10407000A9902081BBB332A2C55A4C4BD7795E6858
:10408000E11C680DF33F7A2E0EE787F61CC495D528
:104090002AA1A3B03882B193466BCF7A5448DD5938
:1040A000622DEB3C700EF91F8FF706E69DD414C508
:1040B000ABB122A0B9923083C77B4E6AD5585C4918
:1040C000E33D6A2CF11E780FE84000080000002054
:1040D000680000000C3D0008504100086800002006
:1040E000E00A00001C3D0008000000000024F4006D
:1040F00000000301000000000000964400000000E2
:1041000000000000000000000000000000000000AF
:10411000000000000000000000000000000000009F
:10412000000000000000000000000000000000008F
:104130000000000000000000FF00FFFF0000000082
:10414000000000000000000000000000000000006F
:04000005080001AD41
:00000001FF
