:020000040800F2
:10000000C0060020C1010008D5210008671F0008B4
:100010007521000809020008652A00080000000098
:10002000000000000000000000000000C1240008E3
:10003000FD0500080000000055230008C324000847
:10004000DB010008DB010008DB010008DB01000820
:10005000DB010008DB010008FF050008DB010008E8
:10006000DB010008DB010008DB010008DB01000800
:10007000DB010008DB010008DB010008DB010008F0
:10008000DB010008DB010008DB010008DB010008E0
:100090000D020008DB010008DB010008DB0100089D
:1000A000DB010008DB010008DB010008DB010008C0
:1000B000DB010008DB010008DB010008DB010008B0
:1000C000DB010008DB010008DB010008DB010008A0
:1000D000DB010008612A0008DB010008DB010008E1
:1000E000DB010008DB010008DB010008DB01000880
:1000F000DB010008DB010008DB010008DB01000870
:10010000DB010008DB010008DB010008DB0100085F
:10011000DB010008DB010008C5250008DB01000841
:10012000DB010008DB01000875040008DB010008A2
:10013000DB010008DB010008DB010008DB0100082F
:10014000DB010008DB010008DB010008DB0100081F
:10015000DB010008DB010008DB010008DB0100080F
:10016000DB010008DB010008DB010008DB010008FF
:10017000DB010008DB010008DB01000800000000D3
:10018000DB010008DB010008DB010008DB010008DF
:10019000DB010008DB010008DB010008DB010008CF
:1001A0000000000000000000DB010008DFF80CD0B8
:1001B00000F018F800480047892A0008C00600200F
:1001C0000648804706480047FEE7FEE7FEE7FEE7F1
:1001D000FEE7FEE7FEE7FEE7FEE7FEE77125000823
:1001E000AD010008064C074D06E0E06840F0010351
:1001F00094E8070098471034AC42F6D3FFF7DAFFD3
:10020000E02A0008002B0008FEE70000014800F08B
:1002100077BA0000A400002000B58BB000210122B5
:10022000CDE90612039108920491019102910E22E8
:1002300005910992044901631C314163694600F04C
:10024000EBF90BB000BD0000640000200D498842AE
:1002500012D1416B0868A0F5007001380DD001285B
:100260000AD1888A42BA084842808288C28042887D
:100270008280C98A49BA41837047888A42BA034852
:10028000F2E70000A400002030020020000200205D
:1002900070B5066B0D0A049C3575056B6975056BA9
:1002A000110AA975016BCA75026B190A1176016BE7
:1002B0004B76026B210A9176006BC47670BD00000C
:1002C00010B54FF4D872036802EB01129B5813F07B
:1002D0000404436B9C600468436BA45854D0E40846
:1002E0005C6003689A58436B02F00202DA604FF4D4
:1002F000DA72036802EB01129B58446B03F00F03A0
:10030000236103689A58436BC2F30722DA614FF402
:10031000DC72036802EB01129B58446B237503687F
:100320009B58446B1B0A637503689B58446B1B0CFA
:10033000A37503689A58436B120EDA754FF4DE7298
:10034000036802EB01129B58446B237603689B58A9
:10035000446B1B0A637603689B58446B1B0CA376A3
:1003600003689A58436B120EDA762022002901683E
:100370000DD00A6101684A6922F010024A6190F8C2
:100380003810222909D021E0640D1C60A9E7CA6059
:1003900001684A6922F00202F0E701684A6922F422
:1003A00080724A6101684A6922F400724A610168F8
:1003B0004A6922F480624A6101684A6922F4006253
:1003C0004A6101684A6922F400424A6190F8381093
:1003D000322907D05FF0010180F8381000F026FBC9
:1003E000002010BD1221F7E710B5026B1160026BFF
:1003F0005160026B00219160026BD160026B082199
:1004000011610A2100F0CAFB08B1002010BD0120D3
:1004100010BD10B501684A6922F001024A6190F8E6
:100420003810122918D101684A6922F480724A6191
:1004300001684A6922F400724A6101684A6922F43B
:1004400080624A6101684A6922F400624A61016877
:100450004A6922F400424A6190F83810322906D0E5
:10046000012180F8381000F063FC002010BD22212B
:10047000F7E70000014800F0A3BC0000A001002045
:1004800001681823CAB2103AB2FBF3F2054B6FF3BE
:100490000901032A9B5CC36500D9091D81650846D3
:1004A00070470000D82A000810B5014600208B696B
:1004B0008A6A4FF0C07453B1B3F5005F15D072B1C2
:1004C000012A0CD0022A0AD0032A09D104E01AB169
:1004D000012A06D0022A03D1C96AC90100D5012028
:1004E00010BDC96AA142FAD010BD002AF7D0012A76
:1004F000F2D0022AF3D0032AF3D010BD30B504683D
:10050000256825F480252560046863608368402B96
:10051000036803D099600068C26030BD9A600068CB
:10052000C16030BD0A2839D890B31D4924220B2858
:100530000A7033D2DFE800F032060A0E12161A1ED5
:1005400022272D0005204871062070470920487297
:100550000A2070470D2048730E2070471120487400
:1005600012207047152048751620704719204876CC
:100570001A2070471D2048771E207047212081F8DF
:10058000210022207047252081F825002620704771
:1005900004E0292081F829002A20F8E70020F6E766
:1005A0007402002001B50A282DED020B12D8002894
:1005B00010D00B280ED2DFE800F00D06080E101246
:1005C0001416181A1C00012200E005220A49684688
:1005D00000F018F80EBD0922F8E70D22F6E7112207
:1005E000F4E71522F2E71922F0E71D22EEE72122B7
:1005F000ECE72522EAE700007402002070470120A2
:1006000000F068BD03788B54114443784B708278B6
:100610008A70C078C8707047F0B50A7D012090409C
:10062000344A136843F001031360136823F47C53C6
:10063000136013684C6A43EA042313602D4B1C3388
:100640001C6884431C602B4D2B4CCE690C35A6B91D
:100650002E6886432E608F894E6867F31F464F6968
:1006600004EBC707C7F840660F890E6867F31F469B
:100670004F6904EBC707C7F84466CE69012E14D151
:100680002E6806432E600E884D6866F31F454E693E
:1006900004EBC606C6F840560E89CD6866F31F45C2
:1006A0004E6904EBC604C4F84456124C8D69241DEF
:1006B000002D256806D0054325600E4C0D691434C5
:1006C00015B104E08543F7E72568854325600D698A
:1006D000012D02D1256805432560096A012902D14F
:1006E000196801431960106820F0010010600020B3
:1006F000F0BD000000660040006000407047000050
:1007000010B5044600684169C943C90714D182681D
:100710005849914368D000218368574A9A4365D06D
:10072000002283685548984362D00020114301435A
:1007300002D02046FFF76DFE2068C168406911F0C5
:10074000030FC0F3400004D018B100212046FFF78A
:10075000B7FD21680869496910F0030FC1F3001162
:1007600004D019B101212046FFF7AAFD2068816954
:10077000426911F0010FC2F300234269C2F3C03293
:1007800005D023B11AB1E16B41F00101E163816948
:10079000C1F3400341694269C1F34021C2F3C03251
:1007A0002BB121B11AB1E16B41F00201E163816922
:1007B0004269C1F38001C2F380234269C2F3C032AF
:1007C00029B123B11AB1E16B41F00401E163816900
:1007D00011F0700F0ED0002142694369C2F3C022AC
:1007E000C3F3C03341B127E0012195E7012298E727
:1007F00001209BE70121EFE7F2B1EBB1816901F044
:100800007001402929D006DC102909D020290BD0FD
:1008100030290DD11DE0502923D0602908D124E0D2
:10082000E16B41F0080102E0E16B41F01001E1638E
:10083000816921F070018161E06B002808D0216896
:1008400004204860012084F838002046FFF756FF56
:1008500010BDE16B41F02001E9E7E16B41F040019F
:10086000E5E7E16B41F08001E1E7E16B41F4807184
:10087000DDE700000300000400030008000003108F
:100880002DE9F041040004D094F83800002518B197
:1008900007E00120BDE8F08184F83950204600F0DF
:1008A00093F8022084F838002068016821F00201E2
:1008B00001602068016841F00101016000F0FCFC6A
:1008C0000746032605E000BF00F0F6FCC01B0A281F
:1008D00063D820684068C007F6D020684168C9071F
:1008E00068D0A169012901683FD021F08001016031
:1008F000E0690128206801683AD021F040010160D8
:10090000206A01282068016835D021F020010160AB
:10091000606A01282068016830D021F01001016070
:10092000A06A0128206801682BD021F0080101602D
:10093000E06A01282068016826D021F004010160E6
:10094000D4E902010843D4E9041211430843616861
:10095000491E08432168C8612068016821F001012F
:10096000016000F0A9FC07461CE041F08001BEE7F1
:1009700041F04001C3E741F02001C8E741F0100118
:10098000CDE741F00801D2E741F00401D7E700BF0D
:1009900000F092FCC01B0A2804D904F8386F032029
:1009A000657077E720684068C007F1D1206840682B
:1009B000C00703D0042084F838006AE7E56301200B
:1009C00084F83800002065E710B504460068144933
:1009D00086B0884222D113480021026842F000729A
:1009E00002600068022200F0007005900320CDE94B
:1009F0000210CDE900020920049069460A4800F07F
:100A000075FB02221146142000F026FD142000F090
:100A100018FD2068416941F00201416106B010BD36
:100A20000064004040380240000C02402DE9F84FBD
:100A30000446534884427CD1606B8168002979D197
:100A4000C068002876D12046FFF700FC606B4D4D52
:100A50004D4E0068DFF834910027A0F500714FF487
:100A6000007A013925D1B5F9180000EE100AB5F960
:100A70001A00F8EEC00A00EE100A3046B8EEC00ABE
:100A800001F0BAFB009799ED070A0023BDEEC00AFA
:100A900010EE100A96ED070A02B2BDEEC00A10EE83
:100AA000100A01B22046FFF7F3FB51462046FFF73C
:100AB0009BFC606BDFF8D8800068A0F500710239FC
:100AC00025D1B8F91810B8F91A0000EE101AF8EE8E
:100AD000C00A00EE100A2D48B8EEC00A01F08CFBE7
:100AE000009799ED070A0023BDEEC00A10EE100A28
:100AF00096ED070A02B2BDEEC00A10EE100A01B26E
:100B00002046FFF7C5FB51462046FFF76DFC214EFE
:100B10003078401C40B230701E2829DBB8F9021032
:100B2000B8F91A0000EE101AB8EEC02A00EE100A4A
:100B300001E022E01CE0F8EEC01AB5F9020000EE78
:100B4000100AB5F91A00F8EEC00A9FED131A00EE6C
:100B5000100AF0EE414AB8EEC00AB0EE414AF0EE9B
:100B6000413AB0EE413AF0EE412A01F097FB37707E
:100B70002068416941F002014161BDE8F88F000041
:100B8000A4000020000200201000002038000020F7
:100B90003002002000000020000000002DE9F05F7E
:100BA0000E46016804468868400105D48868000143
:100BB00002D48868C00067D594F8390001280ED0A7
:100BC000012784F8397094F8380022280AD01220BE
:100BD00084F838008868400106D500250AE0022024
:100BE000BDE8F09F3220F3E78868000101D50125B8
:100BF00000E002254FF4C07000EB05100A5802F027
:100C000001020A50216B8A68EAB3D4F800C05CF88C
:100C100000301343CA68496842EAC1010B434CF8EB
:100C20000030216B0A7C02F00F020A614FF4C2719E
:100C3000226801EB0511535823F00F03535022682B
:100C40005358D4F830C0DCF810C043EA0C035350BA
:100C5000216B4FF4C47303EB05130A7DD1F8151013
:100C600042EA01212268D150216B4FF4C67303EB95
:100C700005130A7ED1F8191042EA01212268D150E9
:100C800021680A5801E00DE046E042F001020A50F6
:100C900000F012FB81464FF00008DFF888A0DFF873
:100CA00088B019E022681358D1F80CC0098843EACB
:100CB0000C0343EA41511150B3E7701C0CD02EB124
:100CC00000F0FAFAA0EB0900B04205D9032084F83D
:100CD000380084F8398083E795B12068012D816858
:100CE00013D0124888430028E7D194F838003228FE
:100CF0000ED084F8387000BF84F8398000206FE788
:100D0000206881682AEA0100EDE72BEA0100EAE7A2
:100D1000222084F83800EFE7042084F8380001200E
:100D20005EE7000003000004000300080000031059
:100D300070472DE9F0410446876D00F0BDFA064684
:100D400094F835000025022806D08020606584F8DC
:100D500034500120BDE8F0812068016821F01601BF
:100D600001602068416921F080014161206C08B96F
:100D7000A06C20B12068016821F0080101602068A2
:100D8000016821F0010101600BE000F095FA801B81
:100D9000052806D92020606504F8345F03206070C0
:100DA000D8E720680068C007EFD194F85C103F20B6
:100DB0008840B86004F8345F012060700020C9E703
:100DC0002DE9F84304464FF00008CDF80080644850
:100DD0004FF41651A56D0068B0FBF1F72E6894F83A
:100DE0005C10082000FA01F131420FD021680A6836
:100DF00052070BD50A6822F004020A6094F85C10CE
:100E00008840A860606D40F00100606594F85C1057
:100E100054488840304208D021684969090604D501
:100E2000A860606D40F0020060654E4894F85C1068
:100E3000C01C8840304208D021680968890704D561
:100E4000A860606D40F00400606594F85C101020AC
:100E50008840304218D021680968090714D5A86075
:100E600020680168490304D50068000308D5A16C17
:100E700007E00168C90503D4016821F00801016099
:100E8000216C09B12046884794F85C1020208840E6
:100E900030424FF0010631D021680968C9062DD5CE
:100EA000A86094F8350005282068016806D0490339
:100EB00047D5006800031DD4616C1CE021F01601C9
:100EC00001602068416921F080014161206C08B90E
:100ED000A06C20B12068016821F00801016094F83D
:100EE0005C103F208840A86084F8348084F8356026
:100EF000216D1FE0E16B09B120468847606D002835
:100F00002BD0606DC00714D0052084F83500206810
:100F1000016821F0010101600098401C0090B84276
:100F200003D820680068C007F6D184F8348084F8BC
:100F30003560E16C002910D001B02046BDE8F043D7
:100F400008470168C905D5D4016821F01001016086
:100F500084F8348084F83560CCE7BDE8F88300007D
:100F600008000020010080002DE9F041044600F057
:100F7000A3F906465CB1002584F83450022084F8B9
:100F800035002068016821F0010101600DE00120B9
:100F9000BDE8F08100F090F9801B052805D92020DC
:100FA0006065032084F83500F2E720680068C00718
:100FB000F0D1226811681F480140D4E901031843A9
:100FC000D4E903363343184363691843A3691843CC
:100FD000E3691843236A18430843616A042903D16B
:100FE000D4E90B1319430843106020684069666A0E
:100FF00020F0070130460E43012704280AD1A06AD9
:1010000006432046FFF750FA20B14020606584F87F
:101010003570BCE7206846612046FFF731FA94F846
:101020005C203F2191408160656584F83570002027
:10103000AEE700003F8010F02DE9F0410446866DD8
:1010400090F83400002501280DD0012084F83400E8
:1010500094F835700020012F07D084F83400022561
:101060002846BDE8F0810220FBE7022784F83570AE
:1010700060652046FFF742FA94F85C103F208840F4
:10108000B0602068016841F0160101602068416984
:1010900041F080014161206C20B12068016841F07D
:1010A000080101602068016841F001010160D7E793
:1010B000012809D105480078012801D0022803D170
:1010C0000348018849420180704700006000002009
:1010D0000C000020044910B50A68024202D00860E2
:1010E000FFF7E6FF10BD0000143C01402DE9F84F6A
:1010F000DFF890B100224FF001084FF0030A4FF0E3
:101100000F090BF1040E00BF0B6808FA02F423402C
:10111000A3426ED14D68022D01D0122D0ED1D508FB
:1011200000EB850CDCF820505607F70E09FA07F69D
:10113000B5430E69BE402E43CCF8206006685500CA
:101140000F790AFA05FC07F0030726EA0C06AF4000
:10115000374307604E68012E05D0022E03D0112EB2
:1011600001D0122E0ED18768CE6827EA0C07AE4058
:101170003E4386604668A6430C79C4F3001494404D
:1011800034434460C4688E6824EA0C04AE402643AD
:10119000C6604C68E4006FD53B4C256845F480453B
:1011A0002560246822F0030504F480440094374C41
:1011B0002E19D6F8084895072F0F09FA07F5AC4302
:1011C000334DA84201D100252EE0324DA84201D175
:1011D000012529E0304DA84201D1022524E02F4D00
:1011E000A84201D103251FE02D4DA84202D10425BC
:1011F0001AE041E02B4DA84201D1052514E02A4D0B
:10120000A84201D106250FE0284DA84201D10725AB
:101210000AE0274DA84201D1082505E0254DA84246
:1012200001D1092500E00A25BD402543C6F808582C
:10123000DBF800405D464E689C43F60300D51C4336
:101240002C60DEF8004075464E689C43B60300D51E
:101250001C432C600B4D08352C684E689C43F602ED
:1012600000D51C432C60074D0C352C684E689C4300
:10127000B60200D51C432C60521C102AFFF444AF68
:10128000BDE8F88F003C0140443802400030014086
:10129000000002400004024000080240000C02402E
:1012A000001002400014024000180240001C0240DE
:1012B00000200240002402400148006870470000FE
:1012C0000400002002480168491C016070470000CA
:1012D000040000200B4810B5016841F40071016062
:1012E000016841F480610160016841F4807101602E
:1012F000032000F0D1F8002000F006F800F018F804
:10130000002010BD003C024010B5044607484FF4D1
:101310007A710068B0FBF1F000F07DFB00222146FD
:10132000501E00F099F8002010BD000008000020B9
:101330001F4808B5016841F480410160006800F46D
:10134000804000901A48001F016841F08051016000
:10135000006800F080500090052000F09DF8002209
:1013600011466FF00B0000F077F8002211466FF085
:101370000A0000F071F8002211466FF0090000F039
:101380006BF800221146501F00F066F8002211464B
:10139000101F00F061F800221146901E00F05CF86A
:1013A0000022BDE808401146501E00F055B800006C
:1013B000443802402DE9F04116460F46040004D09F
:1013C00094F83900002518B107E00120BDE8F0814C
:1013D00084F83850204600F0B1FC242084F839000D
:1013E0002068C16821F40051C160204601F0B0F9C5
:1013F0002068016921F4904101612068416921F070
:101400002A0141612068016921F00F010161206812
:101410000169394301612068C16821F40061C1603C
:101420002068C1683143C1602068C16841F400513F
:10143000C160E563202084F8390084F83A00002078
:10144000C4E700F01F02012191404009800000F133
:10145000E020C0F800117047F0B40E4B1B680C463A
:10146000C3F30223C3F10705042D00D90425191D78
:10147000072901D2002300E0DB1E012606FA05F150
:10148000491E214099409E40761E16403143F0BCD3
:1014900000F0A1BE0CED00E0064900F0070208686C
:1014A0004FF6FF03184040EA0220034A1043086049
:1014B000704700000CED00E00000FA052DE9F04750
:1014C000DFF8649105460F46D9F8000000F00F01DF
:1014D000F8B28046B94208D2014689F80010D9F81E
:1014E000000000F00F00B84274D128784F4C8007FC
:1014F00005D52068A96820F0F0000843206028780E
:10150000C00759D049496868083901281AD002280B
:101510001BD0032819D00968890700295ADA2168E5
:1015200021F0030101432160FFF7C6FE696806460A
:1015300041F28830012911D002291DD003298246A9
:1015400027D035E009688903E7E709688901E4E7FE
:10155000FFF7B2FE811B514501D926E08246206883
:10156000C0F381000128F3D126E000BFFFF7A4FEFD
:10157000811B514501D918E082462068C0F38100E3
:101580000228F3D118E000BFFFF796FE811B5145FA
:101590000BD82068C0F381000328F5D10CE000BF10
:1015A000FFF78AFE811B514502D90320BDE8F08771
:1015B000206810F00C0FF3D1D9F80010484601F064
:1015C0000F01B94208D980F80080006800F00F00D0
:1015D000B84201D00120E9E72878400705D5206806
:1015E000E96820F4E050084320602878000706D519
:1015F0002068296920F4604040EAC100206000F0C2
:1016000051F82168F02292FAA2F201F0F001B2FA48
:1016100082F2D140064A515CC84006490860002069
:10162000FFF772FE0020C1E7003C0240083802408C
:10163000C82A000808000020014800687047000020
:101640000800002008480949006809684FF4E05282
:1016500092FAA2F201F4E051B2FA82F2D140044AC5
:10166000515CC84070470000080000200838024064
:10167000C82A000808480949006809684FF4604210
:1016800092FAA2F201F46041B2FA82F2D140044A25
:10169000515CC84070470000080000200838024034
:1016A000C82A000830B51948006810F00C01184825
:1016B00012D0184C04290ED008290DD11349091F46
:1016C0000A6802F03F030A68550247F6C07204D563
:1016D000B4FBF3F003E0204630BDB0FBF3F00B6841
:1016E0000968134092FAA2F2B2FA82F2D340584348
:1016F0004FF4403292FAA2F201F44031B2FA82F28F
:10170000D140491C4900B0FBF1F030BD083802401F
:101710000024F400001BB7002DE9F84F0446DFF861
:10172000CC820078A8F1040BC007ABF1040537D0D8
:10173000D8F800104046C1F38101012908D00068A3
:10174000C0F3810002280AD1DBF80000400206D570
:101750002868800324D56068002878D020E0A34959
:101760002079891F0870606868B1FFF7A5FD0646FB
:1017700005E000BFFFF7A0FD801B642868D828683B
:101780008003F7D50CE0FFF797FD064605E000BFA4
:10179000FFF792FD801B6428F0D828688003F7D4F7
:1017A0002078934E80074FF0010A4FF0000742D592
:1017B000D8F80010404611F00C0F08D00068C0F3B4
:1017C000810002280AD1DBF80000400206D4286814
:1017D000800714D5E068012839D110E0E068D8B15D
:1017E000C6F800A0FFF768FD814605E0FFF764FD3D
:1017F000A0EB09000228C1D828688007F6D5286820
:10180000F82292FAA2F22169B2FA82F220F0F800EC
:101810009140084328600EE03760FFF74DFD814698
:1018200006E000BFFFF748FDA0EB090002280FD833
:1018300028688007F6D42078000728D56D486169AC
:10184000A1B1C0F800A0FFF737FD814608E0CAE06B
:1018500079E000BFFFF730FDA0EB0900022872D845
:1018600062486C3000688007F4D510E00760FFF72D
:1018700023FD814606E000BFFFF71EFDA0EB090037
:10188000022860D859486C3000688007F4D420786A
:10189000400749D555483830016841F08051016012
:1018A000006800F0805000905348016841F4807156
:1018B0000160FFF701FD814606E000BFFFF7FCFC79
:1018C000A0EB090002283ED84B480068C005F5D5BA
:1018D000DFF81891207A09F1680989F80000A068FA
:1018E00088B1FFF7E9FC009008E000BFFFF7E4FCD7
:1018F0000099411A41F2883081426CD8D9F8000031
:101900008007F3D510E0FFF7D7FC009008E000BF98
:10191000FFF7D2FC0099411A41F2883081425AD82F
:10192000D9F800008007F3D4A069E0B3D8F800101C
:10193000C1F38101022956D00228376604D0FFF78F
:10194000BBFC04464AE046E0FFF7B6FC074604E06D
:10195000FFF7B2FCC01B02283DD828688001F7D4ED
:10196000D4E90701084347F6C07292FAA2F2616A0D
:10197000B2FA82F29140A26A4FF0FF3303EB5202B7
:101980004FF4403393FAA3F3B3FA83F39A4011432D
:1019900008434FF0706292FAA2F2E16AB2FA82F260
:1019A0009140084300E01CE0CBF80000C6F860A0BE
:1019B000FFF782FC044604E0FFF77EFC001B0228D0
:1019C00009D828688001F7D50BE000BFFFF774FC49
:1019D000001B022802D90320BDE8F88F2868800187
:1019E000F4D40020F8E70120F6E7000008380240B0
:1019F00000004742800E4742007000404FF0E02157
:101A00000428086903D020F004000861704740F002
:101A10000400FAE7704710B5401EB0F1807F01D393
:101A2000012010BD4FF0E02460610F21601700F02D
:101A3000D2FB0020A06107202061002010BD10B55E
:101A4000FFF7E8FF10BD7047704730B590F83820B9
:101A5000012A20D0012280F83820022380F8393072
:101A600003685C6824F070045C6003685C680D685F
:101A70002C435C6003689C6824F080049C600368CD
:101A80009C6849680C439C6080F83920002180F8EC
:101A90003810084630BD022030BD10B5040003D018
:101AA00094F8390010B107E0012010BD002084F83F
:101AB0003800204600F00CF8022084F83900211D7F
:101AC000206800F085FD012084F83900002010BD59
:101AD00008B500680B49884212D10B48016841F0F3
:101AE000100101600068022200F010000090012146
:101AF0003620FFF7B1FCBDE808403620FFF7A1BC57
:101B000008BD000000100040403802400168CA686B
:101B100042F00102CA600068016841F00101016001
:101B200000207047704770B50446006801694FF0A7
:101B30000005C943890715D4C168C943890711D471
:101B4000E91E016101202076206880698007204617
:101B500002D0FFF7E7FF04E000F098F8204600F01D
:101B600096F8257620680169C943490717D4C168EA
:101B7000C943490713D46FF00401016102202076A4
:101B80002068806910F4407F204602D0FFF7CAFF2A
:101B900004E000F07BF8204600F079F82576206814
:101BA0000169C943090716D4C168C943090712D49A
:101BB0006FF008010161042020762068C069800769
:101BC000204602D0FFF7AEFF04E000F05FF82046A9
:101BD00000F05DF8257620680169C943C90617D46D
:101BE000C168C943C90613D46FF010010161082010
:101BF00020762068C06910F4407F204602D0FFF7AD
:101C000091FF04E000F042F8204600F040F825760D
:101C100020680169C943C90708D1C168C943C90718
:101C200004D1891E0161204600F032F82068016964
:101C3000C943090609D4C168C943090605D46FF030
:101C4000800101612046FFF7FEFE20680169C9435B
:101C5000490609D4C168C943490605D46FF040015B
:101C60000161204600F03CF820680169C9438906FB
:101C70000BD4C168C943890607D46FF02001016104
:101C80002046BDE87040FFF7DFBE70BD704770476B
:101C90000E49884218D10E4881880E48A1F5B672C7
:101CA000B2F5A56F03D90021018000F0E7BB0A4A15
:101CB000127832B1012A07D108490988018000F061
:101CC0005BBAA1F58061F9E770470000E4000020ED
:101CD000600200200E000020600000200C000020A8
:101CE000704710B504460068416994F83920C1F383
:101CF000C011212A0BD151B1416921F0800141610C
:101D0000206B08B1FFF715F8204600F017FD20689A
:101D1000416994F83A20C1F38011222A0BD151B1C4
:101D2000416921F040014161606B08B1FFF701F8A2
:101D3000204600F0F5FC002010BD704770B5064647
:101D400000682A4B00250221032286B0984214D154
:101D50002748036843F080430360006800F0804038
:101D60000590D0018DE823000820CDE903206946C5
:101D70002048FFF7BBF906B070BD1F4B9842FAD15F
:101D80001B48001D036843F010030360006800F067
:101D900010000590C0208DE823000720CDE9032026
:101DA00069461648FFF7A2F9164C154820604FF017
:101DB0000060C4E901054014C4E903506561A561F0
:101DC000E561256220466562FFF7CEF818B19821DB
:101DD0000DA000F048FE7463022201212520A663B5
:101DE000FFF73AFB2520FFF72CFBC4E70078004003
:101DF0004038024000100240001001400004024040
:101E000040640240A00100202E2E2F5372632F75D4
:101E1000736172742E63000070B5044690F83A0046
:101E2000202839D1A9B3A2B394F83800012833D0BF
:101E3000012084F83800A162A2850025E5632220F4
:101E400084F83A00636B1548D863636B14481864D0
:101E5000636B1448D864606B134605650846666B6F
:101E6000216802463046091DFFF7E6F82068C16880
:101E700041F48071C1602068416941F00101416114
:101E80002068416941F04001416184F838500020E8
:101E900070BDFFE70120FBE70220F9E7DB26000821
:101EA0001727000891260008704770472DE9F8436E
:101EB000044690F839001E4617460D46202850D19A
:101EC00035B32FB394F8380001284AD0012084F8A4
:101ED00038004FF00008C4F83C80212084F8390015
:101EE000FFF7EAF9A784E78481464FF48057E08C36
:101EF0004B46401EE084A0684FF00002B8424FF00D
:101F000080012046009611D100F078FD00BB02E070
:101F10000120BDE8F8832888C0F3080120684160EB
:101F2000206908B16D1C08E0AD1C06E000F066FDFC
:101F300070B9216815F8010B4860E08C0028D6D1F3
:101F40004B46002240212046009600F057FD08B184
:101F50000320DEE7202084F8390084F83880002050
:101F6000D7E70220D5E7FEE7114810B50F49016019
:101F70000221416000214FF450228160C0E9031228
:101F80004FF4A002C0E905210122C161C0E9081295
:101F9000C0E90A12FEF774FC002805D0BDE8104025
:101FA0004A2104A000F05FBD10BD000000640040A5
:101FB000A40000202E2E2F5372632F63616E2E63B8
:101FC00000000000094808B5016841F48001016083
:101FD0000068022200F48000009001213A20FFF7FF
:101FE0003BFABDE808403A20FFF72BBA30380240F0
:101FF0001E4800B5016887B041F002010160016828
:1020000001F002010591016841F0080101600168D9
:1020100001F008010591016841F08001016001684B
:1020200001F080010591016841F001010160016842
:1020300001F001010591016841F0100101600068A3
:102040000B4900F0100005900120CDE9000102903D
:1020500069460848FFF74AF8022200210620FFF7E8
:10206000FBF90620FFF7EDF907B000BD303802405C
:1020700000002110000002401CB510480E49002449
:1020800001605321C0E9011440F2CF71C160FFF734
:1020900004FD18B141210AA000F0E5FC0094694656
:1020A00006480194FFF7D1FC002803D0482104A082
:1020B00000F0D9FC1CBD000000100040E40000202E
:1020C0002E2E2F5372632F74696D2E630000000053
:1020D0000E4810B50C4901604FF4E1314160002118
:1020E00081600C22C160C0E9041281610A46C161AD
:1020F000FFF760F9002805D0BDE81040442104A096
:1021000000F0B1BC10BD00000078004020010020AC
:102110002E2E2F5372632F75736172742E6300001D
:102120000E4810B50C4901600D49416000214FF483
:1021300080628160C0E903120422C0E905210A46D9
:10214000C161FFF737F9002805D0BDE810405721DD
:1021500004A000F088BC10BD001001406001002008
:10216000A08601002E2E2F5372632F757361727437
:102170002E630000FEE7000013489FED141A114A79
:10218000B0F9000000EE100AF8EEC00A80EE810AF5
:10219000DFED0F0A20EE200ABDEEC00A10EE101A85
:1021A000118300EE100A02F13001B8EEC00AC0EE51
:1021B000011A21EEA00ABDEEC00A10EE100A088333
:1021C00070470000000200200E000020000025449F
:1021D0000080BB4570470907090E002806DA00F0A9
:1021E0000F0000F1E02080F8141D704700F1E0209E
:1021F00080F800147047000090ED051A30EEC00A18
:1022000080ED061A214A80ED050AD0ED040A70EE31
:10221000800A10EE901AC0ED040A914203DBDFED54
:102220001C0AC0ED040A10EE901A1A4A914203D318
:10223000DFED190AC0ED040A70EE410AC0ED030A91
:1022400090ED001AD0ED041A21EE000A90ED011A6B
:1022500001EE210A90ED021A01EE200A80ED070A34
:10226000D0ED080AB4EEE00AF1EE10FA02DAF0EE70
:10227000400A01E0C0ED070A90ED090AF4EEC00A39
:10228000F1EE10FA01D880ED070A704700007A4499
:1022900000007A4400007AC400007AC470B50120BE
:1022A0002DED0A8BB0EE648AF0EE448AB0EE639AAC
:1022B000F0EE439AB0EE62AAF0EE42AAB0EE61BA36
:1022C000F0EE41BAB0EE60CAFEF76CF90220B0EE53
:1022D0004C0AFEF767F90320B0EE6B0AFEF762F9CD
:1022E0000420B0EE4B0AFEF75DF90520B0EE6A0A55
:1022F000FEF758F90620B0EE4A0AFEF753F9072018
:10230000B0EE690AFEF74EF90820B0EE490AFEF772
:1023100049F90920B0EE680AFEF744F90A20B0EE48
:10232000480AFEF73FF90A20FEF7FCF805460024AC
:10233000064E06E03119322301220548FFF7B6FDAB
:10234000641CAC42F6DBBDEC0A8B70BD740200204D
:102350002001002070470000002834D00188C1F31C
:102360000A0219490A8042788378D20842EA431265
:10237000C2F30A024A808278C378920942EA830251
:10238000037942EA8322C2F30A028A8002794379FE
:10239000520842EAC312C2F30A02CA804279920981
:1023A0000A724279C2F301124A72C2884A810289D2
:1023B0008A814289CA81027B0A74427B4A74C0893D
:1023C000488200F063B870476002002038B51D48AD
:1023D00000680168C943C90632D4016840680090AA
:1023E000194801684068194C194A4FF400102168D7
:1023F000914202D916494C3904E0164A914203D958
:1024000013495039086008E0124B124A603BB83A51
:10241000994201D9D06000E090600A48FFF761FC62
:10242000206840681E22C0F11E040B490548FFF7D2
:10243000F3FC122C04D1BDE838400748FFF78CBFED
:1024400038BD00006001002000100140A001002004
:1024500058640240B86002409E02002005480068AF
:10246000C16841F01001C1601E2203490148FFF715
:10247000D3BC0000600100209E0200200248002121
:102480000170417070470000600000200A4A00217E
:102490000A48137A012B05D0022B03D0032B02D15B
:1024A000017000E00370527A012A03D0022A01D0A1
:1024B000032A00D1417070476002002060000020B4
:1024C000704710B5FEF7FEFEBDE81040FFF7B7BA43
:1024D00030B5254893B00025016841F08051016076
:1024E000006800F0805011902048016841F440419C
:1024F00001600068022400F4404011900120009027
:1025000001908005CDE906400C2008904FF4A8709A
:10251000CDE9090404200B906846FFF7FDF800B1EF
:10252000FEE70CA90F2081E831004FF4A0500F9076
:102530004FF48050109005210CA8FEF7BFFF00B1AA
:10254000FEE7FFF779F84FF47A71B0FBF1F0FFF78F
:1025500062FA0420FFF752FA00221146501EFEF7DD
:102560007BFF13B030BD00004038024000700040D7
:102570001048016841F4700101600F48016841F0A2
:10258000010101600C4A00210832116002680B4B06
:102590001A400260031D0A4A1A60026822F480226F
:1025A000026005480C300160024958068039086015
:1025B0007047000088ED00E000380240FFFFF6FEA3
:1025C000103000240148FFF7AEBA0000E4000020FC
:1025D000F0B50268234B244D244E254F254C4FF077
:1025E000804C984209D0604507D0A84205D0B0423F
:1025F00003D0B84201D0A04204D122F0700E4A6844
:1026000042EA0E0298421BD0604519D0A84217D06A
:10261000B04215D0B84213D0A04211D0164DA842F6
:102620000ED0164DA8420BD0154DA84208D0154D1E
:10263000A84205D0144DA84202D0144DA84203D19F
:1026400022F44075CA682A4302608A68C2620A6836
:102650008262984201D0A04201D10969016301213F
:102660004161F0BD0000014000040040000800404E
:10267000000C0040000401400040014000440140C3
:102680000048014000180040001C004000200040AD
:1026900070B5846B2068406994F83910C0F3C0109D
:1026A0000025212904D118B1E584204600F046F820
:1026B0002068406994F83A10C0F38010222904D1B0
:1026C00018B1E585204600F02BF8E06B40F01000D3
:1026D000E0632046FFF731FB70BD10B50146806B0B
:1026E00009680968C90513D40021C1850168CA6851
:1026F00022F48072CA6001684A6922F001024A61CC
:1027000001684A6922F040024A61202180F83A10AB
:10271000FFF7CAFB10BD10B5806BFFF7C6FB10BDFD
:102720000168CA6822F49072CA6001684A6922F09E
:1027300001024A61202180F83A1070470168CA6896
:1027400022F0C002CA60202180F8391070470000D2
:102750002DE9F04104460068016921F44052E16826
:10276000114301612168C86849F20C6290432369F2
:10277000A268E5691A4363692B431A430243CA609E
:102780002168486920F44072A06910434861E169FA
:102790006425B1F5004F9748974A21684FF03208F9
:1027A0003FD0914201D081427CD1FEF763FF00EB24
:1027B000C00101EB001061688900B0FBF1F6FEF783
:1027C00059FF00EBC00101EB001061688900B0FB0C
:1027D000F1F0B0FBF5F06FF01801484306EB800113
:1027E00008EB0110B0FBF5F000F0F006FEF742FF39
:1027F00000EBC00101EB001061688900B0FBF1F053
:10280000B0FBF5F006EB0016FEF734FF00EBC0015D
:1028100001EB001061688900B0FBF1F7FEF72AFFB9
:10282000D2E0914201D081423DD1FEF723FF00EB7F
:10283000C00101EB001061684900B0FBF1F0B0FB92
:10284000F5F00601FEF716FF00EBC00101EB0010EA
:1028500061684900B0FBF1F7FEF70CFF00EBC00127
:1028600001EB001061684900B0FBF1F0B0FBF5F03E
:102870006FF01801484307EB800108EBC100B0FB83
:10288000F5F000F0F80006EB4006FEF7F3FE00EB73
:10289000C00101EB001061684900B0FBF1F7FEF7E1
:1028A000E9FE3CE055E0FEF7CDFE00EBC00101EB98
:1028B000001061684900B0FBF1F0B0FBF5F00601D3
:1028C000FEF7C0FE00EBC00101EB0010616849009B
:1028D000B0FBF1F7FEF7B6FE00EBC00101EB001014
:1028E00061684900B0FBF1F0B0FBF5F06FF0180142
:1028F000484307EB800108EBC100B0FBF5F000F0A6
:10290000F80006EB4006FEF79DFE00EBC00101EB70
:10291000001061684900B0FBF1F7FEF793FE00EB91
:10292000C00101EB001061684900B0FBF1F0B0FBA1
:10293000F5F06FF01801484307EB800108EBC10088
:10294000B0FBF5F000F00700216830448860BDE876
:10295000F081FEF777FE00EBC00101EB001061682B
:102960008900B0FBF1F6FEF76DFE00EBC00101EB54
:10297000001061688900B0FBF1F0B0FBF5F06FF07A
:102980001801484306EB800108EB0110B0FBF5F09D
:1029900000F0F006FEF756FE00EBC00101EB001060
:1029A00061688900B0FBF1F0B0FBF5F006EB0016B2
:1029B000FEF748FE00EBC00101EB001061688900E2
:1029C000B0FBF1F7FEF73EFE00EBC00101EB00109B
:1029D00061688900B0FBF1F0B0FBF5F06FF0180111
:1029E000484307EB800108EB0110B0FBF5F000F065
:1029F0000F00A9E700140140001001402DE9F0414B
:102A0000984617460E460446069D1DE0681C1BD0DE
:102A10002DB1FEF751FCA0EB0800A84214D92068A4
:102A2000C16821F4D071C1602068416921F00101C1
:102A30004161202084F8390084F83A00002084F8AD
:102A400038000320BDE8F0812068006836EA000005
:102A500004D00020B842D9D00020F3E70120F9E7E4
:102A6000FFF7B4BCFEE7FEE702E008C8121F08C18A
:102A7000002AFAD170477047002001E001C1121FFF
:102A8000002AFBD170470000FEF724FCFFF720FD71
:102A9000FFF7AEFAFFF796FAFFF766FAFFF740FB8B
:102AA000FFF716FBFFF7E8FAFFF7E8FCFFF7D6FCA5
:102AB0000348FDF7B1FB0348FFF728F8FEE70000E5
:102AC000A4000020E4000020000000000102030434
:102AD0000102030406070809000610160006101676
:102AE000002B00080000002064000000682A000895
:102AF000642B0008640000205C060000782A0008AF
:102B000000000000000000000024F4009600000017
:102B10000000A0410000803F0000C03F0000000016
:102B200000000000000000000000000000000000A5
:102B300000606A4600606AC60000A0410000803F55
:102B40000000C03F00000000000000000000000086
:102B5000000000000000000000606A4600606AC6D5
:042B60000000000071
:04000005080001AD41
:00000001FF
