:020000040800F2
:1000000080070020C101000879220008931D000824
:1000100079200008090200081B29000800000000E0
:10002000000000000000000000000000392400086B
:100030001D070008000000009B2200083B24000868
:10004000DB010008DB010008DB010008DB01000820
:10005000DB010008DB0100081F070008DB010008C6
:10006000DB010008DB010008DB010008DB01000800
:10007000DB010008DB010008DB010008DB010008F0
:10008000DB010008DB010008DB010008DB010008E0
:100090000D020008DB010008DB010008DB0100089D
:1000A000DB010008DB010008DB010008DB010008C0
:1000B000DB010008DB010008DB010008DB010008B0
:1000C000DB010008DB010008DB010008DB010008A0
:1000D000DB0100080D290008DB010008DB01000836
:1000E000DB010008DB010008DB010008DB01000880
:1000F000DB010008DB010008DB010008DB01000870
:10010000DB010008DB010008DB010008DB0100085F
:10011000DB010008DB010008DB010008DB0100084F
:10012000DB010008DB0100086D060008DB010008A8
:10013000DB010008DB010008DB010008DB0100082F
:10014000DB010008DB010008DB010008DB0100081F
:10015000DB010008DB010008DB010008DB0100080F
:10016000DB010008DB010008DB010008DB010008FF
:10017000DB010008DB010008DB01000800000000D3
:10018000DB010008DB010008DB010008DB010008DF
:10019000DB010008DB010008DB010008DB010008CF
:1001A0000000000000000000DB010008DFF80CD0B8
:1001B00000F018F8004800473D290008800700209B
:1001C0000648804706480047FEE7FEE7FEE7FEE7F1
:1001D000FEE7FEE7FEE7FEE7FEE7FEE7E9240008AC
:1001E000AD010008064C074D06E0E06840F0010351
:1001F00094E8070098471034AC42F6D3FFF7DAFFD3
:1002000090290008B0290008FEE70000014800F02E
:10021000FDBA00007000002000B58BB00021012263
:10022000CDE90612039108920491019102910E22E8
:1002300005910992044901631C314163694600F04C
:1002400071FA0BB000BD00003000002070B5066BE5
:100250000D0A049C3575056B6975056B110AA97546
:10026000016BCA75026B190A1176016B4B76026B32
:10027000210A9176006BC47670BD000010B54FF472
:10028000D872036802EB01129B5813F00404436B0D
:100290009C600468436BA45854D0E4085C60036815
:1002A0009A58436B02F00202DA604FF4DA72036884
:1002B00002EB01129B58446B03F00F0323610368A8
:1002C0009A58436BC2F30722DA614FF4DC72036879
:1002D00002EB01129B58446B237503689B58446BD7
:1002E0001B0A637503689B58446B1B0CA37503685A
:1002F0009A58436B120EDA754FF4DE72036802EB04
:1003000001129B58446B237603689B58446B1B0A6D
:10031000637603689B58446B1B0CA37603689A585A
:10032000436B120EDA762022002901680DD00A6193
:1003300001684A6922F010024A6190F838102229B7
:1003400009D021E0640D1C60A9E7CA6001684A6910
:1003500022F00202F0E701684A6922F480724A61E1
:1003600001684A6922F400724A6101684A6922F40C
:1003700080624A6101684A6922F400624A61016848
:100380004A6922F400424A6190F83810322907D0B5
:100390005FF0010180F8381000F0CEFB002010BDA6
:1003A0001221F7E710B5026B1160026B5160026B0E
:1003B00000219160026BD160026B082111610A215A
:1003C00000F036FC08B1002010BD012010BD10B5B2
:1003D00001684A6922F001024A6190F83810122936
:1003E00018D101684A6922F480724A6101684A6939
:1003F00022F400724A6101684A6922F480624A610B
:1004000001684A6922F400624A6101684A6922F47B
:1004100000424A6190F83810322906D0012180F854
:10042000381000F0CFFC002010BD2221F7E70000BB
:1004300010B5154800242DED028BB2EE041A9FED85
:10044000138ADFED138A04704470B0EE482AF0EE90
:10045000481AF0EE680AB0EE680A01F0E9FE0A48B0
:10046000B0EE482A7830F0EE481A04704470F0EE8E
:10047000680AB0EE680ABDEC028BB2EE041ABDE861
:10048000104001F0D5BE0000140200200000000062
:1004900000007A4410B504460D480E49007820B19A
:1004A00001280CD002280ED104E00B488088C0F54A
:1004B000806005E00888642210FB02F000E0002064
:1004C000488000F00BF8201DBDE8104001F03EBE52
:1004D0001F00002022000020FE01002010B5134C58
:1004E0002DED028BB4F902009FED118A00EE100A87
:1004F000DFED108A1048F8EEC00A80EE880A20EE80
:10050000280A01F01FFEB4F9020000EE100A0A48A2
:10051000B8EEC00A7830C0EE080A20EEA80ABDEC9A
:10052000028BBDE8104001F00DBE0000220000204B
:10053000000025440080BB451802002003788B543E
:10054000114443784B7082788A70C078C8707047C5
:1005500010B5124C50200122207021461048FFF7A0
:10056000EDFF0F4805222146001DFFF7E7FF0C486D
:10057000092221460830FFF7E1FF09480D222146F4
:100580000C30FFF7DBFF07480078607406480078FE
:10059000A07406480078E07410BD0000D00100206F
:1005A000000000201E00002020000020210000206C
:1005B0001E4801781E4851B19FED1E0A012930D016
:1005C000042903D180ED000A80ED010A70471A4921
:1005D0000A88A2F5806200EE102AB8EEC01A9FEDDC
:1005E000170AC1EE000A9FED161A60EE810AB6EEF8
:1005F000001A60EE810AC0ED020A4988A1F5806107
:1006000000EE901AF8EEE00A80EE801A9FED0D0AD7
:10061000F3EE040A21EE000A80EE201A80ED031AA0
:10062000704780ED020A80ED030A70471E0000202B
:100630000000002000000000FE0100200000254412
:100640000060EA4500204B4610B5FFF7B1FFFFF709
:100650007FFFC823BDE8104014220249024801F080
:100660003BBB0000D0010020F0000020014800F05A
:10067000F1BB00007001002001681823CAB2103AD3
:10068000B2FBF3F2054B6FF30901032A9B5CC365D0
:1006900000D9091D816508467047000088290008B7
:1006A00010B5014600208B698A6A4FF0C07453B1BF
:1006B000B3F5005F15D072B1012A0CD0022A0AD01E
:1006C000032A09D104E01AB1012A06D0022A03D173
:1006D000C96AC90100D5012010BDC96AA142FAD07A
:1006E00010BD002AF7D0012AF2D0022AF3D0032A43
:1006F000F3D010BD30B50468256825F48025256049
:10070000046863608368402B036803D099600068C5
:10071000C26030BD9A600068C16030BD7047012082
:1007200000F022BDF0B50A7D01209040344A1368E4
:1007300043F001031360136823F47C5313601368C0
:100740004C6A43EA042313602D4B1C331C6884431A
:100750001C602B4D2B4CCE690C35A6B92E688643F8
:100760002E608F894E6867F31F464F6904EBC707F9
:10077000C7F840660F890E6867F31F464F6904EBA0
:10078000C707C7F84466CE69012E14D12E68064308
:100790002E600E884D6866F31F454E6904EBC60651
:1007A000C6F840560E89CD6866F31F454E6904EBC6
:1007B000C604C4F84456124C8D69241D002D2568CA
:1007C00006D0054325600E4C0D69143415B104E0C4
:1007D0008543F7E72568854325600D69012D02D122
:1007E000256805432560096A012902D1196801437A
:1007F0001960106820F0010010600020F0BD0000BA
:1008000000660040006000407047000010B50446DC
:1008100000684169C943C90714D1826858499143A6
:1008200068D000218368574A9A4365D000228368C4
:100830005548984362D000201143014302D020461E
:10084000FFF7C5FD2068C168406911F0030FC0F3D0
:10085000400004D018B100212046FFF70FFD2168A9
:100860000869496910F0030FC1F3001104D019B1F0
:1008700001212046FFF702FD20688169426911F0DD
:10088000010FC2F300234269C2F3C03205D023B185
:100890001AB1E16B41F00101E1638169C1F34003E9
:1008A00041694269C1F34021C2F3C0322BB121B189
:1008B0001AB1E16B41F00201E16381694269C1F360
:1008C0008001C2F380234269C2F3C03229B123B14F
:1008D0001AB1E16B41F00401E163816911F0700F1D
:1008E0000ED0002142694369C2F3C022C3F3C03372
:1008F00041B127E0012195E7012298E701209BE71C
:100900000121EFE7F2B1EBB1816901F070014029FB
:1009100029D006DC102909D020290BD030290DD18F
:100920001DE0502923D0602908D124E0E16B41F07B
:10093000080102E0E16B41F01001E163816921F0FF
:1009400070018161E06B002808D0216804204860B4
:10095000012084F838002046FFF756FF10BDE16BF8
:1009600041F02001E9E7E16B41F04001E5E7E16B8F
:1009700041F08001E1E7E16B41F48071DDE70000C7
:100980000300000400030008000003102DE9F041FB
:10099000040004D094F83800002518B107E00120C5
:1009A000BDE8F08184F83950204600F093F8022029
:1009B00084F838002068016821F002010160206895
:1009C000016841F00101016000F0C0FC0746032608
:1009D00005E000BF00F0BAFCC01B0A2863D82068FD
:1009E0004068C007F6D020684168C90768D0A1698F
:1009F000012901683FD021F080010160E0690128F0
:100A0000206801683AD021F040010160206A012885
:100A10002068016835D021F020010160606A01285A
:100A20002068016830D021F010010160A06A01281F
:100A3000206801682BD021F008010160E06A0128DC
:100A40002068016826D021F004010160D4E9020188
:100A50000843D4E90412114308436168491E08435E
:100A60002168C8612068016821F00101016000F07F
:100A70006DFC07461CE041F08001BEE741F04001FB
:100A8000C3E741F02001C8E741F01001CDE741F094
:100A90000801D2E741F00401D7E700BF00F056FC9F
:100AA000C01B0A2804D904F8386F0320657077E763
:100AB00020684068C007F1D120684068C00703D0B3
:100AC000042084F838006AE7E563012084F83800E0
:100AD000002065E710B504460068144986B08842D6
:100AE00022D113480021026842F0007202600068BF
:100AF000022200F0007005900320CDE90210CDE93C
:100B000000020920049069460A4800F039FB0222DD
:100B10001146142000F0EAFC142000F0DCFC2068F0
:100B2000416941F00201416106B010BD006400401E
:100B300040380240000C02402DE9FC47044638488A
:100B400084426BD1606B8168002962D1C168002941
:100B50005FD100680025334EDFF8CC80334FA0F51D
:100B600000704FF40079013804D001280AD002281F
:100B70004FD129E02B49204601F092FA2948FFF78E
:100B800089FC2BE02949204601F08AFA2748FFF723
:100B900081FC98ED0C0A4946BDEEC00A10EE100A21
:100BA00000B2CDE9000597ED0C0ABDEEC00A10EECB
:100BB000100A96ED0C0A03B2BDEEC00A10EE100A40
:100BC00002B2204601F059FA1749204601F068FAAE
:100BD000154801F023F9144801F0FEF898ED0C0ACD
:100BE0004946BDEEC00A10EE100A00B2CDE900057C
:100BF00097ED0C0ABDEEC00A10EE100A96ED0C0A35
:100C000003B2BDEEC00A10EE100A02B2204601F097
:100C100034FA2068416941F002014161BDE8FC8776
:100C20007000002014020020040300208C02002029
:100C30002DE9F05F0E46016804468868400105D43E
:100C40008868000102D48868C00067D594F839002C
:100C500001280ED0012784F8397094F83800222832
:100C60000AD0122084F838008868400106D5002593
:100C70000AE00220BDE8F09F3220F3E78868000117
:100C800001D5012500E002254FF4C07000EB0510EE
:100C90000A5802F001020A50216B8A68EAB3D4F8BC
:100CA00000C05CF800301343CA68496842EAC101D9
:100CB0000B434CF80030216B0A7C02F00F020A61F2
:100CC0004FF4C271226801EB0511535823F00F0352
:100CD000535022685358D4F830C0DCF810C043EAAF
:100CE0000C035350216B4FF4C47303EB05130A7DBF
:100CF000D1F8151042EA01212268D150216B4FF43E
:100D0000C67303EB05130A7ED1F8191042EA0121DC
:100D10002268D15021680A5801E00DE046E042F017
:100D200001020A5000F012FB81464FF00008DFF884
:100D300088A0DFF888B019E022681358D1F80CC0F9
:100D4000098843EA0C0343EA41511150B3E7701C90
:100D50000CD02EB100F0FAFAA0EB0900B04205D990
:100D6000032084F8380084F8398083E795B120683F
:100D7000012D816813D0124888430028E7D194F8E8
:100D8000380032280ED084F8387000BF84F83980DB
:100D900000206FE7206881682AEA0100EDE72BEA6E
:100DA0000100EAE7222084F83800EFE7042084F805
:100DB000380001205EE70000030000040003000883
:100DC0000000031070472DE9F0410446876D00F0E4
:100DD000BDFA064694F835000025022806D080208A
:100DE000606584F834500120BDE8F0812068016816
:100DF00021F0160101602068416921F08001416104
:100E0000206C08B9A06C20B12068016821F00801AD
:100E100001602068016821F0010101600BE000F031
:100E200095FA801B052806D92020606504F8345FF8
:100E300003206070D8E720680068C007EFD194F8FD
:100E40005C103F208840B86004F8345F0120607077
:100E50000020C9E72DE9F84304464FF00008CDF81B
:100E6000008064484FF41651A56D0068B0FBF1F79F
:100E70002E6894F85C10082000FA01F131420FD07E
:100E800021680A6852070BD50A6822F004020A603A
:100E900094F85C108840A860606D40F001006065C7
:100EA00094F85C1054488840304208D02168496961
:100EB000090604D5A860606D40F0020060654E48E8
:100EC00094F85C10C01C8840304208D02168096842
:100ED000890704D5A860606D40F00400606594F84F
:100EE0005C1010208840304218D02168096809073A
:100EF00014D5A86020680168490304D50068000380
:100F000008D5A16C07E00168C90503D4016821F088
:100F100008010160216C09B12046884794F85C10F3
:100F20002020884030424FF0010631D02168096806
:100F3000C9062DD5A86094F83500052820680168F9
:100F400006D0490347D5006800031DD4616C1CE03E
:100F500021F0160101602068416921F080014161A2
:100F6000206C08B9A06C20B12068016821F008014C
:100F7000016094F85C103F208840A86084F83480B9
:100F800084F83560216D1FE0E16B09B12046884788
:100F9000606D00282BD0606DC00714D0052084F848
:100FA00035002068016821F0010101600098401CB3
:100FB0000090B84203D820680068C007F6D184F8D2
:100FC000348084F83560E16C002910D001B02046EF
:100FD000BDE8F04308470168C905D5D4016821F090
:100FE0001001016084F8348084F83560CCE7BDE8F6
:100FF000F883000014000020010080002DE9F0417A
:10100000044600F0A3F906465CB1002584F834508C
:10101000022084F835002068016821F00101016098
:101020000DE00120BDE8F08100F090F9801B05285B
:1010300005D920206065032084F83500F2E7206898
:101040000068C007F0D1226811681F480140D4E948
:1010500001031843D4E90336334318436369184343
:10106000A3691843E3691843236A18430843616A74
:10107000042903D1D4E90B131943084310602068F5
:101080004069666A20F0070130460E4301270428B4
:101090000AD1A06A06432046FFF702FB20B1402098
:1010A000606584F83570BCE7206846612046FFF72C
:1010B000E3FA94F85C203F2191408160656584F8F3
:1010C00035700020AEE700003F8010F02DE9F041C0
:1010D0000446866D90F83400002501280DD00120CB
:1010E00084F8340094F835700020012F07D084F87C
:1010F000340002252846BDE8F0810220FBE70227E4
:1011000084F8357060652046FFF7F4FA94F85C10B7
:101110003F208840B0602068016841F016010160FE
:101120002068416941F080014161206C20B1206854
:10113000016841F0080101602068016841F0010187
:101140000160D7E7012809D105480078022801D0BD
:10115000032803D1034801884942018070470000F9
:101160001F00002022000020044910B50A68024236
:1011700002D00860FFF7E6FF10BD0000143C0140FC
:101180002DE9F84FDFF890B100224FF001084FF041
:10119000030A4FF00F090BF1040E00BF0B6808FAA9
:1011A00002F42340A3426ED14D68022D01D0122DCE
:1011B0000ED1D50800EB850CDCF820505607F70E51
:1011C00009FA07F6B5430E69BE402E43CCF82060FD
:1011D000066855000F790AFA05FC07F0030726EAAE
:1011E0000C06AF40374307604E68012E05D0022E33
:1011F00003D0112E01D0122E0ED18768CE6827EAB7
:101200000C07AE403E4386604668A6430C79C4F3A3
:101210000014944034434460C4688E6824EA0C048B
:10122000AE402643C6604C68E4006FD53B4C256851
:1012300045F480452560246822F0030504F48044C9
:101240000094374C2E19D6F8084895072F0F09FA45
:1012500007F5AC43334DA84201D100252EE0324DB5
:10126000A84201D1012529E0304DA84201D1022533
:1012700024E02F4DA84201D103251FE02D4DA842A7
:1012800002D104251AE041E02B4DA84201D10525E9
:1012900014E02A4DA84201D106250FE0284DA842AE
:1012A00001D107250AE0274DA84201D1082505E014
:1012B000254DA84201D1092500E00A25BD4025435E
:1012C000C6F80858DBF800405D464E689C43F603BC
:1012D00000D51C432C60DEF8004075464E689C43E8
:1012E000B60300D51C432C600B4D08352C684E68A6
:1012F0009C43F60200D51C432C60074D0C352C682E
:101300004E689C43B60200D51C432C60521C102A28
:10131000FFF444AFBDE8F88F003C01404438024080
:10132000003001400000024000040240000802407A
:10133000000C02400010024000140240001802405D
:10134000001C0240002002400024024001480068C6
:10135000704700001000002002480168491C01602D
:1013600070470000100000200B4810B5016841F4E0
:1013700000710160016841F480610160016841F41D
:1013800080710160032000F0D1F8002000F006F821
:1013900000F018F8002010BD003C024010B50446D3
:1013A00007484FF47A710068B0FBF1F000F07DFB64
:1013B00000222146501E00F099F8002010BD0000C8
:1013C000140000201F4808B5016841F48041016005
:1013D000006800F4804000901A48001F016841F046
:1013E00080510160006800F080500090052000F0FE
:1013F0009DF8002211466FF00B0000F077F80022F4
:1014000011466FF00A0000F071F8002211466FF0EB
:10141000090000F06BF800221146501F00F066F83A
:1014200000221146101F00F061F800221146901EA4
:1014300000F05CF80022BDE808401146501E00F0A4
:1014400055B80000443802402DE9F04116460F46D9
:10145000040004D094F83900002518B107E00120F9
:10146000BDE8F08184F83850204600F063FB24206A
:1014700084F839002068C16821F40051C160204619
:1014800001F0BCF82068016921F4904101612068F5
:10149000416921F02A0141612068016921F00F01B1
:1014A000016120680169394301612068C16821F444
:1014B0000061C1602068C1683143C1602068C168B3
:1014C00041F40051C160E563202084F8390084F8BC
:1014D0003A000020C4E700F01F02012191404009BA
:1014E000800000F1E020C0F800117047F0B40E4B0E
:1014F0001B680C46C3F30223C3F10705042D00D972
:101500000425191D072901D2002300E0DB1E012656
:1015100006FA05F1491E214099409E40761E16406C
:101520003143F0BC00F0A9BE0CED00E0064900F02C
:10153000070208684FF6FF03184040EA0220034AFA
:1015400010430860704700000CED00E00000FA0551
:101550002DE9F047DFF8649105460F46D9F8000001
:1015600000F00F01F8B28046B94208D2014689F86E
:101570000010D9F8000000F00F00B84274D12878AC
:101580004F4C800705D52068A96820F0F00008437B
:1015900020602878C00759D049496868083901286F
:1015A0001AD002281BD0032819D0096889070029FE
:1015B0005ADA216821F0030101432160FFF7C6FEDA
:1015C0006968064641F28830012911D002291DD0F0
:1015D0000329824627D035E009688903E7E70968CF
:1015E0008901E4E7FFF7B2FE811B514501D926E0EE
:1015F00082462068C0F381000128F3D126E000BFB5
:10160000FFF7A4FE811B514501D918E082462068EE
:10161000C0F381000228F3D118E000BFFFF796FE67
:10162000811B51450BD82068C0F381000328F5D1F8
:101630000CE000BFFFF78AFE811B514502D9032051
:10164000BDE8F087206810F00C0FF3D1D9F8001036
:10165000484601F00F01B94208D980F800800068BF
:1016600000F00F00B84201D00120E9E728784007D8
:1016700005D52068E96820F4E05008432060287808
:10168000000706D52068296920F4604040EAC100BF
:10169000206000F051F82168F02292FAA2F201F0E5
:1016A000F001B2FA82F2D140064A515CC8400649C4
:1016B00008600020FFF772FE0020C1E7003C0240F6
:1016C000083802407829000814000020014800680A
:1016D00070470000140000200848094900680968A4
:1016E0004FF4E05292FAA2F201F4E051B2FA82F21F
:1016F000D140044A515CC8407047000014000020EB
:101700000838024078290008084809490068096833
:101710004FF4604292FAA2F201F46041B2FA82F20E
:10172000D140044A515CC8407047000014000020BA
:10173000083802407829000830B51948006810F0D0
:101740000C01184812D0184C04290ED008290DD1CC
:101750001349091F0A6802F03F030A68550247F659
:10176000C07204D5B4FBF3F003E0204630BDB0FBFB
:10177000F3F00B680968134092FAA2F2B2FA82F20F
:10178000D34058434FF4403292FAA2F201F4403170
:10179000B2FA82F2D140491C4900B0FBF1F030BDF1
:1017A000083802400024F400001BB7002DE9F84F70
:1017B0000446DFF8CC820078A8F1040BC007ABF137
:1017C000040537D0D8F800104046C1F38101012943
:1017D00008D00068C0F3810002280AD1DBF80000BD
:1017E000400206D52868800324D56068002878D098
:1017F00020E0A3492079891F0870606868B1FFF76D
:10180000A5FD064605E000BFFFF7A0FD801B64288C
:1018100068D828688003F7D50CE0FFF797FD0646E7
:1018200005E000BFFFF792FD801B6428F0D8286810
:101830008003F7D42078934E80074FF0010A4FF0D1
:10184000000742D5D8F80010404611F00C0F08D020
:101850000068C0F3810002280AD1DBF800004002D2
:1018600006D42868800714D5E068012839D110E033
:10187000E068D8B1C6F800A0FFF768FD814605E032
:10188000FFF764FDA0EB09000228C1D82868800793
:10189000F6D52868F82292FAA2F22169B2FA82F209
:1018A00020F0F8009140084328600EE03760FFF711
:1018B0004DFD814606E000BFFFF748FDA0EB0900A3
:1018C00002280FD828688007F6D42078000728D58A
:1018D0006D486169A1B1C0F800A0FFF737FD8146EE
:1018E00008E0CAE079E000BFFFF730FDA0EB090097
:1018F000022872D862486C3000688007F4D510E086
:101900000760FFF723FD814606E000BFFFF71EFDDD
:10191000A0EB0900022860D859486C3000688007A5
:10192000F4D42078400749D555483830016841F053
:1019300080510160006800F08050009053480168B9
:1019400041F480710160FFF701FD814606E000BFB0
:10195000FFF7FCFCA0EB090002283ED84B480068CA
:10196000C005F5D5DFF81891207A09F1680989F8E2
:101970000000A06888B1FFF7E9FC009008E000BF14
:10198000FFF7E4FC0099411A41F2883081426CD89B
:10199000D9F800008007F3D510E0FFF7D7FC0090DE
:1019A00008E000BFFFF7D2FC0099411A41F28830ED
:1019B00081425AD8D9F800008007F3D4A069E0B377
:1019C000D8F80010C1F38101022956D002283766E9
:1019D00004D0FFF7BBFC04464AE046E0FFF7B6FC44
:1019E000074604E0FFF7B2FCC01B02283DD8286878
:1019F0008001F7D4D4E90701084347F6C07292FA90
:101A0000A2F2616AB2FA82F29140A26A4FF0FF3309
:101A100003EB52024FF4403393FAA3F3B3FA83F388
:101A20009A40114308434FF0706292FAA2F2E16AC1
:101A3000B2FA82F29140084300E01CE0CBF80000CB
:101A4000C6F860A0FFF782FC044604E0FFF77EFCC6
:101A5000001B022809D828688001F7D50BE000BFD9
:101A6000FFF774FC001B022802D90320BDE8F88FA1
:101A700028688001F4D40020F8E70120F6E7000090
:101A80000838024000004742800E47420070004084
:101A90004FF0E0210428086903D020F00400086119
:101AA000704740F00400FAE7704710B5401EB0F1EF
:101AB000807F01D3012010BD4FF0E02460610F2131
:101AC000601700F0DAFB0020A061072020610020F1
:101AD00010BD10B5FFF7E8FF10BD10B50446006853
:101AE000416994F83920C1F3C011212A0BD151B1B9
:101AF000416921F080014161206B08B1FFF763F972
:101B0000204600F071FD2068416994F83A20C1F345
:101B10008011222A0BD151B1416921F0400141616C
:101B2000606B08B1FFF74FF9204600F04FFD002031
:101B300010BD7047F0B50646DFF8D8C00368002531
:101B4000354A022003210827344C87B0634510D161
:101B5000136843F0804313601268CDE9025102F02C
:101B600080420592CA01CDE90020049769462046CB
:101B700012E0DFF8ACC0634512D1136843F00043B4
:101B800013601268CDE9001002F00042CDE9025165
:101B9000CDE9047269462046FFF7F2FA07B0F0BDBE
:101BA000204A9342FAD11C4A121D136843F01003D5
:101BB00013601268029502F010020592C022CDE96E
:101BC00000200720CDE9031069461748FFF7D8FA2F
:101BD000174C164820604FF00060C4E9010540141E
:101BE000C4E903506561A561E5612562204665622F
:101BF000FFF704FA18B1C2210EA000F08FFE746343
:101C0000022201212520A663FFF770FC2520FFF7A3
:101C100062FCC3E7007800404038024000100240F8
:101C2000007C00400010014000040240406402407B
:101C3000700100202E2E2F5372632F757361727402
:101C40002E63000070B5044690F83A00202839D180
:101C5000A9B3A2B394F83800012833D0012084F846
:101C60003800A162A2850025E563222084F83A00AD
:101C7000636B1548D863636B14481864636B14482E
:101C8000D864606B134605650846666B216802469A
:101C90003046091DFFF71AFA2068C16841F48071C7
:101CA000C1602068416941F00101416120684169DA
:101CB00041F04001416184F83850002070BDFFE7D9
:101CC0000120FBE70220F9E787250008C32500086B
:101CD0003D250008704770472DE9F843044690F809
:101CE00039001E4617460D46202850D135B32FB374
:101CF00094F8380001284AD0012084F838004FF0C9
:101D00000008C4F83C80212084F83900FFF71EFB4E
:101D1000A784E78481464FF48057E08C4B46401EF1
:101D2000E084A0684FF00002B8424FF080012046E6
:101D3000009611D100F0B8FD00BB02E00120BDE823
:101D4000F8832888C0F3080120684160206908B141
:101D50006D1C08E0AD1C06E000F0A6FD70B921681E
:101D600015F8010B4860E08C0028D6D14B460022C4
:101D700040212046009600F097FD08B10320DEE7E1
:101D8000202084F8390084F838800020D7E702202A
:101D9000D5E7FEE70C4910B501209FED0C0A08704D
:101DA0004870B7EE082AF7EE001AB3EE041AF0EE08
:101DB000400A084600F03CFA054808219FED050A54
:101DC000817080ED010A10BD0403002000009643DD
:101DD0002800002000007AC510B504460C48817820
:101DE000072910D008290BD009290FD19FED090A26
:101DF000201D00F0A7F9201DBDE8104000F0A6B995
:101E000090ED010AF4E79FED040AF1E710BD000030
:101E1000280000200000FA430000000014490022BE
:101E20008B78082B0BD0092B08D14878401CC0B206
:101E30004870C82802D3082088704A70704790ED17
:101E4000020AB5EEC00AF1EE10FA0ED090ED030AC8
:101E5000B5EEC00AF1EE10FA07D10878401CC0B206
:101E600008700528EAD3092088700A7070470000BE
:101E700028000020114810B50F490160022141607F
:101E800000214FF450228160C0E903124FF4A002F8
:101E9000C0E905210122C161C0E90812C0E90A12A6
:101EA000FEF774FD002805D0BDE81040552104A0C0
:101EB00000F034BD10BD0000006400407000002040
:101EC0002E2E2F5372632F63616E2E63000000006D
:101ED000094808B5016841F48001016000680222E8
:101EE00000F48000009001213A20FFF7FFFABDE8DE
:101EF00008403A20FFF7EFBA303802401E4800B5DC
:101F0000016887B041F010010160016801F0100123
:101F10000591016841F002010160016801F00201D0
:101F20000591016841F008010160016801F00801B4
:101F30000591016841F080010160016801F08001B4
:101F40000591016841F00101016000680B4900F052
:101F5000010005900120CDE9000102906946084882
:101F6000FFF70EF9022200210620FFF7BFFA062034
:101F7000FFF7B1FA07B000BD303802400000211071
:101F8000000002400E4810B50C4901604FF4E131E9
:101F90004160002181600C22C160C0E904128161AE
:101FA0000A46C161FFF750FA002805D0BDE810408D
:101FB000452104A000F0B2BC10BD00000078004034
:101FC000B00000202E2E2F5372632F757361727430
:101FD0002E6300000E4810B50C4901604FF4E1314A
:101FE0004160002181600C22C160C0E9041281615E
:101FF0000A46C161FFF728FA002805D0BDE8104065
:10200000572104A000F08ABC10BD0000007C0040F5
:10201000F00000202E2E2F5372632F75736172749F
:102020002E6300000E4810B50C4901600D49416057
:1020300000214FF480628160C0E903120422C0E9EC
:1020400005210A46C161FFF7FFF9002805D0BDE868
:1020500010406A2104A000F061BC10BD00100140D6
:1020600030010020A08601002E2E2F5372632F75A1
:10207000736172742E630000FEE7F8B51E460546D4
:10208000DDE9063017460C460090324639462846B0
:10209000FEF7DCF821462846BDE8F840FEF782B995
:1020A00091ED110A1E4B81ED120A426B928A52BACF
:1020B00012B200EE902AF8EEE00AC1ED110A406B70
:1020C00030EEC00ADFED170AC08A40BA00B201EE56
:1020D000100A1548B8EEC11A81ED031A4A78012A90
:1020E00001D0002A12D110EE102A9A420FDD30EEF4
:1020F000600A91ED101A00BF31EE000A04E000BF43
:10210000D1ED100A30EE800A81ED100A704710EE12
:10211000102A8242F4D991ED101A30EE200AEBE732
:1021200000F87F4500F8FF4500F87FC5044801210D
:10213000417081700721C170052101717047000055
:102140001D00002080ED010A70470000D0ED010A5B
:1021500090ED031A90ED000A70EEC11AF4EEC01A69
:10216000F1EE10FA02DD30EE010A0AE090ED041AF9
:1021700070EE811AF4EEC01AF1EE10FA04D230EECD
:10218000410A80ED000A03E0C0ED000A90ED000A6C
:10219000D0ED020A224A30EE600A80ED090AD0ED45
:1021A0000A0A30EE601AD0ED080A70EE800A10EECE
:1021B000901AC0ED080A914203DBDFED1A0AC0ED68
:1021C000080A10EE901A184A914203D3DFED170A5D
:1021D000C0ED080AD0ED050AD0ED081A20EE800AFD
:1021E000D0ED060A00EEA10AD0ED070A00EE810A42
:1021F00080ED0B0AD0ED0D0AB4EEE00AF1EE10FA14
:1022000002DAF0EE400A01E0C0ED0B0A90ED0C0A94
:10221000F4EEC00AF1EE10FA01D880ED0B0A704717
:1022200000401C4600401C4600401CC600401CC626
:10223000DFED0E2A00F11001C0ED022AC0ED012AE7
:1022400081EC060AC0ED0A2AC0ED0B2AC0ED0C2A6B
:1022500041789FED070ADFED070A012901D0002927
:1022600003D180ED0D0AC0ED0E0A7047000000009A
:1022700000606AC600606A4670470907090E0028B8
:1022800006DA00F00F0000F1E02080F8141D70471E
:1022900000F1E02080F8001470477047002834D027
:1022A0000188C1F30A0219490A8042788378D2086A
:1022B00042EA4312C2F30A024A808278C378920942
:1022C00042EA8302037942EA8322C2F30A028A8045
:1022D00002794379520842EAC312C2F30A02CA8061
:1022E000427992090A724279C2F301124A72C28893
:1022F0004A8102898A814289CA81027B0A74427BAF
:102300004A74C089488200F065B87047FE01002019
:1023100038B52049012008701F4800680168C9438A
:10232000C90635D40168406800901C4801684068BF
:102330001B4C1C4A4FF400102168914202D91949E4
:102340004C3904E0184A914203D9164950390860C3
:1023500008E0154B144A603BB83A994201D9D06065
:1023600000E090600C48FFF7B8FB206840680F4C15
:10237000C0F11400142220600D490748FFF762FCE9
:102380002068122804D1BDE838400948FFF786BF0D
:1023900038BD00001C00002030010020001001406A
:1023A0007001002058640240B8600240180000200C
:1023B000E901002005480068C16841F01001C160D2
:1023C000142203490148FFF73DBC00003001002002
:1023D000E901002070B5144C1448154923780122F6
:1023E0004BB1144D00232E7A012E07D0022E09D0B6
:1023F000032E09D104E002700A7070BD022602E0CB
:10240000037001E003260670687A012804D00228D0
:1024100007D0032806D102E00420087002E00B7008
:1024200000E00A70237070BD1C0000201F00002017
:102430001E000020FE010020704710B5FEF78CFF43
:10244000BDE81040FFF745BB30B5254893B00025E7
:10245000016841F080510160006800F080501190E7
:102460002048016841F4404101600068022400F402
:10247000404011900120009001908005CDE9064078
:102480000C2008904FF4A870CDE9090404200B90AB
:102490006846FFF78BF900B1FEE70CA90F2081E831
:1024A00031004FF4A0500F904FF480501090052150
:1024B0000CA8FFF74DF800B1FEE7FFF707F94FF45E
:1024C0007A71B0FBF1F0FFF7F0FA0420FFF7E0FAC1
:1024D00000221146501EFFF709F813B030BD00006E
:1024E00040380240007000401048016841F470011B
:1024F00001600F48016841F0010101600C4A0021B0
:102500000832116002680B4B1A400260031D0A4A30
:102510001A60026822F48022026005480C300160D3
:1025200002495806803908607047000088ED00E0D5
:1025300000380240FFFFF6FE1030002470B5846BB7
:102540002068406994F83910C0F3C0100025212993
:1025500004D118B1E584204600F046F820684069AF
:1025600094F83A10C0F38010222904D118B1E585FF
:10257000204600F02BF8E06B40F01000E0632046AE
:10258000FFF7D7FA70BD10B50146806B096809687E
:10259000C90513D40021C1850168CA6822F480727C
:1025A000CA6001684A6922F001024A6101684A6909
:1025B00022F040024A61202180F83A10FFF78AFB9E
:1025C00010BD10B5806BFFF786FB10BD0168CA68AF
:1025D00022F49072CA6001684A6922F001024A61DD
:1025E000202180F83A1070470168CA6822F0C002C2
:1025F000CA60202180F83910704700002DE9F041B1
:1026000004460068016921F44052E1681143016108
:102610002168C86849F20C6290432369A268E569A1
:102620001A4363692B431A430243CA60216848690D
:1026300020F44072A06910434861E1696425B1F556
:10264000004F9748974A21684FF032083FD0914297
:1026500001D081427CD1FFF757F800EBC00101EBBC
:10266000001061688900B0FBF1F6FFF74DF800EB50
:10267000C00101EB001061688900B0FBF1F0B0FB14
:10268000F5F06FF01801484306EB800108EB0110EC
:10269000B0FBF5F000F0F006FFF736F800EBC001F4
:1026A00001EB001061688900B0FBF1F0B0FBF5F0C0
:1026B00006EB0016FFF728F800EBC00101EB001055
:1026C00061688900B0FBF1F7FFF71EF8D2E0914294
:1026D00001D081423DD1FFF717F800EBC00101EBBB
:1026E000001061684900B0FBF1F0B0FBF5F00601A5
:1026F000FFF70AF800EBC00101EB00106168490028
:10270000B0FBF1F7FFF700F800EBC00101EB0010A0
:1027100061684900B0FBF1F0B0FBF5F06FF0180113
:10272000484307EB800108EBC100B0FBF5F000F077
:10273000F80006EB4006FEF7E7FF00EBC00101EBF7
:10274000001061684900B0FBF1F7FEF7DDFF3CE0E7
:1027500055E0FEF7C1FF00EBC00101EB001061681E
:102760004900B0FBF1F0B0FBF5F00601FEF7B4FF55
:1027700000EBC00101EB001061684900B0FBF1F70C
:10278000FEF7AAFF00EBC00101EB001061684900F1
:10279000B0FBF1F0B0FBF5F06FF01801484307EB28
:1027A000800108EBC100B0FBF5F000F0F80006EB8B
:1027B0004006FEF791FF00EBC00101EB00106168DD
:1027C0004900B0FBF1F7FEF787FF00EBC00101EB1A
:1027D000001061684900B0FBF1F0B0FBF5F06FF05C
:1027E0001801484307EB800108EBC100B0FBF5F08E
:1027F00000F00700216830448860BDE8F081FEF7F2
:102800006BFF00EBC00101EB001061688900B0FBB9
:10281000F1F6FEF761FF00EBC00101EB001061680B
:102820008900B0FBF1F0B0FBF5F06FF01801484300
:1028300006EB800108EB0110B0FBF5F000F0F006AC
:10284000FEF74AFF00EBC00101EB00106168890050
:10285000B0FBF1F0B0FBF5F006EB0016FEF73CFF25
:1028600000EBC00101EB001061688900B0FBF1F7DB
:10287000FEF732FF00EBC00101EB00106168890038
:10288000B0FBF1F0B0FBF5F06FF01801484307EB37
:10289000800108EB0110B0FBF5F000F00F00A9E794
:1028A00000140140001001402DE9F0419846174600
:1028B0000E460446069D1DE0681C1BD02DB1FEF798
:1028C00045FDA0EB0800A84214D92068C16821F496
:1028D000D071C1602068416921F00101416120206F
:1028E00084F8390084F83A00002084F83800032086
:1028F000BDE8F0812068006836EA000004D00020BE
:10290000B842D9D00020F3E70120F9E710B5FFF76E
:10291000FFFCBDE81040FDF797BEFEE7FEE702E0D2
:1029200008C8121F08C1002AFAD17047704700205A
:1029300001E001C1121F002AFBD17047FEF714FD10
:10294000FFF782FDFFF7DAFAFFF7C2FAFFF792FA14
:10295000FFF768FBFFF716FBFFF73CFBFFF7E6FB13
:10296000FFF728FDFDF764FDFFF714FA0148FDF7B6
:1029700053FCFEE770000020000000000102030489
:1029800001020304060708090006101600061016C7
:10299000B029000800000020300000001E290008B7
:1029A000E029000830000020500700002E29000810
:1029B0000000000000000000000000000000000017
:1029C000000000000024F4000000000000000000EF
:1029D0000000FFFF000000000000000000000000F9
:04000005080001AD41
:00000001FF
